{
	"data": {
		"bytecode": {
			"linkReferences": {},
			"object": "6080604052600c805460ff19169055600060108190556011553480156200002557600080fd5b50604051620044aa380380620044aa833981016040819052620000489162000260565b6040805180820182526008815267155b589b0813919560c21b6020808301918252835180850190945260048452631553509360e21b9084015281519192916200009491600091620001ba565b508051620000aa906001906020840190620001ba565b505050620000c7620000c1620000de60201b60201c565b620000e2565b6001600b55620000d78162000134565b506200038f565b3390565b600a80546001600160a01b038381166001600160a01b0319831681179093556040519116919082907f8be0079c531659141344cd1fd0a4f28419497f9722a3daafe3b4186f6b6457e090600090a35050565b600a546001600160a01b03163314620001935760405162461bcd60e51b815260206004820181905260248201527f4f776e61626c653a2063616c6c6572206973206e6f7420746865206f776e6572604482015260640160405180910390fd5b6200019e81620001a1565b50565b8051620001b690600f906020840190620001ba565b5050565b828054620001c8906200033c565b90600052602060002090601f016020900481019282620001ec576000855562000237565b82601f106200020757805160ff191683800117855562000237565b8280016001018555821562000237579182015b82811115620002375782518255916020019190600101906200021a565b506200024592915062000249565b5090565b5b808211156200024557600081556001016200024a565b600060208083850312156200027457600080fd5b82516001600160401b03808211156200028c57600080fd5b818501915085601f830112620002a157600080fd5b815181811115620002b657620002b662000379565b604051601f8201601f19908116603f01168101908382118183101715620002e157620002e162000379565b816040528281528886848701011115620002fa57600080fd5b600093505b828410156200031e5784840186015181850187015292850192620002ff565b82841115620003305760008684830101525b98975050505050505050565b600181811c908216806200035157607f821691505b602082108114156200037357634e487b7160e01b600052602260045260246000fd5b50919050565b634e487b7160e01b600052604160045260246000fd5b61410b806200039f6000396000f3fe6080604052600436106102255760003560e01c806370a0823111610123578063af055820116100ab578063c87b56dd1161006f578063c87b56dd146106a2578063cb9953e7146106c2578063e119248e146106d8578063e985e9c5146106ed578063f2fde38b1461073657600080fd5b8063af055820146105cf578063b38d817c146105e6578063b88d4fde1461064f578063b99a15f81461066f578063c717e8ea1461068257600080fd5b80638da5cb5b116100f25780638da5cb5b146105495780639016617c14610567578063955a66151461057a57806395d89b411461059a578063a22cb465146105af57600080fd5b806370a08231146104de578063715018a6146104fe57806375794a3c146105135780638462151c1461052957600080fd5b80632d296bf1116101b15780634f6ccce7116101755780634f6ccce71461045657806355f804b314610476578063594455f51461049657806362e8e8ac146104ab5780636352211e146104be57600080fd5b80632d296bf1146103b65780632f745c59146103c9578063406b9872146103e957806342842e0e14610409578063483331131461042957600080fd5b80631280cb62116101f85780631280cb62146102db57806318160ddd146103485780631d4175a51461036757806323b872dd146103815780632d21a464146103a157600080fd5b806301ffc9a71461022a57806306fdde031461025f578063081812fc14610281578063095ea7b3146102b9575b600080fd5b34801561023657600080fd5b5061024a610245366004613a04565b610756565b60405190151581526020015b60405180910390f35b34801561026b57600080fd5b50610274610767565b6040516102569190613ce7565b34801561028d57600080fd5b506102a161029c366004613a87565b6107f9565b6040516001600160a01b039091168152602001610256565b3480156102c557600080fd5b506102d96102d43660046139da565b610886565b005b3480156102e757600080fd5b506103366102f6366004613a87565b600d6020526000908152604090208054600182015460029092015490919060ff808216916101008104821691620100008204811691630100000090041686565b60405161025696959493929190613e94565b34801561035457600080fd5b506008545b604051908152602001610256565b34801561037357600080fd5b50600c5461024a9060ff1681565b34801561038d57600080fd5b506102d961039c3660046138e6565b61099c565b3480156103ad57600080fd5b506102d96109cd565b6102d96103c4366004613a87565b610a03565b3480156103d557600080fd5b506103596103e43660046139da565b610c6f565b3480156103f557600080fd5b506102d9610404366004613ac2565b610d05565b34801561041557600080fd5b506102d96104243660046138e6565b611187565b34801561043557600080fd5b50610449610444366004613a87565b6111a2565b6040516102569190613ca3565b34801561046257600080fd5b50610359610471366004613a87565b6112c2565b34801561048257600080fd5b506102d9610491366004613a3e565b611355565b3480156104a257600080fd5b50610359606481565b6102d96104b9366004613aa0565b61138b565b3480156104ca57600080fd5b506102a16104d9366004613a87565b6115cc565b3480156104ea57600080fd5b506103596104f9366004613898565b611643565b34801561050a57600080fd5b506102d96116ca565b34801561051f57600080fd5b5061035960105481565b34801561053557600080fd5b50610449610544366004613898565b611700565b34801561055557600080fd5b50600a546001600160a01b03166102a1565b6102d9610575366004613a87565b6117bf565b34801561058657600080fd5b506102d9610595366004613a87565b612063565b3480156105a657600080fd5b506102746120ba565b3480156105bb57600080fd5b506102d96105ca36600461399e565b6120c9565b3480156105db57600080fd5b50610359620186a081565b3480156105f257600080fd5b5061063d610601366004613a87565b600e6020526000908152604090208054600182015460028301546003840154600485015460069095015493949293919260ff9182169290911686565b60405161025696959493929190613efc565b34801561065b57600080fd5b506102d961066a366004613922565b61218e565b6102d961067d366004613aa0565b6121c6565b34801561068e57600080fd5b506102d961069d366004613ba0565b612426565b3480156106ae57600080fd5b506102746106bd366004613a87565b612ae5565b3480156106ce57600080fd5b5061035960115481565b3480156106e457600080fd5b506102d9612b3a565b3480156106f957600080fd5b5061024a6107083660046138b3565b6001600160a01b03918216600090815260056020908152604080832093909416825291909152205460ff1690565b34801561074257600080fd5b506102d9610751366004613898565b612b73565b600061076182612c0b565b92915050565b60606000805461077690613fd7565b80601f01602080910402602001604051908101604052809291908181526020018280546107a290613fd7565b80156107ef5780601f106107c4576101008083540402835291602001916107ef565b820191906000526020600020905b8154815290600101906020018083116107d257829003601f168201915b5050505050905090565b600061080482612c30565b61086a5760405162461bcd60e51b815260206004820152602c60248201527f4552433732313a20617070726f76656420717565727920666f72206e6f6e657860448201526b34b9ba32b73a103a37b5b2b760a11b60648201526084015b60405180910390fd5b506000908152600460205260409020546001600160a01b031690565b6000610891826115cc565b9050806001600160a01b0316836001600160a01b031614156108ff5760405162461bcd60e51b815260206004820152602160248201527f4552433732313a20617070726f76616c20746f2063757272656e74206f776e656044820152603960f91b6064820152608401610861565b336001600160a01b038216148061091b575061091b8133610708565b61098d5760405162461bcd60e51b815260206004820152603860248201527f4552433732313a20617070726f76652063616c6c6572206973206e6f74206f7760448201527f6e6572206e6f7220617070726f76656420666f7220616c6c00000000000000006064820152608401610861565b6109978383612c4d565b505050565b6109a63382612cbb565b6109c25760405162461bcd60e51b815260040161086190613e01565b610997838383612da5565b600a546001600160a01b031633146109f75760405162461bcd60e51b815260040161086190613d9e565b600c805460ff19169055565b600c5460ff161515600114610a2a5760405162461bcd60e51b815260040161086190613e52565b33610a3457600080fd5b610a3d81612c30565b610a4657600080fd5b6000610a51826115cc565b90506001600160a01b038116610a6657600080fd5b6001600160a01b038116331415610a7c57600080fd5b6000828152600d60209081526040808320815160c081018352815481526001820154938101939093526002810154909183019060ff166004811115610ac357610ac3614067565b6004811115610ad457610ad4614067565b81526020016002820160019054906101000a900460ff166003811115610afc57610afc614067565b6003811115610b0d57610b0d614067565b81526020016002820160029054906101000a900460ff166007811115610b3557610b35614067565b6007811115610b4657610b46614067565b81526020016002820160039054906101000a900460ff16600c811115610b6e57610b6e614067565b600c811115610b7f57610b7f614067565b8152505090508060200151341015610b9657600080fd5b600281604001516004811115610bae57610bae614067565b14610bb857600080fd5b610bc3823385612da5565b816000610bd8600a546001600160a01b031690565b90506000610be7600a34613f80565b90506000610bf58234613f94565b6040519091506001600160a01b0384169083156108fc029084906000818181858888f19350505050158015610c2e573d6000803e3d6000fd5b506040516001600160a01b0385169082156108fc029083906000818181858888f19350505050158015610c65573d6000803e3d6000fd5b5050505050505050565b6000610c7a83611643565b8210610cdc5760405162461bcd60e51b815260206004820152602b60248201527f455243373231456e756d657261626c653a206f776e657220696e646578206f7560448201526a74206f6620626f756e647360a81b6064820152608401610861565b506001600160a01b03919091166000908152600660209081526040808320938352929052205490565b600a546001600160a01b03163314610d2f5760405162461bcd60e51b815260040161086190613d9e565b6002600b541415610d825760405162461bcd60e51b815260206004820152601f60248201527f5265656e7472616e637947756172643a207265656e7472616e742063616c6c006044820152606401610861565b6002600b558415801590610d97575060648511155b610ded5760405162461bcd60e51b815260206004820152602160248201527f4d75737420696e636c7564652066726f6d203120746f2031303020746f6b656e6044820152607360f81b6064820152608401610861565b60008111610e3d5760405162461bcd60e51b815260206004820152601f60248201527f5072696365206d7573742062652067726561746572207468616e207a65726f006044820152606401610861565b60018410158015610e4f575060028411155b610e6b5760405162461bcd60e51b815260040161086190613d4c565b6000825111610ec75760405162461bcd60e51b815260206004820152602260248201527f4d75737420696e636c756465206174206c65617374206f6e6520726172697469604482015261657360f01b6064820152608401610861565b60005b8251811015610f81576001838281518110610ee757610ee7614093565b602002602001015110158015610f1757506007838281518110610f0c57610f0c614093565b602002602001015111155b610f6f5760405162461bcd60e51b815260206004820152602360248201527f4d757374207261726974792066726f6d20434f4d4d4f4e20746f204d5954484960448201526210d05360ea1b6064820152608401610861565b80610f798161400c565b915050610eca565b5060008615610fb357601154871115610fac5760405162461bcd60e51b815260040161086190613dd3565b5085610fce565b60118054906000610fc38361400c565b919050555060115490505b60006040518060e00160405280838152602001888152602001848152602001876003811115610fff57610fff614067565b600381111561101057611010614067565b8152602080820188905260408051600080825292810182529201919050815260006020918201819052848152600e8252604090819020835181559183015160018381019190915590830151600283015560608301516003808401805495965086959293909260ff191691849081111561108b5761108b614067565b02179055506080820151600482015560a082015180516110b59160058401916020909101906136e7565b5060c091909101516006909101805460ff191691151591909117905560005b845181101561117757600e600084815260200190815260200160002060050185828151811061110557611105614093565b6020026020010151600c81111561111e5761111e614067565b8154600181018355600092835260209283902092810490920180549192909160ff601f9092166101000a91820219169083600c81111561116057611160614067565b02179055508061116f8161400c565b9150506110d4565b50506001600b5550505050505050565b6109978383836040518060200160405280600081525061218e565b60606011548211156111c65760405162461bcd60e51b815260040161086190613dd3565b6000828152600e602052604081206005015467ffffffffffffffff8111156111f0576111f06140a9565b604051908082528060200260200182016040528015611219578160200160208202803683370190505b50905060005b6000848152600e60205260409020600501548110156112bb576000848152600e6020526040902060050180548290811061125b5761125b614093565b90600052602060002090602091828204019190069054906101000a900460ff16600c81111561128c5761128c614067565b82828151811061129e5761129e614093565b6020908102919091010152806112b38161400c565b91505061121f565b5092915050565b60006112cd60085490565b82106113305760405162461bcd60e51b815260206004820152602c60248201527f455243373231456e756d657261626c653a20676c6f62616c20696e646578206f60448201526b7574206f6620626f756e647360a01b6064820152608401610861565b6008828154811061134357611343614093565b90600052602060002001549050919050565b600a546001600160a01b0316331461137f5760405162461bcd60e51b815260040161086190613d9e565b61138881612f50565b50565b600c5460ff1615156001146113b25760405162461bcd60e51b815260040161086190613e52565b6113bb82612c30565b6113c457600080fd5b336113ce836115cc565b6001600160a01b0316146113e157600080fd5b6000828152600d60209081526040808320815160c081018352815481526001820154938101939093526002810154909183019060ff16600481111561142857611428614067565b600481111561143957611439614067565b81526020016002820160019054906101000a900460ff16600381111561146157611461614067565b600381111561147257611472614067565b81526020016002820160029054906101000a900460ff16600781111561149a5761149a614067565b60078111156114ab576114ab614067565b81526020016002820160039054906101000a900460ff16600c8111156114d3576114d3614067565b600c8111156114e4576114e4614067565b90525060208082018481526000868152600d90925260409182902083518155905160018083019190915591830151600282018054949550859492939192909160ff199091169083600481111561153c5761153c614067565b0217905550606082015160028201805461ff00191661010083600381111561156657611566614067565b0217905550608082015160028201805462ff000019166201000083600781111561159257611592614067565b021790555060a082015160028201805463ff0000001916630100000083600c8111156115c0576115c0614067565b02179055505050505050565b6000818152600260205260408120546001600160a01b0316806107615760405162461bcd60e51b815260206004820152602960248201527f4552433732313a206f776e657220717565727920666f72206e6f6e657869737460448201526832b73a103a37b5b2b760b91b6064820152608401610861565b60006001600160a01b0382166116ae5760405162461bcd60e51b815260206004820152602a60248201527f4552433732313a2062616c616e636520717565727920666f7220746865207a65604482015269726f206164647265737360b01b6064820152608401610861565b506001600160a01b031660009081526003602052604090205490565b600a546001600160a01b031633146116f45760405162461bcd60e51b815260040161086190613d9e565b6116fe6000612f67565b565b6060600061170d83611643565b90508061172e5760408051600080825260208201909252905b509392505050565b60008167ffffffffffffffff811115611749576117496140a9565b604051908082528060200260200182016040528015611772578160200160208202803683370190505b50905060005b828110156117265761178a8582610c6f565b82828151811061179c5761179c614093565b6020908102919091010152806117b18161400c565b915050611778565b50919050565b336117c957600080fd5b600a546001600160a01b03163314156117e157600080fd5b6011548111156118035760405162461bcd60e51b815260040161086190613dd3565b6000818152600e60209081526040808320815160e08101835281548152600182015493810193909352600281015491830191909152600380820154606084019160ff9091169081111561185857611858614067565b600381111561186957611869614067565b815260200160048201548152602001600582018054806020026020016040519081016040528092919081815260200182805480156118f657602002820191906000526020600020906000905b82829054906101000a900460ff16600c8111156118d4576118d4614067565b8152602060019283018181049485019490930390920291018084116118b55790505b50505091835250506006919091015460ff161515602090910152604081015190915034101561192457600080fd5b6000805b8260a0015151811015611a515760015b6010548111611a3e5760016000828152600d602052604090206002015460ff16600481111561196957611969614067565b1480156119cf57508360a00151828151811061198757611987614093565b6020026020010151600c8111156119a0576119a0614067565b6000828152600d60205260409020600201546301000000900460ff16600c8111156119cd576119cd614067565b145b8015611a195750836060015160038111156119ec576119ec614067565b6000828152600d6020526040902060020154610100900460ff166003811115611a1757611a17614067565b145b15611a2c5782611a288161400c565b9350505b80611a368161400c565b915050611938565b5080611a498161400c565b915050611928565b508160200151811015611ab25760405162461bcd60e51b8152602060048201526024808201527f546865726520617265206e6f20656e6f75676820617661696c61626c6520746f6044820152636b656e7360e01b6064820152608401610861565b60008167ffffffffffffffff811115611acd57611acd6140a9565b604051908082528060200260200182016040528015611af6578160200160208202803683370190505b5090506000805b8460a0015151811015611c435760015b6010548111611c305760016000828152600d602052604090206002015460ff166004811115611b3e57611b3e614067565b148015611ba457508560a001518281518110611b5c57611b5c614093565b6020026020010151600c811115611b7557611b75614067565b6000828152600d60205260409020600201546301000000900460ff16600c811115611ba257611ba2614067565b145b8015611bee575085606001516003811115611bc157611bc1614067565b6000828152600d6020526040902060020154610100900460ff166003811115611bec57611bec614067565b145b15611c1e57808484611bff8161400c565b955081518110611c1157611c11614093565b6020026020010181815250505b80611c288161400c565b915050611b0d565b5080611c3b8161400c565b915050611afd565b506000846020015167ffffffffffffffff811115611c6357611c636140a9565b604051908082528060200260200182016040528015611c8c578160200160208202803683370190505b50905060006001815b8760200151811015611daf575b600087423385611cb18161400c565b9650604051602001611ce89392919092835260609190911b6bffffffffffffffffffffffff19166020830152603482015260540190565b6040516020818303038152906040528051906020012060001c611d0b9190614027565b90506000805b85811015611d5f5781158015611d3f5750868181518110611d3457611d34614093565b602002602001015183145b15611d4d5760019150611d5f565b80611d578161400c565b915050611d11565b5080611d9657818686611d718161400c565b975081518110611d8357611d83614093565b6020026020010181815250505050611d9d565b5050611ca2565b80611da78161400c565b915050611c95565b5060005b876020015181101561200a57600086858381518110611dd457611dd4614093565b602002602001015181518110611dec57611dec614093565b602002602001015190506000611e01826115cc565b9050611e0e813384612da5565b6000828152600d60209081526040808320815160c081018352815481526001820154938101939093526002810154909183019060ff166004811115611e5557611e55614067565b6004811115611e6657611e66614067565b81526020016002820160019054906101000a900460ff166003811115611e8e57611e8e614067565b6003811115611e9f57611e9f614067565b81526020016002820160029054906101000a900460ff166007811115611ec757611ec7614067565b6007811115611ed857611ed8614067565b81526020016002820160039054906101000a900460ff16600c811115611f0057611f00614067565b600c811115611f1157611f11614067565b9052509050600260408201819052506000838152600d6020908152604091829020835181559083015160018083019190915591830151600282018054859460ff1990911690836004811115611f6857611f68614067565b0217905550606082015160028201805461ff001916610100836003811115611f9257611f92614067565b0217905550608082015160028201805462ff0000191662010000836007811115611fbe57611fbe614067565b021790555060a082015160028201805463ff0000001916630100000083600c811115611fec57611fec614067565b021790555090505050505080806120029061400c565b915050611db3565b50600061201f600a546001600160a01b031690565b6040519091506001600160a01b038216903480156108fc02916000818181858888f19350505050158015612057573d6000803e3d6000fd5b50505050505050505050565b600a546001600160a01b0316331461208d5760405162461bcd60e51b815260040161086190613d9e565b60115481111561209c57600080fd5b6000908152600e60205260409020600601805460ff19166001179055565b60606001805461077690613fd7565b6001600160a01b0382163314156121225760405162461bcd60e51b815260206004820152601960248201527f4552433732313a20617070726f766520746f2063616c6c6572000000000000006044820152606401610861565b3360008181526005602090815260408083206001600160a01b03871680855290835292819020805460ff191686151590811790915590519081529192917f17307eab39ab6107e8899845ad3d59bd9653f200f220920489ca2b5937696c31910160405180910390a35050565b6121983383612cbb565b6121b45760405162461bcd60e51b815260040161086190613e01565b6121c084848484612fb9565b50505050565b6121cf82612c30565b6121d857600080fd5b336121e2836115cc565b6001600160a01b0316146121f557600080fd5b6000828152600d60209081526040808320815160c081018352815481526001820154938101939093526002810154909183019060ff16600481111561223c5761223c614067565b600481111561224d5761224d614067565b81526020016002820160019054906101000a900460ff16600381111561227557612275614067565b600381111561228657612286614067565b81526020016002820160029054906101000a900460ff1660078111156122ae576122ae614067565b60078111156122bf576122bf614067565b81526020016002820160039054906101000a900460ff16600c8111156122e7576122e7614067565b600c8111156122f8576122f8614067565b9052509050600382600481111561231157612311614067565b600481111561232257612322614067565b101580156123535750600482600481111561233f5761233f614067565b600481111561235057612350614067565b11155b61235c57600080fd5b81600481111561236e5761236e614067565b600481111561237f5761237f614067565b8160400151600481111561239557612395614067565b14156123a057600080fd5b8160048111156123b2576123b2614067565b816040019060048111156123c8576123c8614067565b908160048111156123db576123db614067565b9052506000838152600d6020908152604091829020835181559083015160018083019190915591830151600282018054859460ff199091169083600481111561153c5761153c614067565b600a546001600160a01b031633146124505760405162461bcd60e51b815260040161086190613d9e565b6002600b5414156124a35760405162461bcd60e51b815260206004820152601f60248201527f5265656e7472616e637947756172643a207265656e7472616e742063616c6c006044820152606401610861565b6002600b5584158015906124ba5750620186a08511155b6125065760405162461bcd60e51b815260206004820152601f60248201527f4d757374206d696e742066726f6d203120746f20313030303030204e465473006044820152606401610861565b60018310158015612518575060078311155b61257a5760405162461bcd60e51b815260206004820152602d60248201527f546f6b656e2043617465676f7279206d7573742062652066726f6d205745415060448201526c4f4e5320746f2042414447455360981b6064820152608401610861565b6001821015801561258c5750600c8211155b6125f25760405162461bcd60e51b815260206004820152603160248201527f546f6b656e20526172697479206d7573742062652066726f6d20434f4d4d4f4e604482015270081d1bc810931050d2d7d112505353d391607a1b6064820152608401610861565b600783146126a8576001841015801561260c575060028411155b6126285760405162461bcd60e51b815260040161086190613d4c565b6001821015801561263a575060078211155b6126a35760405162461bcd60e51b815260206004820152603460248201527f4e6f726d616c20546f6b656e20526172697479206d757374732062652066726f6044820152731b4810d3d35353d3881d1bc8135655121250d05360621b6064820152608401610861565b61278c565b600384146127085760405162461bcd60e51b815260206004820152602760248201527f426164676520546f6b656e2046616374696f6e206d75737420626520554e53506044820152661150d25192515160ca1b6064820152608401610861565b6008821015801561271a5750600c8211155b61278c5760405162461bcd60e51b815260206004820152603860248201527f426164676520546f6b656e20526172697479206d757374732062652066726f6d60448201527f2042524f4e5a4520746f20424c41434b5f4449414d4f4e4400000000000000006064820152608401610861565b600184141561281e57600183101580156127a7575060038311155b6128195760405162461bcd60e51b815260206004820152603b60248201527f5355525649564f525320546f6b656e2043617465676f7279206d75737420626560448201527f2066726f6d20574541504f4e5320746f2041434345534f5249455300000000006064820152608401610861565b6128bd565b60028414156128bd5760048310158015612839575060068311155b6128bd5760405162461bcd60e51b815260206004820152604960248201527f534349454e544953545320546f6b656e2043617465676f7279206d757374206260448201527f652066726f6d20564952555345535f424143544552494120746f2056495255536064820152685f56415249414e545360b81b608482015260a401610861565b6000811161290d5760405162461bcd60e51b815260206004820152601f60248201527f5072696365206d7573742062652067726561746572207468616e207a65726f006044820152606401610861565b60005b85811015612ad857601080549060006129288361400c565b919050555061294a612942600a546001600160a01b031690565b601054612fec565b6040805160c08101825260105481526020810184905260009181016001815260200187600381111561297e5761297e614067565b600381111561298f5761298f614067565b81526020018660078111156129a6576129a6614067565b60078111156129b7576129b7614067565b815260200185600c8111156129ce576129ce614067565b600c8111156129df576129df614067565b815250905080600d60006010548152602001908152602001600020600082015181600001556020820151816001015560408201518160020160006101000a81548160ff02191690836004811115612a3857612a38614067565b0217905550606082015160028201805461ff001916610100836003811115612a6257612a62614067565b0217905550608082015160028201805462ff0000191662010000836007811115612a8e57612a8e614067565b021790555060a082015160028201805463ff0000001916630100000083600c811115612abc57612abc614067565b0217905550905050508080612ad09061400c565b915050612910565b50506001600b5550505050565b60606000612af283613006565b90506000815111612b125760405180602001604052806000815250612b33565b80604051602001612b239190613c1b565b6040516020818303038152906040525b9392505050565b600a546001600160a01b03163314612b645760405162461bcd60e51b815260040161086190613d9e565b600c805460ff19166001179055565b600a546001600160a01b03163314612b9d5760405162461bcd60e51b815260040161086190613d9e565b6001600160a01b038116612c025760405162461bcd60e51b815260206004820152602660248201527f4f776e61626c653a206e6577206f776e657220697320746865207a65726f206160448201526564647265737360d01b6064820152608401610861565b61138881612f67565b60006001600160e01b0319821663780e9d6360e01b14806107615750610761826130c7565b6000908152600260205260409020546001600160a01b0316151590565b600081815260046020526040902080546001600160a01b0319166001600160a01b0384169081179091558190612c82826115cc565b6001600160a01b03167f8c5be1e5ebec7d5bd14f71427d1e84f3dd0314c0f7b2291e5b200ac8c7c3b92560405160405180910390a45050565b6000612cc682612c30565b612d275760405162461bcd60e51b815260206004820152602c60248201527f4552433732313a206f70657261746f7220717565727920666f72206e6f6e657860448201526b34b9ba32b73a103a37b5b2b760a11b6064820152608401610861565b6000612d32836115cc565b9050806001600160a01b0316846001600160a01b03161480612d6d5750836001600160a01b0316612d62846107f9565b6001600160a01b0316145b80612d9d57506001600160a01b0380821660009081526005602090815260408083209388168352929052205460ff165b949350505050565b826001600160a01b0316612db8826115cc565b6001600160a01b031614612e205760405162461bcd60e51b815260206004820152602960248201527f4552433732313a207472616e73666572206f6620746f6b656e2074686174206960448201526839903737ba1037bbb760b91b6064820152608401610861565b6001600160a01b038216612e825760405162461bcd60e51b8152602060048201526024808201527f4552433732313a207472616e7366657220746f20746865207a65726f206164646044820152637265737360e01b6064820152608401610861565b612e8d838383613117565b612e98600082612c4d565b6001600160a01b0383166000908152600360205260408120805460019290612ec1908490613f94565b90915550506001600160a01b0382166000908152600360205260408120805460019290612eef908490613f68565b909155505060008181526002602052604080822080546001600160a01b0319166001600160a01b0386811691821790925591518493918716917fddf252ad1be2c89b69c2b068fc378daa952ba7f163c4a11628f55a4df523b3ef91a4505050565b8051612f6390600f90602084019061379b565b5050565b600a80546001600160a01b038381166001600160a01b0319831681179093556040519116919082907f8be0079c531659141344cd1fd0a4f28419497f9722a3daafe3b4186f6b6457e090600090a35050565b612fc4848484612da5565b612fd084848484613122565b6121c05760405162461bcd60e51b815260040161086190613cfa565b612f6382826040518060200160405280600081525061322f565b606061301182612c30565b6130755760405162461bcd60e51b815260206004820152602f60248201527f4552433732314d657461646174613a2055524920717565727920666f72206e6f60448201526e3732bc34b9ba32b73a103a37b5b2b760891b6064820152608401610861565b600061308c60408051602081019091526000815290565b905060008151116130ac5760405180602001604052806000815250612b33565b806130b684613262565b604051602001612b23929190613c37565b60006001600160e01b031982166380ac58cd60e01b14806130f857506001600160e01b03198216635b5e139f60e01b145b8061076157506301ffc9a760e01b6001600160e01b0319831614610761565b610997838383613360565b60006001600160a01b0384163b1561322457604051630a85bd0160e11b81526001600160a01b0385169063150b7a0290613166903390899088908890600401613c66565b602060405180830381600087803b15801561318057600080fd5b505af19250505080156131b0575060408051601f3d908101601f191682019092526131ad91810190613a21565b60015b61320a573d8080156131de576040519150601f19603f3d011682016040523d82523d6000602084013e6131e3565b606091505b5080516132025760405162461bcd60e51b815260040161086190613cfa565b805181602001fd5b6001600160e01b031916630a85bd0160e11b149050612d9d565b506001949350505050565b6132398383613418565b6132466000848484613122565b6109975760405162461bcd60e51b815260040161086190613cfa565b6060816132865750506040805180820190915260018152600360fc1b602082015290565b8160005b81156132b0578061329a8161400c565b91506132a99050600a83613f80565b915061328a565b60008167ffffffffffffffff8111156132cb576132cb6140a9565b6040519080825280601f01601f1916602001820160405280156132f5576020820181803683370190505b5090505b8415612d9d5761330a600183613f94565b9150613317600a86614027565b613322906030613f68565b60f81b81838151811061333757613337614093565b60200101906001600160f81b031916908160001a905350613359600a86613f80565b94506132f9565b6001600160a01b0383166133bb576133b681600880546000838152600960205260408120829055600182018355919091527ff3f7a9fe364faab93b216da50a3214154f22a0a2b415b23a84c8169e8b636ee30155565b6133de565b816001600160a01b0316836001600160a01b0316146133de576133de8382613557565b6001600160a01b0382166133f557610997816135f4565b826001600160a01b0316826001600160a01b0316146109975761099782826136a3565b6001600160a01b03821661346e5760405162461bcd60e51b815260206004820181905260248201527f4552433732313a206d696e7420746f20746865207a65726f20616464726573736044820152606401610861565b61347781612c30565b156134c45760405162461bcd60e51b815260206004820152601c60248201527f4552433732313a20746f6b656e20616c7265616479206d696e746564000000006044820152606401610861565b6134d060008383613117565b6001600160a01b03821660009081526003602052604081208054600192906134f9908490613f68565b909155505060008181526002602052604080822080546001600160a01b0319166001600160a01b03861690811790915590518392907fddf252ad1be2c89b69c2b068fc378daa952ba7f163c4a11628f55a4df523b3ef908290a45050565b6000600161356484611643565b61356e9190613f94565b6000838152600760205260409020549091508082146135c1576001600160a01b03841660009081526006602090815260408083208584528252808320548484528184208190558352600790915290208190555b5060009182526007602090815260408084208490556001600160a01b039094168352600681528383209183525290812055565b60085460009061360690600190613f94565b6000838152600960205260408120546008805493945090928490811061362e5761362e614093565b90600052602060002001549050806008838154811061364f5761364f614093565b60009182526020808320909101929092558281526009909152604080822084905585825281205560088054806136875761368761407d565b6001900381819060005260206000200160009055905550505050565b60006136ae83611643565b6001600160a01b039093166000908152600660209081526040808320868452825280832085905593825260079052919091209190915550565b82805482825590600052602060002090601f0160209004810192821561378b5791602002820160005b8382111561375c57835183826101000a81548160ff0219169083600c81111561373b5761373b614067565b02179055509260200192600101602081600001049283019260010302613710565b80156137895782816101000a81549060ff021916905560010160208160000104928301926001030261375c565b505b5061379792915061380f565b5090565b8280546137a790613fd7565b90600052602060002090601f0160209004810192826137c9576000855561378b565b82601f106137e257805160ff191683800117855561378b565b8280016001018555821561378b579182015b8281111561378b5782518255916020019190600101906137f4565b5b808211156137975760008155600101613810565b600067ffffffffffffffff83111561383e5761383e6140a9565b613851601f8401601f1916602001613f37565b905082815283838301111561386557600080fd5b828260208301376000602084830101529392505050565b80356001600160a01b038116811461389357600080fd5b919050565b6000602082840312156138aa57600080fd5b612b338261387c565b600080604083850312156138c657600080fd5b6138cf8361387c565b91506138dd6020840161387c565b90509250929050565b6000806000606084860312156138fb57600080fd5b6139048461387c565b92506139126020850161387c565b9150604084013590509250925092565b6000806000806080858703121561393857600080fd5b6139418561387c565b935061394f6020860161387c565b925060408501359150606085013567ffffffffffffffff81111561397257600080fd5b8501601f8101871361398357600080fd5b61399287823560208401613824565b91505092959194509250565b600080604083850312156139b157600080fd5b6139ba8361387c565b9150602083013580151581146139cf57600080fd5b809150509250929050565b600080604083850312156139ed57600080fd5b6139f68361387c565b946020939093013593505050565b600060208284031215613a1657600080fd5b8135612b33816140bf565b600060208284031215613a3357600080fd5b8151612b33816140bf565b600060208284031215613a5057600080fd5b813567ffffffffffffffff811115613a6757600080fd5b8201601f81018413613a7857600080fd5b612d9d84823560208401613824565b600060208284031215613a9957600080fd5b5035919050565b60008060408385031215613ab357600080fd5b50508035926020909101359150565b60008060008060008060c08789031215613adb57600080fd5b8635955060208088013595506040880135945060608801359350608088013567ffffffffffffffff80821115613b1057600080fd5b818a0191508a601f830112613b2457600080fd5b813581811115613b3657613b366140a9565b8060051b9150613b47848301613f37565b8181528481019084860184860187018f1015613b6257600080fd5b600095505b83861015613b85578035835260019590950194918601918601613b67565b5080975050505050505060a087013590509295509295509295565b600080600080600060a08688031215613bb857600080fd5b505083359560208501359550604085013594606081013594506080013592509050565b60008151808452613bf3816020860160208601613fab565b601f01601f19169290920160200192915050565b60048110613c1757613c17614067565b9052565b60008251613c2d818460208701613fab565b9190910192915050565b60008351613c49818460208801613fab565b835190830190613c5d818360208801613fab565b01949350505050565b6001600160a01b0385811682528416602082015260408101839052608060608201819052600090613c9990830184613bdb565b9695505050505050565b6020808252825182820181905260009190848201906040850190845b81811015613cdb57835183529284019291840191600101613cbf565b50909695505050505050565b602081526000612b336020830184613bdb565b60208082526032908201527f4552433732313a207472616e7366657220746f206e6f6e20455243373231526560408201527131b2b4bb32b91034b6b83632b6b2b73a32b960711b606082015260800190565b60208082526032908201527f546f6b656e2046616374696f6e206d7573742062652066726f6d205355525649604082015271564f525320746f20534349454e544953545360701b606082015260800190565b6020808252818101527f4f776e61626c653a2063616c6c6572206973206e6f7420746865206f776e6572604082015260600190565b60208082526014908201527310dc985d195259081a5cc81b9bdd08195e1a5cdd60621b604082015260600190565b60208082526031908201527f4552433732313a207472616e736665722063616c6c6572206973206e6f74206f6040820152701ddb995c881b9bdc88185c1c1c9bdd9959607a1b606082015260800190565b60208082526022908201527f4d61726b6574706c6163652066656174757265206973206e6f7420656e61626c604082015261195960f21b606082015260800190565b8681526020810186905260c0810160058610613eb257613eb2614067565b856040830152613ec56060830186613c07565b60088410613ed557613ed5614067565b836080830152600d8310613eeb57613eeb614067565b8260a0830152979650505050505050565b868152602081018690526040810185905260c08101613f1e6060830186613c07565b83608083015282151560a0830152979650505050505050565b604051601f8201601f1916810167ffffffffffffffff81118282101715613f6057613f606140a9565b604052919050565b60008219821115613f7b57613f7b61403b565b500190565b600082613f8f57613f8f614051565b500490565b600082821015613fa657613fa661403b565b500390565b60005b83811015613fc6578181015183820152602001613fae565b838111156121c05750506000910152565b600181811c90821680613feb57607f821691505b602082108114156117b957634e487b7160e01b600052602260045260246000fd5b60006000198214156140205761402061403b565b5060010190565b60008261403657614036614051565b500690565b634e487b7160e01b600052601160045260246000fd5b634e487b7160e01b600052601260045260246000fd5b634e487b7160e01b600052602160045260246000fd5b634e487b7160e01b600052603160045260246000fd5b634e487b7160e01b600052603260045260246000fd5b634e487b7160e01b600052604160045260246000fd5b6001600160e01b03198116811461138857600080fdfea2646970667358221220b1ce5674a04f456293f17b52beb478c128224bb0b88191cb6409a56e7661e4d964736f6c63430008070033",
			"opcodes": "PUSH1 0x80 PUSH1 0x40 MSTORE PUSH1 0xC DUP1 SLOAD PUSH1 0xFF NOT AND SWAP1 SSTORE PUSH1 0x0 PUSH1 0x10 DUP2 SWAP1 SSTORE PUSH1 0x11 SSTORE CALLVALUE DUP1 ISZERO PUSH3 0x25 JUMPI PUSH1 0x0 DUP1 REVERT JUMPDEST POP PUSH1 0x40 MLOAD PUSH3 0x44AA CODESIZE SUB DUP1 PUSH3 0x44AA DUP4 CODECOPY DUP2 ADD PUSH1 0x40 DUP2 SWAP1 MSTORE PUSH3 0x48 SWAP2 PUSH3 0x260 JUMP JUMPDEST PUSH1 0x40 DUP1 MLOAD DUP1 DUP3 ADD DUP3 MSTORE PUSH1 0x8 DUP2 MSTORE PUSH8 0x155B589B08139195 PUSH1 0xC2 SHL PUSH1 0x20 DUP1 DUP4 ADD SWAP2 DUP3 MSTORE DUP4 MLOAD DUP1 DUP6 ADD SWAP1 SWAP5 MSTORE PUSH1 0x4 DUP5 MSTORE PUSH4 0x15535093 PUSH1 0xE2 SHL SWAP1 DUP5 ADD MSTORE DUP2 MLOAD SWAP2 SWAP3 SWAP2 PUSH3 0x94 SWAP2 PUSH1 0x0 SWAP2 PUSH3 0x1BA JUMP JUMPDEST POP DUP1 MLOAD PUSH3 0xAA SWAP1 PUSH1 0x1 SWAP1 PUSH1 0x20 DUP5 ADD SWAP1 PUSH3 0x1BA JUMP JUMPDEST POP POP POP PUSH3 0xC7 PUSH3 0xC1 PUSH3 0xDE PUSH1 0x20 SHL PUSH1 0x20 SHR JUMP JUMPDEST PUSH3 0xE2 JUMP JUMPDEST PUSH1 0x1 PUSH1 0xB SSTORE PUSH3 0xD7 DUP2 PUSH3 0x134 JUMP JUMPDEST POP PUSH3 0x38F JUMP JUMPDEST CALLER SWAP1 JUMP JUMPDEST PUSH1 0xA DUP1 SLOAD PUSH1 0x1 PUSH1 0x1 PUSH1 0xA0 SHL SUB DUP4 DUP2 AND PUSH1 0x1 PUSH1 0x1 PUSH1 0xA0 SHL SUB NOT DUP4 AND DUP2 OR SWAP1 SWAP4 SSTORE PUSH1 0x40 MLOAD SWAP2 AND SWAP2 SWAP1 DUP3 SWAP1 PUSH32 0x8BE0079C531659141344CD1FD0A4F28419497F9722A3DAAFE3B4186F6B6457E0 SWAP1 PUSH1 0x0 SWAP1 LOG3 POP POP JUMP JUMPDEST PUSH1 0xA SLOAD PUSH1 0x1 PUSH1 0x1 PUSH1 0xA0 SHL SUB AND CALLER EQ PUSH3 0x193 JUMPI PUSH1 0x40 MLOAD PUSH3 0x461BCD PUSH1 0xE5 SHL DUP2 MSTORE PUSH1 0x20 PUSH1 0x4 DUP3 ADD DUP2 SWAP1 MSTORE PUSH1 0x24 DUP3 ADD MSTORE PUSH32 0x4F776E61626C653A2063616C6C6572206973206E6F7420746865206F776E6572 PUSH1 0x44 DUP3 ADD MSTORE PUSH1 0x64 ADD PUSH1 0x40 MLOAD DUP1 SWAP2 SUB SWAP1 REVERT JUMPDEST PUSH3 0x19E DUP2 PUSH3 0x1A1 JUMP JUMPDEST POP JUMP JUMPDEST DUP1 MLOAD PUSH3 0x1B6 SWAP1 PUSH1 0xF SWAP1 PUSH1 0x20 DUP5 ADD SWAP1 PUSH3 0x1BA JUMP JUMPDEST POP POP JUMP JUMPDEST DUP3 DUP1 SLOAD PUSH3 0x1C8 SWAP1 PUSH3 0x33C JUMP JUMPDEST SWAP1 PUSH1 0x0 MSTORE PUSH1 0x20 PUSH1 0x0 KECCAK256 SWAP1 PUSH1 0x1F ADD PUSH1 0x20 SWAP1 DIV DUP2 ADD SWAP3 DUP3 PUSH3 0x1EC JUMPI PUSH1 0x0 DUP6 SSTORE PUSH3 0x237 JUMP JUMPDEST DUP3 PUSH1 0x1F LT PUSH3 0x207 JUMPI DUP1 MLOAD PUSH1 0xFF NOT AND DUP4 DUP1 ADD OR DUP6 SSTORE PUSH3 0x237 JUMP JUMPDEST DUP3 DUP1 ADD PUSH1 0x1 ADD DUP6 SSTORE DUP3 ISZERO PUSH3 0x237 JUMPI SWAP2 DUP3 ADD JUMPDEST DUP3 DUP2 GT ISZERO PUSH3 0x237 JUMPI DUP3 MLOAD DUP3 SSTORE SWAP2 PUSH1 0x20 ADD SWAP2 SWAP1 PUSH1 0x1 ADD SWAP1 PUSH3 0x21A JUMP JUMPDEST POP PUSH3 0x245 SWAP3 SWAP2 POP PUSH3 0x249 JUMP JUMPDEST POP SWAP1 JUMP JUMPDEST JUMPDEST DUP1 DUP3 GT ISZERO PUSH3 0x245 JUMPI PUSH1 0x0 DUP2 SSTORE PUSH1 0x1 ADD PUSH3 0x24A JUMP JUMPDEST PUSH1 0x0 PUSH1 0x20 DUP1 DUP4 DUP6 SUB SLT ISZERO PUSH3 0x274 JUMPI PUSH1 0x0 DUP1 REVERT JUMPDEST DUP3 MLOAD PUSH1 0x1 PUSH1 0x1 PUSH1 0x40 SHL SUB DUP1 DUP3 GT ISZERO PUSH3 0x28C JUMPI PUSH1 0x0 DUP1 REVERT JUMPDEST DUP2 DUP6 ADD SWAP2 POP DUP6 PUSH1 0x1F DUP4 ADD SLT PUSH3 0x2A1 JUMPI PUSH1 0x0 DUP1 REVERT JUMPDEST DUP2 MLOAD DUP2 DUP2 GT ISZERO PUSH3 0x2B6 JUMPI PUSH3 0x2B6 PUSH3 0x379 JUMP JUMPDEST PUSH1 0x40 MLOAD PUSH1 0x1F DUP3 ADD PUSH1 0x1F NOT SWAP1 DUP2 AND PUSH1 0x3F ADD AND DUP2 ADD SWAP1 DUP4 DUP3 GT DUP2 DUP4 LT OR ISZERO PUSH3 0x2E1 JUMPI PUSH3 0x2E1 PUSH3 0x379 JUMP JUMPDEST DUP2 PUSH1 0x40 MSTORE DUP3 DUP2 MSTORE DUP9 DUP7 DUP5 DUP8 ADD ADD GT ISZERO PUSH3 0x2FA JUMPI PUSH1 0x0 DUP1 REVERT JUMPDEST PUSH1 0x0 SWAP4 POP JUMPDEST DUP3 DUP5 LT ISZERO PUSH3 0x31E JUMPI DUP5 DUP5 ADD DUP7 ADD MLOAD DUP2 DUP6 ADD DUP8 ADD MSTORE SWAP3 DUP6 ADD SWAP3 PUSH3 0x2FF JUMP JUMPDEST DUP3 DUP5 GT ISZERO PUSH3 0x330 JUMPI PUSH1 0x0 DUP7 DUP5 DUP4 ADD ADD MSTORE JUMPDEST SWAP9 SWAP8 POP POP POP POP POP POP POP POP JUMP JUMPDEST PUSH1 0x1 DUP2 DUP2 SHR SWAP1 DUP3 AND DUP1 PUSH3 0x351 JUMPI PUSH1 0x7F DUP3 AND SWAP2 POP JUMPDEST PUSH1 0x20 DUP3 LT DUP2 EQ ISZERO PUSH3 0x373 JUMPI PUSH4 0x4E487B71 PUSH1 0xE0 SHL PUSH1 0x0 MSTORE PUSH1 0x22 PUSH1 0x4 MSTORE PUSH1 0x24 PUSH1 0x0 REVERT JUMPDEST POP SWAP2 SWAP1 POP JUMP JUMPDEST PUSH4 0x4E487B71 PUSH1 0xE0 SHL PUSH1 0x0 MSTORE PUSH1 0x41 PUSH1 0x4 MSTORE PUSH1 0x24 PUSH1 0x0 REVERT JUMPDEST PUSH2 0x410B DUP1 PUSH3 0x39F PUSH1 0x0 CODECOPY PUSH1 0x0 RETURN INVALID PUSH1 0x80 PUSH1 0x40 MSTORE PUSH1 0x4 CALLDATASIZE LT PUSH2 0x225 JUMPI PUSH1 0x0 CALLDATALOAD PUSH1 0xE0 SHR DUP1 PUSH4 0x70A08231 GT PUSH2 0x123 JUMPI DUP1 PUSH4 0xAF055820 GT PUSH2 0xAB JUMPI DUP1 PUSH4 0xC87B56DD GT PUSH2 0x6F JUMPI DUP1 PUSH4 0xC87B56DD EQ PUSH2 0x6A2 JUMPI DUP1 PUSH4 0xCB9953E7 EQ PUSH2 0x6C2 JUMPI DUP1 PUSH4 0xE119248E EQ PUSH2 0x6D8 JUMPI DUP1 PUSH4 0xE985E9C5 EQ PUSH2 0x6ED JUMPI DUP1 PUSH4 0xF2FDE38B EQ PUSH2 0x736 JUMPI PUSH1 0x0 DUP1 REVERT JUMPDEST DUP1 PUSH4 0xAF055820 EQ PUSH2 0x5CF JUMPI DUP1 PUSH4 0xB38D817C EQ PUSH2 0x5E6 JUMPI DUP1 PUSH4 0xB88D4FDE EQ PUSH2 0x64F JUMPI DUP1 PUSH4 0xB99A15F8 EQ PUSH2 0x66F JUMPI DUP1 PUSH4 0xC717E8EA EQ PUSH2 0x682 JUMPI PUSH1 0x0 DUP1 REVERT JUMPDEST DUP1 PUSH4 0x8DA5CB5B GT PUSH2 0xF2 JUMPI DUP1 PUSH4 0x8DA5CB5B EQ PUSH2 0x549 JUMPI DUP1 PUSH4 0x9016617C EQ PUSH2 0x567 JUMPI DUP1 PUSH4 0x955A6615 EQ PUSH2 0x57A JUMPI DUP1 PUSH4 0x95D89B41 EQ PUSH2 0x59A JUMPI DUP1 PUSH4 0xA22CB465 EQ PUSH2 0x5AF JUMPI PUSH1 0x0 DUP1 REVERT JUMPDEST DUP1 PUSH4 0x70A08231 EQ PUSH2 0x4DE JUMPI DUP1 PUSH4 0x715018A6 EQ PUSH2 0x4FE JUMPI DUP1 PUSH4 0x75794A3C EQ PUSH2 0x513 JUMPI DUP1 PUSH4 0x8462151C EQ PUSH2 0x529 JUMPI PUSH1 0x0 DUP1 REVERT JUMPDEST DUP1 PUSH4 0x2D296BF1 GT PUSH2 0x1B1 JUMPI DUP1 PUSH4 0x4F6CCCE7 GT PUSH2 0x175 JUMPI DUP1 PUSH4 0x4F6CCCE7 EQ PUSH2 0x456 JUMPI DUP1 PUSH4 0x55F804B3 EQ PUSH2 0x476 JUMPI DUP1 PUSH4 0x594455F5 EQ PUSH2 0x496 JUMPI DUP1 PUSH4 0x62E8E8AC EQ PUSH2 0x4AB JUMPI DUP1 PUSH4 0x6352211E EQ PUSH2 0x4BE JUMPI PUSH1 0x0 DUP1 REVERT JUMPDEST DUP1 PUSH4 0x2D296BF1 EQ PUSH2 0x3B6 JUMPI DUP1 PUSH4 0x2F745C59 EQ PUSH2 0x3C9 JUMPI DUP1 PUSH4 0x406B9872 EQ PUSH2 0x3E9 JUMPI DUP1 PUSH4 0x42842E0E EQ PUSH2 0x409 JUMPI DUP1 PUSH4 0x48333113 EQ PUSH2 0x429 JUMPI PUSH1 0x0 DUP1 REVERT JUMPDEST DUP1 PUSH4 0x1280CB62 GT PUSH2 0x1F8 JUMPI DUP1 PUSH4 0x1280CB62 EQ PUSH2 0x2DB JUMPI DUP1 PUSH4 0x18160DDD EQ PUSH2 0x348 JUMPI DUP1 PUSH4 0x1D4175A5 EQ PUSH2 0x367 JUMPI DUP1 PUSH4 0x23B872DD EQ PUSH2 0x381 JUMPI DUP1 PUSH4 0x2D21A464 EQ PUSH2 0x3A1 JUMPI PUSH1 0x0 DUP1 REVERT JUMPDEST DUP1 PUSH4 0x1FFC9A7 EQ PUSH2 0x22A JUMPI DUP1 PUSH4 0x6FDDE03 EQ PUSH2 0x25F JUMPI DUP1 PUSH4 0x81812FC EQ PUSH2 0x281 JUMPI DUP1 PUSH4 0x95EA7B3 EQ PUSH2 0x2B9 JUMPI JUMPDEST PUSH1 0x0 DUP1 REVERT JUMPDEST CALLVALUE DUP1 ISZERO PUSH2 0x236 JUMPI PUSH1 0x0 DUP1 REVERT JUMPDEST POP PUSH2 0x24A PUSH2 0x245 CALLDATASIZE PUSH1 0x4 PUSH2 0x3A04 JUMP JUMPDEST PUSH2 0x756 JUMP JUMPDEST PUSH1 0x40 MLOAD SWAP1 ISZERO ISZERO DUP2 MSTORE PUSH1 0x20 ADD JUMPDEST PUSH1 0x40 MLOAD DUP1 SWAP2 SUB SWAP1 RETURN JUMPDEST CALLVALUE DUP1 ISZERO PUSH2 0x26B JUMPI PUSH1 0x0 DUP1 REVERT JUMPDEST POP PUSH2 0x274 PUSH2 0x767 JUMP JUMPDEST PUSH1 0x40 MLOAD PUSH2 0x256 SWAP2 SWAP1 PUSH2 0x3CE7 JUMP JUMPDEST CALLVALUE DUP1 ISZERO PUSH2 0x28D JUMPI PUSH1 0x0 DUP1 REVERT JUMPDEST POP PUSH2 0x2A1 PUSH2 0x29C CALLDATASIZE PUSH1 0x4 PUSH2 0x3A87 JUMP JUMPDEST PUSH2 0x7F9 JUMP JUMPDEST PUSH1 0x40 MLOAD PUSH1 0x1 PUSH1 0x1 PUSH1 0xA0 SHL SUB SWAP1 SWAP2 AND DUP2 MSTORE PUSH1 0x20 ADD PUSH2 0x256 JUMP JUMPDEST CALLVALUE DUP1 ISZERO PUSH2 0x2C5 JUMPI PUSH1 0x0 DUP1 REVERT JUMPDEST POP PUSH2 0x2D9 PUSH2 0x2D4 CALLDATASIZE PUSH1 0x4 PUSH2 0x39DA JUMP JUMPDEST PUSH2 0x886 JUMP JUMPDEST STOP JUMPDEST CALLVALUE DUP1 ISZERO PUSH2 0x2E7 JUMPI PUSH1 0x0 DUP1 REVERT JUMPDEST POP PUSH2 0x336 PUSH2 0x2F6 CALLDATASIZE PUSH1 0x4 PUSH2 0x3A87 JUMP JUMPDEST PUSH1 0xD PUSH1 0x20 MSTORE PUSH1 0x0 SWAP1 DUP2 MSTORE PUSH1 0x40 SWAP1 KECCAK256 DUP1 SLOAD PUSH1 0x1 DUP3 ADD SLOAD PUSH1 0x2 SWAP1 SWAP3 ADD SLOAD SWAP1 SWAP2 SWAP1 PUSH1 0xFF DUP1 DUP3 AND SWAP2 PUSH2 0x100 DUP2 DIV DUP3 AND SWAP2 PUSH3 0x10000 DUP3 DIV DUP2 AND SWAP2 PUSH4 0x1000000 SWAP1 DIV AND DUP7 JUMP JUMPDEST PUSH1 0x40 MLOAD PUSH2 0x256 SWAP7 SWAP6 SWAP5 SWAP4 SWAP3 SWAP2 SWAP1 PUSH2 0x3E94 JUMP JUMPDEST CALLVALUE DUP1 ISZERO PUSH2 0x354 JUMPI PUSH1 0x0 DUP1 REVERT JUMPDEST POP PUSH1 0x8 SLOAD JUMPDEST PUSH1 0x40 MLOAD SWAP1 DUP2 MSTORE PUSH1 0x20 ADD PUSH2 0x256 JUMP JUMPDEST CALLVALUE DUP1 ISZERO PUSH2 0x373 JUMPI PUSH1 0x0 DUP1 REVERT JUMPDEST POP PUSH1 0xC SLOAD PUSH2 0x24A SWAP1 PUSH1 0xFF AND DUP2 JUMP JUMPDEST CALLVALUE DUP1 ISZERO PUSH2 0x38D JUMPI PUSH1 0x0 DUP1 REVERT JUMPDEST POP PUSH2 0x2D9 PUSH2 0x39C CALLDATASIZE PUSH1 0x4 PUSH2 0x38E6 JUMP JUMPDEST PUSH2 0x99C JUMP JUMPDEST CALLVALUE DUP1 ISZERO PUSH2 0x3AD JUMPI PUSH1 0x0 DUP1 REVERT JUMPDEST POP PUSH2 0x2D9 PUSH2 0x9CD JUMP JUMPDEST PUSH2 0x2D9 PUSH2 0x3C4 CALLDATASIZE PUSH1 0x4 PUSH2 0x3A87 JUMP JUMPDEST PUSH2 0xA03 JUMP JUMPDEST CALLVALUE DUP1 ISZERO PUSH2 0x3D5 JUMPI PUSH1 0x0 DUP1 REVERT JUMPDEST POP PUSH2 0x359 PUSH2 0x3E4 CALLDATASIZE PUSH1 0x4 PUSH2 0x39DA JUMP JUMPDEST PUSH2 0xC6F JUMP JUMPDEST CALLVALUE DUP1 ISZERO PUSH2 0x3F5 JUMPI PUSH1 0x0 DUP1 REVERT JUMPDEST POP PUSH2 0x2D9 PUSH2 0x404 CALLDATASIZE PUSH1 0x4 PUSH2 0x3AC2 JUMP JUMPDEST PUSH2 0xD05 JUMP JUMPDEST CALLVALUE DUP1 ISZERO PUSH2 0x415 JUMPI PUSH1 0x0 DUP1 REVERT JUMPDEST POP PUSH2 0x2D9 PUSH2 0x424 CALLDATASIZE PUSH1 0x4 PUSH2 0x38E6 JUMP JUMPDEST PUSH2 0x1187 JUMP JUMPDEST CALLVALUE DUP1 ISZERO PUSH2 0x435 JUMPI PUSH1 0x0 DUP1 REVERT JUMPDEST POP PUSH2 0x449 PUSH2 0x444 CALLDATASIZE PUSH1 0x4 PUSH2 0x3A87 JUMP JUMPDEST PUSH2 0x11A2 JUMP JUMPDEST PUSH1 0x40 MLOAD PUSH2 0x256 SWAP2 SWAP1 PUSH2 0x3CA3 JUMP JUMPDEST CALLVALUE DUP1 ISZERO PUSH2 0x462 JUMPI PUSH1 0x0 DUP1 REVERT JUMPDEST POP PUSH2 0x359 PUSH2 0x471 CALLDATASIZE PUSH1 0x4 PUSH2 0x3A87 JUMP JUMPDEST PUSH2 0x12C2 JUMP JUMPDEST CALLVALUE DUP1 ISZERO PUSH2 0x482 JUMPI PUSH1 0x0 DUP1 REVERT JUMPDEST POP PUSH2 0x2D9 PUSH2 0x491 CALLDATASIZE PUSH1 0x4 PUSH2 0x3A3E JUMP JUMPDEST PUSH2 0x1355 JUMP JUMPDEST CALLVALUE DUP1 ISZERO PUSH2 0x4A2 JUMPI PUSH1 0x0 DUP1 REVERT JUMPDEST POP PUSH2 0x359 PUSH1 0x64 DUP2 JUMP JUMPDEST PUSH2 0x2D9 PUSH2 0x4B9 CALLDATASIZE PUSH1 0x4 PUSH2 0x3AA0 JUMP JUMPDEST PUSH2 0x138B JUMP JUMPDEST CALLVALUE DUP1 ISZERO PUSH2 0x4CA JUMPI PUSH1 0x0 DUP1 REVERT JUMPDEST POP PUSH2 0x2A1 PUSH2 0x4D9 CALLDATASIZE PUSH1 0x4 PUSH2 0x3A87 JUMP JUMPDEST PUSH2 0x15CC JUMP JUMPDEST CALLVALUE DUP1 ISZERO PUSH2 0x4EA JUMPI PUSH1 0x0 DUP1 REVERT JUMPDEST POP PUSH2 0x359 PUSH2 0x4F9 CALLDATASIZE PUSH1 0x4 PUSH2 0x3898 JUMP JUMPDEST PUSH2 0x1643 JUMP JUMPDEST CALLVALUE DUP1 ISZERO PUSH2 0x50A JUMPI PUSH1 0x0 DUP1 REVERT JUMPDEST POP PUSH2 0x2D9 PUSH2 0x16CA JUMP JUMPDEST CALLVALUE DUP1 ISZERO PUSH2 0x51F JUMPI PUSH1 0x0 DUP1 REVERT JUMPDEST POP PUSH2 0x359 PUSH1 0x10 SLOAD DUP2 JUMP JUMPDEST CALLVALUE DUP1 ISZERO PUSH2 0x535 JUMPI PUSH1 0x0 DUP1 REVERT JUMPDEST POP PUSH2 0x449 PUSH2 0x544 CALLDATASIZE PUSH1 0x4 PUSH2 0x3898 JUMP JUMPDEST PUSH2 0x1700 JUMP JUMPDEST CALLVALUE DUP1 ISZERO PUSH2 0x555 JUMPI PUSH1 0x0 DUP1 REVERT JUMPDEST POP PUSH1 0xA SLOAD PUSH1 0x1 PUSH1 0x1 PUSH1 0xA0 SHL SUB AND PUSH2 0x2A1 JUMP JUMPDEST PUSH2 0x2D9 PUSH2 0x575 CALLDATASIZE PUSH1 0x4 PUSH2 0x3A87 JUMP JUMPDEST PUSH2 0x17BF JUMP JUMPDEST CALLVALUE DUP1 ISZERO PUSH2 0x586 JUMPI PUSH1 0x0 DUP1 REVERT JUMPDEST POP PUSH2 0x2D9 PUSH2 0x595 CALLDATASIZE PUSH1 0x4 PUSH2 0x3A87 JUMP JUMPDEST PUSH2 0x2063 JUMP JUMPDEST CALLVALUE DUP1 ISZERO PUSH2 0x5A6 JUMPI PUSH1 0x0 DUP1 REVERT JUMPDEST POP PUSH2 0x274 PUSH2 0x20BA JUMP JUMPDEST CALLVALUE DUP1 ISZERO PUSH2 0x5BB JUMPI PUSH1 0x0 DUP1 REVERT JUMPDEST POP PUSH2 0x2D9 PUSH2 0x5CA CALLDATASIZE PUSH1 0x4 PUSH2 0x399E JUMP JUMPDEST PUSH2 0x20C9 JUMP JUMPDEST CALLVALUE DUP1 ISZERO PUSH2 0x5DB JUMPI PUSH1 0x0 DUP1 REVERT JUMPDEST POP PUSH2 0x359 PUSH3 0x186A0 DUP2 JUMP JUMPDEST CALLVALUE DUP1 ISZERO PUSH2 0x5F2 JUMPI PUSH1 0x0 DUP1 REVERT JUMPDEST POP PUSH2 0x63D PUSH2 0x601 CALLDATASIZE PUSH1 0x4 PUSH2 0x3A87 JUMP JUMPDEST PUSH1 0xE PUSH1 0x20 MSTORE PUSH1 0x0 SWAP1 DUP2 MSTORE PUSH1 0x40 SWAP1 KECCAK256 DUP1 SLOAD PUSH1 0x1 DUP3 ADD SLOAD PUSH1 0x2 DUP4 ADD SLOAD PUSH1 0x3 DUP5 ADD SLOAD PUSH1 0x4 DUP6 ADD SLOAD PUSH1 0x6 SWAP1 SWAP6 ADD SLOAD SWAP4 SWAP5 SWAP3 SWAP4 SWAP2 SWAP3 PUSH1 0xFF SWAP2 DUP3 AND SWAP3 SWAP1 SWAP2 AND DUP7 JUMP JUMPDEST PUSH1 0x40 MLOAD PUSH2 0x256 SWAP7 SWAP6 SWAP5 SWAP4 SWAP3 SWAP2 SWAP1 PUSH2 0x3EFC JUMP JUMPDEST CALLVALUE DUP1 ISZERO PUSH2 0x65B JUMPI PUSH1 0x0 DUP1 REVERT JUMPDEST POP PUSH2 0x2D9 PUSH2 0x66A CALLDATASIZE PUSH1 0x4 PUSH2 0x3922 JUMP JUMPDEST PUSH2 0x218E JUMP JUMPDEST PUSH2 0x2D9 PUSH2 0x67D CALLDATASIZE PUSH1 0x4 PUSH2 0x3AA0 JUMP JUMPDEST PUSH2 0x21C6 JUMP JUMPDEST CALLVALUE DUP1 ISZERO PUSH2 0x68E JUMPI PUSH1 0x0 DUP1 REVERT JUMPDEST POP PUSH2 0x2D9 PUSH2 0x69D CALLDATASIZE PUSH1 0x4 PUSH2 0x3BA0 JUMP JUMPDEST PUSH2 0x2426 JUMP JUMPDEST CALLVALUE DUP1 ISZERO PUSH2 0x6AE JUMPI PUSH1 0x0 DUP1 REVERT JUMPDEST POP PUSH2 0x274 PUSH2 0x6BD CALLDATASIZE PUSH1 0x4 PUSH2 0x3A87 JUMP JUMPDEST PUSH2 0x2AE5 JUMP JUMPDEST CALLVALUE DUP1 ISZERO PUSH2 0x6CE JUMPI PUSH1 0x0 DUP1 REVERT JUMPDEST POP PUSH2 0x359 PUSH1 0x11 SLOAD DUP2 JUMP JUMPDEST CALLVALUE DUP1 ISZERO PUSH2 0x6E4 JUMPI PUSH1 0x0 DUP1 REVERT JUMPDEST POP PUSH2 0x2D9 PUSH2 0x2B3A JUMP JUMPDEST CALLVALUE DUP1 ISZERO PUSH2 0x6F9 JUMPI PUSH1 0x0 DUP1 REVERT JUMPDEST POP PUSH2 0x24A PUSH2 0x708 CALLDATASIZE PUSH1 0x4 PUSH2 0x38B3 JUMP JUMPDEST PUSH1 0x1 PUSH1 0x1 PUSH1 0xA0 SHL SUB SWAP2 DUP3 AND PUSH1 0x0 SWAP1 DUP2 MSTORE PUSH1 0x5 PUSH1 0x20 SWAP1 DUP2 MSTORE PUSH1 0x40 DUP1 DUP4 KECCAK256 SWAP4 SWAP1 SWAP5 AND DUP3 MSTORE SWAP2 SWAP1 SWAP2 MSTORE KECCAK256 SLOAD PUSH1 0xFF AND SWAP1 JUMP JUMPDEST CALLVALUE DUP1 ISZERO PUSH2 0x742 JUMPI PUSH1 0x0 DUP1 REVERT JUMPDEST POP PUSH2 0x2D9 PUSH2 0x751 CALLDATASIZE PUSH1 0x4 PUSH2 0x3898 JUMP JUMPDEST PUSH2 0x2B73 JUMP JUMPDEST PUSH1 0x0 PUSH2 0x761 DUP3 PUSH2 0x2C0B JUMP JUMPDEST SWAP3 SWAP2 POP POP JUMP JUMPDEST PUSH1 0x60 PUSH1 0x0 DUP1 SLOAD PUSH2 0x776 SWAP1 PUSH2 0x3FD7 JUMP JUMPDEST DUP1 PUSH1 0x1F ADD PUSH1 0x20 DUP1 SWAP2 DIV MUL PUSH1 0x20 ADD PUSH1 0x40 MLOAD SWAP1 DUP2 ADD PUSH1 0x40 MSTORE DUP1 SWAP3 SWAP2 SWAP1 DUP2 DUP2 MSTORE PUSH1 0x20 ADD DUP3 DUP1 SLOAD PUSH2 0x7A2 SWAP1 PUSH2 0x3FD7 JUMP JUMPDEST DUP1 ISZERO PUSH2 0x7EF JUMPI DUP1 PUSH1 0x1F LT PUSH2 0x7C4 JUMPI PUSH2 0x100 DUP1 DUP4 SLOAD DIV MUL DUP4 MSTORE SWAP2 PUSH1 0x20 ADD SWAP2 PUSH2 0x7EF JUMP JUMPDEST DUP3 ADD SWAP2 SWAP1 PUSH1 0x0 MSTORE PUSH1 0x20 PUSH1 0x0 KECCAK256 SWAP1 JUMPDEST DUP2 SLOAD DUP2 MSTORE SWAP1 PUSH1 0x1 ADD SWAP1 PUSH1 0x20 ADD DUP1 DUP4 GT PUSH2 0x7D2 JUMPI DUP3 SWAP1 SUB PUSH1 0x1F AND DUP3 ADD SWAP2 JUMPDEST POP POP POP POP POP SWAP1 POP SWAP1 JUMP JUMPDEST PUSH1 0x0 PUSH2 0x804 DUP3 PUSH2 0x2C30 JUMP JUMPDEST PUSH2 0x86A JUMPI PUSH1 0x40 MLOAD PUSH3 0x461BCD PUSH1 0xE5 SHL DUP2 MSTORE PUSH1 0x20 PUSH1 0x4 DUP3 ADD MSTORE PUSH1 0x2C PUSH1 0x24 DUP3 ADD MSTORE PUSH32 0x4552433732313A20617070726F76656420717565727920666F72206E6F6E6578 PUSH1 0x44 DUP3 ADD MSTORE PUSH12 0x34B9BA32B73A103A37B5B2B7 PUSH1 0xA1 SHL PUSH1 0x64 DUP3 ADD MSTORE PUSH1 0x84 ADD JUMPDEST PUSH1 0x40 MLOAD DUP1 SWAP2 SUB SWAP1 REVERT JUMPDEST POP PUSH1 0x0 SWAP1 DUP2 MSTORE PUSH1 0x4 PUSH1 0x20 MSTORE PUSH1 0x40 SWAP1 KECCAK256 SLOAD PUSH1 0x1 PUSH1 0x1 PUSH1 0xA0 SHL SUB AND SWAP1 JUMP JUMPDEST PUSH1 0x0 PUSH2 0x891 DUP3 PUSH2 0x15CC JUMP JUMPDEST SWAP1 POP DUP1 PUSH1 0x1 PUSH1 0x1 PUSH1 0xA0 SHL SUB AND DUP4 PUSH1 0x1 PUSH1 0x1 PUSH1 0xA0 SHL SUB AND EQ ISZERO PUSH2 0x8FF JUMPI PUSH1 0x40 MLOAD PUSH3 0x461BCD PUSH1 0xE5 SHL DUP2 MSTORE PUSH1 0x20 PUSH1 0x4 DUP3 ADD MSTORE PUSH1 0x21 PUSH1 0x24 DUP3 ADD MSTORE PUSH32 0x4552433732313A20617070726F76616C20746F2063757272656E74206F776E65 PUSH1 0x44 DUP3 ADD MSTORE PUSH1 0x39 PUSH1 0xF9 SHL PUSH1 0x64 DUP3 ADD MSTORE PUSH1 0x84 ADD PUSH2 0x861 JUMP JUMPDEST CALLER PUSH1 0x1 PUSH1 0x1 PUSH1 0xA0 SHL SUB DUP3 AND EQ DUP1 PUSH2 0x91B JUMPI POP PUSH2 0x91B DUP2 CALLER PUSH2 0x708 JUMP JUMPDEST PUSH2 0x98D JUMPI PUSH1 0x40 MLOAD PUSH3 0x461BCD PUSH1 0xE5 SHL DUP2 MSTORE PUSH1 0x20 PUSH1 0x4 DUP3 ADD MSTORE PUSH1 0x38 PUSH1 0x24 DUP3 ADD MSTORE PUSH32 0x4552433732313A20617070726F76652063616C6C6572206973206E6F74206F77 PUSH1 0x44 DUP3 ADD MSTORE PUSH32 0x6E6572206E6F7220617070726F76656420666F7220616C6C0000000000000000 PUSH1 0x64 DUP3 ADD MSTORE PUSH1 0x84 ADD PUSH2 0x861 JUMP JUMPDEST PUSH2 0x997 DUP4 DUP4 PUSH2 0x2C4D JUMP JUMPDEST POP POP POP JUMP JUMPDEST PUSH2 0x9A6 CALLER DUP3 PUSH2 0x2CBB JUMP JUMPDEST PUSH2 0x9C2 JUMPI PUSH1 0x40 MLOAD PUSH3 0x461BCD PUSH1 0xE5 SHL DUP2 MSTORE PUSH1 0x4 ADD PUSH2 0x861 SWAP1 PUSH2 0x3E01 JUMP JUMPDEST PUSH2 0x997 DUP4 DUP4 DUP4 PUSH2 0x2DA5 JUMP JUMPDEST PUSH1 0xA SLOAD PUSH1 0x1 PUSH1 0x1 PUSH1 0xA0 SHL SUB AND CALLER EQ PUSH2 0x9F7 JUMPI PUSH1 0x40 MLOAD PUSH3 0x461BCD PUSH1 0xE5 SHL DUP2 MSTORE PUSH1 0x4 ADD PUSH2 0x861 SWAP1 PUSH2 0x3D9E JUMP JUMPDEST PUSH1 0xC DUP1 SLOAD PUSH1 0xFF NOT AND SWAP1 SSTORE JUMP JUMPDEST PUSH1 0xC SLOAD PUSH1 0xFF AND ISZERO ISZERO PUSH1 0x1 EQ PUSH2 0xA2A JUMPI PUSH1 0x40 MLOAD PUSH3 0x461BCD PUSH1 0xE5 SHL DUP2 MSTORE PUSH1 0x4 ADD PUSH2 0x861 SWAP1 PUSH2 0x3E52 JUMP JUMPDEST CALLER PUSH2 0xA34 JUMPI PUSH1 0x0 DUP1 REVERT JUMPDEST PUSH2 0xA3D DUP2 PUSH2 0x2C30 JUMP JUMPDEST PUSH2 0xA46 JUMPI PUSH1 0x0 DUP1 REVERT JUMPDEST PUSH1 0x0 PUSH2 0xA51 DUP3 PUSH2 0x15CC JUMP JUMPDEST SWAP1 POP PUSH1 0x1 PUSH1 0x1 PUSH1 0xA0 SHL SUB DUP2 AND PUSH2 0xA66 JUMPI PUSH1 0x0 DUP1 REVERT JUMPDEST PUSH1 0x1 PUSH1 0x1 PUSH1 0xA0 SHL SUB DUP2 AND CALLER EQ ISZERO PUSH2 0xA7C JUMPI PUSH1 0x0 DUP1 REVERT JUMPDEST PUSH1 0x0 DUP3 DUP2 MSTORE PUSH1 0xD PUSH1 0x20 SWAP1 DUP2 MSTORE PUSH1 0x40 DUP1 DUP4 KECCAK256 DUP2 MLOAD PUSH1 0xC0 DUP2 ADD DUP4 MSTORE DUP2 SLOAD DUP2 MSTORE PUSH1 0x1 DUP3 ADD SLOAD SWAP4 DUP2 ADD SWAP4 SWAP1 SWAP4 MSTORE PUSH1 0x2 DUP2 ADD SLOAD SWAP1 SWAP2 DUP4 ADD SWAP1 PUSH1 0xFF AND PUSH1 0x4 DUP2 GT ISZERO PUSH2 0xAC3 JUMPI PUSH2 0xAC3 PUSH2 0x4067 JUMP JUMPDEST PUSH1 0x4 DUP2 GT ISZERO PUSH2 0xAD4 JUMPI PUSH2 0xAD4 PUSH2 0x4067 JUMP JUMPDEST DUP2 MSTORE PUSH1 0x20 ADD PUSH1 0x2 DUP3 ADD PUSH1 0x1 SWAP1 SLOAD SWAP1 PUSH2 0x100 EXP SWAP1 DIV PUSH1 0xFF AND PUSH1 0x3 DUP2 GT ISZERO PUSH2 0xAFC JUMPI PUSH2 0xAFC PUSH2 0x4067 JUMP JUMPDEST PUSH1 0x3 DUP2 GT ISZERO PUSH2 0xB0D JUMPI PUSH2 0xB0D PUSH2 0x4067 JUMP JUMPDEST DUP2 MSTORE PUSH1 0x20 ADD PUSH1 0x2 DUP3 ADD PUSH1 0x2 SWAP1 SLOAD SWAP1 PUSH2 0x100 EXP SWAP1 DIV PUSH1 0xFF AND PUSH1 0x7 DUP2 GT ISZERO PUSH2 0xB35 JUMPI PUSH2 0xB35 PUSH2 0x4067 JUMP JUMPDEST PUSH1 0x7 DUP2 GT ISZERO PUSH2 0xB46 JUMPI PUSH2 0xB46 PUSH2 0x4067 JUMP JUMPDEST DUP2 MSTORE PUSH1 0x20 ADD PUSH1 0x2 DUP3 ADD PUSH1 0x3 SWAP1 SLOAD SWAP1 PUSH2 0x100 EXP SWAP1 DIV PUSH1 0xFF AND PUSH1 0xC DUP2 GT ISZERO PUSH2 0xB6E JUMPI PUSH2 0xB6E PUSH2 0x4067 JUMP JUMPDEST PUSH1 0xC DUP2 GT ISZERO PUSH2 0xB7F JUMPI PUSH2 0xB7F PUSH2 0x4067 JUMP JUMPDEST DUP2 MSTORE POP POP SWAP1 POP DUP1 PUSH1 0x20 ADD MLOAD CALLVALUE LT ISZERO PUSH2 0xB96 JUMPI PUSH1 0x0 DUP1 REVERT JUMPDEST PUSH1 0x2 DUP2 PUSH1 0x40 ADD MLOAD PUSH1 0x4 DUP2 GT ISZERO PUSH2 0xBAE JUMPI PUSH2 0xBAE PUSH2 0x4067 JUMP JUMPDEST EQ PUSH2 0xBB8 JUMPI PUSH1 0x0 DUP1 REVERT JUMPDEST PUSH2 0xBC3 DUP3 CALLER DUP6 PUSH2 0x2DA5 JUMP JUMPDEST DUP2 PUSH1 0x0 PUSH2 0xBD8 PUSH1 0xA SLOAD PUSH1 0x1 PUSH1 0x1 PUSH1 0xA0 SHL SUB AND SWAP1 JUMP JUMPDEST SWAP1 POP PUSH1 0x0 PUSH2 0xBE7 PUSH1 0xA CALLVALUE PUSH2 0x3F80 JUMP JUMPDEST SWAP1 POP PUSH1 0x0 PUSH2 0xBF5 DUP3 CALLVALUE PUSH2 0x3F94 JUMP JUMPDEST PUSH1 0x40 MLOAD SWAP1 SWAP2 POP PUSH1 0x1 PUSH1 0x1 PUSH1 0xA0 SHL SUB DUP5 AND SWAP1 DUP4 ISZERO PUSH2 0x8FC MUL SWAP1 DUP5 SWAP1 PUSH1 0x0 DUP2 DUP2 DUP2 DUP6 DUP9 DUP9 CALL SWAP4 POP POP POP POP ISZERO DUP1 ISZERO PUSH2 0xC2E JUMPI RETURNDATASIZE PUSH1 0x0 DUP1 RETURNDATACOPY RETURNDATASIZE PUSH1 0x0 REVERT JUMPDEST POP PUSH1 0x40 MLOAD PUSH1 0x1 PUSH1 0x1 PUSH1 0xA0 SHL SUB DUP6 AND SWAP1 DUP3 ISZERO PUSH2 0x8FC MUL SWAP1 DUP4 SWAP1 PUSH1 0x0 DUP2 DUP2 DUP2 DUP6 DUP9 DUP9 CALL SWAP4 POP POP POP POP ISZERO DUP1 ISZERO PUSH2 0xC65 JUMPI RETURNDATASIZE PUSH1 0x0 DUP1 RETURNDATACOPY RETURNDATASIZE PUSH1 0x0 REVERT JUMPDEST POP POP POP POP POP POP POP POP JUMP JUMPDEST PUSH1 0x0 PUSH2 0xC7A DUP4 PUSH2 0x1643 JUMP JUMPDEST DUP3 LT PUSH2 0xCDC JUMPI PUSH1 0x40 MLOAD PUSH3 0x461BCD PUSH1 0xE5 SHL DUP2 MSTORE PUSH1 0x20 PUSH1 0x4 DUP3 ADD MSTORE PUSH1 0x2B PUSH1 0x24 DUP3 ADD MSTORE PUSH32 0x455243373231456E756D657261626C653A206F776E657220696E646578206F75 PUSH1 0x44 DUP3 ADD MSTORE PUSH11 0x74206F6620626F756E6473 PUSH1 0xA8 SHL PUSH1 0x64 DUP3 ADD MSTORE PUSH1 0x84 ADD PUSH2 0x861 JUMP JUMPDEST POP PUSH1 0x1 PUSH1 0x1 PUSH1 0xA0 SHL SUB SWAP2 SWAP1 SWAP2 AND PUSH1 0x0 SWAP1 DUP2 MSTORE PUSH1 0x6 PUSH1 0x20 SWAP1 DUP2 MSTORE PUSH1 0x40 DUP1 DUP4 KECCAK256 SWAP4 DUP4 MSTORE SWAP3 SWAP1 MSTORE KECCAK256 SLOAD SWAP1 JUMP JUMPDEST PUSH1 0xA SLOAD PUSH1 0x1 PUSH1 0x1 PUSH1 0xA0 SHL SUB AND CALLER EQ PUSH2 0xD2F JUMPI PUSH1 0x40 MLOAD PUSH3 0x461BCD PUSH1 0xE5 SHL DUP2 MSTORE PUSH1 0x4 ADD PUSH2 0x861 SWAP1 PUSH2 0x3D9E JUMP JUMPDEST PUSH1 0x2 PUSH1 0xB SLOAD EQ ISZERO PUSH2 0xD82 JUMPI PUSH1 0x40 MLOAD PUSH3 0x461BCD PUSH1 0xE5 SHL DUP2 MSTORE PUSH1 0x20 PUSH1 0x4 DUP3 ADD MSTORE PUSH1 0x1F PUSH1 0x24 DUP3 ADD MSTORE PUSH32 0x5265656E7472616E637947756172643A207265656E7472616E742063616C6C00 PUSH1 0x44 DUP3 ADD MSTORE PUSH1 0x64 ADD PUSH2 0x861 JUMP JUMPDEST PUSH1 0x2 PUSH1 0xB SSTORE DUP5 ISZERO DUP1 ISZERO SWAP1 PUSH2 0xD97 JUMPI POP PUSH1 0x64 DUP6 GT ISZERO JUMPDEST PUSH2 0xDED JUMPI PUSH1 0x40 MLOAD PUSH3 0x461BCD PUSH1 0xE5 SHL DUP2 MSTORE PUSH1 0x20 PUSH1 0x4 DUP3 ADD MSTORE PUSH1 0x21 PUSH1 0x24 DUP3 ADD MSTORE PUSH32 0x4D75737420696E636C7564652066726F6D203120746F2031303020746F6B656E PUSH1 0x44 DUP3 ADD MSTORE PUSH1 0x73 PUSH1 0xF8 SHL PUSH1 0x64 DUP3 ADD MSTORE PUSH1 0x84 ADD PUSH2 0x861 JUMP JUMPDEST PUSH1 0x0 DUP2 GT PUSH2 0xE3D JUMPI PUSH1 0x40 MLOAD PUSH3 0x461BCD PUSH1 0xE5 SHL DUP2 MSTORE PUSH1 0x20 PUSH1 0x4 DUP3 ADD MSTORE PUSH1 0x1F PUSH1 0x24 DUP3 ADD MSTORE PUSH32 0x5072696365206D7573742062652067726561746572207468616E207A65726F00 PUSH1 0x44 DUP3 ADD MSTORE PUSH1 0x64 ADD PUSH2 0x861 JUMP JUMPDEST PUSH1 0x1 DUP5 LT ISZERO DUP1 ISZERO PUSH2 0xE4F JUMPI POP PUSH1 0x2 DUP5 GT ISZERO JUMPDEST PUSH2 0xE6B JUMPI PUSH1 0x40 MLOAD PUSH3 0x461BCD PUSH1 0xE5 SHL DUP2 MSTORE PUSH1 0x4 ADD PUSH2 0x861 SWAP1 PUSH2 0x3D4C JUMP JUMPDEST PUSH1 0x0 DUP3 MLOAD GT PUSH2 0xEC7 JUMPI PUSH1 0x40 MLOAD PUSH3 0x461BCD PUSH1 0xE5 SHL DUP2 MSTORE PUSH1 0x20 PUSH1 0x4 DUP3 ADD MSTORE PUSH1 0x22 PUSH1 0x24 DUP3 ADD MSTORE PUSH32 0x4D75737420696E636C756465206174206C65617374206F6E6520726172697469 PUSH1 0x44 DUP3 ADD MSTORE PUSH2 0x6573 PUSH1 0xF0 SHL PUSH1 0x64 DUP3 ADD MSTORE PUSH1 0x84 ADD PUSH2 0x861 JUMP JUMPDEST PUSH1 0x0 JUMPDEST DUP3 MLOAD DUP2 LT ISZERO PUSH2 0xF81 JUMPI PUSH1 0x1 DUP4 DUP3 DUP2 MLOAD DUP2 LT PUSH2 0xEE7 JUMPI PUSH2 0xEE7 PUSH2 0x4093 JUMP JUMPDEST PUSH1 0x20 MUL PUSH1 0x20 ADD ADD MLOAD LT ISZERO DUP1 ISZERO PUSH2 0xF17 JUMPI POP PUSH1 0x7 DUP4 DUP3 DUP2 MLOAD DUP2 LT PUSH2 0xF0C JUMPI PUSH2 0xF0C PUSH2 0x4093 JUMP JUMPDEST PUSH1 0x20 MUL PUSH1 0x20 ADD ADD MLOAD GT ISZERO JUMPDEST PUSH2 0xF6F JUMPI PUSH1 0x40 MLOAD PUSH3 0x461BCD PUSH1 0xE5 SHL DUP2 MSTORE PUSH1 0x20 PUSH1 0x4 DUP3 ADD MSTORE PUSH1 0x23 PUSH1 0x24 DUP3 ADD MSTORE PUSH32 0x4D757374207261726974792066726F6D20434F4D4D4F4E20746F204D59544849 PUSH1 0x44 DUP3 ADD MSTORE PUSH3 0x10D053 PUSH1 0xEA SHL PUSH1 0x64 DUP3 ADD MSTORE PUSH1 0x84 ADD PUSH2 0x861 JUMP JUMPDEST DUP1 PUSH2 0xF79 DUP2 PUSH2 0x400C JUMP JUMPDEST SWAP2 POP POP PUSH2 0xECA JUMP JUMPDEST POP PUSH1 0x0 DUP7 ISZERO PUSH2 0xFB3 JUMPI PUSH1 0x11 SLOAD DUP8 GT ISZERO PUSH2 0xFAC JUMPI PUSH1 0x40 MLOAD PUSH3 0x461BCD PUSH1 0xE5 SHL DUP2 MSTORE PUSH1 0x4 ADD PUSH2 0x861 SWAP1 PUSH2 0x3DD3 JUMP JUMPDEST POP DUP6 PUSH2 0xFCE JUMP JUMPDEST PUSH1 0x11 DUP1 SLOAD SWAP1 PUSH1 0x0 PUSH2 0xFC3 DUP4 PUSH2 0x400C JUMP JUMPDEST SWAP2 SWAP1 POP SSTORE POP PUSH1 0x11 SLOAD SWAP1 POP JUMPDEST PUSH1 0x0 PUSH1 0x40 MLOAD DUP1 PUSH1 0xE0 ADD PUSH1 0x40 MSTORE DUP1 DUP4 DUP2 MSTORE PUSH1 0x20 ADD DUP9 DUP2 MSTORE PUSH1 0x20 ADD DUP5 DUP2 MSTORE PUSH1 0x20 ADD DUP8 PUSH1 0x3 DUP2 GT ISZERO PUSH2 0xFFF JUMPI PUSH2 0xFFF PUSH2 0x4067 JUMP JUMPDEST PUSH1 0x3 DUP2 GT ISZERO PUSH2 0x1010 JUMPI PUSH2 0x1010 PUSH2 0x4067 JUMP JUMPDEST DUP2 MSTORE PUSH1 0x20 DUP1 DUP3 ADD DUP9 SWAP1 MSTORE PUSH1 0x40 DUP1 MLOAD PUSH1 0x0 DUP1 DUP3 MSTORE SWAP3 DUP2 ADD DUP3 MSTORE SWAP3 ADD SWAP2 SWAP1 POP DUP2 MSTORE PUSH1 0x0 PUSH1 0x20 SWAP2 DUP3 ADD DUP2 SWAP1 MSTORE DUP5 DUP2 MSTORE PUSH1 0xE DUP3 MSTORE PUSH1 0x40 SWAP1 DUP2 SWAP1 KECCAK256 DUP4 MLOAD DUP2 SSTORE SWAP2 DUP4 ADD MLOAD PUSH1 0x1 DUP4 DUP2 ADD SWAP2 SWAP1 SWAP2 SSTORE SWAP1 DUP4 ADD MLOAD PUSH1 0x2 DUP4 ADD SSTORE PUSH1 0x60 DUP4 ADD MLOAD PUSH1 0x3 DUP1 DUP5 ADD DUP1 SLOAD SWAP6 SWAP7 POP DUP7 SWAP6 SWAP3 SWAP4 SWAP1 SWAP3 PUSH1 0xFF NOT AND SWAP2 DUP5 SWAP1 DUP2 GT ISZERO PUSH2 0x108B JUMPI PUSH2 0x108B PUSH2 0x4067 JUMP JUMPDEST MUL OR SWAP1 SSTORE POP PUSH1 0x80 DUP3 ADD MLOAD PUSH1 0x4 DUP3 ADD SSTORE PUSH1 0xA0 DUP3 ADD MLOAD DUP1 MLOAD PUSH2 0x10B5 SWAP2 PUSH1 0x5 DUP5 ADD SWAP2 PUSH1 0x20 SWAP1 SWAP2 ADD SWAP1 PUSH2 0x36E7 JUMP JUMPDEST POP PUSH1 0xC0 SWAP2 SWAP1 SWAP2 ADD MLOAD PUSH1 0x6 SWAP1 SWAP2 ADD DUP1 SLOAD PUSH1 0xFF NOT AND SWAP2 ISZERO ISZERO SWAP2 SWAP1 SWAP2 OR SWAP1 SSTORE PUSH1 0x0 JUMPDEST DUP5 MLOAD DUP2 LT ISZERO PUSH2 0x1177 JUMPI PUSH1 0xE PUSH1 0x0 DUP5 DUP2 MSTORE PUSH1 0x20 ADD SWAP1 DUP2 MSTORE PUSH1 0x20 ADD PUSH1 0x0 KECCAK256 PUSH1 0x5 ADD DUP6 DUP3 DUP2 MLOAD DUP2 LT PUSH2 0x1105 JUMPI PUSH2 0x1105 PUSH2 0x4093 JUMP JUMPDEST PUSH1 0x20 MUL PUSH1 0x20 ADD ADD MLOAD PUSH1 0xC DUP2 GT ISZERO PUSH2 0x111E JUMPI PUSH2 0x111E PUSH2 0x4067 JUMP JUMPDEST DUP2 SLOAD PUSH1 0x1 DUP2 ADD DUP4 SSTORE PUSH1 0x0 SWAP3 DUP4 MSTORE PUSH1 0x20 SWAP3 DUP4 SWAP1 KECCAK256 SWAP3 DUP2 DIV SWAP1 SWAP3 ADD DUP1 SLOAD SWAP2 SWAP3 SWAP1 SWAP2 PUSH1 0xFF PUSH1 0x1F SWAP1 SWAP3 AND PUSH2 0x100 EXP SWAP2 DUP3 MUL NOT AND SWAP1 DUP4 PUSH1 0xC DUP2 GT ISZERO PUSH2 0x1160 JUMPI PUSH2 0x1160 PUSH2 0x4067 JUMP JUMPDEST MUL OR SWAP1 SSTORE POP DUP1 PUSH2 0x116F DUP2 PUSH2 0x400C JUMP JUMPDEST SWAP2 POP POP PUSH2 0x10D4 JUMP JUMPDEST POP POP PUSH1 0x1 PUSH1 0xB SSTORE POP POP POP POP POP POP POP JUMP JUMPDEST PUSH2 0x997 DUP4 DUP4 DUP4 PUSH1 0x40 MLOAD DUP1 PUSH1 0x20 ADD PUSH1 0x40 MSTORE DUP1 PUSH1 0x0 DUP2 MSTORE POP PUSH2 0x218E JUMP JUMPDEST PUSH1 0x60 PUSH1 0x11 SLOAD DUP3 GT ISZERO PUSH2 0x11C6 JUMPI PUSH1 0x40 MLOAD PUSH3 0x461BCD PUSH1 0xE5 SHL DUP2 MSTORE PUSH1 0x4 ADD PUSH2 0x861 SWAP1 PUSH2 0x3DD3 JUMP JUMPDEST PUSH1 0x0 DUP3 DUP2 MSTORE PUSH1 0xE PUSH1 0x20 MSTORE PUSH1 0x40 DUP2 KECCAK256 PUSH1 0x5 ADD SLOAD PUSH8 0xFFFFFFFFFFFFFFFF DUP2 GT ISZERO PUSH2 0x11F0 JUMPI PUSH2 0x11F0 PUSH2 0x40A9 JUMP JUMPDEST PUSH1 0x40 MLOAD SWAP1 DUP1 DUP3 MSTORE DUP1 PUSH1 0x20 MUL PUSH1 0x20 ADD DUP3 ADD PUSH1 0x40 MSTORE DUP1 ISZERO PUSH2 0x1219 JUMPI DUP2 PUSH1 0x20 ADD PUSH1 0x20 DUP3 MUL DUP1 CALLDATASIZE DUP4 CALLDATACOPY ADD SWAP1 POP JUMPDEST POP SWAP1 POP PUSH1 0x0 JUMPDEST PUSH1 0x0 DUP5 DUP2 MSTORE PUSH1 0xE PUSH1 0x20 MSTORE PUSH1 0x40 SWAP1 KECCAK256 PUSH1 0x5 ADD SLOAD DUP2 LT ISZERO PUSH2 0x12BB JUMPI PUSH1 0x0 DUP5 DUP2 MSTORE PUSH1 0xE PUSH1 0x20 MSTORE PUSH1 0x40 SWAP1 KECCAK256 PUSH1 0x5 ADD DUP1 SLOAD DUP3 SWAP1 DUP2 LT PUSH2 0x125B JUMPI PUSH2 0x125B PUSH2 0x4093 JUMP JUMPDEST SWAP1 PUSH1 0x0 MSTORE PUSH1 0x20 PUSH1 0x0 KECCAK256 SWAP1 PUSH1 0x20 SWAP2 DUP3 DUP3 DIV ADD SWAP2 SWAP1 MOD SWAP1 SLOAD SWAP1 PUSH2 0x100 EXP SWAP1 DIV PUSH1 0xFF AND PUSH1 0xC DUP2 GT ISZERO PUSH2 0x128C JUMPI PUSH2 0x128C PUSH2 0x4067 JUMP JUMPDEST DUP3 DUP3 DUP2 MLOAD DUP2 LT PUSH2 0x129E JUMPI PUSH2 0x129E PUSH2 0x4093 JUMP JUMPDEST PUSH1 0x20 SWAP1 DUP2 MUL SWAP2 SWAP1 SWAP2 ADD ADD MSTORE DUP1 PUSH2 0x12B3 DUP2 PUSH2 0x400C JUMP JUMPDEST SWAP2 POP POP PUSH2 0x121F JUMP JUMPDEST POP SWAP3 SWAP2 POP POP JUMP JUMPDEST PUSH1 0x0 PUSH2 0x12CD PUSH1 0x8 SLOAD SWAP1 JUMP JUMPDEST DUP3 LT PUSH2 0x1330 JUMPI PUSH1 0x40 MLOAD PUSH3 0x461BCD PUSH1 0xE5 SHL DUP2 MSTORE PUSH1 0x20 PUSH1 0x4 DUP3 ADD MSTORE PUSH1 0x2C PUSH1 0x24 DUP3 ADD MSTORE PUSH32 0x455243373231456E756D657261626C653A20676C6F62616C20696E646578206F PUSH1 0x44 DUP3 ADD MSTORE PUSH12 0x7574206F6620626F756E6473 PUSH1 0xA0 SHL PUSH1 0x64 DUP3 ADD MSTORE PUSH1 0x84 ADD PUSH2 0x861 JUMP JUMPDEST PUSH1 0x8 DUP3 DUP2 SLOAD DUP2 LT PUSH2 0x1343 JUMPI PUSH2 0x1343 PUSH2 0x4093 JUMP JUMPDEST SWAP1 PUSH1 0x0 MSTORE PUSH1 0x20 PUSH1 0x0 KECCAK256 ADD SLOAD SWAP1 POP SWAP2 SWAP1 POP JUMP JUMPDEST PUSH1 0xA SLOAD PUSH1 0x1 PUSH1 0x1 PUSH1 0xA0 SHL SUB AND CALLER EQ PUSH2 0x137F JUMPI PUSH1 0x40 MLOAD PUSH3 0x461BCD PUSH1 0xE5 SHL DUP2 MSTORE PUSH1 0x4 ADD PUSH2 0x861 SWAP1 PUSH2 0x3D9E JUMP JUMPDEST PUSH2 0x1388 DUP2 PUSH2 0x2F50 JUMP JUMPDEST POP JUMP JUMPDEST PUSH1 0xC SLOAD PUSH1 0xFF AND ISZERO ISZERO PUSH1 0x1 EQ PUSH2 0x13B2 JUMPI PUSH1 0x40 MLOAD PUSH3 0x461BCD PUSH1 0xE5 SHL DUP2 MSTORE PUSH1 0x4 ADD PUSH2 0x861 SWAP1 PUSH2 0x3E52 JUMP JUMPDEST PUSH2 0x13BB DUP3 PUSH2 0x2C30 JUMP JUMPDEST PUSH2 0x13C4 JUMPI PUSH1 0x0 DUP1 REVERT JUMPDEST CALLER PUSH2 0x13CE DUP4 PUSH2 0x15CC JUMP JUMPDEST PUSH1 0x1 PUSH1 0x1 PUSH1 0xA0 SHL SUB AND EQ PUSH2 0x13E1 JUMPI PUSH1 0x0 DUP1 REVERT JUMPDEST PUSH1 0x0 DUP3 DUP2 MSTORE PUSH1 0xD PUSH1 0x20 SWAP1 DUP2 MSTORE PUSH1 0x40 DUP1 DUP4 KECCAK256 DUP2 MLOAD PUSH1 0xC0 DUP2 ADD DUP4 MSTORE DUP2 SLOAD DUP2 MSTORE PUSH1 0x1 DUP3 ADD SLOAD SWAP4 DUP2 ADD SWAP4 SWAP1 SWAP4 MSTORE PUSH1 0x2 DUP2 ADD SLOAD SWAP1 SWAP2 DUP4 ADD SWAP1 PUSH1 0xFF AND PUSH1 0x4 DUP2 GT ISZERO PUSH2 0x1428 JUMPI PUSH2 0x1428 PUSH2 0x4067 JUMP JUMPDEST PUSH1 0x4 DUP2 GT ISZERO PUSH2 0x1439 JUMPI PUSH2 0x1439 PUSH2 0x4067 JUMP JUMPDEST DUP2 MSTORE PUSH1 0x20 ADD PUSH1 0x2 DUP3 ADD PUSH1 0x1 SWAP1 SLOAD SWAP1 PUSH2 0x100 EXP SWAP1 DIV PUSH1 0xFF AND PUSH1 0x3 DUP2 GT ISZERO PUSH2 0x1461 JUMPI PUSH2 0x1461 PUSH2 0x4067 JUMP JUMPDEST PUSH1 0x3 DUP2 GT ISZERO PUSH2 0x1472 JUMPI PUSH2 0x1472 PUSH2 0x4067 JUMP JUMPDEST DUP2 MSTORE PUSH1 0x20 ADD PUSH1 0x2 DUP3 ADD PUSH1 0x2 SWAP1 SLOAD SWAP1 PUSH2 0x100 EXP SWAP1 DIV PUSH1 0xFF AND PUSH1 0x7 DUP2 GT ISZERO PUSH2 0x149A JUMPI PUSH2 0x149A PUSH2 0x4067 JUMP JUMPDEST PUSH1 0x7 DUP2 GT ISZERO PUSH2 0x14AB JUMPI PUSH2 0x14AB PUSH2 0x4067 JUMP JUMPDEST DUP2 MSTORE PUSH1 0x20 ADD PUSH1 0x2 DUP3 ADD PUSH1 0x3 SWAP1 SLOAD SWAP1 PUSH2 0x100 EXP SWAP1 DIV PUSH1 0xFF AND PUSH1 0xC DUP2 GT ISZERO PUSH2 0x14D3 JUMPI PUSH2 0x14D3 PUSH2 0x4067 JUMP JUMPDEST PUSH1 0xC DUP2 GT ISZERO PUSH2 0x14E4 JUMPI PUSH2 0x14E4 PUSH2 0x4067 JUMP JUMPDEST SWAP1 MSTORE POP PUSH1 0x20 DUP1 DUP3 ADD DUP5 DUP2 MSTORE PUSH1 0x0 DUP7 DUP2 MSTORE PUSH1 0xD SWAP1 SWAP3 MSTORE PUSH1 0x40 SWAP2 DUP3 SWAP1 KECCAK256 DUP4 MLOAD DUP2 SSTORE SWAP1 MLOAD PUSH1 0x1 DUP1 DUP4 ADD SWAP2 SWAP1 SWAP2 SSTORE SWAP2 DUP4 ADD MLOAD PUSH1 0x2 DUP3 ADD DUP1 SLOAD SWAP5 SWAP6 POP DUP6 SWAP5 SWAP3 SWAP4 SWAP2 SWAP3 SWAP1 SWAP2 PUSH1 0xFF NOT SWAP1 SWAP2 AND SWAP1 DUP4 PUSH1 0x4 DUP2 GT ISZERO PUSH2 0x153C JUMPI PUSH2 0x153C PUSH2 0x4067 JUMP JUMPDEST MUL OR SWAP1 SSTORE POP PUSH1 0x60 DUP3 ADD MLOAD PUSH1 0x2 DUP3 ADD DUP1 SLOAD PUSH2 0xFF00 NOT AND PUSH2 0x100 DUP4 PUSH1 0x3 DUP2 GT ISZERO PUSH2 0x1566 JUMPI PUSH2 0x1566 PUSH2 0x4067 JUMP JUMPDEST MUL OR SWAP1 SSTORE POP PUSH1 0x80 DUP3 ADD MLOAD PUSH1 0x2 DUP3 ADD DUP1 SLOAD PUSH3 0xFF0000 NOT AND PUSH3 0x10000 DUP4 PUSH1 0x7 DUP2 GT ISZERO PUSH2 0x1592 JUMPI PUSH2 0x1592 PUSH2 0x4067 JUMP JUMPDEST MUL OR SWAP1 SSTORE POP PUSH1 0xA0 DUP3 ADD MLOAD PUSH1 0x2 DUP3 ADD DUP1 SLOAD PUSH4 0xFF000000 NOT AND PUSH4 0x1000000 DUP4 PUSH1 0xC DUP2 GT ISZERO PUSH2 0x15C0 JUMPI PUSH2 0x15C0 PUSH2 0x4067 JUMP JUMPDEST MUL OR SWAP1 SSTORE POP POP POP POP POP POP JUMP JUMPDEST PUSH1 0x0 DUP2 DUP2 MSTORE PUSH1 0x2 PUSH1 0x20 MSTORE PUSH1 0x40 DUP2 KECCAK256 SLOAD PUSH1 0x1 PUSH1 0x1 PUSH1 0xA0 SHL SUB AND DUP1 PUSH2 0x761 JUMPI PUSH1 0x40 MLOAD PUSH3 0x461BCD PUSH1 0xE5 SHL DUP2 MSTORE PUSH1 0x20 PUSH1 0x4 DUP3 ADD MSTORE PUSH1 0x29 PUSH1 0x24 DUP3 ADD MSTORE PUSH32 0x4552433732313A206F776E657220717565727920666F72206E6F6E6578697374 PUSH1 0x44 DUP3 ADD MSTORE PUSH9 0x32B73A103A37B5B2B7 PUSH1 0xB9 SHL PUSH1 0x64 DUP3 ADD MSTORE PUSH1 0x84 ADD PUSH2 0x861 JUMP JUMPDEST PUSH1 0x0 PUSH1 0x1 PUSH1 0x1 PUSH1 0xA0 SHL SUB DUP3 AND PUSH2 0x16AE JUMPI PUSH1 0x40 MLOAD PUSH3 0x461BCD PUSH1 0xE5 SHL DUP2 MSTORE PUSH1 0x20 PUSH1 0x4 DUP3 ADD MSTORE PUSH1 0x2A PUSH1 0x24 DUP3 ADD MSTORE PUSH32 0x4552433732313A2062616C616E636520717565727920666F7220746865207A65 PUSH1 0x44 DUP3 ADD MSTORE PUSH10 0x726F2061646472657373 PUSH1 0xB0 SHL PUSH1 0x64 DUP3 ADD MSTORE PUSH1 0x84 ADD PUSH2 0x861 JUMP JUMPDEST POP PUSH1 0x1 PUSH1 0x1 PUSH1 0xA0 SHL SUB AND PUSH1 0x0 SWAP1 DUP2 MSTORE PUSH1 0x3 PUSH1 0x20 MSTORE PUSH1 0x40 SWAP1 KECCAK256 SLOAD SWAP1 JUMP JUMPDEST PUSH1 0xA SLOAD PUSH1 0x1 PUSH1 0x1 PUSH1 0xA0 SHL SUB AND CALLER EQ PUSH2 0x16F4 JUMPI PUSH1 0x40 MLOAD PUSH3 0x461BCD PUSH1 0xE5 SHL DUP2 MSTORE PUSH1 0x4 ADD PUSH2 0x861 SWAP1 PUSH2 0x3D9E JUMP JUMPDEST PUSH2 0x16FE PUSH1 0x0 PUSH2 0x2F67 JUMP JUMPDEST JUMP JUMPDEST PUSH1 0x60 PUSH1 0x0 PUSH2 0x170D DUP4 PUSH2 0x1643 JUMP JUMPDEST SWAP1 POP DUP1 PUSH2 0x172E JUMPI PUSH1 0x40 DUP1 MLOAD PUSH1 0x0 DUP1 DUP3 MSTORE PUSH1 0x20 DUP3 ADD SWAP1 SWAP3 MSTORE SWAP1 JUMPDEST POP SWAP4 SWAP3 POP POP POP JUMP JUMPDEST PUSH1 0x0 DUP2 PUSH8 0xFFFFFFFFFFFFFFFF DUP2 GT ISZERO PUSH2 0x1749 JUMPI PUSH2 0x1749 PUSH2 0x40A9 JUMP JUMPDEST PUSH1 0x40 MLOAD SWAP1 DUP1 DUP3 MSTORE DUP1 PUSH1 0x20 MUL PUSH1 0x20 ADD DUP3 ADD PUSH1 0x40 MSTORE DUP1 ISZERO PUSH2 0x1772 JUMPI DUP2 PUSH1 0x20 ADD PUSH1 0x20 DUP3 MUL DUP1 CALLDATASIZE DUP4 CALLDATACOPY ADD SWAP1 POP JUMPDEST POP SWAP1 POP PUSH1 0x0 JUMPDEST DUP3 DUP2 LT ISZERO PUSH2 0x1726 JUMPI PUSH2 0x178A DUP6 DUP3 PUSH2 0xC6F JUMP JUMPDEST DUP3 DUP3 DUP2 MLOAD DUP2 LT PUSH2 0x179C JUMPI PUSH2 0x179C PUSH2 0x4093 JUMP JUMPDEST PUSH1 0x20 SWAP1 DUP2 MUL SWAP2 SWAP1 SWAP2 ADD ADD MSTORE DUP1 PUSH2 0x17B1 DUP2 PUSH2 0x400C JUMP JUMPDEST SWAP2 POP POP PUSH2 0x1778 JUMP JUMPDEST POP SWAP2 SWAP1 POP JUMP JUMPDEST CALLER PUSH2 0x17C9 JUMPI PUSH1 0x0 DUP1 REVERT JUMPDEST PUSH1 0xA SLOAD PUSH1 0x1 PUSH1 0x1 PUSH1 0xA0 SHL SUB AND CALLER EQ ISZERO PUSH2 0x17E1 JUMPI PUSH1 0x0 DUP1 REVERT JUMPDEST PUSH1 0x11 SLOAD DUP2 GT ISZERO PUSH2 0x1803 JUMPI PUSH1 0x40 MLOAD PUSH3 0x461BCD PUSH1 0xE5 SHL DUP2 MSTORE PUSH1 0x4 ADD PUSH2 0x861 SWAP1 PUSH2 0x3DD3 JUMP JUMPDEST PUSH1 0x0 DUP2 DUP2 MSTORE PUSH1 0xE PUSH1 0x20 SWAP1 DUP2 MSTORE PUSH1 0x40 DUP1 DUP4 KECCAK256 DUP2 MLOAD PUSH1 0xE0 DUP2 ADD DUP4 MSTORE DUP2 SLOAD DUP2 MSTORE PUSH1 0x1 DUP3 ADD SLOAD SWAP4 DUP2 ADD SWAP4 SWAP1 SWAP4 MSTORE PUSH1 0x2 DUP2 ADD SLOAD SWAP2 DUP4 ADD SWAP2 SWAP1 SWAP2 MSTORE PUSH1 0x3 DUP1 DUP3 ADD SLOAD PUSH1 0x60 DUP5 ADD SWAP2 PUSH1 0xFF SWAP1 SWAP2 AND SWAP1 DUP2 GT ISZERO PUSH2 0x1858 JUMPI PUSH2 0x1858 PUSH2 0x4067 JUMP JUMPDEST PUSH1 0x3 DUP2 GT ISZERO PUSH2 0x1869 JUMPI PUSH2 0x1869 PUSH2 0x4067 JUMP JUMPDEST DUP2 MSTORE PUSH1 0x20 ADD PUSH1 0x4 DUP3 ADD SLOAD DUP2 MSTORE PUSH1 0x20 ADD PUSH1 0x5 DUP3 ADD DUP1 SLOAD DUP1 PUSH1 0x20 MUL PUSH1 0x20 ADD PUSH1 0x40 MLOAD SWAP1 DUP2 ADD PUSH1 0x40 MSTORE DUP1 SWAP3 SWAP2 SWAP1 DUP2 DUP2 MSTORE PUSH1 0x20 ADD DUP3 DUP1 SLOAD DUP1 ISZERO PUSH2 0x18F6 JUMPI PUSH1 0x20 MUL DUP3 ADD SWAP2 SWAP1 PUSH1 0x0 MSTORE PUSH1 0x20 PUSH1 0x0 KECCAK256 SWAP1 PUSH1 0x0 SWAP1 JUMPDEST DUP3 DUP3 SWAP1 SLOAD SWAP1 PUSH2 0x100 EXP SWAP1 DIV PUSH1 0xFF AND PUSH1 0xC DUP2 GT ISZERO PUSH2 0x18D4 JUMPI PUSH2 0x18D4 PUSH2 0x4067 JUMP JUMPDEST DUP2 MSTORE PUSH1 0x20 PUSH1 0x1 SWAP3 DUP4 ADD DUP2 DUP2 DIV SWAP5 DUP6 ADD SWAP5 SWAP1 SWAP4 SUB SWAP1 SWAP3 MUL SWAP2 ADD DUP1 DUP5 GT PUSH2 0x18B5 JUMPI SWAP1 POP JUMPDEST POP POP POP SWAP2 DUP4 MSTORE POP POP PUSH1 0x6 SWAP2 SWAP1 SWAP2 ADD SLOAD PUSH1 0xFF AND ISZERO ISZERO PUSH1 0x20 SWAP1 SWAP2 ADD MSTORE PUSH1 0x40 DUP2 ADD MLOAD SWAP1 SWAP2 POP CALLVALUE LT ISZERO PUSH2 0x1924 JUMPI PUSH1 0x0 DUP1 REVERT JUMPDEST PUSH1 0x0 DUP1 JUMPDEST DUP3 PUSH1 0xA0 ADD MLOAD MLOAD DUP2 LT ISZERO PUSH2 0x1A51 JUMPI PUSH1 0x1 JUMPDEST PUSH1 0x10 SLOAD DUP2 GT PUSH2 0x1A3E JUMPI PUSH1 0x1 PUSH1 0x0 DUP3 DUP2 MSTORE PUSH1 0xD PUSH1 0x20 MSTORE PUSH1 0x40 SWAP1 KECCAK256 PUSH1 0x2 ADD SLOAD PUSH1 0xFF AND PUSH1 0x4 DUP2 GT ISZERO PUSH2 0x1969 JUMPI PUSH2 0x1969 PUSH2 0x4067 JUMP JUMPDEST EQ DUP1 ISZERO PUSH2 0x19CF JUMPI POP DUP4 PUSH1 0xA0 ADD MLOAD DUP3 DUP2 MLOAD DUP2 LT PUSH2 0x1987 JUMPI PUSH2 0x1987 PUSH2 0x4093 JUMP JUMPDEST PUSH1 0x20 MUL PUSH1 0x20 ADD ADD MLOAD PUSH1 0xC DUP2 GT ISZERO PUSH2 0x19A0 JUMPI PUSH2 0x19A0 PUSH2 0x4067 JUMP JUMPDEST PUSH1 0x0 DUP3 DUP2 MSTORE PUSH1 0xD PUSH1 0x20 MSTORE PUSH1 0x40 SWAP1 KECCAK256 PUSH1 0x2 ADD SLOAD PUSH4 0x1000000 SWAP1 DIV PUSH1 0xFF AND PUSH1 0xC DUP2 GT ISZERO PUSH2 0x19CD JUMPI PUSH2 0x19CD PUSH2 0x4067 JUMP JUMPDEST EQ JUMPDEST DUP1 ISZERO PUSH2 0x1A19 JUMPI POP DUP4 PUSH1 0x60 ADD MLOAD PUSH1 0x3 DUP2 GT ISZERO PUSH2 0x19EC JUMPI PUSH2 0x19EC PUSH2 0x4067 JUMP JUMPDEST PUSH1 0x0 DUP3 DUP2 MSTORE PUSH1 0xD PUSH1 0x20 MSTORE PUSH1 0x40 SWAP1 KECCAK256 PUSH1 0x2 ADD SLOAD PUSH2 0x100 SWAP1 DIV PUSH1 0xFF AND PUSH1 0x3 DUP2 GT ISZERO PUSH2 0x1A17 JUMPI PUSH2 0x1A17 PUSH2 0x4067 JUMP JUMPDEST EQ JUMPDEST ISZERO PUSH2 0x1A2C JUMPI DUP3 PUSH2 0x1A28 DUP2 PUSH2 0x400C JUMP JUMPDEST SWAP4 POP POP JUMPDEST DUP1 PUSH2 0x1A36 DUP2 PUSH2 0x400C JUMP JUMPDEST SWAP2 POP POP PUSH2 0x1938 JUMP JUMPDEST POP DUP1 PUSH2 0x1A49 DUP2 PUSH2 0x400C JUMP JUMPDEST SWAP2 POP POP PUSH2 0x1928 JUMP JUMPDEST POP DUP2 PUSH1 0x20 ADD MLOAD DUP2 LT ISZERO PUSH2 0x1AB2 JUMPI PUSH1 0x40 MLOAD PUSH3 0x461BCD PUSH1 0xE5 SHL DUP2 MSTORE PUSH1 0x20 PUSH1 0x4 DUP3 ADD MSTORE PUSH1 0x24 DUP1 DUP3 ADD MSTORE PUSH32 0x546865726520617265206E6F20656E6F75676820617661696C61626C6520746F PUSH1 0x44 DUP3 ADD MSTORE PUSH4 0x6B656E73 PUSH1 0xE0 SHL PUSH1 0x64 DUP3 ADD MSTORE PUSH1 0x84 ADD PUSH2 0x861 JUMP JUMPDEST PUSH1 0x0 DUP2 PUSH8 0xFFFFFFFFFFFFFFFF DUP2 GT ISZERO PUSH2 0x1ACD JUMPI PUSH2 0x1ACD PUSH2 0x40A9 JUMP JUMPDEST PUSH1 0x40 MLOAD SWAP1 DUP1 DUP3 MSTORE DUP1 PUSH1 0x20 MUL PUSH1 0x20 ADD DUP3 ADD PUSH1 0x40 MSTORE DUP1 ISZERO PUSH2 0x1AF6 JUMPI DUP2 PUSH1 0x20 ADD PUSH1 0x20 DUP3 MUL DUP1 CALLDATASIZE DUP4 CALLDATACOPY ADD SWAP1 POP JUMPDEST POP SWAP1 POP PUSH1 0x0 DUP1 JUMPDEST DUP5 PUSH1 0xA0 ADD MLOAD MLOAD DUP2 LT ISZERO PUSH2 0x1C43 JUMPI PUSH1 0x1 JUMPDEST PUSH1 0x10 SLOAD DUP2 GT PUSH2 0x1C30 JUMPI PUSH1 0x1 PUSH1 0x0 DUP3 DUP2 MSTORE PUSH1 0xD PUSH1 0x20 MSTORE PUSH1 0x40 SWAP1 KECCAK256 PUSH1 0x2 ADD SLOAD PUSH1 0xFF AND PUSH1 0x4 DUP2 GT ISZERO PUSH2 0x1B3E JUMPI PUSH2 0x1B3E PUSH2 0x4067 JUMP JUMPDEST EQ DUP1 ISZERO PUSH2 0x1BA4 JUMPI POP DUP6 PUSH1 0xA0 ADD MLOAD DUP3 DUP2 MLOAD DUP2 LT PUSH2 0x1B5C JUMPI PUSH2 0x1B5C PUSH2 0x4093 JUMP JUMPDEST PUSH1 0x20 MUL PUSH1 0x20 ADD ADD MLOAD PUSH1 0xC DUP2 GT ISZERO PUSH2 0x1B75 JUMPI PUSH2 0x1B75 PUSH2 0x4067 JUMP JUMPDEST PUSH1 0x0 DUP3 DUP2 MSTORE PUSH1 0xD PUSH1 0x20 MSTORE PUSH1 0x40 SWAP1 KECCAK256 PUSH1 0x2 ADD SLOAD PUSH4 0x1000000 SWAP1 DIV PUSH1 0xFF AND PUSH1 0xC DUP2 GT ISZERO PUSH2 0x1BA2 JUMPI PUSH2 0x1BA2 PUSH2 0x4067 JUMP JUMPDEST EQ JUMPDEST DUP1 ISZERO PUSH2 0x1BEE JUMPI POP DUP6 PUSH1 0x60 ADD MLOAD PUSH1 0x3 DUP2 GT ISZERO PUSH2 0x1BC1 JUMPI PUSH2 0x1BC1 PUSH2 0x4067 JUMP JUMPDEST PUSH1 0x0 DUP3 DUP2 MSTORE PUSH1 0xD PUSH1 0x20 MSTORE PUSH1 0x40 SWAP1 KECCAK256 PUSH1 0x2 ADD SLOAD PUSH2 0x100 SWAP1 DIV PUSH1 0xFF AND PUSH1 0x3 DUP2 GT ISZERO PUSH2 0x1BEC JUMPI PUSH2 0x1BEC PUSH2 0x4067 JUMP JUMPDEST EQ JUMPDEST ISZERO PUSH2 0x1C1E JUMPI DUP1 DUP5 DUP5 PUSH2 0x1BFF DUP2 PUSH2 0x400C JUMP JUMPDEST SWAP6 POP DUP2 MLOAD DUP2 LT PUSH2 0x1C11 JUMPI PUSH2 0x1C11 PUSH2 0x4093 JUMP JUMPDEST PUSH1 0x20 MUL PUSH1 0x20 ADD ADD DUP2 DUP2 MSTORE POP POP JUMPDEST DUP1 PUSH2 0x1C28 DUP2 PUSH2 0x400C JUMP JUMPDEST SWAP2 POP POP PUSH2 0x1B0D JUMP JUMPDEST POP DUP1 PUSH2 0x1C3B DUP2 PUSH2 0x400C JUMP JUMPDEST SWAP2 POP POP PUSH2 0x1AFD JUMP JUMPDEST POP PUSH1 0x0 DUP5 PUSH1 0x20 ADD MLOAD PUSH8 0xFFFFFFFFFFFFFFFF DUP2 GT ISZERO PUSH2 0x1C63 JUMPI PUSH2 0x1C63 PUSH2 0x40A9 JUMP JUMPDEST PUSH1 0x40 MLOAD SWAP1 DUP1 DUP3 MSTORE DUP1 PUSH1 0x20 MUL PUSH1 0x20 ADD DUP3 ADD PUSH1 0x40 MSTORE DUP1 ISZERO PUSH2 0x1C8C JUMPI DUP2 PUSH1 0x20 ADD PUSH1 0x20 DUP3 MUL DUP1 CALLDATASIZE DUP4 CALLDATACOPY ADD SWAP1 POP JUMPDEST POP SWAP1 POP PUSH1 0x0 PUSH1 0x1 DUP2 JUMPDEST DUP8 PUSH1 0x20 ADD MLOAD DUP2 LT ISZERO PUSH2 0x1DAF JUMPI JUMPDEST PUSH1 0x0 DUP8 TIMESTAMP CALLER DUP6 PUSH2 0x1CB1 DUP2 PUSH2 0x400C JUMP JUMPDEST SWAP7 POP PUSH1 0x40 MLOAD PUSH1 0x20 ADD PUSH2 0x1CE8 SWAP4 SWAP3 SWAP2 SWAP1 SWAP3 DUP4 MSTORE PUSH1 0x60 SWAP2 SWAP1 SWAP2 SHL PUSH12 0xFFFFFFFFFFFFFFFFFFFFFFFF NOT AND PUSH1 0x20 DUP4 ADD MSTORE PUSH1 0x34 DUP3 ADD MSTORE PUSH1 0x54 ADD SWAP1 JUMP JUMPDEST PUSH1 0x40 MLOAD PUSH1 0x20 DUP2 DUP4 SUB SUB DUP2 MSTORE SWAP1 PUSH1 0x40 MSTORE DUP1 MLOAD SWAP1 PUSH1 0x20 ADD KECCAK256 PUSH1 0x0 SHR PUSH2 0x1D0B SWAP2 SWAP1 PUSH2 0x4027 JUMP JUMPDEST SWAP1 POP PUSH1 0x0 DUP1 JUMPDEST DUP6 DUP2 LT ISZERO PUSH2 0x1D5F JUMPI DUP2 ISZERO DUP1 ISZERO PUSH2 0x1D3F JUMPI POP DUP7 DUP2 DUP2 MLOAD DUP2 LT PUSH2 0x1D34 JUMPI PUSH2 0x1D34 PUSH2 0x4093 JUMP JUMPDEST PUSH1 0x20 MUL PUSH1 0x20 ADD ADD MLOAD DUP4 EQ JUMPDEST ISZERO PUSH2 0x1D4D JUMPI PUSH1 0x1 SWAP2 POP PUSH2 0x1D5F JUMP JUMPDEST DUP1 PUSH2 0x1D57 DUP2 PUSH2 0x400C JUMP JUMPDEST SWAP2 POP POP PUSH2 0x1D11 JUMP JUMPDEST POP DUP1 PUSH2 0x1D96 JUMPI DUP2 DUP7 DUP7 PUSH2 0x1D71 DUP2 PUSH2 0x400C JUMP JUMPDEST SWAP8 POP DUP2 MLOAD DUP2 LT PUSH2 0x1D83 JUMPI PUSH2 0x1D83 PUSH2 0x4093 JUMP JUMPDEST PUSH1 0x20 MUL PUSH1 0x20 ADD ADD DUP2 DUP2 MSTORE POP POP POP POP PUSH2 0x1D9D JUMP JUMPDEST POP POP PUSH2 0x1CA2 JUMP JUMPDEST DUP1 PUSH2 0x1DA7 DUP2 PUSH2 0x400C JUMP JUMPDEST SWAP2 POP POP PUSH2 0x1C95 JUMP JUMPDEST POP PUSH1 0x0 JUMPDEST DUP8 PUSH1 0x20 ADD MLOAD DUP2 LT ISZERO PUSH2 0x200A JUMPI PUSH1 0x0 DUP7 DUP6 DUP4 DUP2 MLOAD DUP2 LT PUSH2 0x1DD4 JUMPI PUSH2 0x1DD4 PUSH2 0x4093 JUMP JUMPDEST PUSH1 0x20 MUL PUSH1 0x20 ADD ADD MLOAD DUP2 MLOAD DUP2 LT PUSH2 0x1DEC JUMPI PUSH2 0x1DEC PUSH2 0x4093 JUMP JUMPDEST PUSH1 0x20 MUL PUSH1 0x20 ADD ADD MLOAD SWAP1 POP PUSH1 0x0 PUSH2 0x1E01 DUP3 PUSH2 0x15CC JUMP JUMPDEST SWAP1 POP PUSH2 0x1E0E DUP2 CALLER DUP5 PUSH2 0x2DA5 JUMP JUMPDEST PUSH1 0x0 DUP3 DUP2 MSTORE PUSH1 0xD PUSH1 0x20 SWAP1 DUP2 MSTORE PUSH1 0x40 DUP1 DUP4 KECCAK256 DUP2 MLOAD PUSH1 0xC0 DUP2 ADD DUP4 MSTORE DUP2 SLOAD DUP2 MSTORE PUSH1 0x1 DUP3 ADD SLOAD SWAP4 DUP2 ADD SWAP4 SWAP1 SWAP4 MSTORE PUSH1 0x2 DUP2 ADD SLOAD SWAP1 SWAP2 DUP4 ADD SWAP1 PUSH1 0xFF AND PUSH1 0x4 DUP2 GT ISZERO PUSH2 0x1E55 JUMPI PUSH2 0x1E55 PUSH2 0x4067 JUMP JUMPDEST PUSH1 0x4 DUP2 GT ISZERO PUSH2 0x1E66 JUMPI PUSH2 0x1E66 PUSH2 0x4067 JUMP JUMPDEST DUP2 MSTORE PUSH1 0x20 ADD PUSH1 0x2 DUP3 ADD PUSH1 0x1 SWAP1 SLOAD SWAP1 PUSH2 0x100 EXP SWAP1 DIV PUSH1 0xFF AND PUSH1 0x3 DUP2 GT ISZERO PUSH2 0x1E8E JUMPI PUSH2 0x1E8E PUSH2 0x4067 JUMP JUMPDEST PUSH1 0x3 DUP2 GT ISZERO PUSH2 0x1E9F JUMPI PUSH2 0x1E9F PUSH2 0x4067 JUMP JUMPDEST DUP2 MSTORE PUSH1 0x20 ADD PUSH1 0x2 DUP3 ADD PUSH1 0x2 SWAP1 SLOAD SWAP1 PUSH2 0x100 EXP SWAP1 DIV PUSH1 0xFF AND PUSH1 0x7 DUP2 GT ISZERO PUSH2 0x1EC7 JUMPI PUSH2 0x1EC7 PUSH2 0x4067 JUMP JUMPDEST PUSH1 0x7 DUP2 GT ISZERO PUSH2 0x1ED8 JUMPI PUSH2 0x1ED8 PUSH2 0x4067 JUMP JUMPDEST DUP2 MSTORE PUSH1 0x20 ADD PUSH1 0x2 DUP3 ADD PUSH1 0x3 SWAP1 SLOAD SWAP1 PUSH2 0x100 EXP SWAP1 DIV PUSH1 0xFF AND PUSH1 0xC DUP2 GT ISZERO PUSH2 0x1F00 JUMPI PUSH2 0x1F00 PUSH2 0x4067 JUMP JUMPDEST PUSH1 0xC DUP2 GT ISZERO PUSH2 0x1F11 JUMPI PUSH2 0x1F11 PUSH2 0x4067 JUMP JUMPDEST SWAP1 MSTORE POP SWAP1 POP PUSH1 0x2 PUSH1 0x40 DUP3 ADD DUP2 SWAP1 MSTORE POP PUSH1 0x0 DUP4 DUP2 MSTORE PUSH1 0xD PUSH1 0x20 SWAP1 DUP2 MSTORE PUSH1 0x40 SWAP2 DUP3 SWAP1 KECCAK256 DUP4 MLOAD DUP2 SSTORE SWAP1 DUP4 ADD MLOAD PUSH1 0x1 DUP1 DUP4 ADD SWAP2 SWAP1 SWAP2 SSTORE SWAP2 DUP4 ADD MLOAD PUSH1 0x2 DUP3 ADD DUP1 SLOAD DUP6 SWAP5 PUSH1 0xFF NOT SWAP1 SWAP2 AND SWAP1 DUP4 PUSH1 0x4 DUP2 GT ISZERO PUSH2 0x1F68 JUMPI PUSH2 0x1F68 PUSH2 0x4067 JUMP JUMPDEST MUL OR SWAP1 SSTORE POP PUSH1 0x60 DUP3 ADD MLOAD PUSH1 0x2 DUP3 ADD DUP1 SLOAD PUSH2 0xFF00 NOT AND PUSH2 0x100 DUP4 PUSH1 0x3 DUP2 GT ISZERO PUSH2 0x1F92 JUMPI PUSH2 0x1F92 PUSH2 0x4067 JUMP JUMPDEST MUL OR SWAP1 SSTORE POP PUSH1 0x80 DUP3 ADD MLOAD PUSH1 0x2 DUP3 ADD DUP1 SLOAD PUSH3 0xFF0000 NOT AND PUSH3 0x10000 DUP4 PUSH1 0x7 DUP2 GT ISZERO PUSH2 0x1FBE JUMPI PUSH2 0x1FBE PUSH2 0x4067 JUMP JUMPDEST MUL OR SWAP1 SSTORE POP PUSH1 0xA0 DUP3 ADD MLOAD PUSH1 0x2 DUP3 ADD DUP1 SLOAD PUSH4 0xFF000000 NOT AND PUSH4 0x1000000 DUP4 PUSH1 0xC DUP2 GT ISZERO PUSH2 0x1FEC JUMPI PUSH2 0x1FEC PUSH2 0x4067 JUMP JUMPDEST MUL OR SWAP1 SSTORE POP SWAP1 POP POP POP POP POP DUP1 DUP1 PUSH2 0x2002 SWAP1 PUSH2 0x400C JUMP JUMPDEST SWAP2 POP POP PUSH2 0x1DB3 JUMP JUMPDEST POP PUSH1 0x0 PUSH2 0x201F PUSH1 0xA SLOAD PUSH1 0x1 PUSH1 0x1 PUSH1 0xA0 SHL SUB AND SWAP1 JUMP JUMPDEST PUSH1 0x40 MLOAD SWAP1 SWAP2 POP PUSH1 0x1 PUSH1 0x1 PUSH1 0xA0 SHL SUB DUP3 AND SWAP1 CALLVALUE DUP1 ISZERO PUSH2 0x8FC MUL SWAP2 PUSH1 0x0 DUP2 DUP2 DUP2 DUP6 DUP9 DUP9 CALL SWAP4 POP POP POP POP ISZERO DUP1 ISZERO PUSH2 0x2057 JUMPI RETURNDATASIZE PUSH1 0x0 DUP1 RETURNDATACOPY RETURNDATASIZE PUSH1 0x0 REVERT JUMPDEST POP POP POP POP POP POP POP POP POP POP JUMP JUMPDEST PUSH1 0xA SLOAD PUSH1 0x1 PUSH1 0x1 PUSH1 0xA0 SHL SUB AND CALLER EQ PUSH2 0x208D JUMPI PUSH1 0x40 MLOAD PUSH3 0x461BCD PUSH1 0xE5 SHL DUP2 MSTORE PUSH1 0x4 ADD PUSH2 0x861 SWAP1 PUSH2 0x3D9E JUMP JUMPDEST PUSH1 0x11 SLOAD DUP2 GT ISZERO PUSH2 0x209C JUMPI PUSH1 0x0 DUP1 REVERT JUMPDEST PUSH1 0x0 SWAP1 DUP2 MSTORE PUSH1 0xE PUSH1 0x20 MSTORE PUSH1 0x40 SWAP1 KECCAK256 PUSH1 0x6 ADD DUP1 SLOAD PUSH1 0xFF NOT AND PUSH1 0x1 OR SWAP1 SSTORE JUMP JUMPDEST PUSH1 0x60 PUSH1 0x1 DUP1 SLOAD PUSH2 0x776 SWAP1 PUSH2 0x3FD7 JUMP JUMPDEST PUSH1 0x1 PUSH1 0x1 PUSH1 0xA0 SHL SUB DUP3 AND CALLER EQ ISZERO PUSH2 0x2122 JUMPI PUSH1 0x40 MLOAD PUSH3 0x461BCD PUSH1 0xE5 SHL DUP2 MSTORE PUSH1 0x20 PUSH1 0x4 DUP3 ADD MSTORE PUSH1 0x19 PUSH1 0x24 DUP3 ADD MSTORE PUSH32 0x4552433732313A20617070726F766520746F2063616C6C657200000000000000 PUSH1 0x44 DUP3 ADD MSTORE PUSH1 0x64 ADD PUSH2 0x861 JUMP JUMPDEST CALLER PUSH1 0x0 DUP2 DUP2 MSTORE PUSH1 0x5 PUSH1 0x20 SWAP1 DUP2 MSTORE PUSH1 0x40 DUP1 DUP4 KECCAK256 PUSH1 0x1 PUSH1 0x1 PUSH1 0xA0 SHL SUB DUP8 AND DUP1 DUP6 MSTORE SWAP1 DUP4 MSTORE SWAP3 DUP2 SWAP1 KECCAK256 DUP1 SLOAD PUSH1 0xFF NOT AND DUP7 ISZERO ISZERO SWAP1 DUP2 OR SWAP1 SWAP2 SSTORE SWAP1 MLOAD SWAP1 DUP2 MSTORE SWAP2 SWAP3 SWAP2 PUSH32 0x17307EAB39AB6107E8899845AD3D59BD9653F200F220920489CA2B5937696C31 SWAP2 ADD PUSH1 0x40 MLOAD DUP1 SWAP2 SUB SWAP1 LOG3 POP POP JUMP JUMPDEST PUSH2 0x2198 CALLER DUP4 PUSH2 0x2CBB JUMP JUMPDEST PUSH2 0x21B4 JUMPI PUSH1 0x40 MLOAD PUSH3 0x461BCD PUSH1 0xE5 SHL DUP2 MSTORE PUSH1 0x4 ADD PUSH2 0x861 SWAP1 PUSH2 0x3E01 JUMP JUMPDEST PUSH2 0x21C0 DUP5 DUP5 DUP5 DUP5 PUSH2 0x2FB9 JUMP JUMPDEST POP POP POP POP JUMP JUMPDEST PUSH2 0x21CF DUP3 PUSH2 0x2C30 JUMP JUMPDEST PUSH2 0x21D8 JUMPI PUSH1 0x0 DUP1 REVERT JUMPDEST CALLER PUSH2 0x21E2 DUP4 PUSH2 0x15CC JUMP JUMPDEST PUSH1 0x1 PUSH1 0x1 PUSH1 0xA0 SHL SUB AND EQ PUSH2 0x21F5 JUMPI PUSH1 0x0 DUP1 REVERT JUMPDEST PUSH1 0x0 DUP3 DUP2 MSTORE PUSH1 0xD PUSH1 0x20 SWAP1 DUP2 MSTORE PUSH1 0x40 DUP1 DUP4 KECCAK256 DUP2 MLOAD PUSH1 0xC0 DUP2 ADD DUP4 MSTORE DUP2 SLOAD DUP2 MSTORE PUSH1 0x1 DUP3 ADD SLOAD SWAP4 DUP2 ADD SWAP4 SWAP1 SWAP4 MSTORE PUSH1 0x2 DUP2 ADD SLOAD SWAP1 SWAP2 DUP4 ADD SWAP1 PUSH1 0xFF AND PUSH1 0x4 DUP2 GT ISZERO PUSH2 0x223C JUMPI PUSH2 0x223C PUSH2 0x4067 JUMP JUMPDEST PUSH1 0x4 DUP2 GT ISZERO PUSH2 0x224D JUMPI PUSH2 0x224D PUSH2 0x4067 JUMP JUMPDEST DUP2 MSTORE PUSH1 0x20 ADD PUSH1 0x2 DUP3 ADD PUSH1 0x1 SWAP1 SLOAD SWAP1 PUSH2 0x100 EXP SWAP1 DIV PUSH1 0xFF AND PUSH1 0x3 DUP2 GT ISZERO PUSH2 0x2275 JUMPI PUSH2 0x2275 PUSH2 0x4067 JUMP JUMPDEST PUSH1 0x3 DUP2 GT ISZERO PUSH2 0x2286 JUMPI PUSH2 0x2286 PUSH2 0x4067 JUMP JUMPDEST DUP2 MSTORE PUSH1 0x20 ADD PUSH1 0x2 DUP3 ADD PUSH1 0x2 SWAP1 SLOAD SWAP1 PUSH2 0x100 EXP SWAP1 DIV PUSH1 0xFF AND PUSH1 0x7 DUP2 GT ISZERO PUSH2 0x22AE JUMPI PUSH2 0x22AE PUSH2 0x4067 JUMP JUMPDEST PUSH1 0x7 DUP2 GT ISZERO PUSH2 0x22BF JUMPI PUSH2 0x22BF PUSH2 0x4067 JUMP JUMPDEST DUP2 MSTORE PUSH1 0x20 ADD PUSH1 0x2 DUP3 ADD PUSH1 0x3 SWAP1 SLOAD SWAP1 PUSH2 0x100 EXP SWAP1 DIV PUSH1 0xFF AND PUSH1 0xC DUP2 GT ISZERO PUSH2 0x22E7 JUMPI PUSH2 0x22E7 PUSH2 0x4067 JUMP JUMPDEST PUSH1 0xC DUP2 GT ISZERO PUSH2 0x22F8 JUMPI PUSH2 0x22F8 PUSH2 0x4067 JUMP JUMPDEST SWAP1 MSTORE POP SWAP1 POP PUSH1 0x3 DUP3 PUSH1 0x4 DUP2 GT ISZERO PUSH2 0x2311 JUMPI PUSH2 0x2311 PUSH2 0x4067 JUMP JUMPDEST PUSH1 0x4 DUP2 GT ISZERO PUSH2 0x2322 JUMPI PUSH2 0x2322 PUSH2 0x4067 JUMP JUMPDEST LT ISZERO DUP1 ISZERO PUSH2 0x2353 JUMPI POP PUSH1 0x4 DUP3 PUSH1 0x4 DUP2 GT ISZERO PUSH2 0x233F JUMPI PUSH2 0x233F PUSH2 0x4067 JUMP JUMPDEST PUSH1 0x4 DUP2 GT ISZERO PUSH2 0x2350 JUMPI PUSH2 0x2350 PUSH2 0x4067 JUMP JUMPDEST GT ISZERO JUMPDEST PUSH2 0x235C JUMPI PUSH1 0x0 DUP1 REVERT JUMPDEST DUP2 PUSH1 0x4 DUP2 GT ISZERO PUSH2 0x236E JUMPI PUSH2 0x236E PUSH2 0x4067 JUMP JUMPDEST PUSH1 0x4 DUP2 GT ISZERO PUSH2 0x237F JUMPI PUSH2 0x237F PUSH2 0x4067 JUMP JUMPDEST DUP2 PUSH1 0x40 ADD MLOAD PUSH1 0x4 DUP2 GT ISZERO PUSH2 0x2395 JUMPI PUSH2 0x2395 PUSH2 0x4067 JUMP JUMPDEST EQ ISZERO PUSH2 0x23A0 JUMPI PUSH1 0x0 DUP1 REVERT JUMPDEST DUP2 PUSH1 0x4 DUP2 GT ISZERO PUSH2 0x23B2 JUMPI PUSH2 0x23B2 PUSH2 0x4067 JUMP JUMPDEST DUP2 PUSH1 0x40 ADD SWAP1 PUSH1 0x4 DUP2 GT ISZERO PUSH2 0x23C8 JUMPI PUSH2 0x23C8 PUSH2 0x4067 JUMP JUMPDEST SWAP1 DUP2 PUSH1 0x4 DUP2 GT ISZERO PUSH2 0x23DB JUMPI PUSH2 0x23DB PUSH2 0x4067 JUMP JUMPDEST SWAP1 MSTORE POP PUSH1 0x0 DUP4 DUP2 MSTORE PUSH1 0xD PUSH1 0x20 SWAP1 DUP2 MSTORE PUSH1 0x40 SWAP2 DUP3 SWAP1 KECCAK256 DUP4 MLOAD DUP2 SSTORE SWAP1 DUP4 ADD MLOAD PUSH1 0x1 DUP1 DUP4 ADD SWAP2 SWAP1 SWAP2 SSTORE SWAP2 DUP4 ADD MLOAD PUSH1 0x2 DUP3 ADD DUP1 SLOAD DUP6 SWAP5 PUSH1 0xFF NOT SWAP1 SWAP2 AND SWAP1 DUP4 PUSH1 0x4 DUP2 GT ISZERO PUSH2 0x153C JUMPI PUSH2 0x153C PUSH2 0x4067 JUMP JUMPDEST PUSH1 0xA SLOAD PUSH1 0x1 PUSH1 0x1 PUSH1 0xA0 SHL SUB AND CALLER EQ PUSH2 0x2450 JUMPI PUSH1 0x40 MLOAD PUSH3 0x461BCD PUSH1 0xE5 SHL DUP2 MSTORE PUSH1 0x4 ADD PUSH2 0x861 SWAP1 PUSH2 0x3D9E JUMP JUMPDEST PUSH1 0x2 PUSH1 0xB SLOAD EQ ISZERO PUSH2 0x24A3 JUMPI PUSH1 0x40 MLOAD PUSH3 0x461BCD PUSH1 0xE5 SHL DUP2 MSTORE PUSH1 0x20 PUSH1 0x4 DUP3 ADD MSTORE PUSH1 0x1F PUSH1 0x24 DUP3 ADD MSTORE PUSH32 0x5265656E7472616E637947756172643A207265656E7472616E742063616C6C00 PUSH1 0x44 DUP3 ADD MSTORE PUSH1 0x64 ADD PUSH2 0x861 JUMP JUMPDEST PUSH1 0x2 PUSH1 0xB SSTORE DUP5 ISZERO DUP1 ISZERO SWAP1 PUSH2 0x24BA JUMPI POP PUSH3 0x186A0 DUP6 GT ISZERO JUMPDEST PUSH2 0x2506 JUMPI PUSH1 0x40 MLOAD PUSH3 0x461BCD PUSH1 0xE5 SHL DUP2 MSTORE PUSH1 0x20 PUSH1 0x4 DUP3 ADD MSTORE PUSH1 0x1F PUSH1 0x24 DUP3 ADD MSTORE PUSH32 0x4D757374206D696E742066726F6D203120746F20313030303030204E46547300 PUSH1 0x44 DUP3 ADD MSTORE PUSH1 0x64 ADD PUSH2 0x861 JUMP JUMPDEST PUSH1 0x1 DUP4 LT ISZERO DUP1 ISZERO PUSH2 0x2518 JUMPI POP PUSH1 0x7 DUP4 GT ISZERO JUMPDEST PUSH2 0x257A JUMPI PUSH1 0x40 MLOAD PUSH3 0x461BCD PUSH1 0xE5 SHL DUP2 MSTORE PUSH1 0x20 PUSH1 0x4 DUP3 ADD MSTORE PUSH1 0x2D PUSH1 0x24 DUP3 ADD MSTORE PUSH32 0x546F6B656E2043617465676F7279206D7573742062652066726F6D2057454150 PUSH1 0x44 DUP3 ADD MSTORE PUSH13 0x4F4E5320746F20424144474553 PUSH1 0x98 SHL PUSH1 0x64 DUP3 ADD MSTORE PUSH1 0x84 ADD PUSH2 0x861 JUMP JUMPDEST PUSH1 0x1 DUP3 LT ISZERO DUP1 ISZERO PUSH2 0x258C JUMPI POP PUSH1 0xC DUP3 GT ISZERO JUMPDEST PUSH2 0x25F2 JUMPI PUSH1 0x40 MLOAD PUSH3 0x461BCD PUSH1 0xE5 SHL DUP2 MSTORE PUSH1 0x20 PUSH1 0x4 DUP3 ADD MSTORE PUSH1 0x31 PUSH1 0x24 DUP3 ADD MSTORE PUSH32 0x546F6B656E20526172697479206D7573742062652066726F6D20434F4D4D4F4E PUSH1 0x44 DUP3 ADD MSTORE PUSH17 0x81D1BC810931050D2D7D112505353D391 PUSH1 0x7A SHL PUSH1 0x64 DUP3 ADD MSTORE PUSH1 0x84 ADD PUSH2 0x861 JUMP JUMPDEST PUSH1 0x7 DUP4 EQ PUSH2 0x26A8 JUMPI PUSH1 0x1 DUP5 LT ISZERO DUP1 ISZERO PUSH2 0x260C JUMPI POP PUSH1 0x2 DUP5 GT ISZERO JUMPDEST PUSH2 0x2628 JUMPI PUSH1 0x40 MLOAD PUSH3 0x461BCD PUSH1 0xE5 SHL DUP2 MSTORE PUSH1 0x4 ADD PUSH2 0x861 SWAP1 PUSH2 0x3D4C JUMP JUMPDEST PUSH1 0x1 DUP3 LT ISZERO DUP1 ISZERO PUSH2 0x263A JUMPI POP PUSH1 0x7 DUP3 GT ISZERO JUMPDEST PUSH2 0x26A3 JUMPI PUSH1 0x40 MLOAD PUSH3 0x461BCD PUSH1 0xE5 SHL DUP2 MSTORE PUSH1 0x20 PUSH1 0x4 DUP3 ADD MSTORE PUSH1 0x34 PUSH1 0x24 DUP3 ADD MSTORE PUSH32 0x4E6F726D616C20546F6B656E20526172697479206D757374732062652066726F PUSH1 0x44 DUP3 ADD MSTORE PUSH20 0x1B4810D3D35353D3881D1BC8135655121250D053 PUSH1 0x62 SHL PUSH1 0x64 DUP3 ADD MSTORE PUSH1 0x84 ADD PUSH2 0x861 JUMP JUMPDEST PUSH2 0x278C JUMP JUMPDEST PUSH1 0x3 DUP5 EQ PUSH2 0x2708 JUMPI PUSH1 0x40 MLOAD PUSH3 0x461BCD PUSH1 0xE5 SHL DUP2 MSTORE PUSH1 0x20 PUSH1 0x4 DUP3 ADD MSTORE PUSH1 0x27 PUSH1 0x24 DUP3 ADD MSTORE PUSH32 0x426164676520546F6B656E2046616374696F6E206D75737420626520554E5350 PUSH1 0x44 DUP3 ADD MSTORE PUSH7 0x1150D251925151 PUSH1 0xCA SHL PUSH1 0x64 DUP3 ADD MSTORE PUSH1 0x84 ADD PUSH2 0x861 JUMP JUMPDEST PUSH1 0x8 DUP3 LT ISZERO DUP1 ISZERO PUSH2 0x271A JUMPI POP PUSH1 0xC DUP3 GT ISZERO JUMPDEST PUSH2 0x278C JUMPI PUSH1 0x40 MLOAD PUSH3 0x461BCD PUSH1 0xE5 SHL DUP2 MSTORE PUSH1 0x20 PUSH1 0x4 DUP3 ADD MSTORE PUSH1 0x38 PUSH1 0x24 DUP3 ADD MSTORE PUSH32 0x426164676520546F6B656E20526172697479206D757374732062652066726F6D PUSH1 0x44 DUP3 ADD MSTORE PUSH32 0x2042524F4E5A4520746F20424C41434B5F4449414D4F4E440000000000000000 PUSH1 0x64 DUP3 ADD MSTORE PUSH1 0x84 ADD PUSH2 0x861 JUMP JUMPDEST PUSH1 0x1 DUP5 EQ ISZERO PUSH2 0x281E JUMPI PUSH1 0x1 DUP4 LT ISZERO DUP1 ISZERO PUSH2 0x27A7 JUMPI POP PUSH1 0x3 DUP4 GT ISZERO JUMPDEST PUSH2 0x2819 JUMPI PUSH1 0x40 MLOAD PUSH3 0x461BCD PUSH1 0xE5 SHL DUP2 MSTORE PUSH1 0x20 PUSH1 0x4 DUP3 ADD MSTORE PUSH1 0x3B PUSH1 0x24 DUP3 ADD MSTORE PUSH32 0x5355525649564F525320546F6B656E2043617465676F7279206D757374206265 PUSH1 0x44 DUP3 ADD MSTORE PUSH32 0x2066726F6D20574541504F4E5320746F2041434345534F524945530000000000 PUSH1 0x64 DUP3 ADD MSTORE PUSH1 0x84 ADD PUSH2 0x861 JUMP JUMPDEST PUSH2 0x28BD JUMP JUMPDEST PUSH1 0x2 DUP5 EQ ISZERO PUSH2 0x28BD JUMPI PUSH1 0x4 DUP4 LT ISZERO DUP1 ISZERO PUSH2 0x2839 JUMPI POP PUSH1 0x6 DUP4 GT ISZERO JUMPDEST PUSH2 0x28BD JUMPI PUSH1 0x40 MLOAD PUSH3 0x461BCD PUSH1 0xE5 SHL DUP2 MSTORE PUSH1 0x20 PUSH1 0x4 DUP3 ADD MSTORE PUSH1 0x49 PUSH1 0x24 DUP3 ADD MSTORE PUSH32 0x534349454E544953545320546F6B656E2043617465676F7279206D7573742062 PUSH1 0x44 DUP3 ADD MSTORE PUSH32 0x652066726F6D20564952555345535F424143544552494120746F205649525553 PUSH1 0x64 DUP3 ADD MSTORE PUSH9 0x5F56415249414E5453 PUSH1 0xB8 SHL PUSH1 0x84 DUP3 ADD MSTORE PUSH1 0xA4 ADD PUSH2 0x861 JUMP JUMPDEST PUSH1 0x0 DUP2 GT PUSH2 0x290D JUMPI PUSH1 0x40 MLOAD PUSH3 0x461BCD PUSH1 0xE5 SHL DUP2 MSTORE PUSH1 0x20 PUSH1 0x4 DUP3 ADD MSTORE PUSH1 0x1F PUSH1 0x24 DUP3 ADD MSTORE PUSH32 0x5072696365206D7573742062652067726561746572207468616E207A65726F00 PUSH1 0x44 DUP3 ADD MSTORE PUSH1 0x64 ADD PUSH2 0x861 JUMP JUMPDEST PUSH1 0x0 JUMPDEST DUP6 DUP2 LT ISZERO PUSH2 0x2AD8 JUMPI PUSH1 0x10 DUP1 SLOAD SWAP1 PUSH1 0x0 PUSH2 0x2928 DUP4 PUSH2 0x400C JUMP JUMPDEST SWAP2 SWAP1 POP SSTORE POP PUSH2 0x294A PUSH2 0x2942 PUSH1 0xA SLOAD PUSH1 0x1 PUSH1 0x1 PUSH1 0xA0 SHL SUB AND SWAP1 JUMP JUMPDEST PUSH1 0x10 SLOAD PUSH2 0x2FEC JUMP JUMPDEST PUSH1 0x40 DUP1 MLOAD PUSH1 0xC0 DUP2 ADD DUP3 MSTORE PUSH1 0x10 SLOAD DUP2 MSTORE PUSH1 0x20 DUP2 ADD DUP5 SWAP1 MSTORE PUSH1 0x0 SWAP2 DUP2 ADD PUSH1 0x1 DUP2 MSTORE PUSH1 0x20 ADD DUP8 PUSH1 0x3 DUP2 GT ISZERO PUSH2 0x297E JUMPI PUSH2 0x297E PUSH2 0x4067 JUMP JUMPDEST PUSH1 0x3 DUP2 GT ISZERO PUSH2 0x298F JUMPI PUSH2 0x298F PUSH2 0x4067 JUMP JUMPDEST DUP2 MSTORE PUSH1 0x20 ADD DUP7 PUSH1 0x7 DUP2 GT ISZERO PUSH2 0x29A6 JUMPI PUSH2 0x29A6 PUSH2 0x4067 JUMP JUMPDEST PUSH1 0x7 DUP2 GT ISZERO PUSH2 0x29B7 JUMPI PUSH2 0x29B7 PUSH2 0x4067 JUMP JUMPDEST DUP2 MSTORE PUSH1 0x20 ADD DUP6 PUSH1 0xC DUP2 GT ISZERO PUSH2 0x29CE JUMPI PUSH2 0x29CE PUSH2 0x4067 JUMP JUMPDEST PUSH1 0xC DUP2 GT ISZERO PUSH2 0x29DF JUMPI PUSH2 0x29DF PUSH2 0x4067 JUMP JUMPDEST DUP2 MSTORE POP SWAP1 POP DUP1 PUSH1 0xD PUSH1 0x0 PUSH1 0x10 SLOAD DUP2 MSTORE PUSH1 0x20 ADD SWAP1 DUP2 MSTORE PUSH1 0x20 ADD PUSH1 0x0 KECCAK256 PUSH1 0x0 DUP3 ADD MLOAD DUP2 PUSH1 0x0 ADD SSTORE PUSH1 0x20 DUP3 ADD MLOAD DUP2 PUSH1 0x1 ADD SSTORE PUSH1 0x40 DUP3 ADD MLOAD DUP2 PUSH1 0x2 ADD PUSH1 0x0 PUSH2 0x100 EXP DUP2 SLOAD DUP2 PUSH1 0xFF MUL NOT AND SWAP1 DUP4 PUSH1 0x4 DUP2 GT ISZERO PUSH2 0x2A38 JUMPI PUSH2 0x2A38 PUSH2 0x4067 JUMP JUMPDEST MUL OR SWAP1 SSTORE POP PUSH1 0x60 DUP3 ADD MLOAD PUSH1 0x2 DUP3 ADD DUP1 SLOAD PUSH2 0xFF00 NOT AND PUSH2 0x100 DUP4 PUSH1 0x3 DUP2 GT ISZERO PUSH2 0x2A62 JUMPI PUSH2 0x2A62 PUSH2 0x4067 JUMP JUMPDEST MUL OR SWAP1 SSTORE POP PUSH1 0x80 DUP3 ADD MLOAD PUSH1 0x2 DUP3 ADD DUP1 SLOAD PUSH3 0xFF0000 NOT AND PUSH3 0x10000 DUP4 PUSH1 0x7 DUP2 GT ISZERO PUSH2 0x2A8E JUMPI PUSH2 0x2A8E PUSH2 0x4067 JUMP JUMPDEST MUL OR SWAP1 SSTORE POP PUSH1 0xA0 DUP3 ADD MLOAD PUSH1 0x2 DUP3 ADD DUP1 SLOAD PUSH4 0xFF000000 NOT AND PUSH4 0x1000000 DUP4 PUSH1 0xC DUP2 GT ISZERO PUSH2 0x2ABC JUMPI PUSH2 0x2ABC PUSH2 0x4067 JUMP JUMPDEST MUL OR SWAP1 SSTORE POP SWAP1 POP POP POP DUP1 DUP1 PUSH2 0x2AD0 SWAP1 PUSH2 0x400C JUMP JUMPDEST SWAP2 POP POP PUSH2 0x2910 JUMP JUMPDEST POP POP PUSH1 0x1 PUSH1 0xB SSTORE POP POP POP POP JUMP JUMPDEST PUSH1 0x60 PUSH1 0x0 PUSH2 0x2AF2 DUP4 PUSH2 0x3006 JUMP JUMPDEST SWAP1 POP PUSH1 0x0 DUP2 MLOAD GT PUSH2 0x2B12 JUMPI PUSH1 0x40 MLOAD DUP1 PUSH1 0x20 ADD PUSH1 0x40 MSTORE DUP1 PUSH1 0x0 DUP2 MSTORE POP PUSH2 0x2B33 JUMP JUMPDEST DUP1 PUSH1 0x40 MLOAD PUSH1 0x20 ADD PUSH2 0x2B23 SWAP2 SWAP1 PUSH2 0x3C1B JUMP JUMPDEST PUSH1 0x40 MLOAD PUSH1 0x20 DUP2 DUP4 SUB SUB DUP2 MSTORE SWAP1 PUSH1 0x40 MSTORE JUMPDEST SWAP4 SWAP3 POP POP POP JUMP JUMPDEST PUSH1 0xA SLOAD PUSH1 0x1 PUSH1 0x1 PUSH1 0xA0 SHL SUB AND CALLER EQ PUSH2 0x2B64 JUMPI PUSH1 0x40 MLOAD PUSH3 0x461BCD PUSH1 0xE5 SHL DUP2 MSTORE PUSH1 0x4 ADD PUSH2 0x861 SWAP1 PUSH2 0x3D9E JUMP JUMPDEST PUSH1 0xC DUP1 SLOAD PUSH1 0xFF NOT AND PUSH1 0x1 OR SWAP1 SSTORE JUMP JUMPDEST PUSH1 0xA SLOAD PUSH1 0x1 PUSH1 0x1 PUSH1 0xA0 SHL SUB AND CALLER EQ PUSH2 0x2B9D JUMPI PUSH1 0x40 MLOAD PUSH3 0x461BCD PUSH1 0xE5 SHL DUP2 MSTORE PUSH1 0x4 ADD PUSH2 0x861 SWAP1 PUSH2 0x3D9E JUMP JUMPDEST PUSH1 0x1 PUSH1 0x1 PUSH1 0xA0 SHL SUB DUP2 AND PUSH2 0x2C02 JUMPI PUSH1 0x40 MLOAD PUSH3 0x461BCD PUSH1 0xE5 SHL DUP2 MSTORE PUSH1 0x20 PUSH1 0x4 DUP3 ADD MSTORE PUSH1 0x26 PUSH1 0x24 DUP3 ADD MSTORE PUSH32 0x4F776E61626C653A206E6577206F776E657220697320746865207A65726F2061 PUSH1 0x44 DUP3 ADD MSTORE PUSH6 0x646472657373 PUSH1 0xD0 SHL PUSH1 0x64 DUP3 ADD MSTORE PUSH1 0x84 ADD PUSH2 0x861 JUMP JUMPDEST PUSH2 0x1388 DUP2 PUSH2 0x2F67 JUMP JUMPDEST PUSH1 0x0 PUSH1 0x1 PUSH1 0x1 PUSH1 0xE0 SHL SUB NOT DUP3 AND PUSH4 0x780E9D63 PUSH1 0xE0 SHL EQ DUP1 PUSH2 0x761 JUMPI POP PUSH2 0x761 DUP3 PUSH2 0x30C7 JUMP JUMPDEST PUSH1 0x0 SWAP1 DUP2 MSTORE PUSH1 0x2 PUSH1 0x20 MSTORE PUSH1 0x40 SWAP1 KECCAK256 SLOAD PUSH1 0x1 PUSH1 0x1 PUSH1 0xA0 SHL SUB AND ISZERO ISZERO SWAP1 JUMP JUMPDEST PUSH1 0x0 DUP2 DUP2 MSTORE PUSH1 0x4 PUSH1 0x20 MSTORE PUSH1 0x40 SWAP1 KECCAK256 DUP1 SLOAD PUSH1 0x1 PUSH1 0x1 PUSH1 0xA0 SHL SUB NOT AND PUSH1 0x1 PUSH1 0x1 PUSH1 0xA0 SHL SUB DUP5 AND SWAP1 DUP2 OR SWAP1 SWAP2 SSTORE DUP2 SWAP1 PUSH2 0x2C82 DUP3 PUSH2 0x15CC JUMP JUMPDEST PUSH1 0x1 PUSH1 0x1 PUSH1 0xA0 SHL SUB AND PUSH32 0x8C5BE1E5EBEC7D5BD14F71427D1E84F3DD0314C0F7B2291E5B200AC8C7C3B925 PUSH1 0x40 MLOAD PUSH1 0x40 MLOAD DUP1 SWAP2 SUB SWAP1 LOG4 POP POP JUMP JUMPDEST PUSH1 0x0 PUSH2 0x2CC6 DUP3 PUSH2 0x2C30 JUMP JUMPDEST PUSH2 0x2D27 JUMPI PUSH1 0x40 MLOAD PUSH3 0x461BCD PUSH1 0xE5 SHL DUP2 MSTORE PUSH1 0x20 PUSH1 0x4 DUP3 ADD MSTORE PUSH1 0x2C PUSH1 0x24 DUP3 ADD MSTORE PUSH32 0x4552433732313A206F70657261746F7220717565727920666F72206E6F6E6578 PUSH1 0x44 DUP3 ADD MSTORE PUSH12 0x34B9BA32B73A103A37B5B2B7 PUSH1 0xA1 SHL PUSH1 0x64 DUP3 ADD MSTORE PUSH1 0x84 ADD PUSH2 0x861 JUMP JUMPDEST PUSH1 0x0 PUSH2 0x2D32 DUP4 PUSH2 0x15CC JUMP JUMPDEST SWAP1 POP DUP1 PUSH1 0x1 PUSH1 0x1 PUSH1 0xA0 SHL SUB AND DUP5 PUSH1 0x1 PUSH1 0x1 PUSH1 0xA0 SHL SUB AND EQ DUP1 PUSH2 0x2D6D JUMPI POP DUP4 PUSH1 0x1 PUSH1 0x1 PUSH1 0xA0 SHL SUB AND PUSH2 0x2D62 DUP5 PUSH2 0x7F9 JUMP JUMPDEST PUSH1 0x1 PUSH1 0x1 PUSH1 0xA0 SHL SUB AND EQ JUMPDEST DUP1 PUSH2 0x2D9D JUMPI POP PUSH1 0x1 PUSH1 0x1 PUSH1 0xA0 SHL SUB DUP1 DUP3 AND PUSH1 0x0 SWAP1 DUP2 MSTORE PUSH1 0x5 PUSH1 0x20 SWAP1 DUP2 MSTORE PUSH1 0x40 DUP1 DUP4 KECCAK256 SWAP4 DUP9 AND DUP4 MSTORE SWAP3 SWAP1 MSTORE KECCAK256 SLOAD PUSH1 0xFF AND JUMPDEST SWAP5 SWAP4 POP POP POP POP JUMP JUMPDEST DUP3 PUSH1 0x1 PUSH1 0x1 PUSH1 0xA0 SHL SUB AND PUSH2 0x2DB8 DUP3 PUSH2 0x15CC JUMP JUMPDEST PUSH1 0x1 PUSH1 0x1 PUSH1 0xA0 SHL SUB AND EQ PUSH2 0x2E20 JUMPI PUSH1 0x40 MLOAD PUSH3 0x461BCD PUSH1 0xE5 SHL DUP2 MSTORE PUSH1 0x20 PUSH1 0x4 DUP3 ADD MSTORE PUSH1 0x29 PUSH1 0x24 DUP3 ADD MSTORE PUSH32 0x4552433732313A207472616E73666572206F6620746F6B656E20746861742069 PUSH1 0x44 DUP3 ADD MSTORE PUSH9 0x39903737BA1037BBB7 PUSH1 0xB9 SHL PUSH1 0x64 DUP3 ADD MSTORE PUSH1 0x84 ADD PUSH2 0x861 JUMP JUMPDEST PUSH1 0x1 PUSH1 0x1 PUSH1 0xA0 SHL SUB DUP3 AND PUSH2 0x2E82 JUMPI PUSH1 0x40 MLOAD PUSH3 0x461BCD PUSH1 0xE5 SHL DUP2 MSTORE PUSH1 0x20 PUSH1 0x4 DUP3 ADD MSTORE PUSH1 0x24 DUP1 DUP3 ADD MSTORE PUSH32 0x4552433732313A207472616E7366657220746F20746865207A65726F20616464 PUSH1 0x44 DUP3 ADD MSTORE PUSH4 0x72657373 PUSH1 0xE0 SHL PUSH1 0x64 DUP3 ADD MSTORE PUSH1 0x84 ADD PUSH2 0x861 JUMP JUMPDEST PUSH2 0x2E8D DUP4 DUP4 DUP4 PUSH2 0x3117 JUMP JUMPDEST PUSH2 0x2E98 PUSH1 0x0 DUP3 PUSH2 0x2C4D JUMP JUMPDEST PUSH1 0x1 PUSH1 0x1 PUSH1 0xA0 SHL SUB DUP4 AND PUSH1 0x0 SWAP1 DUP2 MSTORE PUSH1 0x3 PUSH1 0x20 MSTORE PUSH1 0x40 DUP2 KECCAK256 DUP1 SLOAD PUSH1 0x1 SWAP3 SWAP1 PUSH2 0x2EC1 SWAP1 DUP5 SWAP1 PUSH2 0x3F94 JUMP JUMPDEST SWAP1 SWAP2 SSTORE POP POP PUSH1 0x1 PUSH1 0x1 PUSH1 0xA0 SHL SUB DUP3 AND PUSH1 0x0 SWAP1 DUP2 MSTORE PUSH1 0x3 PUSH1 0x20 MSTORE PUSH1 0x40 DUP2 KECCAK256 DUP1 SLOAD PUSH1 0x1 SWAP3 SWAP1 PUSH2 0x2EEF SWAP1 DUP5 SWAP1 PUSH2 0x3F68 JUMP JUMPDEST SWAP1 SWAP2 SSTORE POP POP PUSH1 0x0 DUP2 DUP2 MSTORE PUSH1 0x2 PUSH1 0x20 MSTORE PUSH1 0x40 DUP1 DUP3 KECCAK256 DUP1 SLOAD PUSH1 0x1 PUSH1 0x1 PUSH1 0xA0 SHL SUB NOT AND PUSH1 0x1 PUSH1 0x1 PUSH1 0xA0 SHL SUB DUP7 DUP2 AND SWAP2 DUP3 OR SWAP1 SWAP3 SSTORE SWAP2 MLOAD DUP5 SWAP4 SWAP2 DUP8 AND SWAP2 PUSH32 0xDDF252AD1BE2C89B69C2B068FC378DAA952BA7F163C4A11628F55A4DF523B3EF SWAP2 LOG4 POP POP POP JUMP JUMPDEST DUP1 MLOAD PUSH2 0x2F63 SWAP1 PUSH1 0xF SWAP1 PUSH1 0x20 DUP5 ADD SWAP1 PUSH2 0x379B JUMP JUMPDEST POP POP JUMP JUMPDEST PUSH1 0xA DUP1 SLOAD PUSH1 0x1 PUSH1 0x1 PUSH1 0xA0 SHL SUB DUP4 DUP2 AND PUSH1 0x1 PUSH1 0x1 PUSH1 0xA0 SHL SUB NOT DUP4 AND DUP2 OR SWAP1 SWAP4 SSTORE PUSH1 0x40 MLOAD SWAP2 AND SWAP2 SWAP1 DUP3 SWAP1 PUSH32 0x8BE0079C531659141344CD1FD0A4F28419497F9722A3DAAFE3B4186F6B6457E0 SWAP1 PUSH1 0x0 SWAP1 LOG3 POP POP JUMP JUMPDEST PUSH2 0x2FC4 DUP5 DUP5 DUP5 PUSH2 0x2DA5 JUMP JUMPDEST PUSH2 0x2FD0 DUP5 DUP5 DUP5 DUP5 PUSH2 0x3122 JUMP JUMPDEST PUSH2 0x21C0 JUMPI PUSH1 0x40 MLOAD PUSH3 0x461BCD PUSH1 0xE5 SHL DUP2 MSTORE PUSH1 0x4 ADD PUSH2 0x861 SWAP1 PUSH2 0x3CFA JUMP JUMPDEST PUSH2 0x2F63 DUP3 DUP3 PUSH1 0x40 MLOAD DUP1 PUSH1 0x20 ADD PUSH1 0x40 MSTORE DUP1 PUSH1 0x0 DUP2 MSTORE POP PUSH2 0x322F JUMP JUMPDEST PUSH1 0x60 PUSH2 0x3011 DUP3 PUSH2 0x2C30 JUMP JUMPDEST PUSH2 0x3075 JUMPI PUSH1 0x40 MLOAD PUSH3 0x461BCD PUSH1 0xE5 SHL DUP2 MSTORE PUSH1 0x20 PUSH1 0x4 DUP3 ADD MSTORE PUSH1 0x2F PUSH1 0x24 DUP3 ADD MSTORE PUSH32 0x4552433732314D657461646174613A2055524920717565727920666F72206E6F PUSH1 0x44 DUP3 ADD MSTORE PUSH15 0x3732BC34B9BA32B73A103A37B5B2B7 PUSH1 0x89 SHL PUSH1 0x64 DUP3 ADD MSTORE PUSH1 0x84 ADD PUSH2 0x861 JUMP JUMPDEST PUSH1 0x0 PUSH2 0x308C PUSH1 0x40 DUP1 MLOAD PUSH1 0x20 DUP2 ADD SWAP1 SWAP2 MSTORE PUSH1 0x0 DUP2 MSTORE SWAP1 JUMP JUMPDEST SWAP1 POP PUSH1 0x0 DUP2 MLOAD GT PUSH2 0x30AC JUMPI PUSH1 0x40 MLOAD DUP1 PUSH1 0x20 ADD PUSH1 0x40 MSTORE DUP1 PUSH1 0x0 DUP2 MSTORE POP PUSH2 0x2B33 JUMP JUMPDEST DUP1 PUSH2 0x30B6 DUP5 PUSH2 0x3262 JUMP JUMPDEST PUSH1 0x40 MLOAD PUSH1 0x20 ADD PUSH2 0x2B23 SWAP3 SWAP2 SWAP1 PUSH2 0x3C37 JUMP JUMPDEST PUSH1 0x0 PUSH1 0x1 PUSH1 0x1 PUSH1 0xE0 SHL SUB NOT DUP3 AND PUSH4 0x80AC58CD PUSH1 0xE0 SHL EQ DUP1 PUSH2 0x30F8 JUMPI POP PUSH1 0x1 PUSH1 0x1 PUSH1 0xE0 SHL SUB NOT DUP3 AND PUSH4 0x5B5E139F PUSH1 0xE0 SHL EQ JUMPDEST DUP1 PUSH2 0x761 JUMPI POP PUSH4 0x1FFC9A7 PUSH1 0xE0 SHL PUSH1 0x1 PUSH1 0x1 PUSH1 0xE0 SHL SUB NOT DUP4 AND EQ PUSH2 0x761 JUMP JUMPDEST PUSH2 0x997 DUP4 DUP4 DUP4 PUSH2 0x3360 JUMP JUMPDEST PUSH1 0x0 PUSH1 0x1 PUSH1 0x1 PUSH1 0xA0 SHL SUB DUP5 AND EXTCODESIZE ISZERO PUSH2 0x3224 JUMPI PUSH1 0x40 MLOAD PUSH4 0xA85BD01 PUSH1 0xE1 SHL DUP2 MSTORE PUSH1 0x1 PUSH1 0x1 PUSH1 0xA0 SHL SUB DUP6 AND SWAP1 PUSH4 0x150B7A02 SWAP1 PUSH2 0x3166 SWAP1 CALLER SWAP1 DUP10 SWAP1 DUP9 SWAP1 DUP9 SWAP1 PUSH1 0x4 ADD PUSH2 0x3C66 JUMP JUMPDEST PUSH1 0x20 PUSH1 0x40 MLOAD DUP1 DUP4 SUB DUP2 PUSH1 0x0 DUP8 DUP1 EXTCODESIZE ISZERO DUP1 ISZERO PUSH2 0x3180 JUMPI PUSH1 0x0 DUP1 REVERT JUMPDEST POP GAS CALL SWAP3 POP POP POP DUP1 ISZERO PUSH2 0x31B0 JUMPI POP PUSH1 0x40 DUP1 MLOAD PUSH1 0x1F RETURNDATASIZE SWAP1 DUP2 ADD PUSH1 0x1F NOT AND DUP3 ADD SWAP1 SWAP3 MSTORE PUSH2 0x31AD SWAP2 DUP2 ADD SWAP1 PUSH2 0x3A21 JUMP JUMPDEST PUSH1 0x1 JUMPDEST PUSH2 0x320A JUMPI RETURNDATASIZE DUP1 DUP1 ISZERO PUSH2 0x31DE JUMPI PUSH1 0x40 MLOAD SWAP2 POP PUSH1 0x1F NOT PUSH1 0x3F RETURNDATASIZE ADD AND DUP3 ADD PUSH1 0x40 MSTORE RETURNDATASIZE DUP3 MSTORE RETURNDATASIZE PUSH1 0x0 PUSH1 0x20 DUP5 ADD RETURNDATACOPY PUSH2 0x31E3 JUMP JUMPDEST PUSH1 0x60 SWAP2 POP JUMPDEST POP DUP1 MLOAD PUSH2 0x3202 JUMPI PUSH1 0x40 MLOAD PUSH3 0x461BCD PUSH1 0xE5 SHL DUP2 MSTORE PUSH1 0x4 ADD PUSH2 0x861 SWAP1 PUSH2 0x3CFA JUMP JUMPDEST DUP1 MLOAD DUP2 PUSH1 0x20 ADD REVERT JUMPDEST PUSH1 0x1 PUSH1 0x1 PUSH1 0xE0 SHL SUB NOT AND PUSH4 0xA85BD01 PUSH1 0xE1 SHL EQ SWAP1 POP PUSH2 0x2D9D JUMP JUMPDEST POP PUSH1 0x1 SWAP5 SWAP4 POP POP POP POP JUMP JUMPDEST PUSH2 0x3239 DUP4 DUP4 PUSH2 0x3418 JUMP JUMPDEST PUSH2 0x3246 PUSH1 0x0 DUP5 DUP5 DUP5 PUSH2 0x3122 JUMP JUMPDEST PUSH2 0x997 JUMPI PUSH1 0x40 MLOAD PUSH3 0x461BCD PUSH1 0xE5 SHL DUP2 MSTORE PUSH1 0x4 ADD PUSH2 0x861 SWAP1 PUSH2 0x3CFA JUMP JUMPDEST PUSH1 0x60 DUP2 PUSH2 0x3286 JUMPI POP POP PUSH1 0x40 DUP1 MLOAD DUP1 DUP3 ADD SWAP1 SWAP2 MSTORE PUSH1 0x1 DUP2 MSTORE PUSH1 0x3 PUSH1 0xFC SHL PUSH1 0x20 DUP3 ADD MSTORE SWAP1 JUMP JUMPDEST DUP2 PUSH1 0x0 JUMPDEST DUP2 ISZERO PUSH2 0x32B0 JUMPI DUP1 PUSH2 0x329A DUP2 PUSH2 0x400C JUMP JUMPDEST SWAP2 POP PUSH2 0x32A9 SWAP1 POP PUSH1 0xA DUP4 PUSH2 0x3F80 JUMP JUMPDEST SWAP2 POP PUSH2 0x328A JUMP JUMPDEST PUSH1 0x0 DUP2 PUSH8 0xFFFFFFFFFFFFFFFF DUP2 GT ISZERO PUSH2 0x32CB JUMPI PUSH2 0x32CB PUSH2 0x40A9 JUMP JUMPDEST PUSH1 0x40 MLOAD SWAP1 DUP1 DUP3 MSTORE DUP1 PUSH1 0x1F ADD PUSH1 0x1F NOT AND PUSH1 0x20 ADD DUP3 ADD PUSH1 0x40 MSTORE DUP1 ISZERO PUSH2 0x32F5 JUMPI PUSH1 0x20 DUP3 ADD DUP2 DUP1 CALLDATASIZE DUP4 CALLDATACOPY ADD SWAP1 POP JUMPDEST POP SWAP1 POP JUMPDEST DUP5 ISZERO PUSH2 0x2D9D JUMPI PUSH2 0x330A PUSH1 0x1 DUP4 PUSH2 0x3F94 JUMP JUMPDEST SWAP2 POP PUSH2 0x3317 PUSH1 0xA DUP7 PUSH2 0x4027 JUMP JUMPDEST PUSH2 0x3322 SWAP1 PUSH1 0x30 PUSH2 0x3F68 JUMP JUMPDEST PUSH1 0xF8 SHL DUP2 DUP4 DUP2 MLOAD DUP2 LT PUSH2 0x3337 JUMPI PUSH2 0x3337 PUSH2 0x4093 JUMP JUMPDEST PUSH1 0x20 ADD ADD SWAP1 PUSH1 0x1 PUSH1 0x1 PUSH1 0xF8 SHL SUB NOT AND SWAP1 DUP2 PUSH1 0x0 BYTE SWAP1 MSTORE8 POP PUSH2 0x3359 PUSH1 0xA DUP7 PUSH2 0x3F80 JUMP JUMPDEST SWAP5 POP PUSH2 0x32F9 JUMP JUMPDEST PUSH1 0x1 PUSH1 0x1 PUSH1 0xA0 SHL SUB DUP4 AND PUSH2 0x33BB JUMPI PUSH2 0x33B6 DUP2 PUSH1 0x8 DUP1 SLOAD PUSH1 0x0 DUP4 DUP2 MSTORE PUSH1 0x9 PUSH1 0x20 MSTORE PUSH1 0x40 DUP2 KECCAK256 DUP3 SWAP1 SSTORE PUSH1 0x1 DUP3 ADD DUP4 SSTORE SWAP2 SWAP1 SWAP2 MSTORE PUSH32 0xF3F7A9FE364FAAB93B216DA50A3214154F22A0A2B415B23A84C8169E8B636EE3 ADD SSTORE JUMP JUMPDEST PUSH2 0x33DE JUMP JUMPDEST DUP2 PUSH1 0x1 PUSH1 0x1 PUSH1 0xA0 SHL SUB AND DUP4 PUSH1 0x1 PUSH1 0x1 PUSH1 0xA0 SHL SUB AND EQ PUSH2 0x33DE JUMPI PUSH2 0x33DE DUP4 DUP3 PUSH2 0x3557 JUMP JUMPDEST PUSH1 0x1 PUSH1 0x1 PUSH1 0xA0 SHL SUB DUP3 AND PUSH2 0x33F5 JUMPI PUSH2 0x997 DUP2 PUSH2 0x35F4 JUMP JUMPDEST DUP3 PUSH1 0x1 PUSH1 0x1 PUSH1 0xA0 SHL SUB AND DUP3 PUSH1 0x1 PUSH1 0x1 PUSH1 0xA0 SHL SUB AND EQ PUSH2 0x997 JUMPI PUSH2 0x997 DUP3 DUP3 PUSH2 0x36A3 JUMP JUMPDEST PUSH1 0x1 PUSH1 0x1 PUSH1 0xA0 SHL SUB DUP3 AND PUSH2 0x346E JUMPI PUSH1 0x40 MLOAD PUSH3 0x461BCD PUSH1 0xE5 SHL DUP2 MSTORE PUSH1 0x20 PUSH1 0x4 DUP3 ADD DUP2 SWAP1 MSTORE PUSH1 0x24 DUP3 ADD MSTORE PUSH32 0x4552433732313A206D696E7420746F20746865207A65726F2061646472657373 PUSH1 0x44 DUP3 ADD MSTORE PUSH1 0x64 ADD PUSH2 0x861 JUMP JUMPDEST PUSH2 0x3477 DUP2 PUSH2 0x2C30 JUMP JUMPDEST ISZERO PUSH2 0x34C4 JUMPI PUSH1 0x40 MLOAD PUSH3 0x461BCD PUSH1 0xE5 SHL DUP2 MSTORE PUSH1 0x20 PUSH1 0x4 DUP3 ADD MSTORE PUSH1 0x1C PUSH1 0x24 DUP3 ADD MSTORE PUSH32 0x4552433732313A20746F6B656E20616C7265616479206D696E74656400000000 PUSH1 0x44 DUP3 ADD MSTORE PUSH1 0x64 ADD PUSH2 0x861 JUMP JUMPDEST PUSH2 0x34D0 PUSH1 0x0 DUP4 DUP4 PUSH2 0x3117 JUMP JUMPDEST PUSH1 0x1 PUSH1 0x1 PUSH1 0xA0 SHL SUB DUP3 AND PUSH1 0x0 SWAP1 DUP2 MSTORE PUSH1 0x3 PUSH1 0x20 MSTORE PUSH1 0x40 DUP2 KECCAK256 DUP1 SLOAD PUSH1 0x1 SWAP3 SWAP1 PUSH2 0x34F9 SWAP1 DUP5 SWAP1 PUSH2 0x3F68 JUMP JUMPDEST SWAP1 SWAP2 SSTORE POP POP PUSH1 0x0 DUP2 DUP2 MSTORE PUSH1 0x2 PUSH1 0x20 MSTORE PUSH1 0x40 DUP1 DUP3 KECCAK256 DUP1 SLOAD PUSH1 0x1 PUSH1 0x1 PUSH1 0xA0 SHL SUB NOT AND PUSH1 0x1 PUSH1 0x1 PUSH1 0xA0 SHL SUB DUP7 AND SWAP1 DUP2 OR SWAP1 SWAP2 SSTORE SWAP1 MLOAD DUP4 SWAP3 SWAP1 PUSH32 0xDDF252AD1BE2C89B69C2B068FC378DAA952BA7F163C4A11628F55A4DF523B3EF SWAP1 DUP3 SWAP1 LOG4 POP POP JUMP JUMPDEST PUSH1 0x0 PUSH1 0x1 PUSH2 0x3564 DUP5 PUSH2 0x1643 JUMP JUMPDEST PUSH2 0x356E SWAP2 SWAP1 PUSH2 0x3F94 JUMP JUMPDEST PUSH1 0x0 DUP4 DUP2 MSTORE PUSH1 0x7 PUSH1 0x20 MSTORE PUSH1 0x40 SWAP1 KECCAK256 SLOAD SWAP1 SWAP2 POP DUP1 DUP3 EQ PUSH2 0x35C1 JUMPI PUSH1 0x1 PUSH1 0x1 PUSH1 0xA0 SHL SUB DUP5 AND PUSH1 0x0 SWAP1 DUP2 MSTORE PUSH1 0x6 PUSH1 0x20 SWAP1 DUP2 MSTORE PUSH1 0x40 DUP1 DUP4 KECCAK256 DUP6 DUP5 MSTORE DUP3 MSTORE DUP1 DUP4 KECCAK256 SLOAD DUP5 DUP5 MSTORE DUP2 DUP5 KECCAK256 DUP2 SWAP1 SSTORE DUP4 MSTORE PUSH1 0x7 SWAP1 SWAP2 MSTORE SWAP1 KECCAK256 DUP2 SWAP1 SSTORE JUMPDEST POP PUSH1 0x0 SWAP2 DUP3 MSTORE PUSH1 0x7 PUSH1 0x20 SWAP1 DUP2 MSTORE PUSH1 0x40 DUP1 DUP5 KECCAK256 DUP5 SWAP1 SSTORE PUSH1 0x1 PUSH1 0x1 PUSH1 0xA0 SHL SUB SWAP1 SWAP5 AND DUP4 MSTORE PUSH1 0x6 DUP2 MSTORE DUP4 DUP4 KECCAK256 SWAP2 DUP4 MSTORE MSTORE SWAP1 DUP2 KECCAK256 SSTORE JUMP JUMPDEST PUSH1 0x8 SLOAD PUSH1 0x0 SWAP1 PUSH2 0x3606 SWAP1 PUSH1 0x1 SWAP1 PUSH2 0x3F94 JUMP JUMPDEST PUSH1 0x0 DUP4 DUP2 MSTORE PUSH1 0x9 PUSH1 0x20 MSTORE PUSH1 0x40 DUP2 KECCAK256 SLOAD PUSH1 0x8 DUP1 SLOAD SWAP4 SWAP5 POP SWAP1 SWAP3 DUP5 SWAP1 DUP2 LT PUSH2 0x362E JUMPI PUSH2 0x362E PUSH2 0x4093 JUMP JUMPDEST SWAP1 PUSH1 0x0 MSTORE PUSH1 0x20 PUSH1 0x0 KECCAK256 ADD SLOAD SWAP1 POP DUP1 PUSH1 0x8 DUP4 DUP2 SLOAD DUP2 LT PUSH2 0x364F JUMPI PUSH2 0x364F PUSH2 0x4093 JUMP JUMPDEST PUSH1 0x0 SWAP2 DUP3 MSTORE PUSH1 0x20 DUP1 DUP4 KECCAK256 SWAP1 SWAP2 ADD SWAP3 SWAP1 SWAP3 SSTORE DUP3 DUP2 MSTORE PUSH1 0x9 SWAP1 SWAP2 MSTORE PUSH1 0x40 DUP1 DUP3 KECCAK256 DUP5 SWAP1 SSTORE DUP6 DUP3 MSTORE DUP2 KECCAK256 SSTORE PUSH1 0x8 DUP1 SLOAD DUP1 PUSH2 0x3687 JUMPI PUSH2 0x3687 PUSH2 0x407D JUMP JUMPDEST PUSH1 0x1 SWAP1 SUB DUP2 DUP2 SWAP1 PUSH1 0x0 MSTORE PUSH1 0x20 PUSH1 0x0 KECCAK256 ADD PUSH1 0x0 SWAP1 SSTORE SWAP1 SSTORE POP POP POP POP JUMP JUMPDEST PUSH1 0x0 PUSH2 0x36AE DUP4 PUSH2 0x1643 JUMP JUMPDEST PUSH1 0x1 PUSH1 0x1 PUSH1 0xA0 SHL SUB SWAP1 SWAP4 AND PUSH1 0x0 SWAP1 DUP2 MSTORE PUSH1 0x6 PUSH1 0x20 SWAP1 DUP2 MSTORE PUSH1 0x40 DUP1 DUP4 KECCAK256 DUP7 DUP5 MSTORE DUP3 MSTORE DUP1 DUP4 KECCAK256 DUP6 SWAP1 SSTORE SWAP4 DUP3 MSTORE PUSH1 0x7 SWAP1 MSTORE SWAP2 SWAP1 SWAP2 KECCAK256 SWAP2 SWAP1 SWAP2 SSTORE POP JUMP JUMPDEST DUP3 DUP1 SLOAD DUP3 DUP3 SSTORE SWAP1 PUSH1 0x0 MSTORE PUSH1 0x20 PUSH1 0x0 KECCAK256 SWAP1 PUSH1 0x1F ADD PUSH1 0x20 SWAP1 DIV DUP2 ADD SWAP3 DUP3 ISZERO PUSH2 0x378B JUMPI SWAP2 PUSH1 0x20 MUL DUP3 ADD PUSH1 0x0 JUMPDEST DUP4 DUP3 GT ISZERO PUSH2 0x375C JUMPI DUP4 MLOAD DUP4 DUP3 PUSH2 0x100 EXP DUP2 SLOAD DUP2 PUSH1 0xFF MUL NOT AND SWAP1 DUP4 PUSH1 0xC DUP2 GT ISZERO PUSH2 0x373B JUMPI PUSH2 0x373B PUSH2 0x4067 JUMP JUMPDEST MUL OR SWAP1 SSTORE POP SWAP3 PUSH1 0x20 ADD SWAP3 PUSH1 0x1 ADD PUSH1 0x20 DUP2 PUSH1 0x0 ADD DIV SWAP3 DUP4 ADD SWAP3 PUSH1 0x1 SUB MUL PUSH2 0x3710 JUMP JUMPDEST DUP1 ISZERO PUSH2 0x3789 JUMPI DUP3 DUP2 PUSH2 0x100 EXP DUP2 SLOAD SWAP1 PUSH1 0xFF MUL NOT AND SWAP1 SSTORE PUSH1 0x1 ADD PUSH1 0x20 DUP2 PUSH1 0x0 ADD DIV SWAP3 DUP4 ADD SWAP3 PUSH1 0x1 SUB MUL PUSH2 0x375C JUMP JUMPDEST POP JUMPDEST POP PUSH2 0x3797 SWAP3 SWAP2 POP PUSH2 0x380F JUMP JUMPDEST POP SWAP1 JUMP JUMPDEST DUP3 DUP1 SLOAD PUSH2 0x37A7 SWAP1 PUSH2 0x3FD7 JUMP JUMPDEST SWAP1 PUSH1 0x0 MSTORE PUSH1 0x20 PUSH1 0x0 KECCAK256 SWAP1 PUSH1 0x1F ADD PUSH1 0x20 SWAP1 DIV DUP2 ADD SWAP3 DUP3 PUSH2 0x37C9 JUMPI PUSH1 0x0 DUP6 SSTORE PUSH2 0x378B JUMP JUMPDEST DUP3 PUSH1 0x1F LT PUSH2 0x37E2 JUMPI DUP1 MLOAD PUSH1 0xFF NOT AND DUP4 DUP1 ADD OR DUP6 SSTORE PUSH2 0x378B JUMP JUMPDEST DUP3 DUP1 ADD PUSH1 0x1 ADD DUP6 SSTORE DUP3 ISZERO PUSH2 0x378B JUMPI SWAP2 DUP3 ADD JUMPDEST DUP3 DUP2 GT ISZERO PUSH2 0x378B JUMPI DUP3 MLOAD DUP3 SSTORE SWAP2 PUSH1 0x20 ADD SWAP2 SWAP1 PUSH1 0x1 ADD SWAP1 PUSH2 0x37F4 JUMP JUMPDEST JUMPDEST DUP1 DUP3 GT ISZERO PUSH2 0x3797 JUMPI PUSH1 0x0 DUP2 SSTORE PUSH1 0x1 ADD PUSH2 0x3810 JUMP JUMPDEST PUSH1 0x0 PUSH8 0xFFFFFFFFFFFFFFFF DUP4 GT ISZERO PUSH2 0x383E JUMPI PUSH2 0x383E PUSH2 0x40A9 JUMP JUMPDEST PUSH2 0x3851 PUSH1 0x1F DUP5 ADD PUSH1 0x1F NOT AND PUSH1 0x20 ADD PUSH2 0x3F37 JUMP JUMPDEST SWAP1 POP DUP3 DUP2 MSTORE DUP4 DUP4 DUP4 ADD GT ISZERO PUSH2 0x3865 JUMPI PUSH1 0x0 DUP1 REVERT JUMPDEST DUP3 DUP3 PUSH1 0x20 DUP4 ADD CALLDATACOPY PUSH1 0x0 PUSH1 0x20 DUP5 DUP4 ADD ADD MSTORE SWAP4 SWAP3 POP POP POP JUMP JUMPDEST DUP1 CALLDATALOAD PUSH1 0x1 PUSH1 0x1 PUSH1 0xA0 SHL SUB DUP2 AND DUP2 EQ PUSH2 0x3893 JUMPI PUSH1 0x0 DUP1 REVERT JUMPDEST SWAP2 SWAP1 POP JUMP JUMPDEST PUSH1 0x0 PUSH1 0x20 DUP3 DUP5 SUB SLT ISZERO PUSH2 0x38AA JUMPI PUSH1 0x0 DUP1 REVERT JUMPDEST PUSH2 0x2B33 DUP3 PUSH2 0x387C JUMP JUMPDEST PUSH1 0x0 DUP1 PUSH1 0x40 DUP4 DUP6 SUB SLT ISZERO PUSH2 0x38C6 JUMPI PUSH1 0x0 DUP1 REVERT JUMPDEST PUSH2 0x38CF DUP4 PUSH2 0x387C JUMP JUMPDEST SWAP2 POP PUSH2 0x38DD PUSH1 0x20 DUP5 ADD PUSH2 0x387C JUMP JUMPDEST SWAP1 POP SWAP3 POP SWAP3 SWAP1 POP JUMP JUMPDEST PUSH1 0x0 DUP1 PUSH1 0x0 PUSH1 0x60 DUP5 DUP7 SUB SLT ISZERO PUSH2 0x38FB JUMPI PUSH1 0x0 DUP1 REVERT JUMPDEST PUSH2 0x3904 DUP5 PUSH2 0x387C JUMP JUMPDEST SWAP3 POP PUSH2 0x3912 PUSH1 0x20 DUP6 ADD PUSH2 0x387C JUMP JUMPDEST SWAP2 POP PUSH1 0x40 DUP5 ADD CALLDATALOAD SWAP1 POP SWAP3 POP SWAP3 POP SWAP3 JUMP JUMPDEST PUSH1 0x0 DUP1 PUSH1 0x0 DUP1 PUSH1 0x80 DUP6 DUP8 SUB SLT ISZERO PUSH2 0x3938 JUMPI PUSH1 0x0 DUP1 REVERT JUMPDEST PUSH2 0x3941 DUP6 PUSH2 0x387C JUMP JUMPDEST SWAP4 POP PUSH2 0x394F PUSH1 0x20 DUP7 ADD PUSH2 0x387C JUMP JUMPDEST SWAP3 POP PUSH1 0x40 DUP6 ADD CALLDATALOAD SWAP2 POP PUSH1 0x60 DUP6 ADD CALLDATALOAD PUSH8 0xFFFFFFFFFFFFFFFF DUP2 GT ISZERO PUSH2 0x3972 JUMPI PUSH1 0x0 DUP1 REVERT JUMPDEST DUP6 ADD PUSH1 0x1F DUP2 ADD DUP8 SGT PUSH2 0x3983 JUMPI PUSH1 0x0 DUP1 REVERT JUMPDEST PUSH2 0x3992 DUP8 DUP3 CALLDATALOAD PUSH1 0x20 DUP5 ADD PUSH2 0x3824 JUMP JUMPDEST SWAP2 POP POP SWAP3 SWAP6 SWAP2 SWAP5 POP SWAP3 POP JUMP JUMPDEST PUSH1 0x0 DUP1 PUSH1 0x40 DUP4 DUP6 SUB SLT ISZERO PUSH2 0x39B1 JUMPI PUSH1 0x0 DUP1 REVERT JUMPDEST PUSH2 0x39BA DUP4 PUSH2 0x387C JUMP JUMPDEST SWAP2 POP PUSH1 0x20 DUP4 ADD CALLDATALOAD DUP1 ISZERO ISZERO DUP2 EQ PUSH2 0x39CF JUMPI PUSH1 0x0 DUP1 REVERT JUMPDEST DUP1 SWAP2 POP POP SWAP3 POP SWAP3 SWAP1 POP JUMP JUMPDEST PUSH1 0x0 DUP1 PUSH1 0x40 DUP4 DUP6 SUB SLT ISZERO PUSH2 0x39ED JUMPI PUSH1 0x0 DUP1 REVERT JUMPDEST PUSH2 0x39F6 DUP4 PUSH2 0x387C JUMP JUMPDEST SWAP5 PUSH1 0x20 SWAP4 SWAP1 SWAP4 ADD CALLDATALOAD SWAP4 POP POP POP JUMP JUMPDEST PUSH1 0x0 PUSH1 0x20 DUP3 DUP5 SUB SLT ISZERO PUSH2 0x3A16 JUMPI PUSH1 0x0 DUP1 REVERT JUMPDEST DUP2 CALLDATALOAD PUSH2 0x2B33 DUP2 PUSH2 0x40BF JUMP JUMPDEST PUSH1 0x0 PUSH1 0x20 DUP3 DUP5 SUB SLT ISZERO PUSH2 0x3A33 JUMPI PUSH1 0x0 DUP1 REVERT JUMPDEST DUP2 MLOAD PUSH2 0x2B33 DUP2 PUSH2 0x40BF JUMP JUMPDEST PUSH1 0x0 PUSH1 0x20 DUP3 DUP5 SUB SLT ISZERO PUSH2 0x3A50 JUMPI PUSH1 0x0 DUP1 REVERT JUMPDEST DUP2 CALLDATALOAD PUSH8 0xFFFFFFFFFFFFFFFF DUP2 GT ISZERO PUSH2 0x3A67 JUMPI PUSH1 0x0 DUP1 REVERT JUMPDEST DUP3 ADD PUSH1 0x1F DUP2 ADD DUP5 SGT PUSH2 0x3A78 JUMPI PUSH1 0x0 DUP1 REVERT JUMPDEST PUSH2 0x2D9D DUP5 DUP3 CALLDATALOAD PUSH1 0x20 DUP5 ADD PUSH2 0x3824 JUMP JUMPDEST PUSH1 0x0 PUSH1 0x20 DUP3 DUP5 SUB SLT ISZERO PUSH2 0x3A99 JUMPI PUSH1 0x0 DUP1 REVERT JUMPDEST POP CALLDATALOAD SWAP2 SWAP1 POP JUMP JUMPDEST PUSH1 0x0 DUP1 PUSH1 0x40 DUP4 DUP6 SUB SLT ISZERO PUSH2 0x3AB3 JUMPI PUSH1 0x0 DUP1 REVERT JUMPDEST POP POP DUP1 CALLDATALOAD SWAP3 PUSH1 0x20 SWAP1 SWAP2 ADD CALLDATALOAD SWAP2 POP JUMP JUMPDEST PUSH1 0x0 DUP1 PUSH1 0x0 DUP1 PUSH1 0x0 DUP1 PUSH1 0xC0 DUP8 DUP10 SUB SLT ISZERO PUSH2 0x3ADB JUMPI PUSH1 0x0 DUP1 REVERT JUMPDEST DUP7 CALLDATALOAD SWAP6 POP PUSH1 0x20 DUP1 DUP9 ADD CALLDATALOAD SWAP6 POP PUSH1 0x40 DUP9 ADD CALLDATALOAD SWAP5 POP PUSH1 0x60 DUP9 ADD CALLDATALOAD SWAP4 POP PUSH1 0x80 DUP9 ADD CALLDATALOAD PUSH8 0xFFFFFFFFFFFFFFFF DUP1 DUP3 GT ISZERO PUSH2 0x3B10 JUMPI PUSH1 0x0 DUP1 REVERT JUMPDEST DUP2 DUP11 ADD SWAP2 POP DUP11 PUSH1 0x1F DUP4 ADD SLT PUSH2 0x3B24 JUMPI PUSH1 0x0 DUP1 REVERT JUMPDEST DUP2 CALLDATALOAD DUP2 DUP2 GT ISZERO PUSH2 0x3B36 JUMPI PUSH2 0x3B36 PUSH2 0x40A9 JUMP JUMPDEST DUP1 PUSH1 0x5 SHL SWAP2 POP PUSH2 0x3B47 DUP5 DUP4 ADD PUSH2 0x3F37 JUMP JUMPDEST DUP2 DUP2 MSTORE DUP5 DUP2 ADD SWAP1 DUP5 DUP7 ADD DUP5 DUP7 ADD DUP8 ADD DUP16 LT ISZERO PUSH2 0x3B62 JUMPI PUSH1 0x0 DUP1 REVERT JUMPDEST PUSH1 0x0 SWAP6 POP JUMPDEST DUP4 DUP7 LT ISZERO PUSH2 0x3B85 JUMPI DUP1 CALLDATALOAD DUP4 MSTORE PUSH1 0x1 SWAP6 SWAP1 SWAP6 ADD SWAP5 SWAP2 DUP7 ADD SWAP2 DUP7 ADD PUSH2 0x3B67 JUMP JUMPDEST POP DUP1 SWAP8 POP POP POP POP POP POP POP PUSH1 0xA0 DUP8 ADD CALLDATALOAD SWAP1 POP SWAP3 SWAP6 POP SWAP3 SWAP6 POP SWAP3 SWAP6 JUMP JUMPDEST PUSH1 0x0 DUP1 PUSH1 0x0 DUP1 PUSH1 0x0 PUSH1 0xA0 DUP7 DUP9 SUB SLT ISZERO PUSH2 0x3BB8 JUMPI PUSH1 0x0 DUP1 REVERT JUMPDEST POP POP DUP4 CALLDATALOAD SWAP6 PUSH1 0x20 DUP6 ADD CALLDATALOAD SWAP6 POP PUSH1 0x40 DUP6 ADD CALLDATALOAD SWAP5 PUSH1 0x60 DUP2 ADD CALLDATALOAD SWAP5 POP PUSH1 0x80 ADD CALLDATALOAD SWAP3 POP SWAP1 POP JUMP JUMPDEST PUSH1 0x0 DUP2 MLOAD DUP1 DUP5 MSTORE PUSH2 0x3BF3 DUP2 PUSH1 0x20 DUP7 ADD PUSH1 0x20 DUP7 ADD PUSH2 0x3FAB JUMP JUMPDEST PUSH1 0x1F ADD PUSH1 0x1F NOT AND SWAP3 SWAP1 SWAP3 ADD PUSH1 0x20 ADD SWAP3 SWAP2 POP POP JUMP JUMPDEST PUSH1 0x4 DUP2 LT PUSH2 0x3C17 JUMPI PUSH2 0x3C17 PUSH2 0x4067 JUMP JUMPDEST SWAP1 MSTORE JUMP JUMPDEST PUSH1 0x0 DUP3 MLOAD PUSH2 0x3C2D DUP2 DUP5 PUSH1 0x20 DUP8 ADD PUSH2 0x3FAB JUMP JUMPDEST SWAP2 SWAP1 SWAP2 ADD SWAP3 SWAP2 POP POP JUMP JUMPDEST PUSH1 0x0 DUP4 MLOAD PUSH2 0x3C49 DUP2 DUP5 PUSH1 0x20 DUP9 ADD PUSH2 0x3FAB JUMP JUMPDEST DUP4 MLOAD SWAP1 DUP4 ADD SWAP1 PUSH2 0x3C5D DUP2 DUP4 PUSH1 0x20 DUP9 ADD PUSH2 0x3FAB JUMP JUMPDEST ADD SWAP5 SWAP4 POP POP POP POP JUMP JUMPDEST PUSH1 0x1 PUSH1 0x1 PUSH1 0xA0 SHL SUB DUP6 DUP2 AND DUP3 MSTORE DUP5 AND PUSH1 0x20 DUP3 ADD MSTORE PUSH1 0x40 DUP2 ADD DUP4 SWAP1 MSTORE PUSH1 0x80 PUSH1 0x60 DUP3 ADD DUP2 SWAP1 MSTORE PUSH1 0x0 SWAP1 PUSH2 0x3C99 SWAP1 DUP4 ADD DUP5 PUSH2 0x3BDB JUMP JUMPDEST SWAP7 SWAP6 POP POP POP POP POP POP JUMP JUMPDEST PUSH1 0x20 DUP1 DUP3 MSTORE DUP3 MLOAD DUP3 DUP3 ADD DUP2 SWAP1 MSTORE PUSH1 0x0 SWAP2 SWAP1 DUP5 DUP3 ADD SWAP1 PUSH1 0x40 DUP6 ADD SWAP1 DUP5 JUMPDEST DUP2 DUP2 LT ISZERO PUSH2 0x3CDB JUMPI DUP4 MLOAD DUP4 MSTORE SWAP3 DUP5 ADD SWAP3 SWAP2 DUP5 ADD SWAP2 PUSH1 0x1 ADD PUSH2 0x3CBF JUMP JUMPDEST POP SWAP1 SWAP7 SWAP6 POP POP POP POP POP POP JUMP JUMPDEST PUSH1 0x20 DUP2 MSTORE PUSH1 0x0 PUSH2 0x2B33 PUSH1 0x20 DUP4 ADD DUP5 PUSH2 0x3BDB JUMP JUMPDEST PUSH1 0x20 DUP1 DUP3 MSTORE PUSH1 0x32 SWAP1 DUP3 ADD MSTORE PUSH32 0x4552433732313A207472616E7366657220746F206E6F6E204552433732315265 PUSH1 0x40 DUP3 ADD MSTORE PUSH18 0x31B2B4BB32B91034B6B83632B6B2B73A32B9 PUSH1 0x71 SHL PUSH1 0x60 DUP3 ADD MSTORE PUSH1 0x80 ADD SWAP1 JUMP JUMPDEST PUSH1 0x20 DUP1 DUP3 MSTORE PUSH1 0x32 SWAP1 DUP3 ADD MSTORE PUSH32 0x546F6B656E2046616374696F6E206D7573742062652066726F6D205355525649 PUSH1 0x40 DUP3 ADD MSTORE PUSH18 0x564F525320746F20534349454E5449535453 PUSH1 0x70 SHL PUSH1 0x60 DUP3 ADD MSTORE PUSH1 0x80 ADD SWAP1 JUMP JUMPDEST PUSH1 0x20 DUP1 DUP3 MSTORE DUP2 DUP2 ADD MSTORE PUSH32 0x4F776E61626C653A2063616C6C6572206973206E6F7420746865206F776E6572 PUSH1 0x40 DUP3 ADD MSTORE PUSH1 0x60 ADD SWAP1 JUMP JUMPDEST PUSH1 0x20 DUP1 DUP3 MSTORE PUSH1 0x14 SWAP1 DUP3 ADD MSTORE PUSH20 0x10DC985D195259081A5CC81B9BDD08195E1A5CDD PUSH1 0x62 SHL PUSH1 0x40 DUP3 ADD MSTORE PUSH1 0x60 ADD SWAP1 JUMP JUMPDEST PUSH1 0x20 DUP1 DUP3 MSTORE PUSH1 0x31 SWAP1 DUP3 ADD MSTORE PUSH32 0x4552433732313A207472616E736665722063616C6C6572206973206E6F74206F PUSH1 0x40 DUP3 ADD MSTORE PUSH17 0x1DDB995C881B9BDC88185C1C1C9BDD9959 PUSH1 0x7A SHL PUSH1 0x60 DUP3 ADD MSTORE PUSH1 0x80 ADD SWAP1 JUMP JUMPDEST PUSH1 0x20 DUP1 DUP3 MSTORE PUSH1 0x22 SWAP1 DUP3 ADD MSTORE PUSH32 0x4D61726B6574706C6163652066656174757265206973206E6F7420656E61626C PUSH1 0x40 DUP3 ADD MSTORE PUSH2 0x1959 PUSH1 0xF2 SHL PUSH1 0x60 DUP3 ADD MSTORE PUSH1 0x80 ADD SWAP1 JUMP JUMPDEST DUP7 DUP2 MSTORE PUSH1 0x20 DUP2 ADD DUP7 SWAP1 MSTORE PUSH1 0xC0 DUP2 ADD PUSH1 0x5 DUP7 LT PUSH2 0x3EB2 JUMPI PUSH2 0x3EB2 PUSH2 0x4067 JUMP JUMPDEST DUP6 PUSH1 0x40 DUP4 ADD MSTORE PUSH2 0x3EC5 PUSH1 0x60 DUP4 ADD DUP7 PUSH2 0x3C07 JUMP JUMPDEST PUSH1 0x8 DUP5 LT PUSH2 0x3ED5 JUMPI PUSH2 0x3ED5 PUSH2 0x4067 JUMP JUMPDEST DUP4 PUSH1 0x80 DUP4 ADD MSTORE PUSH1 0xD DUP4 LT PUSH2 0x3EEB JUMPI PUSH2 0x3EEB PUSH2 0x4067 JUMP JUMPDEST DUP3 PUSH1 0xA0 DUP4 ADD MSTORE SWAP8 SWAP7 POP POP POP POP POP POP POP JUMP JUMPDEST DUP7 DUP2 MSTORE PUSH1 0x20 DUP2 ADD DUP7 SWAP1 MSTORE PUSH1 0x40 DUP2 ADD DUP6 SWAP1 MSTORE PUSH1 0xC0 DUP2 ADD PUSH2 0x3F1E PUSH1 0x60 DUP4 ADD DUP7 PUSH2 0x3C07 JUMP JUMPDEST DUP4 PUSH1 0x80 DUP4 ADD MSTORE DUP3 ISZERO ISZERO PUSH1 0xA0 DUP4 ADD MSTORE SWAP8 SWAP7 POP POP POP POP POP POP POP JUMP JUMPDEST PUSH1 0x40 MLOAD PUSH1 0x1F DUP3 ADD PUSH1 0x1F NOT AND DUP2 ADD PUSH8 0xFFFFFFFFFFFFFFFF DUP2 GT DUP3 DUP3 LT OR ISZERO PUSH2 0x3F60 JUMPI PUSH2 0x3F60 PUSH2 0x40A9 JUMP JUMPDEST PUSH1 0x40 MSTORE SWAP2 SWAP1 POP JUMP JUMPDEST PUSH1 0x0 DUP3 NOT DUP3 GT ISZERO PUSH2 0x3F7B JUMPI PUSH2 0x3F7B PUSH2 0x403B JUMP JUMPDEST POP ADD SWAP1 JUMP JUMPDEST PUSH1 0x0 DUP3 PUSH2 0x3F8F JUMPI PUSH2 0x3F8F PUSH2 0x4051 JUMP JUMPDEST POP DIV SWAP1 JUMP JUMPDEST PUSH1 0x0 DUP3 DUP3 LT ISZERO PUSH2 0x3FA6 JUMPI PUSH2 0x3FA6 PUSH2 0x403B JUMP JUMPDEST POP SUB SWAP1 JUMP JUMPDEST PUSH1 0x0 JUMPDEST DUP4 DUP2 LT ISZERO PUSH2 0x3FC6 JUMPI DUP2 DUP2 ADD MLOAD DUP4 DUP3 ADD MSTORE PUSH1 0x20 ADD PUSH2 0x3FAE JUMP JUMPDEST DUP4 DUP2 GT ISZERO PUSH2 0x21C0 JUMPI POP POP PUSH1 0x0 SWAP2 ADD MSTORE JUMP JUMPDEST PUSH1 0x1 DUP2 DUP2 SHR SWAP1 DUP3 AND DUP1 PUSH2 0x3FEB JUMPI PUSH1 0x7F DUP3 AND SWAP2 POP JUMPDEST PUSH1 0x20 DUP3 LT DUP2 EQ ISZERO PUSH2 0x17B9 JUMPI PUSH4 0x4E487B71 PUSH1 0xE0 SHL PUSH1 0x0 MSTORE PUSH1 0x22 PUSH1 0x4 MSTORE PUSH1 0x24 PUSH1 0x0 REVERT JUMPDEST PUSH1 0x0 PUSH1 0x0 NOT DUP3 EQ ISZERO PUSH2 0x4020 JUMPI PUSH2 0x4020 PUSH2 0x403B JUMP JUMPDEST POP PUSH1 0x1 ADD SWAP1 JUMP JUMPDEST PUSH1 0x0 DUP3 PUSH2 0x4036 JUMPI PUSH2 0x4036 PUSH2 0x4051 JUMP JUMPDEST POP MOD SWAP1 JUMP JUMPDEST PUSH4 0x4E487B71 PUSH1 0xE0 SHL PUSH1 0x0 MSTORE PUSH1 0x11 PUSH1 0x4 MSTORE PUSH1 0x24 PUSH1 0x0 REVERT JUMPDEST PUSH4 0x4E487B71 PUSH1 0xE0 SHL PUSH1 0x0 MSTORE PUSH1 0x12 PUSH1 0x4 MSTORE PUSH1 0x24 PUSH1 0x0 REVERT JUMPDEST PUSH4 0x4E487B71 PUSH1 0xE0 SHL PUSH1 0x0 MSTORE PUSH1 0x21 PUSH1 0x4 MSTORE PUSH1 0x24 PUSH1 0x0 REVERT JUMPDEST PUSH4 0x4E487B71 PUSH1 0xE0 SHL PUSH1 0x0 MSTORE PUSH1 0x31 PUSH1 0x4 MSTORE PUSH1 0x24 PUSH1 0x0 REVERT JUMPDEST PUSH4 0x4E487B71 PUSH1 0xE0 SHL PUSH1 0x0 MSTORE PUSH1 0x32 PUSH1 0x4 MSTORE PUSH1 0x24 PUSH1 0x0 REVERT JUMPDEST PUSH4 0x4E487B71 PUSH1 0xE0 SHL PUSH1 0x0 MSTORE PUSH1 0x41 PUSH1 0x4 MSTORE PUSH1 0x24 PUSH1 0x0 REVERT JUMPDEST PUSH1 0x1 PUSH1 0x1 PUSH1 0xE0 SHL SUB NOT DUP2 AND DUP2 EQ PUSH2 0x1388 JUMPI PUSH1 0x0 DUP1 REVERT INVALID LOG2 PUSH5 0x6970667358 0x22 SLT KECCAK256 0xB1 0xCE JUMP PUSH21 0xA04F456293F17B52BEB478C128224BB0B88191CB64 MULMOD 0xA5 PUSH15 0x7661E4D964736F6C63430008070033 "
		},
		"gasEstimates": {
			"creation": {
				"codeDepositCost": "3330200",
				"executionCost": "infinite",
				"totalCost": "infinite"
			},
			"external": {
				"MAX_CRATE_TOKEN_COUNT()": "284",
				"MAX_MINT_TOKEN_COUNT()": "240",
				"applyCrate(uint256,uint256,uint256,uint256,uint256[],uint256)": "infinite",
				"approve(address,uint256)": "infinite",
				"balanceOf(address)": "2635",
				"buyCrate(uint256)": "infinite",
				"buyToken(uint256)": "infinite",
				"changeTokenPrice(uint256,uint256)": "161802",
				"crateUmblData(uint256)": "13306",
				"deleteCrate(uint256)": "28872",
				"getApproved(uint256)": "4822",
				"getCrateRarities(uint256)": "infinite",
				"isApprovedForAll(address,address)": "infinite",
				"isEnabledSale()": "2389",
				"mintToken(uint256,uint256,uint256,uint256,uint256)": "infinite",
				"name()": "infinite",
				"nextCrateId()": "2361",
				"nextTokenId()": "2385",
				"owner()": "2376",
				"ownerOf(uint256)": "2689",
				"pauseMarketPlace()": "26636",
				"renounceOwnership()": "28185",
				"safeTransferFrom(address,address,uint256)": "infinite",
				"safeTransferFrom(address,address,uint256,bytes)": "infinite",
				"setApprovalForAll(address,bool)": "26761",
				"setBaseURI(string)": "infinite",
				"setTokenStatus(uint256,uint256)": "160018",
				"startMarketPlace()": "26596",
				"supportsInterface(bytes4)": "infinite",
				"symbol()": "infinite",
				"tokenByIndex(uint256)": "6760",
				"tokenOfOwnerByIndex(address,uint256)": "4998",
				"tokenURI(uint256)": "infinite",
				"tokenUmblData(uint256)": "7054",
				"tokensOfOwner(address)": "infinite",
				"totalSupply()": "2349",
				"transferFrom(address,address,uint256)": "infinite",
				"transferOwnership(address)": "28444"
			},
			"internal": {
				"_beforeTokenTransfer(address,address,uint256)": "infinite",
				"_setBaseURI(string memory)": "infinite"
			}
		},
		"methodIdentifiers": {
			"MAX_CRATE_TOKEN_COUNT()": "594455f5",
			"MAX_MINT_TOKEN_COUNT()": "af055820",
			"applyCrate(uint256,uint256,uint256,uint256,uint256[],uint256)": "406b9872",
			"approve(address,uint256)": "095ea7b3",
			"balanceOf(address)": "70a08231",
			"buyCrate(uint256)": "9016617c",
			"buyToken(uint256)": "2d296bf1",
			"changeTokenPrice(uint256,uint256)": "62e8e8ac",
			"crateUmblData(uint256)": "b38d817c",
			"deleteCrate(uint256)": "955a6615",
			"getApproved(uint256)": "081812fc",
			"getCrateRarities(uint256)": "48333113",
			"isApprovedForAll(address,address)": "e985e9c5",
			"isEnabledSale()": "1d4175a5",
			"mintToken(uint256,uint256,uint256,uint256,uint256)": "c717e8ea",
			"name()": "06fdde03",
			"nextCrateId()": "cb9953e7",
			"nextTokenId()": "75794a3c",
			"owner()": "8da5cb5b",
			"ownerOf(uint256)": "6352211e",
			"pauseMarketPlace()": "2d21a464",
			"renounceOwnership()": "715018a6",
			"safeTransferFrom(address,address,uint256)": "42842e0e",
			"safeTransferFrom(address,address,uint256,bytes)": "b88d4fde",
			"setApprovalForAll(address,bool)": "a22cb465",
			"setBaseURI(string)": "55f804b3",
			"setTokenStatus(uint256,uint256)": "b99a15f8",
			"startMarketPlace()": "e119248e",
			"supportsInterface(bytes4)": "01ffc9a7",
			"symbol()": "95d89b41",
			"tokenByIndex(uint256)": "4f6ccce7",
			"tokenOfOwnerByIndex(address,uint256)": "2f745c59",
			"tokenURI(uint256)": "c87b56dd",
			"tokenUmblData(uint256)": "1280cb62",
			"tokensOfOwner(address)": "8462151c",
			"totalSupply()": "18160ddd",
			"transferFrom(address,address,uint256)": "23b872dd",
			"transferOwnership(address)": "f2fde38b"
		}
	},
	"abi": [
		{
			"inputs": [
				{
					"internalType": "string",
					"name": "baseURI",
					"type": "string"
				}
			],
			"stateMutability": "nonpayable",
			"type": "constructor"
		},
		{
			"anonymous": false,
			"inputs": [
				{
					"indexed": true,
					"internalType": "address",
					"name": "owner",
					"type": "address"
				},
				{
					"indexed": true,
					"internalType": "address",
					"name": "approved",
					"type": "address"
				},
				{
					"indexed": true,
					"internalType": "uint256",
					"name": "tokenId",
					"type": "uint256"
				}
			],
			"name": "Approval",
			"type": "event"
		},
		{
			"anonymous": false,
			"inputs": [
				{
					"indexed": true,
					"internalType": "address",
					"name": "owner",
					"type": "address"
				},
				{
					"indexed": true,
					"internalType": "address",
					"name": "operator",
					"type": "address"
				},
				{
					"indexed": false,
					"internalType": "bool",
					"name": "approved",
					"type": "bool"
				}
			],
			"name": "ApprovalForAll",
			"type": "event"
		},
		{
			"anonymous": false,
			"inputs": [
				{
					"indexed": true,
					"internalType": "address",
					"name": "previousOwner",
					"type": "address"
				},
				{
					"indexed": true,
					"internalType": "address",
					"name": "newOwner",
					"type": "address"
				}
			],
			"name": "OwnershipTransferred",
			"type": "event"
		},
		{
			"anonymous": false,
			"inputs": [
				{
					"indexed": true,
					"internalType": "address",
					"name": "from",
					"type": "address"
				},
				{
					"indexed": true,
					"internalType": "address",
					"name": "to",
					"type": "address"
				},
				{
					"indexed": true,
					"internalType": "uint256",
					"name": "tokenId",
					"type": "uint256"
				}
			],
			"name": "Transfer",
			"type": "event"
		},
		{
			"inputs": [],
			"name": "MAX_CRATE_TOKEN_COUNT",
			"outputs": [
				{
					"internalType": "uint256",
					"name": "",
					"type": "uint256"
				}
			],
			"stateMutability": "view",
			"type": "function"
		},
		{
			"inputs": [],
			"name": "MAX_MINT_TOKEN_COUNT",
			"outputs": [
				{
					"internalType": "uint256",
					"name": "",
					"type": "uint256"
				}
			],
			"stateMutability": "view",
			"type": "function"
		},
		{
			"inputs": [
				{
					"internalType": "uint256",
					"name": "_crateId",
					"type": "uint256"
				},
				{
					"internalType": "uint256",
					"name": "_numTokens",
					"type": "uint256"
				},
				{
					"internalType": "uint256",
					"name": "_faction",
					"type": "uint256"
				},
				{
					"internalType": "uint256",
					"name": "_level",
					"type": "uint256"
				},
				{
					"internalType": "uint256[]",
					"name": "_rarities",
					"type": "uint256[]"
				},
				{
					"internalType": "uint256",
					"name": "_price",
					"type": "uint256"
				}
			],
			"name": "applyCrate",
			"outputs": [],
			"stateMutability": "nonpayable",
			"type": "function"
		},
		{
			"inputs": [
				{
					"internalType": "address",
					"name": "to",
					"type": "address"
				},
				{
					"internalType": "uint256",
					"name": "tokenId",
					"type": "uint256"
				}
			],
			"name": "approve",
			"outputs": [],
			"stateMutability": "nonpayable",
			"type": "function"
		},
		{
			"inputs": [
				{
					"internalType": "address",
					"name": "owner",
					"type": "address"
				}
			],
			"name": "balanceOf",
			"outputs": [
				{
					"internalType": "uint256",
					"name": "",
					"type": "uint256"
				}
			],
			"stateMutability": "view",
			"type": "function"
		},
		{
			"inputs": [
				{
					"internalType": "uint256",
					"name": "_crateId",
					"type": "uint256"
				}
			],
			"name": "buyCrate",
			"outputs": [],
			"stateMutability": "payable",
			"type": "function"
		},
		{
			"inputs": [
				{
					"internalType": "uint256",
					"name": "_tokenId",
					"type": "uint256"
				}
			],
			"name": "buyToken",
			"outputs": [],
			"stateMutability": "payable",
			"type": "function"
		},
		{
			"inputs": [
				{
					"internalType": "uint256",
					"name": "_tokenId",
					"type": "uint256"
				},
				{
					"internalType": "uint256",
					"name": "_newPrice",
					"type": "uint256"
				}
			],
			"name": "changeTokenPrice",
			"outputs": [],
			"stateMutability": "payable",
			"type": "function"
		},
		{
			"inputs": [
				{
					"internalType": "uint256",
					"name": "",
					"type": "uint256"
				}
			],
			"name": "crateUmblData",
			"outputs": [
				{
					"internalType": "uint256",
					"name": "id",
					"type": "uint256"
				},
				{
					"internalType": "uint256",
					"name": "tokenCount",
					"type": "uint256"
				},
				{
					"internalType": "uint256",
					"name": "price",
					"type": "uint256"
				},
				{
					"internalType": "enum UmblNFT.TokenFaction",
					"name": "faction",
					"type": "uint8"
				},
				{
					"internalType": "uint256",
					"name": "level",
					"type": "uint256"
				},
				{
					"internalType": "bool",
					"name": "isDeleted",
					"type": "bool"
				}
			],
			"stateMutability": "view",
			"type": "function"
		},
		{
			"inputs": [
				{
					"internalType": "uint256",
					"name": "_index",
					"type": "uint256"
				}
			],
			"name": "deleteCrate",
			"outputs": [],
			"stateMutability": "nonpayable",
			"type": "function"
		},
		{
			"inputs": [
				{
					"internalType": "uint256",
					"name": "tokenId",
					"type": "uint256"
				}
			],
			"name": "getApproved",
			"outputs": [
				{
					"internalType": "address",
					"name": "",
					"type": "address"
				}
			],
			"stateMutability": "view",
			"type": "function"
		},
		{
			"inputs": [
				{
					"internalType": "uint256",
					"name": "_index",
					"type": "uint256"
				}
			],
			"name": "getCrateRarities",
			"outputs": [
				{
					"internalType": "uint256[]",
					"name": "",
					"type": "uint256[]"
				}
			],
			"stateMutability": "view",
			"type": "function"
		},
		{
			"inputs": [
				{
					"internalType": "address",
					"name": "owner",
					"type": "address"
				},
				{
					"internalType": "address",
					"name": "operator",
					"type": "address"
				}
			],
			"name": "isApprovedForAll",
			"outputs": [
				{
					"internalType": "bool",
					"name": "",
					"type": "bool"
				}
			],
			"stateMutability": "view",
			"type": "function"
		},
		{
			"inputs": [],
			"name": "isEnabledSale",
			"outputs": [
				{
					"internalType": "bool",
					"name": "",
					"type": "bool"
				}
			],
			"stateMutability": "view",
			"type": "function"
		},
		{
			"inputs": [
				{
					"internalType": "uint256",
					"name": "_numTokens",
					"type": "uint256"
				},
				{
					"internalType": "uint256",
					"name": "_faction",
					"type": "uint256"
				},
				{
					"internalType": "uint256",
					"name": "_category",
					"type": "uint256"
				},
				{
					"internalType": "uint256",
					"name": "_rarity",
					"type": "uint256"
				},
				{
					"internalType": "uint256",
					"name": "_price",
					"type": "uint256"
				}
			],
			"name": "mintToken",
			"outputs": [],
			"stateMutability": "nonpayable",
			"type": "function"
		},
		{
			"inputs": [],
			"name": "name",
			"outputs": [
				{
					"internalType": "string",
					"name": "",
					"type": "string"
				}
			],
			"stateMutability": "view",
			"type": "function"
		},
		{
			"inputs": [],
			"name": "nextCrateId",
			"outputs": [
				{
					"internalType": "uint256",
					"name": "",
					"type": "uint256"
				}
			],
			"stateMutability": "view",
			"type": "function"
		},
		{
			"inputs": [],
			"name": "nextTokenId",
			"outputs": [
				{
					"internalType": "uint256",
					"name": "",
					"type": "uint256"
				}
			],
			"stateMutability": "view",
			"type": "function"
		},
		{
			"inputs": [],
			"name": "owner",
			"outputs": [
				{
					"internalType": "address",
					"name": "",
					"type": "address"
				}
			],
			"stateMutability": "view",
			"type": "function"
		},
		{
			"inputs": [
				{
					"internalType": "uint256",
					"name": "tokenId",
					"type": "uint256"
				}
			],
			"name": "ownerOf",
			"outputs": [
				{
					"internalType": "address",
					"name": "",
					"type": "address"
				}
			],
			"stateMutability": "view",
			"type": "function"
		},
		{
			"inputs": [],
			"name": "pauseMarketPlace",
			"outputs": [],
			"stateMutability": "nonpayable",
			"type": "function"
		},
		{
			"inputs": [],
			"name": "renounceOwnership",
			"outputs": [],
			"stateMutability": "nonpayable",
			"type": "function"
		},
		{
			"inputs": [
				{
					"internalType": "address",
					"name": "from",
					"type": "address"
				},
				{
					"internalType": "address",
					"name": "to",
					"type": "address"
				},
				{
					"internalType": "uint256",
					"name": "tokenId",
					"type": "uint256"
				}
			],
			"name": "safeTransferFrom",
			"outputs": [],
			"stateMutability": "nonpayable",
			"type": "function"
		},
		{
			"inputs": [
				{
					"internalType": "address",
					"name": "from",
					"type": "address"
				},
				{
					"internalType": "address",
					"name": "to",
					"type": "address"
				},
				{
					"internalType": "uint256",
					"name": "tokenId",
					"type": "uint256"
				},
				{
					"internalType": "bytes",
					"name": "_data",
					"type": "bytes"
				}
			],
			"name": "safeTransferFrom",
			"outputs": [],
			"stateMutability": "nonpayable",
			"type": "function"
		},
		{
			"inputs": [
				{
					"internalType": "address",
					"name": "operator",
					"type": "address"
				},
				{
					"internalType": "bool",
					"name": "approved",
					"type": "bool"
				}
			],
			"name": "setApprovalForAll",
			"outputs": [],
			"stateMutability": "nonpayable",
			"type": "function"
		},
		{
			"inputs": [
				{
					"internalType": "string",
					"name": "baseURI",
					"type": "string"
				}
			],
			"name": "setBaseURI",
			"outputs": [],
			"stateMutability": "nonpayable",
			"type": "function"
		},
		{
			"inputs": [
				{
					"internalType": "uint256",
					"name": "_tokenId",
					"type": "uint256"
				},
				{
					"internalType": "uint256",
					"name": "_tokenStatus",
					"type": "uint256"
				}
			],
			"name": "setTokenStatus",
			"outputs": [],
			"stateMutability": "payable",
			"type": "function"
		},
		{
			"inputs": [],
			"name": "startMarketPlace",
			"outputs": [],
			"stateMutability": "nonpayable",
			"type": "function"
		},
		{
			"inputs": [
				{
					"internalType": "bytes4",
					"name": "interfaceId",
					"type": "bytes4"
				}
			],
			"name": "supportsInterface",
			"outputs": [
				{
					"internalType": "bool",
					"name": "",
					"type": "bool"
				}
			],
			"stateMutability": "view",
			"type": "function"
		},
		{
			"inputs": [],
			"name": "symbol",
			"outputs": [
				{
					"internalType": "string",
					"name": "",
					"type": "string"
				}
			],
			"stateMutability": "view",
			"type": "function"
		},
		{
			"inputs": [
				{
					"internalType": "uint256",
					"name": "index",
					"type": "uint256"
				}
			],
			"name": "tokenByIndex",
			"outputs": [
				{
					"internalType": "uint256",
					"name": "",
					"type": "uint256"
				}
			],
			"stateMutability": "view",
			"type": "function"
		},
		{
			"inputs": [
				{
					"internalType": "address",
					"name": "owner",
					"type": "address"
				},
				{
					"internalType": "uint256",
					"name": "index",
					"type": "uint256"
				}
			],
			"name": "tokenOfOwnerByIndex",
			"outputs": [
				{
					"internalType": "uint256",
					"name": "",
					"type": "uint256"
				}
			],
			"stateMutability": "view",
			"type": "function"
		},
		{
			"inputs": [
				{
					"internalType": "uint256",
					"name": "tokenId",
					"type": "uint256"
				}
			],
			"name": "tokenURI",
			"outputs": [
				{
					"internalType": "string",
					"name": "",
					"type": "string"
				}
			],
			"stateMutability": "view",
			"type": "function"
		},
		{
			"inputs": [
				{
					"internalType": "uint256",
					"name": "",
					"type": "uint256"
				}
			],
			"name": "tokenUmblData",
			"outputs": [
				{
					"internalType": "uint256",
					"name": "id",
					"type": "uint256"
				},
				{
					"internalType": "uint256",
					"name": "price",
					"type": "uint256"
				},
				{
					"internalType": "enum UmblNFT.TokenStatus",
					"name": "status",
					"type": "uint8"
				},
				{
					"internalType": "enum UmblNFT.TokenFaction",
					"name": "faction",
					"type": "uint8"
				},
				{
					"internalType": "enum UmblNFT.TokenCategory",
					"name": "category",
					"type": "uint8"
				},
				{
					"internalType": "enum UmblNFT.TokenRarity",
					"name": "rarity",
					"type": "uint8"
				}
			],
			"stateMutability": "view",
			"type": "function"
		},
		{
			"inputs": [
				{
					"internalType": "address",
					"name": "_owner",
					"type": "address"
				}
			],
			"name": "tokensOfOwner",
			"outputs": [
				{
					"internalType": "uint256[]",
					"name": "",
					"type": "uint256[]"
				}
			],
			"stateMutability": "view",
			"type": "function"
		},
		{
			"inputs": [],
			"name": "totalSupply",
			"outputs": [
				{
					"internalType": "uint256",
					"name": "",
					"type": "uint256"
				}
			],
			"stateMutability": "view",
			"type": "function"
		},
		{
			"inputs": [
				{
					"internalType": "address",
					"name": "from",
					"type": "address"
				},
				{
					"internalType": "address",
					"name": "to",
					"type": "address"
				},
				{
					"internalType": "uint256",
					"name": "tokenId",
					"type": "uint256"
				}
			],
			"name": "transferFrom",
			"outputs": [],
			"stateMutability": "nonpayable",
			"type": "function"
		},
		{
			"inputs": [
				{
					"internalType": "address",
					"name": "newOwner",
					"type": "address"
				}
			],
			"name": "transferOwnership",
			"outputs": [],
			"stateMutability": "nonpayable",
			"type": "function"
		}
	]
}