{
	"data": {
		"bytecode": {
			"linkReferences": {},
			"object": "6080604052600c805460ff19169055600060108190556011553480156200002557600080fd5b50604051620048e4380380620048e4833981016040819052620000489162000260565b6040805180820182526008815267155b589b0813919560c21b6020808301918252835180850190945260048452631553509360e21b9084015281519192916200009491600091620001ba565b508051620000aa906001906020840190620001ba565b505050620000c7620000c1620000de60201b60201c565b620000e2565b6001600b55620000d78162000134565b506200038f565b3390565b600a80546001600160a01b038381166001600160a01b0319831681179093556040519116919082907f8be0079c531659141344cd1fd0a4f28419497f9722a3daafe3b4186f6b6457e090600090a35050565b600a546001600160a01b03163314620001935760405162461bcd60e51b815260206004820181905260248201527f4f776e61626c653a2063616c6c6572206973206e6f7420746865206f776e6572604482015260640160405180910390fd5b6200019e81620001a1565b50565b8051620001b690600f906020840190620001ba565b5050565b828054620001c8906200033c565b90600052602060002090601f016020900481019282620001ec576000855562000237565b82601f106200020757805160ff191683800117855562000237565b8280016001018555821562000237579182015b82811115620002375782518255916020019190600101906200021a565b506200024592915062000249565b5090565b5b808211156200024557600081556001016200024a565b600060208083850312156200027457600080fd5b82516001600160401b03808211156200028c57600080fd5b818501915085601f830112620002a157600080fd5b815181811115620002b657620002b662000379565b604051601f8201601f19908116603f01168101908382118183101715620002e157620002e162000379565b816040528281528886848701011115620002fa57600080fd5b600093505b828410156200031e5784840186015181850187015292850192620002ff565b82841115620003305760008684830101525b98975050505050505050565b600181811c908216806200035157607f821691505b602082108114156200037357634e487b7160e01b600052602260045260246000fd5b50919050565b634e487b7160e01b600052604160045260246000fd5b614545806200039f6000396000f3fe6080604052600436106102305760003560e01c806370a082311161012e578063b38d817c116100ab578063c87b56dd1161006f578063c87b56dd146106c7578063cb9953e7146106e7578063e119248e146106fd578063e985e9c514610712578063f2fde38b1461075b57600080fd5b8063b38d817c146105f8578063b8049b9914610661578063b88d4fde14610674578063b99a15f814610694578063c717e8ea146106a757600080fd5b80639016617c116100f25780639016617c14610579578063955a66151461058c57806395d89b41146105ac578063a22cb465146105c1578063af055820146105e157600080fd5b806370a08231146104f0578063715018a61461051057806375794a3c146105255780638462151c1461053b5780638da5cb5b1461055b57600080fd5b80632d296bf1116101bc5780634f6ccce7116101805780634f6ccce71461046857806355f804b314610488578063594455f5146104a857806362e8e8ac146104bd5780636352211e146104d057600080fd5b80632d296bf1146103c85780632f745c59146103db578063406b9872146103fb57806342842e0e1461041b578063483331131461043b57600080fd5b80631280cb62116102035780631280cb62146102e657806318160ddd1461035a5780631d4175a51461037957806323b872dd146103935780632d21a464146103b357600080fd5b806301ffc9a71461023557806306fdde031461026a578063081812fc1461028c578063095ea7b3146102c4575b600080fd5b34801561024157600080fd5b50610255610250366004613e36565b61077b565b60405190151581526020015b60405180910390f35b34801561027657600080fd5b5061027f61078c565b6040516102619190614119565b34801561029857600080fd5b506102ac6102a7366004613eb9565b61081e565b6040516001600160a01b039091168152602001610261565b3480156102d057600080fd5b506102e46102df366004613e0c565b6108ab565b005b3480156102f257600080fd5b50610347610301366004613eb9565b600d6020526000908152604090208054600182015460028301546003909301549192909160ff808216916101008104821691620100008204811691630100000090041687565b6040516102619796959493929190614301565b34801561036657600080fd5b506008545b604051908152602001610261565b34801561038557600080fd5b50600c546102559060ff1681565b34801561039f57600080fd5b506102e46103ae366004613d18565b6109c1565b3480156103bf57600080fd5b506102e46109f2565b6102e46103d6366004613eb9565b610a28565b3480156103e757600080fd5b5061036b6103f6366004613e0c565b610ca0565b34801561040757600080fd5b506102e4610416366004613ef4565b610d36565b34801561042757600080fd5b506102e4610436366004613d18565b6111b8565b34801561044757600080fd5b5061045b610456366004613eb9565b6111d3565b60405161026191906140d5565b34801561047457600080fd5b5061036b610483366004613eb9565b6112f3565b34801561049457600080fd5b506102e46104a3366004613e70565b611386565b3480156104b457600080fd5b5061036b606481565b6102e46104cb366004613ed2565b6113bc565b3480156104dc57600080fd5b506102ac6104eb366004613eb9565b611618565b3480156104fc57600080fd5b5061036b61050b366004613cca565b61168f565b34801561051c57600080fd5b506102e4611716565b34801561053157600080fd5b5061036b60105481565b34801561054757600080fd5b5061045b610556366004613cca565b61174c565b34801561056757600080fd5b50600a546001600160a01b03166102ac565b6102e4610587366004613eb9565b61180b565b34801561059857600080fd5b506102e46105a7366004613eb9565b6120cc565b3480156105b857600080fd5b5061027f612123565b3480156105cd57600080fd5b506102e46105dc366004613dd0565b612132565b3480156105ed57600080fd5b5061036b620186a081565b34801561060457600080fd5b5061064f610613366004613eb9565b600e6020526000908152604090208054600182015460028301546003840154600485015460069095015493949293919260ff9182169290911686565b604051610261969594939291906142c6565b6102e461066f366004613ed2565b6121f7565b34801561068057600080fd5b506102e461068f366004613d54565b612493565b6102e46106a2366004613ed2565b6124cb565b3480156106b357600080fd5b506102e46106c2366004613fd2565b61282f565b3480156106d357600080fd5b5061027f6106e2366004613eb9565b612f15565b3480156106f357600080fd5b5061036b60115481565b34801561070957600080fd5b506102e4612f6a565b34801561071e57600080fd5b5061025561072d366004613ce5565b6001600160a01b03918216600090815260056020908152604080832093909416825291909152205460ff1690565b34801561076757600080fd5b506102e4610776366004613cca565b612fa3565b60006107868261303b565b92915050565b60606000805461079b90614411565b80601f01602080910402602001604051908101604052809291908181526020018280546107c790614411565b80156108145780601f106107e957610100808354040283529160200191610814565b820191906000526020600020905b8154815290600101906020018083116107f757829003601f168201915b5050505050905090565b600061082982613060565b61088f5760405162461bcd60e51b815260206004820152602c60248201527f4552433732313a20617070726f76656420717565727920666f72206e6f6e657860448201526b34b9ba32b73a103a37b5b2b760a11b60648201526084015b60405180910390fd5b506000908152600460205260409020546001600160a01b031690565b60006108b682611618565b9050806001600160a01b0316836001600160a01b031614156109245760405162461bcd60e51b815260206004820152602160248201527f4552433732313a20617070726f76616c20746f2063757272656e74206f776e656044820152603960f91b6064820152608401610886565b336001600160a01b03821614806109405750610940813361072d565b6109b25760405162461bcd60e51b815260206004820152603860248201527f4552433732313a20617070726f76652063616c6c6572206973206e6f74206f7760448201527f6e6572206e6f7220617070726f76656420666f7220616c6c00000000000000006064820152608401610886565b6109bc838361307d565b505050565b6109cb33826130eb565b6109e75760405162461bcd60e51b815260040161088690614233565b6109bc8383836131d5565b600a546001600160a01b03163314610a1c5760405162461bcd60e51b8152600401610886906141d0565b600c805460ff19169055565b600c5460ff161515600114610a4f5760405162461bcd60e51b815260040161088690614284565b33610a5957600080fd5b610a6281613060565b610a6b57600080fd5b6000610a7682611618565b90506001600160a01b038116610a8b57600080fd5b6001600160a01b038116331415610aa157600080fd5b6000828152600d60209081526040808320815160e081018352815481526001820154938101939093526002810154918301919091526003810154606083019060ff166004811115610af457610af46144a1565b6004811115610b0557610b056144a1565b81526020016003820160019054906101000a900460ff166003811115610b2d57610b2d6144a1565b6003811115610b3e57610b3e6144a1565b81526020016003820160029054906101000a900460ff166007811115610b6657610b666144a1565b6007811115610b7757610b776144a1565b81526020016003820160039054906101000a900460ff16600c811115610b9f57610b9f6144a1565b600c811115610bb057610bb06144a1565b8152505090508060200151341015610bc757600080fd5b600281606001516004811115610bdf57610bdf6144a1565b14610be957600080fd5b610bf48233856131d5565b816000610c09600a546001600160a01b031690565b90506000610c18600a346143ba565b90506000610c2682346143ce565b6040519091506001600160a01b0384169083156108fc029084906000818181858888f19350505050158015610c5f573d6000803e3d6000fd5b506040516001600160a01b0385169082156108fc029083906000818181858888f19350505050158015610c96573d6000803e3d6000fd5b5050505050505050565b6000610cab8361168f565b8210610d0d5760405162461bcd60e51b815260206004820152602b60248201527f455243373231456e756d657261626c653a206f776e657220696e646578206f7560448201526a74206f6620626f756e647360a81b6064820152608401610886565b506001600160a01b03919091166000908152600660209081526040808320938352929052205490565b600a546001600160a01b03163314610d605760405162461bcd60e51b8152600401610886906141d0565b6002600b541415610db35760405162461bcd60e51b815260206004820152601f60248201527f5265656e7472616e637947756172643a207265656e7472616e742063616c6c006044820152606401610886565b6002600b558415801590610dc8575060648511155b610e1e5760405162461bcd60e51b815260206004820152602160248201527f4d75737420696e636c7564652066726f6d203120746f2031303020746f6b656e6044820152607360f81b6064820152608401610886565b60008111610e6e5760405162461bcd60e51b815260206004820152601f60248201527f5072696365206d7573742062652067726561746572207468616e207a65726f006044820152606401610886565b60018410158015610e80575060028411155b610e9c5760405162461bcd60e51b81526004016108869061417e565b6000825111610ef85760405162461bcd60e51b815260206004820152602260248201527f4d75737420696e636c756465206174206c65617374206f6e6520726172697469604482015261657360f01b6064820152608401610886565b60005b8251811015610fb2576001838281518110610f1857610f186144cd565b602002602001015110158015610f4857506007838281518110610f3d57610f3d6144cd565b602002602001015111155b610fa05760405162461bcd60e51b815260206004820152602360248201527f4d757374207261726974792066726f6d20434f4d4d4f4e20746f204d5954484960448201526210d05360ea1b6064820152608401610886565b80610faa81614446565b915050610efb565b5060008615610fe457601154871115610fdd5760405162461bcd60e51b815260040161088690614205565b5085610fff565b60118054906000610ff483614446565b919050555060115490505b60006040518060e00160405280838152602001888152602001848152602001876003811115611030576110306144a1565b6003811115611041576110416144a1565b8152602080820188905260408051600080825292810182529201919050815260006020918201819052848152600e8252604090819020835181559183015160018381019190915590830151600283015560608301516003808401805495965086959293909260ff19169184908111156110bc576110bc6144a1565b02179055506080820151600482015560a082015180516110e6916005840191602090910190613b19565b5060c091909101516006909101805460ff191691151591909117905560005b84518110156111a857600e6000848152602001908152602001600020600501858281518110611136576111366144cd565b6020026020010151600c81111561114f5761114f6144a1565b8154600181018355600092835260209283902092810490920180549192909160ff601f9092166101000a91820219169083600c811115611191576111916144a1565b0217905550806111a081614446565b915050611105565b50506001600b5550505050505050565b6109bc83838360405180602001604052806000815250612493565b60606011548211156111f75760405162461bcd60e51b815260040161088690614205565b6000828152600e602052604081206005015467ffffffffffffffff811115611221576112216144e3565b60405190808252806020026020018201604052801561124a578160200160208202803683370190505b50905060005b6000848152600e60205260409020600501548110156112ec576000848152600e6020526040902060050180548290811061128c5761128c6144cd565b90600052602060002090602091828204019190069054906101000a900460ff16600c8111156112bd576112bd6144a1565b8282815181106112cf576112cf6144cd565b6020908102919091010152806112e481614446565b915050611250565b5092915050565b60006112fe60085490565b82106113615760405162461bcd60e51b815260206004820152602c60248201527f455243373231456e756d657261626c653a20676c6f62616c20696e646578206f60448201526b7574206f6620626f756e647360a01b6064820152608401610886565b60088281548110611374576113746144cd565b90600052602060002001549050919050565b600a546001600160a01b031633146113b05760405162461bcd60e51b8152600401610886906141d0565b6113b981613380565b50565b600c5460ff1615156001146113e35760405162461bcd60e51b815260040161088690614284565b6113ec82613060565b6113f557600080fd5b336113ff83611618565b6001600160a01b03161461141257600080fd5b6000828152600d60209081526040808320815160e081018352815481526001820154938101939093526002810154918301919091526003810154606083019060ff166004811115611465576114656144a1565b6004811115611476576114766144a1565b81526020016003820160019054906101000a900460ff16600381111561149e5761149e6144a1565b60038111156114af576114af6144a1565b81526020016003820160029054906101000a900460ff1660078111156114d7576114d76144a1565b60078111156114e8576114e86144a1565b81526020016003820160039054906101000a900460ff16600c811115611510576115106144a1565b600c811115611521576115216144a1565b90525060208082018481526000868152600d9092526040918290208351815590516001808301919091559183015160028201556060830151600382018054949550859492939192909160ff1990911690836004811115611583576115836144a1565b021790555060808201518160030160016101000a81548160ff021916908360038111156115b2576115b26144a1565b021790555060a082015160038201805462ff00001916620100008360078111156115de576115de6144a1565b021790555060c082015160038201805463ff0000001916630100000083600c81111561160c5761160c6144a1565b02179055505050505050565b6000818152600260205260408120546001600160a01b0316806107865760405162461bcd60e51b815260206004820152602960248201527f4552433732313a206f776e657220717565727920666f72206e6f6e657869737460448201526832b73a103a37b5b2b760b91b6064820152608401610886565b60006001600160a01b0382166116fa5760405162461bcd60e51b815260206004820152602a60248201527f4552433732313a2062616c616e636520717565727920666f7220746865207a65604482015269726f206164647265737360b01b6064820152608401610886565b506001600160a01b031660009081526003602052604090205490565b600a546001600160a01b031633146117405760405162461bcd60e51b8152600401610886906141d0565b61174a6000613397565b565b606060006117598361168f565b90508061177a5760408051600080825260208201909252905b509392505050565b60008167ffffffffffffffff811115611795576117956144e3565b6040519080825280602002602001820160405280156117be578160200160208202803683370190505b50905060005b82811015611772576117d68582610ca0565b8282815181106117e8576117e86144cd565b6020908102919091010152806117fd81614446565b9150506117c4565b50919050565b3361181557600080fd5b600a546001600160a01b031633141561182d57600080fd5b60115481111561184f5760405162461bcd60e51b815260040161088690614205565b6000818152600e60209081526040808320815160e08101835281548152600182015493810193909352600281015491830191909152600380820154606084019160ff909116908111156118a4576118a46144a1565b60038111156118b5576118b56144a1565b8152602001600482015481526020016005820180548060200260200160405190810160405280929190818152602001828054801561194257602002820191906000526020600020906000905b82829054906101000a900460ff16600c811115611920576119206144a1565b8152602060019283018181049485019490930390920291018084116119015790505b50505091835250506006919091015460ff161515602090910152604081015190915034101561197057600080fd5b6000805b8260a0015151811015611a9e5760015b6010548111611a8b5760016000828152600d602052604090206003015460ff1660048111156119b5576119b56144a1565b148015611a1b57508360a0015182815181106119d3576119d36144cd565b6020026020010151600c8111156119ec576119ec6144a1565b6000828152600d60205260409020600301546301000000900460ff16600c811115611a1957611a196144a1565b145b8015611a66575083606001516003811115611a3857611a386144a1565b6000828152600d60205260409020600390810154610100900460ff1690811115611a6457611a646144a1565b145b15611a795782611a7581614446565b9350505b80611a8381614446565b915050611984565b5080611a9681614446565b915050611974565b508160200151811015611aff5760405162461bcd60e51b8152602060048201526024808201527f546865726520617265206e6f20656e6f75676820617661696c61626c6520746f6044820152636b656e7360e01b6064820152608401610886565b60008167ffffffffffffffff811115611b1a57611b1a6144e3565b604051908082528060200260200182016040528015611b43578160200160208202803683370190505b5090506000805b8460a0015151811015611c915760015b6010548111611c7e5760016000828152600d602052604090206003015460ff166004811115611b8b57611b8b6144a1565b148015611bf157508560a001518281518110611ba957611ba96144cd565b6020026020010151600c811115611bc257611bc26144a1565b6000828152600d60205260409020600301546301000000900460ff16600c811115611bef57611bef6144a1565b145b8015611c3c575085606001516003811115611c0e57611c0e6144a1565b6000828152600d60205260409020600390810154610100900460ff1690811115611c3a57611c3a6144a1565b145b15611c6c57808484611c4d81614446565b955081518110611c5f57611c5f6144cd565b6020026020010181815250505b80611c7681614446565b915050611b5a565b5080611c8981614446565b915050611b4a565b506000846020015167ffffffffffffffff811115611cb157611cb16144e3565b604051908082528060200260200182016040528015611cda578160200160208202803683370190505b50905060006001815b8760200151811015611dfd575b600087423385611cff81614446565b9650604051602001611d369392919092835260609190911b6bffffffffffffffffffffffff19166020830152603482015260540190565b6040516020818303038152906040528051906020012060001c611d599190614461565b90506000805b85811015611dad5781158015611d8d5750868181518110611d8257611d826144cd565b602002602001015183145b15611d9b5760019150611dad565b80611da581614446565b915050611d5f565b5080611de457818686611dbf81614446565b975081518110611dd157611dd16144cd565b6020026020010181815250505050611deb565b5050611cf0565b80611df581614446565b915050611ce3565b5060005b876020015181101561207357600086858381518110611e2257611e226144cd565b602002602001015181518110611e3a57611e3a6144cd565b602002602001015190506000611e4f82611618565b9050611e5c8133846131d5565b6000828152600d60209081526040808320815160e081018352815481526001820154938101939093526002810154918301919091526003810154606083019060ff166004811115611eaf57611eaf6144a1565b6004811115611ec057611ec06144a1565b81526020016003820160019054906101000a900460ff166003811115611ee857611ee86144a1565b6003811115611ef957611ef96144a1565b81526020016003820160029054906101000a900460ff166007811115611f2157611f216144a1565b6007811115611f3257611f326144a1565b81526020016003820160039054906101000a900460ff16600c811115611f5a57611f5a6144a1565b600c811115611f6b57611f6b6144a1565b9052509050600260608201819052506000838152600d602090815260409182902083518155908301516001808301919091559183015160028201556060830151600382018054859460ff1990911690836004811115611fcc57611fcc6144a1565b021790555060808201518160030160016101000a81548160ff02191690836003811115611ffb57611ffb6144a1565b021790555060a082015160038201805462ff0000191662010000836007811115612027576120276144a1565b021790555060c082015160038201805463ff0000001916630100000083600c811115612055576120556144a1565b0217905550905050505050808061206b90614446565b915050611e01565b506000612088600a546001600160a01b031690565b6040519091506001600160a01b038216903480156108fc02916000818181858888f193505050501580156120c0573d6000803e3d6000fd5b50505050505050505050565b600a546001600160a01b031633146120f65760405162461bcd60e51b8152600401610886906141d0565b60115481111561210557600080fd5b6000908152600e60205260409020600601805460ff19166001179055565b60606001805461079b90614411565b6001600160a01b03821633141561218b5760405162461bcd60e51b815260206004820152601960248201527f4552433732313a20617070726f766520746f2063616c6c6572000000000000006044820152606401610886565b3360008181526005602090815260408083206001600160a01b03871680855290835292819020805460ff191686151590811790915590519081529192917f17307eab39ab6107e8899845ad3d59bd9653f200f220920489ca2b5937696c31910160405180910390a35050565b61220082613060565b61220957600080fd5b3361221383611618565b6001600160a01b03161461222657600080fd5b6000828152600d60209081526040808320815160e081018352815481526001820154938101939093526002810154918301919091526003810154606083019060ff166004811115612279576122796144a1565b600481111561228a5761228a6144a1565b81526020016003820160019054906101000a900460ff1660038111156122b2576122b26144a1565b60038111156122c3576122c36144a1565b81526020016003820160029054906101000a900460ff1660078111156122eb576122eb6144a1565b60078111156122fc576122fc6144a1565b81526020016003820160039054906101000a900460ff16600c811115612324576123246144a1565b600c811115612335576123356144a1565b9052509050600081606001516004811115612352576123526144a1565b141580156123765750600181606001516004811115612373576123736144a1565b14155b6123cd5760405162461bcd60e51b815260206004820152602260248201527f54686520746f6b656e206865616c74682063616e6e6f74206265207570646174604482015261195960f21b6064820152608401610886565b81816040015114156123de57600080fd5b606482111561243d5760405162461bcd60e51b815260206004820152602560248201527f546f6b656e206865616c7468206d7573742062652066726f6d207a65726f207460448201526406f203130360dc1b6064820152608401610886565b60408082018381526000858152600d6020908152929020835181559183015160018084019190915590516002830155606083015160038301805485949360ff1990911690836004811115611583576115836144a1565b61249d33836130eb565b6124b95760405162461bcd60e51b815260040161088690614233565b6124c5848484846133e9565b50505050565b6124d482613060565b6124dd57600080fd5b336124e783611618565b6001600160a01b0316146124fa57600080fd5b6000828152600d60209081526040808320815160e081018352815481526001820154938101939093526002810154918301919091526003810154606083019060ff16600481111561254d5761254d6144a1565b600481111561255e5761255e6144a1565b81526020016003820160019054906101000a900460ff166003811115612586576125866144a1565b6003811115612597576125976144a1565b81526020016003820160029054906101000a900460ff1660078111156125bf576125bf6144a1565b60078111156125d0576125d06144a1565b81526020016003820160039054906101000a900460ff16600c8111156125f8576125f86144a1565b600c811115612609576126096144a1565b9052509050600081606001516004811115612626576126266144a1565b1415801561264a5750600181606001516004811115612647576126476144a1565b14155b6126a15760405162461bcd60e51b815260206004820152602260248201527f54686520746f6b656e207374617475732063616e6e6f74206265207570646174604482015261195960f21b6064820152608401610886565b8160048111156126b3576126b36144a1565b60048111156126c4576126c46144a1565b816060015160048111156126da576126da6144a1565b14156126e557600080fd5b6004821415612740576040810151156127405760405162461bcd60e51b815260206004820152601c60248201527f54686520746f6b656e206865616c7468206973206e6f74207a65726f000000006044820152606401610886565b6002826004811115612754576127546144a1565b6004811115612765576127656144a1565b1015801561279657506004826004811115612782576127826144a1565b6004811115612793576127936144a1565b11155b61279f57600080fd5b8160048111156127b1576127b16144a1565b816060019060048111156127c7576127c76144a1565b908160048111156127da576127da6144a1565b9052506000838152600d602090815260409182902083518155908301516001808301919091559183015160028201556060830151600382018054859460ff1990911690836004811115611583576115836144a1565b600a546001600160a01b031633146128595760405162461bcd60e51b8152600401610886906141d0565b6002600b5414156128ac5760405162461bcd60e51b815260206004820152601f60248201527f5265656e7472616e637947756172643a207265656e7472616e742063616c6c006044820152606401610886565b6002600b5584158015906128c35750620186a08511155b61290f5760405162461bcd60e51b815260206004820152601f60248201527f4d757374206d696e742066726f6d203120746f20313030303030204e465473006044820152606401610886565b60018310158015612921575060078311155b6129835760405162461bcd60e51b815260206004820152602d60248201527f546f6b656e2043617465676f7279206d7573742062652066726f6d205745415060448201526c4f4e5320746f2042414447455360981b6064820152608401610886565b600182101580156129955750600c8211155b6129fb5760405162461bcd60e51b815260206004820152603160248201527f546f6b656e20526172697479206d7573742062652066726f6d20434f4d4d4f4e604482015270081d1bc810931050d2d7d112505353d391607a1b6064820152608401610886565b60078314612ab15760018410158015612a15575060028411155b612a315760405162461bcd60e51b81526004016108869061417e565b60018210158015612a43575060078211155b612aac5760405162461bcd60e51b815260206004820152603460248201527f4e6f726d616c20546f6b656e20526172697479206d757374732062652066726f6044820152731b4810d3d35353d3881d1bc8135655121250d05360621b6064820152608401610886565b612b95565b60038414612b115760405162461bcd60e51b815260206004820152602760248201527f426164676520546f6b656e2046616374696f6e206d75737420626520554e53506044820152661150d25192515160ca1b6064820152608401610886565b60088210158015612b235750600c8211155b612b955760405162461bcd60e51b815260206004820152603860248201527f426164676520546f6b656e20526172697479206d757374732062652066726f6d60448201527f2042524f4e5a4520746f20424c41434b5f4449414d4f4e4400000000000000006064820152608401610886565b6001841415612c275760018310158015612bb0575060038311155b612c225760405162461bcd60e51b815260206004820152603b60248201527f5355525649564f525320546f6b656e2043617465676f7279206d75737420626560448201527f2066726f6d20574541504f4e5320746f2041434345534f5249455300000000006064820152608401610886565b612cc6565b6002841415612cc65760048310158015612c42575060068311155b612cc65760405162461bcd60e51b815260206004820152604960248201527f534349454e544953545320546f6b656e2043617465676f7279206d757374206260448201527f652066726f6d20564952555345535f424143544552494120746f2056495255536064820152685f56415249414e545360b81b608482015260a401610886565b60008111612d165760405162461bcd60e51b815260206004820152601f60248201527f5072696365206d7573742062652067726561746572207468616e207a65726f006044820152606401610886565b60005b85811015612f085760108054906000612d3183614446565b9190505550612d53612d4b600a546001600160a01b031690565b60105461341c565b60006040518060e0016040528060105481526020018481526020016064815260200160016004811115612d8857612d886144a1565b8152602001876003811115612d9f57612d9f6144a1565b6003811115612db057612db06144a1565b8152602001866007811115612dc757612dc76144a1565b6007811115612dd857612dd86144a1565b815260200185600c811115612def57612def6144a1565b600c811115612e0057612e006144a1565b815250905080600d6000601054815260200190815260200160002060008201518160000155602082015181600101556040820151816002015560608201518160030160006101000a81548160ff02191690836004811115612e6357612e636144a1565b021790555060808201518160030160016101000a81548160ff02191690836003811115612e9257612e926144a1565b021790555060a082015160038201805462ff0000191662010000836007811115612ebe57612ebe6144a1565b021790555060c082015160038201805463ff0000001916630100000083600c811115612eec57612eec6144a1565b0217905550905050508080612f0090614446565b915050612d19565b50506001600b5550505050565b60606000612f2283613436565b90506000815111612f425760405180602001604052806000815250612f63565b80604051602001612f53919061404d565b6040516020818303038152906040525b9392505050565b600a546001600160a01b03163314612f945760405162461bcd60e51b8152600401610886906141d0565b600c805460ff19166001179055565b600a546001600160a01b03163314612fcd5760405162461bcd60e51b8152600401610886906141d0565b6001600160a01b0381166130325760405162461bcd60e51b815260206004820152602660248201527f4f776e61626c653a206e6577206f776e657220697320746865207a65726f206160448201526564647265737360d01b6064820152608401610886565b6113b981613397565b60006001600160e01b0319821663780e9d6360e01b14806107865750610786826134ea565b6000908152600260205260409020546001600160a01b0316151590565b600081815260046020526040902080546001600160a01b0319166001600160a01b03841690811790915581906130b282611618565b6001600160a01b03167f8c5be1e5ebec7d5bd14f71427d1e84f3dd0314c0f7b2291e5b200ac8c7c3b92560405160405180910390a45050565b60006130f682613060565b6131575760405162461bcd60e51b815260206004820152602c60248201527f4552433732313a206f70657261746f7220717565727920666f72206e6f6e657860448201526b34b9ba32b73a103a37b5b2b760a11b6064820152608401610886565b600061316283611618565b9050806001600160a01b0316846001600160a01b0316148061319d5750836001600160a01b03166131928461081e565b6001600160a01b0316145b806131cd57506001600160a01b0380821660009081526005602090815260408083209388168352929052205460ff165b949350505050565b826001600160a01b03166131e882611618565b6001600160a01b0316146132505760405162461bcd60e51b815260206004820152602960248201527f4552433732313a207472616e73666572206f6620746f6b656e2074686174206960448201526839903737ba1037bbb760b91b6064820152608401610886565b6001600160a01b0382166132b25760405162461bcd60e51b8152602060048201526024808201527f4552433732313a207472616e7366657220746f20746865207a65726f206164646044820152637265737360e01b6064820152608401610886565b6132bd83838361353a565b6132c860008261307d565b6001600160a01b03831660009081526003602052604081208054600192906132f19084906143ce565b90915550506001600160a01b038216600090815260036020526040812080546001929061331f9084906143a2565b909155505060008181526002602052604080822080546001600160a01b0319166001600160a01b0386811691821790925591518493918716917fddf252ad1be2c89b69c2b068fc378daa952ba7f163c4a11628f55a4df523b3ef91a4505050565b805161339390600f906020840190613bcd565b5050565b600a80546001600160a01b038381166001600160a01b0319831681179093556040519116919082907f8be0079c531659141344cd1fd0a4f28419497f9722a3daafe3b4186f6b6457e090600090a35050565b6133f48484846131d5565b61340084848484613545565b6124c55760405162461bcd60e51b81526004016108869061412c565b613393828260405180602001604052806000815250613652565b606061344182613060565b6134a55760405162461bcd60e51b815260206004820152602f60248201527f4552433732314d657461646174613a2055524920717565727920666f72206e6f60448201526e3732bc34b9ba32b73a103a37b5b2b760891b6064820152608401610886565b60006134af613685565b905060008151116134cf5760405180602001604052806000815250612f63565b806134d984613694565b604051602001612f53929190614069565b60006001600160e01b031982166380ac58cd60e01b148061351b57506001600160e01b03198216635b5e139f60e01b145b8061078657506301ffc9a760e01b6001600160e01b0319831614610786565b6109bc838383613792565b60006001600160a01b0384163b1561364757604051630a85bd0160e11b81526001600160a01b0385169063150b7a0290613589903390899088908890600401614098565b602060405180830381600087803b1580156135a357600080fd5b505af19250505080156135d3575060408051601f3d908101601f191682019092526135d091810190613e53565b60015b61362d573d808015613601576040519150601f19603f3d011682016040523d82523d6000602084013e613606565b606091505b5080516136255760405162461bcd60e51b81526004016108869061412c565b805181602001fd5b6001600160e01b031916630a85bd0160e11b1490506131cd565b506001949350505050565b61365c838361384a565b6136696000848484613545565b6109bc5760405162461bcd60e51b81526004016108869061412c565b6060600f805461079b90614411565b6060816136b85750506040805180820190915260018152600360fc1b602082015290565b8160005b81156136e257806136cc81614446565b91506136db9050600a836143ba565b91506136bc565b60008167ffffffffffffffff8111156136fd576136fd6144e3565b6040519080825280601f01601f191660200182016040528015613727576020820181803683370190505b5090505b84156131cd5761373c6001836143ce565b9150613749600a86614461565b6137549060306143a2565b60f81b818381518110613769576137696144cd565b60200101906001600160f81b031916908160001a90535061378b600a866143ba565b945061372b565b6001600160a01b0383166137ed576137e881600880546000838152600960205260408120829055600182018355919091527ff3f7a9fe364faab93b216da50a3214154f22a0a2b415b23a84c8169e8b636ee30155565b613810565b816001600160a01b0316836001600160a01b031614613810576138108382613989565b6001600160a01b038216613827576109bc81613a26565b826001600160a01b0316826001600160a01b0316146109bc576109bc8282613ad5565b6001600160a01b0382166138a05760405162461bcd60e51b815260206004820181905260248201527f4552433732313a206d696e7420746f20746865207a65726f20616464726573736044820152606401610886565b6138a981613060565b156138f65760405162461bcd60e51b815260206004820152601c60248201527f4552433732313a20746f6b656e20616c7265616479206d696e746564000000006044820152606401610886565b6139026000838361353a565b6001600160a01b038216600090815260036020526040812080546001929061392b9084906143a2565b909155505060008181526002602052604080822080546001600160a01b0319166001600160a01b03861690811790915590518392907fddf252ad1be2c89b69c2b068fc378daa952ba7f163c4a11628f55a4df523b3ef908290a45050565b600060016139968461168f565b6139a091906143ce565b6000838152600760205260409020549091508082146139f3576001600160a01b03841660009081526006602090815260408083208584528252808320548484528184208190558352600790915290208190555b5060009182526007602090815260408084208490556001600160a01b039094168352600681528383209183525290812055565b600854600090613a38906001906143ce565b60008381526009602052604081205460088054939450909284908110613a6057613a606144cd565b906000526020600020015490508060088381548110613a8157613a816144cd565b6000918252602080832090910192909255828152600990915260408082208490558582528120556008805480613ab957613ab96144b7565b6001900381819060005260206000200160009055905550505050565b6000613ae08361168f565b6001600160a01b039093166000908152600660209081526040808320868452825280832085905593825260079052919091209190915550565b82805482825590600052602060002090601f01602090048101928215613bbd5791602002820160005b83821115613b8e57835183826101000a81548160ff0219169083600c811115613b6d57613b6d6144a1565b02179055509260200192600101602081600001049283019260010302613b42565b8015613bbb5782816101000a81549060ff0219169055600101602081600001049283019260010302613b8e565b505b50613bc9929150613c41565b5090565b828054613bd990614411565b90600052602060002090601f016020900481019282613bfb5760008555613bbd565b82601f10613c1457805160ff1916838001178555613bbd565b82800160010185558215613bbd579182015b82811115613bbd578251825591602001919060010190613c26565b5b80821115613bc95760008155600101613c42565b600067ffffffffffffffff831115613c7057613c706144e3565b613c83601f8401601f1916602001614371565b9050828152838383011115613c9757600080fd5b828260208301376000602084830101529392505050565b80356001600160a01b0381168114613cc557600080fd5b919050565b600060208284031215613cdc57600080fd5b612f6382613cae565b60008060408385031215613cf857600080fd5b613d0183613cae565b9150613d0f60208401613cae565b90509250929050565b600080600060608486031215613d2d57600080fd5b613d3684613cae565b9250613d4460208501613cae565b9150604084013590509250925092565b60008060008060808587031215613d6a57600080fd5b613d7385613cae565b9350613d8160208601613cae565b925060408501359150606085013567ffffffffffffffff811115613da457600080fd5b8501601f81018713613db557600080fd5b613dc487823560208401613c56565b91505092959194509250565b60008060408385031215613de357600080fd5b613dec83613cae565b915060208301358015158114613e0157600080fd5b809150509250929050565b60008060408385031215613e1f57600080fd5b613e2883613cae565b946020939093013593505050565b600060208284031215613e4857600080fd5b8135612f63816144f9565b600060208284031215613e6557600080fd5b8151612f63816144f9565b600060208284031215613e8257600080fd5b813567ffffffffffffffff811115613e9957600080fd5b8201601f81018413613eaa57600080fd5b6131cd84823560208401613c56565b600060208284031215613ecb57600080fd5b5035919050565b60008060408385031215613ee557600080fd5b50508035926020909101359150565b60008060008060008060c08789031215613f0d57600080fd5b8635955060208088013595506040880135945060608801359350608088013567ffffffffffffffff80821115613f4257600080fd5b818a0191508a601f830112613f5657600080fd5b813581811115613f6857613f686144e3565b8060051b9150613f79848301614371565b8181528481019084860184860187018f1015613f9457600080fd5b600095505b83861015613fb7578035835260019590950194918601918601613f99565b5080975050505050505060a087013590509295509295509295565b600080600080600060a08688031215613fea57600080fd5b505083359560208501359550604085013594606081013594506080013592509050565b600081518084526140258160208601602086016143e5565b601f01601f19169290920160200192915050565b60048110614049576140496144a1565b9052565b6000825161405f8184602087016143e5565b9190910192915050565b6000835161407b8184602088016143e5565b83519083019061408f8183602088016143e5565b01949350505050565b6001600160a01b03858116825284166020820152604081018390526080606082018190526000906140cb9083018461400d565b9695505050505050565b6020808252825182820181905260009190848201906040850190845b8181101561410d578351835292840192918401916001016140f1565b50909695505050505050565b602081526000612f63602083018461400d565b60208082526032908201527f4552433732313a207472616e7366657220746f206e6f6e20455243373231526560408201527131b2b4bb32b91034b6b83632b6b2b73a32b960711b606082015260800190565b60208082526032908201527f546f6b656e2046616374696f6e206d7573742062652066726f6d205355525649604082015271564f525320746f20534349454e544953545360701b606082015260800190565b6020808252818101527f4f776e61626c653a2063616c6c6572206973206e6f7420746865206f776e6572604082015260600190565b60208082526014908201527310dc985d195259081a5cc81b9bdd08195e1a5cdd60621b604082015260600190565b60208082526031908201527f4552433732313a207472616e736665722063616c6c6572206973206e6f74206f6040820152701ddb995c881b9bdc88185c1c1c9bdd9959607a1b606082015260800190565b60208082526022908201527f4d61726b6574706c6163652066656174757265206973206e6f7420656e61626c604082015261195960f21b606082015260800190565b868152602081018690526040810185905260c081016142e86060830186614039565b83608083015282151560a0830152979650505050505050565b878152602081018790526040810186905260e0810160058610614326576143266144a1565b8560608301526143396080830186614039565b60088410614349576143496144a1565b8360a0830152600d831061435f5761435f6144a1565b8260c083015298975050505050505050565b604051601f8201601f1916810167ffffffffffffffff8111828210171561439a5761439a6144e3565b604052919050565b600082198211156143b5576143b5614475565b500190565b6000826143c9576143c961448b565b500490565b6000828210156143e0576143e0614475565b500390565b60005b838110156144005781810151838201526020016143e8565b838111156124c55750506000910152565b600181811c9082168061442557607f821691505b6020821081141561180557634e487b7160e01b600052602260045260246000fd5b600060001982141561445a5761445a614475565b5060010190565b6000826144705761447061448b565b500690565b634e487b7160e01b600052601160045260246000fd5b634e487b7160e01b600052601260045260246000fd5b634e487b7160e01b600052602160045260246000fd5b634e487b7160e01b600052603160045260246000fd5b634e487b7160e01b600052603260045260246000fd5b634e487b7160e01b600052604160045260246000fd5b6001600160e01b0319811681146113b957600080fdfea264697066735822122013022c8f741d90c4730f74f89c3ec4ec1fa9d32285e1e83fd8f6c62838979fe064736f6c63430008070033",
			"opcodes": "PUSH1 0x80 PUSH1 0x40 MSTORE PUSH1 0xC DUP1 SLOAD PUSH1 0xFF NOT AND SWAP1 SSTORE PUSH1 0x0 PUSH1 0x10 DUP2 SWAP1 SSTORE PUSH1 0x11 SSTORE CALLVALUE DUP1 ISZERO PUSH3 0x25 JUMPI PUSH1 0x0 DUP1 REVERT JUMPDEST POP PUSH1 0x40 MLOAD PUSH3 0x48E4 CODESIZE SUB DUP1 PUSH3 0x48E4 DUP4 CODECOPY DUP2 ADD PUSH1 0x40 DUP2 SWAP1 MSTORE PUSH3 0x48 SWAP2 PUSH3 0x260 JUMP JUMPDEST PUSH1 0x40 DUP1 MLOAD DUP1 DUP3 ADD DUP3 MSTORE PUSH1 0x8 DUP2 MSTORE PUSH8 0x155B589B08139195 PUSH1 0xC2 SHL PUSH1 0x20 DUP1 DUP4 ADD SWAP2 DUP3 MSTORE DUP4 MLOAD DUP1 DUP6 ADD SWAP1 SWAP5 MSTORE PUSH1 0x4 DUP5 MSTORE PUSH4 0x15535093 PUSH1 0xE2 SHL SWAP1 DUP5 ADD MSTORE DUP2 MLOAD SWAP2 SWAP3 SWAP2 PUSH3 0x94 SWAP2 PUSH1 0x0 SWAP2 PUSH3 0x1BA JUMP JUMPDEST POP DUP1 MLOAD PUSH3 0xAA SWAP1 PUSH1 0x1 SWAP1 PUSH1 0x20 DUP5 ADD SWAP1 PUSH3 0x1BA JUMP JUMPDEST POP POP POP PUSH3 0xC7 PUSH3 0xC1 PUSH3 0xDE PUSH1 0x20 SHL PUSH1 0x20 SHR JUMP JUMPDEST PUSH3 0xE2 JUMP JUMPDEST PUSH1 0x1 PUSH1 0xB SSTORE PUSH3 0xD7 DUP2 PUSH3 0x134 JUMP JUMPDEST POP PUSH3 0x38F JUMP JUMPDEST CALLER SWAP1 JUMP JUMPDEST PUSH1 0xA DUP1 SLOAD PUSH1 0x1 PUSH1 0x1 PUSH1 0xA0 SHL SUB DUP4 DUP2 AND PUSH1 0x1 PUSH1 0x1 PUSH1 0xA0 SHL SUB NOT DUP4 AND DUP2 OR SWAP1 SWAP4 SSTORE PUSH1 0x40 MLOAD SWAP2 AND SWAP2 SWAP1 DUP3 SWAP1 PUSH32 0x8BE0079C531659141344CD1FD0A4F28419497F9722A3DAAFE3B4186F6B6457E0 SWAP1 PUSH1 0x0 SWAP1 LOG3 POP POP JUMP JUMPDEST PUSH1 0xA SLOAD PUSH1 0x1 PUSH1 0x1 PUSH1 0xA0 SHL SUB AND CALLER EQ PUSH3 0x193 JUMPI PUSH1 0x40 MLOAD PUSH3 0x461BCD PUSH1 0xE5 SHL DUP2 MSTORE PUSH1 0x20 PUSH1 0x4 DUP3 ADD DUP2 SWAP1 MSTORE PUSH1 0x24 DUP3 ADD MSTORE PUSH32 0x4F776E61626C653A2063616C6C6572206973206E6F7420746865206F776E6572 PUSH1 0x44 DUP3 ADD MSTORE PUSH1 0x64 ADD PUSH1 0x40 MLOAD DUP1 SWAP2 SUB SWAP1 REVERT JUMPDEST PUSH3 0x19E DUP2 PUSH3 0x1A1 JUMP JUMPDEST POP JUMP JUMPDEST DUP1 MLOAD PUSH3 0x1B6 SWAP1 PUSH1 0xF SWAP1 PUSH1 0x20 DUP5 ADD SWAP1 PUSH3 0x1BA JUMP JUMPDEST POP POP JUMP JUMPDEST DUP3 DUP1 SLOAD PUSH3 0x1C8 SWAP1 PUSH3 0x33C JUMP JUMPDEST SWAP1 PUSH1 0x0 MSTORE PUSH1 0x20 PUSH1 0x0 KECCAK256 SWAP1 PUSH1 0x1F ADD PUSH1 0x20 SWAP1 DIV DUP2 ADD SWAP3 DUP3 PUSH3 0x1EC JUMPI PUSH1 0x0 DUP6 SSTORE PUSH3 0x237 JUMP JUMPDEST DUP3 PUSH1 0x1F LT PUSH3 0x207 JUMPI DUP1 MLOAD PUSH1 0xFF NOT AND DUP4 DUP1 ADD OR DUP6 SSTORE PUSH3 0x237 JUMP JUMPDEST DUP3 DUP1 ADD PUSH1 0x1 ADD DUP6 SSTORE DUP3 ISZERO PUSH3 0x237 JUMPI SWAP2 DUP3 ADD JUMPDEST DUP3 DUP2 GT ISZERO PUSH3 0x237 JUMPI DUP3 MLOAD DUP3 SSTORE SWAP2 PUSH1 0x20 ADD SWAP2 SWAP1 PUSH1 0x1 ADD SWAP1 PUSH3 0x21A JUMP JUMPDEST POP PUSH3 0x245 SWAP3 SWAP2 POP PUSH3 0x249 JUMP JUMPDEST POP SWAP1 JUMP JUMPDEST JUMPDEST DUP1 DUP3 GT ISZERO PUSH3 0x245 JUMPI PUSH1 0x0 DUP2 SSTORE PUSH1 0x1 ADD PUSH3 0x24A JUMP JUMPDEST PUSH1 0x0 PUSH1 0x20 DUP1 DUP4 DUP6 SUB SLT ISZERO PUSH3 0x274 JUMPI PUSH1 0x0 DUP1 REVERT JUMPDEST DUP3 MLOAD PUSH1 0x1 PUSH1 0x1 PUSH1 0x40 SHL SUB DUP1 DUP3 GT ISZERO PUSH3 0x28C JUMPI PUSH1 0x0 DUP1 REVERT JUMPDEST DUP2 DUP6 ADD SWAP2 POP DUP6 PUSH1 0x1F DUP4 ADD SLT PUSH3 0x2A1 JUMPI PUSH1 0x0 DUP1 REVERT JUMPDEST DUP2 MLOAD DUP2 DUP2 GT ISZERO PUSH3 0x2B6 JUMPI PUSH3 0x2B6 PUSH3 0x379 JUMP JUMPDEST PUSH1 0x40 MLOAD PUSH1 0x1F DUP3 ADD PUSH1 0x1F NOT SWAP1 DUP2 AND PUSH1 0x3F ADD AND DUP2 ADD SWAP1 DUP4 DUP3 GT DUP2 DUP4 LT OR ISZERO PUSH3 0x2E1 JUMPI PUSH3 0x2E1 PUSH3 0x379 JUMP JUMPDEST DUP2 PUSH1 0x40 MSTORE DUP3 DUP2 MSTORE DUP9 DUP7 DUP5 DUP8 ADD ADD GT ISZERO PUSH3 0x2FA JUMPI PUSH1 0x0 DUP1 REVERT JUMPDEST PUSH1 0x0 SWAP4 POP JUMPDEST DUP3 DUP5 LT ISZERO PUSH3 0x31E JUMPI DUP5 DUP5 ADD DUP7 ADD MLOAD DUP2 DUP6 ADD DUP8 ADD MSTORE SWAP3 DUP6 ADD SWAP3 PUSH3 0x2FF JUMP JUMPDEST DUP3 DUP5 GT ISZERO PUSH3 0x330 JUMPI PUSH1 0x0 DUP7 DUP5 DUP4 ADD ADD MSTORE JUMPDEST SWAP9 SWAP8 POP POP POP POP POP POP POP POP JUMP JUMPDEST PUSH1 0x1 DUP2 DUP2 SHR SWAP1 DUP3 AND DUP1 PUSH3 0x351 JUMPI PUSH1 0x7F DUP3 AND SWAP2 POP JUMPDEST PUSH1 0x20 DUP3 LT DUP2 EQ ISZERO PUSH3 0x373 JUMPI PUSH4 0x4E487B71 PUSH1 0xE0 SHL PUSH1 0x0 MSTORE PUSH1 0x22 PUSH1 0x4 MSTORE PUSH1 0x24 PUSH1 0x0 REVERT JUMPDEST POP SWAP2 SWAP1 POP JUMP JUMPDEST PUSH4 0x4E487B71 PUSH1 0xE0 SHL PUSH1 0x0 MSTORE PUSH1 0x41 PUSH1 0x4 MSTORE PUSH1 0x24 PUSH1 0x0 REVERT JUMPDEST PUSH2 0x4545 DUP1 PUSH3 0x39F PUSH1 0x0 CODECOPY PUSH1 0x0 RETURN INVALID PUSH1 0x80 PUSH1 0x40 MSTORE PUSH1 0x4 CALLDATASIZE LT PUSH2 0x230 JUMPI PUSH1 0x0 CALLDATALOAD PUSH1 0xE0 SHR DUP1 PUSH4 0x70A08231 GT PUSH2 0x12E JUMPI DUP1 PUSH4 0xB38D817C GT PUSH2 0xAB JUMPI DUP1 PUSH4 0xC87B56DD GT PUSH2 0x6F JUMPI DUP1 PUSH4 0xC87B56DD EQ PUSH2 0x6C7 JUMPI DUP1 PUSH4 0xCB9953E7 EQ PUSH2 0x6E7 JUMPI DUP1 PUSH4 0xE119248E EQ PUSH2 0x6FD JUMPI DUP1 PUSH4 0xE985E9C5 EQ PUSH2 0x712 JUMPI DUP1 PUSH4 0xF2FDE38B EQ PUSH2 0x75B JUMPI PUSH1 0x0 DUP1 REVERT JUMPDEST DUP1 PUSH4 0xB38D817C EQ PUSH2 0x5F8 JUMPI DUP1 PUSH4 0xB8049B99 EQ PUSH2 0x661 JUMPI DUP1 PUSH4 0xB88D4FDE EQ PUSH2 0x674 JUMPI DUP1 PUSH4 0xB99A15F8 EQ PUSH2 0x694 JUMPI DUP1 PUSH4 0xC717E8EA EQ PUSH2 0x6A7 JUMPI PUSH1 0x0 DUP1 REVERT JUMPDEST DUP1 PUSH4 0x9016617C GT PUSH2 0xF2 JUMPI DUP1 PUSH4 0x9016617C EQ PUSH2 0x579 JUMPI DUP1 PUSH4 0x955A6615 EQ PUSH2 0x58C JUMPI DUP1 PUSH4 0x95D89B41 EQ PUSH2 0x5AC JUMPI DUP1 PUSH4 0xA22CB465 EQ PUSH2 0x5C1 JUMPI DUP1 PUSH4 0xAF055820 EQ PUSH2 0x5E1 JUMPI PUSH1 0x0 DUP1 REVERT JUMPDEST DUP1 PUSH4 0x70A08231 EQ PUSH2 0x4F0 JUMPI DUP1 PUSH4 0x715018A6 EQ PUSH2 0x510 JUMPI DUP1 PUSH4 0x75794A3C EQ PUSH2 0x525 JUMPI DUP1 PUSH4 0x8462151C EQ PUSH2 0x53B JUMPI DUP1 PUSH4 0x8DA5CB5B EQ PUSH2 0x55B JUMPI PUSH1 0x0 DUP1 REVERT JUMPDEST DUP1 PUSH4 0x2D296BF1 GT PUSH2 0x1BC JUMPI DUP1 PUSH4 0x4F6CCCE7 GT PUSH2 0x180 JUMPI DUP1 PUSH4 0x4F6CCCE7 EQ PUSH2 0x468 JUMPI DUP1 PUSH4 0x55F804B3 EQ PUSH2 0x488 JUMPI DUP1 PUSH4 0x594455F5 EQ PUSH2 0x4A8 JUMPI DUP1 PUSH4 0x62E8E8AC EQ PUSH2 0x4BD JUMPI DUP1 PUSH4 0x6352211E EQ PUSH2 0x4D0 JUMPI PUSH1 0x0 DUP1 REVERT JUMPDEST DUP1 PUSH4 0x2D296BF1 EQ PUSH2 0x3C8 JUMPI DUP1 PUSH4 0x2F745C59 EQ PUSH2 0x3DB JUMPI DUP1 PUSH4 0x406B9872 EQ PUSH2 0x3FB JUMPI DUP1 PUSH4 0x42842E0E EQ PUSH2 0x41B JUMPI DUP1 PUSH4 0x48333113 EQ PUSH2 0x43B JUMPI PUSH1 0x0 DUP1 REVERT JUMPDEST DUP1 PUSH4 0x1280CB62 GT PUSH2 0x203 JUMPI DUP1 PUSH4 0x1280CB62 EQ PUSH2 0x2E6 JUMPI DUP1 PUSH4 0x18160DDD EQ PUSH2 0x35A JUMPI DUP1 PUSH4 0x1D4175A5 EQ PUSH2 0x379 JUMPI DUP1 PUSH4 0x23B872DD EQ PUSH2 0x393 JUMPI DUP1 PUSH4 0x2D21A464 EQ PUSH2 0x3B3 JUMPI PUSH1 0x0 DUP1 REVERT JUMPDEST DUP1 PUSH4 0x1FFC9A7 EQ PUSH2 0x235 JUMPI DUP1 PUSH4 0x6FDDE03 EQ PUSH2 0x26A JUMPI DUP1 PUSH4 0x81812FC EQ PUSH2 0x28C JUMPI DUP1 PUSH4 0x95EA7B3 EQ PUSH2 0x2C4 JUMPI JUMPDEST PUSH1 0x0 DUP1 REVERT JUMPDEST CALLVALUE DUP1 ISZERO PUSH2 0x241 JUMPI PUSH1 0x0 DUP1 REVERT JUMPDEST POP PUSH2 0x255 PUSH2 0x250 CALLDATASIZE PUSH1 0x4 PUSH2 0x3E36 JUMP JUMPDEST PUSH2 0x77B JUMP JUMPDEST PUSH1 0x40 MLOAD SWAP1 ISZERO ISZERO DUP2 MSTORE PUSH1 0x20 ADD JUMPDEST PUSH1 0x40 MLOAD DUP1 SWAP2 SUB SWAP1 RETURN JUMPDEST CALLVALUE DUP1 ISZERO PUSH2 0x276 JUMPI PUSH1 0x0 DUP1 REVERT JUMPDEST POP PUSH2 0x27F PUSH2 0x78C JUMP JUMPDEST PUSH1 0x40 MLOAD PUSH2 0x261 SWAP2 SWAP1 PUSH2 0x4119 JUMP JUMPDEST CALLVALUE DUP1 ISZERO PUSH2 0x298 JUMPI PUSH1 0x0 DUP1 REVERT JUMPDEST POP PUSH2 0x2AC PUSH2 0x2A7 CALLDATASIZE PUSH1 0x4 PUSH2 0x3EB9 JUMP JUMPDEST PUSH2 0x81E JUMP JUMPDEST PUSH1 0x40 MLOAD PUSH1 0x1 PUSH1 0x1 PUSH1 0xA0 SHL SUB SWAP1 SWAP2 AND DUP2 MSTORE PUSH1 0x20 ADD PUSH2 0x261 JUMP JUMPDEST CALLVALUE DUP1 ISZERO PUSH2 0x2D0 JUMPI PUSH1 0x0 DUP1 REVERT JUMPDEST POP PUSH2 0x2E4 PUSH2 0x2DF CALLDATASIZE PUSH1 0x4 PUSH2 0x3E0C JUMP JUMPDEST PUSH2 0x8AB JUMP JUMPDEST STOP JUMPDEST CALLVALUE DUP1 ISZERO PUSH2 0x2F2 JUMPI PUSH1 0x0 DUP1 REVERT JUMPDEST POP PUSH2 0x347 PUSH2 0x301 CALLDATASIZE PUSH1 0x4 PUSH2 0x3EB9 JUMP JUMPDEST PUSH1 0xD PUSH1 0x20 MSTORE PUSH1 0x0 SWAP1 DUP2 MSTORE PUSH1 0x40 SWAP1 KECCAK256 DUP1 SLOAD PUSH1 0x1 DUP3 ADD SLOAD PUSH1 0x2 DUP4 ADD SLOAD PUSH1 0x3 SWAP1 SWAP4 ADD SLOAD SWAP2 SWAP3 SWAP1 SWAP2 PUSH1 0xFF DUP1 DUP3 AND SWAP2 PUSH2 0x100 DUP2 DIV DUP3 AND SWAP2 PUSH3 0x10000 DUP3 DIV DUP2 AND SWAP2 PUSH4 0x1000000 SWAP1 DIV AND DUP8 JUMP JUMPDEST PUSH1 0x40 MLOAD PUSH2 0x261 SWAP8 SWAP7 SWAP6 SWAP5 SWAP4 SWAP3 SWAP2 SWAP1 PUSH2 0x4301 JUMP JUMPDEST CALLVALUE DUP1 ISZERO PUSH2 0x366 JUMPI PUSH1 0x0 DUP1 REVERT JUMPDEST POP PUSH1 0x8 SLOAD JUMPDEST PUSH1 0x40 MLOAD SWAP1 DUP2 MSTORE PUSH1 0x20 ADD PUSH2 0x261 JUMP JUMPDEST CALLVALUE DUP1 ISZERO PUSH2 0x385 JUMPI PUSH1 0x0 DUP1 REVERT JUMPDEST POP PUSH1 0xC SLOAD PUSH2 0x255 SWAP1 PUSH1 0xFF AND DUP2 JUMP JUMPDEST CALLVALUE DUP1 ISZERO PUSH2 0x39F JUMPI PUSH1 0x0 DUP1 REVERT JUMPDEST POP PUSH2 0x2E4 PUSH2 0x3AE CALLDATASIZE PUSH1 0x4 PUSH2 0x3D18 JUMP JUMPDEST PUSH2 0x9C1 JUMP JUMPDEST CALLVALUE DUP1 ISZERO PUSH2 0x3BF JUMPI PUSH1 0x0 DUP1 REVERT JUMPDEST POP PUSH2 0x2E4 PUSH2 0x9F2 JUMP JUMPDEST PUSH2 0x2E4 PUSH2 0x3D6 CALLDATASIZE PUSH1 0x4 PUSH2 0x3EB9 JUMP JUMPDEST PUSH2 0xA28 JUMP JUMPDEST CALLVALUE DUP1 ISZERO PUSH2 0x3E7 JUMPI PUSH1 0x0 DUP1 REVERT JUMPDEST POP PUSH2 0x36B PUSH2 0x3F6 CALLDATASIZE PUSH1 0x4 PUSH2 0x3E0C JUMP JUMPDEST PUSH2 0xCA0 JUMP JUMPDEST CALLVALUE DUP1 ISZERO PUSH2 0x407 JUMPI PUSH1 0x0 DUP1 REVERT JUMPDEST POP PUSH2 0x2E4 PUSH2 0x416 CALLDATASIZE PUSH1 0x4 PUSH2 0x3EF4 JUMP JUMPDEST PUSH2 0xD36 JUMP JUMPDEST CALLVALUE DUP1 ISZERO PUSH2 0x427 JUMPI PUSH1 0x0 DUP1 REVERT JUMPDEST POP PUSH2 0x2E4 PUSH2 0x436 CALLDATASIZE PUSH1 0x4 PUSH2 0x3D18 JUMP JUMPDEST PUSH2 0x11B8 JUMP JUMPDEST CALLVALUE DUP1 ISZERO PUSH2 0x447 JUMPI PUSH1 0x0 DUP1 REVERT JUMPDEST POP PUSH2 0x45B PUSH2 0x456 CALLDATASIZE PUSH1 0x4 PUSH2 0x3EB9 JUMP JUMPDEST PUSH2 0x11D3 JUMP JUMPDEST PUSH1 0x40 MLOAD PUSH2 0x261 SWAP2 SWAP1 PUSH2 0x40D5 JUMP JUMPDEST CALLVALUE DUP1 ISZERO PUSH2 0x474 JUMPI PUSH1 0x0 DUP1 REVERT JUMPDEST POP PUSH2 0x36B PUSH2 0x483 CALLDATASIZE PUSH1 0x4 PUSH2 0x3EB9 JUMP JUMPDEST PUSH2 0x12F3 JUMP JUMPDEST CALLVALUE DUP1 ISZERO PUSH2 0x494 JUMPI PUSH1 0x0 DUP1 REVERT JUMPDEST POP PUSH2 0x2E4 PUSH2 0x4A3 CALLDATASIZE PUSH1 0x4 PUSH2 0x3E70 JUMP JUMPDEST PUSH2 0x1386 JUMP JUMPDEST CALLVALUE DUP1 ISZERO PUSH2 0x4B4 JUMPI PUSH1 0x0 DUP1 REVERT JUMPDEST POP PUSH2 0x36B PUSH1 0x64 DUP2 JUMP JUMPDEST PUSH2 0x2E4 PUSH2 0x4CB CALLDATASIZE PUSH1 0x4 PUSH2 0x3ED2 JUMP JUMPDEST PUSH2 0x13BC JUMP JUMPDEST CALLVALUE DUP1 ISZERO PUSH2 0x4DC JUMPI PUSH1 0x0 DUP1 REVERT JUMPDEST POP PUSH2 0x2AC PUSH2 0x4EB CALLDATASIZE PUSH1 0x4 PUSH2 0x3EB9 JUMP JUMPDEST PUSH2 0x1618 JUMP JUMPDEST CALLVALUE DUP1 ISZERO PUSH2 0x4FC JUMPI PUSH1 0x0 DUP1 REVERT JUMPDEST POP PUSH2 0x36B PUSH2 0x50B CALLDATASIZE PUSH1 0x4 PUSH2 0x3CCA JUMP JUMPDEST PUSH2 0x168F JUMP JUMPDEST CALLVALUE DUP1 ISZERO PUSH2 0x51C JUMPI PUSH1 0x0 DUP1 REVERT JUMPDEST POP PUSH2 0x2E4 PUSH2 0x1716 JUMP JUMPDEST CALLVALUE DUP1 ISZERO PUSH2 0x531 JUMPI PUSH1 0x0 DUP1 REVERT JUMPDEST POP PUSH2 0x36B PUSH1 0x10 SLOAD DUP2 JUMP JUMPDEST CALLVALUE DUP1 ISZERO PUSH2 0x547 JUMPI PUSH1 0x0 DUP1 REVERT JUMPDEST POP PUSH2 0x45B PUSH2 0x556 CALLDATASIZE PUSH1 0x4 PUSH2 0x3CCA JUMP JUMPDEST PUSH2 0x174C JUMP JUMPDEST CALLVALUE DUP1 ISZERO PUSH2 0x567 JUMPI PUSH1 0x0 DUP1 REVERT JUMPDEST POP PUSH1 0xA SLOAD PUSH1 0x1 PUSH1 0x1 PUSH1 0xA0 SHL SUB AND PUSH2 0x2AC JUMP JUMPDEST PUSH2 0x2E4 PUSH2 0x587 CALLDATASIZE PUSH1 0x4 PUSH2 0x3EB9 JUMP JUMPDEST PUSH2 0x180B JUMP JUMPDEST CALLVALUE DUP1 ISZERO PUSH2 0x598 JUMPI PUSH1 0x0 DUP1 REVERT JUMPDEST POP PUSH2 0x2E4 PUSH2 0x5A7 CALLDATASIZE PUSH1 0x4 PUSH2 0x3EB9 JUMP JUMPDEST PUSH2 0x20CC JUMP JUMPDEST CALLVALUE DUP1 ISZERO PUSH2 0x5B8 JUMPI PUSH1 0x0 DUP1 REVERT JUMPDEST POP PUSH2 0x27F PUSH2 0x2123 JUMP JUMPDEST CALLVALUE DUP1 ISZERO PUSH2 0x5CD JUMPI PUSH1 0x0 DUP1 REVERT JUMPDEST POP PUSH2 0x2E4 PUSH2 0x5DC CALLDATASIZE PUSH1 0x4 PUSH2 0x3DD0 JUMP JUMPDEST PUSH2 0x2132 JUMP JUMPDEST CALLVALUE DUP1 ISZERO PUSH2 0x5ED JUMPI PUSH1 0x0 DUP1 REVERT JUMPDEST POP PUSH2 0x36B PUSH3 0x186A0 DUP2 JUMP JUMPDEST CALLVALUE DUP1 ISZERO PUSH2 0x604 JUMPI PUSH1 0x0 DUP1 REVERT JUMPDEST POP PUSH2 0x64F PUSH2 0x613 CALLDATASIZE PUSH1 0x4 PUSH2 0x3EB9 JUMP JUMPDEST PUSH1 0xE PUSH1 0x20 MSTORE PUSH1 0x0 SWAP1 DUP2 MSTORE PUSH1 0x40 SWAP1 KECCAK256 DUP1 SLOAD PUSH1 0x1 DUP3 ADD SLOAD PUSH1 0x2 DUP4 ADD SLOAD PUSH1 0x3 DUP5 ADD SLOAD PUSH1 0x4 DUP6 ADD SLOAD PUSH1 0x6 SWAP1 SWAP6 ADD SLOAD SWAP4 SWAP5 SWAP3 SWAP4 SWAP2 SWAP3 PUSH1 0xFF SWAP2 DUP3 AND SWAP3 SWAP1 SWAP2 AND DUP7 JUMP JUMPDEST PUSH1 0x40 MLOAD PUSH2 0x261 SWAP7 SWAP6 SWAP5 SWAP4 SWAP3 SWAP2 SWAP1 PUSH2 0x42C6 JUMP JUMPDEST PUSH2 0x2E4 PUSH2 0x66F CALLDATASIZE PUSH1 0x4 PUSH2 0x3ED2 JUMP JUMPDEST PUSH2 0x21F7 JUMP JUMPDEST CALLVALUE DUP1 ISZERO PUSH2 0x680 JUMPI PUSH1 0x0 DUP1 REVERT JUMPDEST POP PUSH2 0x2E4 PUSH2 0x68F CALLDATASIZE PUSH1 0x4 PUSH2 0x3D54 JUMP JUMPDEST PUSH2 0x2493 JUMP JUMPDEST PUSH2 0x2E4 PUSH2 0x6A2 CALLDATASIZE PUSH1 0x4 PUSH2 0x3ED2 JUMP JUMPDEST PUSH2 0x24CB JUMP JUMPDEST CALLVALUE DUP1 ISZERO PUSH2 0x6B3 JUMPI PUSH1 0x0 DUP1 REVERT JUMPDEST POP PUSH2 0x2E4 PUSH2 0x6C2 CALLDATASIZE PUSH1 0x4 PUSH2 0x3FD2 JUMP JUMPDEST PUSH2 0x282F JUMP JUMPDEST CALLVALUE DUP1 ISZERO PUSH2 0x6D3 JUMPI PUSH1 0x0 DUP1 REVERT JUMPDEST POP PUSH2 0x27F PUSH2 0x6E2 CALLDATASIZE PUSH1 0x4 PUSH2 0x3EB9 JUMP JUMPDEST PUSH2 0x2F15 JUMP JUMPDEST CALLVALUE DUP1 ISZERO PUSH2 0x6F3 JUMPI PUSH1 0x0 DUP1 REVERT JUMPDEST POP PUSH2 0x36B PUSH1 0x11 SLOAD DUP2 JUMP JUMPDEST CALLVALUE DUP1 ISZERO PUSH2 0x709 JUMPI PUSH1 0x0 DUP1 REVERT JUMPDEST POP PUSH2 0x2E4 PUSH2 0x2F6A JUMP JUMPDEST CALLVALUE DUP1 ISZERO PUSH2 0x71E JUMPI PUSH1 0x0 DUP1 REVERT JUMPDEST POP PUSH2 0x255 PUSH2 0x72D CALLDATASIZE PUSH1 0x4 PUSH2 0x3CE5 JUMP JUMPDEST PUSH1 0x1 PUSH1 0x1 PUSH1 0xA0 SHL SUB SWAP2 DUP3 AND PUSH1 0x0 SWAP1 DUP2 MSTORE PUSH1 0x5 PUSH1 0x20 SWAP1 DUP2 MSTORE PUSH1 0x40 DUP1 DUP4 KECCAK256 SWAP4 SWAP1 SWAP5 AND DUP3 MSTORE SWAP2 SWAP1 SWAP2 MSTORE KECCAK256 SLOAD PUSH1 0xFF AND SWAP1 JUMP JUMPDEST CALLVALUE DUP1 ISZERO PUSH2 0x767 JUMPI PUSH1 0x0 DUP1 REVERT JUMPDEST POP PUSH2 0x2E4 PUSH2 0x776 CALLDATASIZE PUSH1 0x4 PUSH2 0x3CCA JUMP JUMPDEST PUSH2 0x2FA3 JUMP JUMPDEST PUSH1 0x0 PUSH2 0x786 DUP3 PUSH2 0x303B JUMP JUMPDEST SWAP3 SWAP2 POP POP JUMP JUMPDEST PUSH1 0x60 PUSH1 0x0 DUP1 SLOAD PUSH2 0x79B SWAP1 PUSH2 0x4411 JUMP JUMPDEST DUP1 PUSH1 0x1F ADD PUSH1 0x20 DUP1 SWAP2 DIV MUL PUSH1 0x20 ADD PUSH1 0x40 MLOAD SWAP1 DUP2 ADD PUSH1 0x40 MSTORE DUP1 SWAP3 SWAP2 SWAP1 DUP2 DUP2 MSTORE PUSH1 0x20 ADD DUP3 DUP1 SLOAD PUSH2 0x7C7 SWAP1 PUSH2 0x4411 JUMP JUMPDEST DUP1 ISZERO PUSH2 0x814 JUMPI DUP1 PUSH1 0x1F LT PUSH2 0x7E9 JUMPI PUSH2 0x100 DUP1 DUP4 SLOAD DIV MUL DUP4 MSTORE SWAP2 PUSH1 0x20 ADD SWAP2 PUSH2 0x814 JUMP JUMPDEST DUP3 ADD SWAP2 SWAP1 PUSH1 0x0 MSTORE PUSH1 0x20 PUSH1 0x0 KECCAK256 SWAP1 JUMPDEST DUP2 SLOAD DUP2 MSTORE SWAP1 PUSH1 0x1 ADD SWAP1 PUSH1 0x20 ADD DUP1 DUP4 GT PUSH2 0x7F7 JUMPI DUP3 SWAP1 SUB PUSH1 0x1F AND DUP3 ADD SWAP2 JUMPDEST POP POP POP POP POP SWAP1 POP SWAP1 JUMP JUMPDEST PUSH1 0x0 PUSH2 0x829 DUP3 PUSH2 0x3060 JUMP JUMPDEST PUSH2 0x88F JUMPI PUSH1 0x40 MLOAD PUSH3 0x461BCD PUSH1 0xE5 SHL DUP2 MSTORE PUSH1 0x20 PUSH1 0x4 DUP3 ADD MSTORE PUSH1 0x2C PUSH1 0x24 DUP3 ADD MSTORE PUSH32 0x4552433732313A20617070726F76656420717565727920666F72206E6F6E6578 PUSH1 0x44 DUP3 ADD MSTORE PUSH12 0x34B9BA32B73A103A37B5B2B7 PUSH1 0xA1 SHL PUSH1 0x64 DUP3 ADD MSTORE PUSH1 0x84 ADD JUMPDEST PUSH1 0x40 MLOAD DUP1 SWAP2 SUB SWAP1 REVERT JUMPDEST POP PUSH1 0x0 SWAP1 DUP2 MSTORE PUSH1 0x4 PUSH1 0x20 MSTORE PUSH1 0x40 SWAP1 KECCAK256 SLOAD PUSH1 0x1 PUSH1 0x1 PUSH1 0xA0 SHL SUB AND SWAP1 JUMP JUMPDEST PUSH1 0x0 PUSH2 0x8B6 DUP3 PUSH2 0x1618 JUMP JUMPDEST SWAP1 POP DUP1 PUSH1 0x1 PUSH1 0x1 PUSH1 0xA0 SHL SUB AND DUP4 PUSH1 0x1 PUSH1 0x1 PUSH1 0xA0 SHL SUB AND EQ ISZERO PUSH2 0x924 JUMPI PUSH1 0x40 MLOAD PUSH3 0x461BCD PUSH1 0xE5 SHL DUP2 MSTORE PUSH1 0x20 PUSH1 0x4 DUP3 ADD MSTORE PUSH1 0x21 PUSH1 0x24 DUP3 ADD MSTORE PUSH32 0x4552433732313A20617070726F76616C20746F2063757272656E74206F776E65 PUSH1 0x44 DUP3 ADD MSTORE PUSH1 0x39 PUSH1 0xF9 SHL PUSH1 0x64 DUP3 ADD MSTORE PUSH1 0x84 ADD PUSH2 0x886 JUMP JUMPDEST CALLER PUSH1 0x1 PUSH1 0x1 PUSH1 0xA0 SHL SUB DUP3 AND EQ DUP1 PUSH2 0x940 JUMPI POP PUSH2 0x940 DUP2 CALLER PUSH2 0x72D JUMP JUMPDEST PUSH2 0x9B2 JUMPI PUSH1 0x40 MLOAD PUSH3 0x461BCD PUSH1 0xE5 SHL DUP2 MSTORE PUSH1 0x20 PUSH1 0x4 DUP3 ADD MSTORE PUSH1 0x38 PUSH1 0x24 DUP3 ADD MSTORE PUSH32 0x4552433732313A20617070726F76652063616C6C6572206973206E6F74206F77 PUSH1 0x44 DUP3 ADD MSTORE PUSH32 0x6E6572206E6F7220617070726F76656420666F7220616C6C0000000000000000 PUSH1 0x64 DUP3 ADD MSTORE PUSH1 0x84 ADD PUSH2 0x886 JUMP JUMPDEST PUSH2 0x9BC DUP4 DUP4 PUSH2 0x307D JUMP JUMPDEST POP POP POP JUMP JUMPDEST PUSH2 0x9CB CALLER DUP3 PUSH2 0x30EB JUMP JUMPDEST PUSH2 0x9E7 JUMPI PUSH1 0x40 MLOAD PUSH3 0x461BCD PUSH1 0xE5 SHL DUP2 MSTORE PUSH1 0x4 ADD PUSH2 0x886 SWAP1 PUSH2 0x4233 JUMP JUMPDEST PUSH2 0x9BC DUP4 DUP4 DUP4 PUSH2 0x31D5 JUMP JUMPDEST PUSH1 0xA SLOAD PUSH1 0x1 PUSH1 0x1 PUSH1 0xA0 SHL SUB AND CALLER EQ PUSH2 0xA1C JUMPI PUSH1 0x40 MLOAD PUSH3 0x461BCD PUSH1 0xE5 SHL DUP2 MSTORE PUSH1 0x4 ADD PUSH2 0x886 SWAP1 PUSH2 0x41D0 JUMP JUMPDEST PUSH1 0xC DUP1 SLOAD PUSH1 0xFF NOT AND SWAP1 SSTORE JUMP JUMPDEST PUSH1 0xC SLOAD PUSH1 0xFF AND ISZERO ISZERO PUSH1 0x1 EQ PUSH2 0xA4F JUMPI PUSH1 0x40 MLOAD PUSH3 0x461BCD PUSH1 0xE5 SHL DUP2 MSTORE PUSH1 0x4 ADD PUSH2 0x886 SWAP1 PUSH2 0x4284 JUMP JUMPDEST CALLER PUSH2 0xA59 JUMPI PUSH1 0x0 DUP1 REVERT JUMPDEST PUSH2 0xA62 DUP2 PUSH2 0x3060 JUMP JUMPDEST PUSH2 0xA6B JUMPI PUSH1 0x0 DUP1 REVERT JUMPDEST PUSH1 0x0 PUSH2 0xA76 DUP3 PUSH2 0x1618 JUMP JUMPDEST SWAP1 POP PUSH1 0x1 PUSH1 0x1 PUSH1 0xA0 SHL SUB DUP2 AND PUSH2 0xA8B JUMPI PUSH1 0x0 DUP1 REVERT JUMPDEST PUSH1 0x1 PUSH1 0x1 PUSH1 0xA0 SHL SUB DUP2 AND CALLER EQ ISZERO PUSH2 0xAA1 JUMPI PUSH1 0x0 DUP1 REVERT JUMPDEST PUSH1 0x0 DUP3 DUP2 MSTORE PUSH1 0xD PUSH1 0x20 SWAP1 DUP2 MSTORE PUSH1 0x40 DUP1 DUP4 KECCAK256 DUP2 MLOAD PUSH1 0xE0 DUP2 ADD DUP4 MSTORE DUP2 SLOAD DUP2 MSTORE PUSH1 0x1 DUP3 ADD SLOAD SWAP4 DUP2 ADD SWAP4 SWAP1 SWAP4 MSTORE PUSH1 0x2 DUP2 ADD SLOAD SWAP2 DUP4 ADD SWAP2 SWAP1 SWAP2 MSTORE PUSH1 0x3 DUP2 ADD SLOAD PUSH1 0x60 DUP4 ADD SWAP1 PUSH1 0xFF AND PUSH1 0x4 DUP2 GT ISZERO PUSH2 0xAF4 JUMPI PUSH2 0xAF4 PUSH2 0x44A1 JUMP JUMPDEST PUSH1 0x4 DUP2 GT ISZERO PUSH2 0xB05 JUMPI PUSH2 0xB05 PUSH2 0x44A1 JUMP JUMPDEST DUP2 MSTORE PUSH1 0x20 ADD PUSH1 0x3 DUP3 ADD PUSH1 0x1 SWAP1 SLOAD SWAP1 PUSH2 0x100 EXP SWAP1 DIV PUSH1 0xFF AND PUSH1 0x3 DUP2 GT ISZERO PUSH2 0xB2D JUMPI PUSH2 0xB2D PUSH2 0x44A1 JUMP JUMPDEST PUSH1 0x3 DUP2 GT ISZERO PUSH2 0xB3E JUMPI PUSH2 0xB3E PUSH2 0x44A1 JUMP JUMPDEST DUP2 MSTORE PUSH1 0x20 ADD PUSH1 0x3 DUP3 ADD PUSH1 0x2 SWAP1 SLOAD SWAP1 PUSH2 0x100 EXP SWAP1 DIV PUSH1 0xFF AND PUSH1 0x7 DUP2 GT ISZERO PUSH2 0xB66 JUMPI PUSH2 0xB66 PUSH2 0x44A1 JUMP JUMPDEST PUSH1 0x7 DUP2 GT ISZERO PUSH2 0xB77 JUMPI PUSH2 0xB77 PUSH2 0x44A1 JUMP JUMPDEST DUP2 MSTORE PUSH1 0x20 ADD PUSH1 0x3 DUP3 ADD PUSH1 0x3 SWAP1 SLOAD SWAP1 PUSH2 0x100 EXP SWAP1 DIV PUSH1 0xFF AND PUSH1 0xC DUP2 GT ISZERO PUSH2 0xB9F JUMPI PUSH2 0xB9F PUSH2 0x44A1 JUMP JUMPDEST PUSH1 0xC DUP2 GT ISZERO PUSH2 0xBB0 JUMPI PUSH2 0xBB0 PUSH2 0x44A1 JUMP JUMPDEST DUP2 MSTORE POP POP SWAP1 POP DUP1 PUSH1 0x20 ADD MLOAD CALLVALUE LT ISZERO PUSH2 0xBC7 JUMPI PUSH1 0x0 DUP1 REVERT JUMPDEST PUSH1 0x2 DUP2 PUSH1 0x60 ADD MLOAD PUSH1 0x4 DUP2 GT ISZERO PUSH2 0xBDF JUMPI PUSH2 0xBDF PUSH2 0x44A1 JUMP JUMPDEST EQ PUSH2 0xBE9 JUMPI PUSH1 0x0 DUP1 REVERT JUMPDEST PUSH2 0xBF4 DUP3 CALLER DUP6 PUSH2 0x31D5 JUMP JUMPDEST DUP2 PUSH1 0x0 PUSH2 0xC09 PUSH1 0xA SLOAD PUSH1 0x1 PUSH1 0x1 PUSH1 0xA0 SHL SUB AND SWAP1 JUMP JUMPDEST SWAP1 POP PUSH1 0x0 PUSH2 0xC18 PUSH1 0xA CALLVALUE PUSH2 0x43BA JUMP JUMPDEST SWAP1 POP PUSH1 0x0 PUSH2 0xC26 DUP3 CALLVALUE PUSH2 0x43CE JUMP JUMPDEST PUSH1 0x40 MLOAD SWAP1 SWAP2 POP PUSH1 0x1 PUSH1 0x1 PUSH1 0xA0 SHL SUB DUP5 AND SWAP1 DUP4 ISZERO PUSH2 0x8FC MUL SWAP1 DUP5 SWAP1 PUSH1 0x0 DUP2 DUP2 DUP2 DUP6 DUP9 DUP9 CALL SWAP4 POP POP POP POP ISZERO DUP1 ISZERO PUSH2 0xC5F JUMPI RETURNDATASIZE PUSH1 0x0 DUP1 RETURNDATACOPY RETURNDATASIZE PUSH1 0x0 REVERT JUMPDEST POP PUSH1 0x40 MLOAD PUSH1 0x1 PUSH1 0x1 PUSH1 0xA0 SHL SUB DUP6 AND SWAP1 DUP3 ISZERO PUSH2 0x8FC MUL SWAP1 DUP4 SWAP1 PUSH1 0x0 DUP2 DUP2 DUP2 DUP6 DUP9 DUP9 CALL SWAP4 POP POP POP POP ISZERO DUP1 ISZERO PUSH2 0xC96 JUMPI RETURNDATASIZE PUSH1 0x0 DUP1 RETURNDATACOPY RETURNDATASIZE PUSH1 0x0 REVERT JUMPDEST POP POP POP POP POP POP POP POP JUMP JUMPDEST PUSH1 0x0 PUSH2 0xCAB DUP4 PUSH2 0x168F JUMP JUMPDEST DUP3 LT PUSH2 0xD0D JUMPI PUSH1 0x40 MLOAD PUSH3 0x461BCD PUSH1 0xE5 SHL DUP2 MSTORE PUSH1 0x20 PUSH1 0x4 DUP3 ADD MSTORE PUSH1 0x2B PUSH1 0x24 DUP3 ADD MSTORE PUSH32 0x455243373231456E756D657261626C653A206F776E657220696E646578206F75 PUSH1 0x44 DUP3 ADD MSTORE PUSH11 0x74206F6620626F756E6473 PUSH1 0xA8 SHL PUSH1 0x64 DUP3 ADD MSTORE PUSH1 0x84 ADD PUSH2 0x886 JUMP JUMPDEST POP PUSH1 0x1 PUSH1 0x1 PUSH1 0xA0 SHL SUB SWAP2 SWAP1 SWAP2 AND PUSH1 0x0 SWAP1 DUP2 MSTORE PUSH1 0x6 PUSH1 0x20 SWAP1 DUP2 MSTORE PUSH1 0x40 DUP1 DUP4 KECCAK256 SWAP4 DUP4 MSTORE SWAP3 SWAP1 MSTORE KECCAK256 SLOAD SWAP1 JUMP JUMPDEST PUSH1 0xA SLOAD PUSH1 0x1 PUSH1 0x1 PUSH1 0xA0 SHL SUB AND CALLER EQ PUSH2 0xD60 JUMPI PUSH1 0x40 MLOAD PUSH3 0x461BCD PUSH1 0xE5 SHL DUP2 MSTORE PUSH1 0x4 ADD PUSH2 0x886 SWAP1 PUSH2 0x41D0 JUMP JUMPDEST PUSH1 0x2 PUSH1 0xB SLOAD EQ ISZERO PUSH2 0xDB3 JUMPI PUSH1 0x40 MLOAD PUSH3 0x461BCD PUSH1 0xE5 SHL DUP2 MSTORE PUSH1 0x20 PUSH1 0x4 DUP3 ADD MSTORE PUSH1 0x1F PUSH1 0x24 DUP3 ADD MSTORE PUSH32 0x5265656E7472616E637947756172643A207265656E7472616E742063616C6C00 PUSH1 0x44 DUP3 ADD MSTORE PUSH1 0x64 ADD PUSH2 0x886 JUMP JUMPDEST PUSH1 0x2 PUSH1 0xB SSTORE DUP5 ISZERO DUP1 ISZERO SWAP1 PUSH2 0xDC8 JUMPI POP PUSH1 0x64 DUP6 GT ISZERO JUMPDEST PUSH2 0xE1E JUMPI PUSH1 0x40 MLOAD PUSH3 0x461BCD PUSH1 0xE5 SHL DUP2 MSTORE PUSH1 0x20 PUSH1 0x4 DUP3 ADD MSTORE PUSH1 0x21 PUSH1 0x24 DUP3 ADD MSTORE PUSH32 0x4D75737420696E636C7564652066726F6D203120746F2031303020746F6B656E PUSH1 0x44 DUP3 ADD MSTORE PUSH1 0x73 PUSH1 0xF8 SHL PUSH1 0x64 DUP3 ADD MSTORE PUSH1 0x84 ADD PUSH2 0x886 JUMP JUMPDEST PUSH1 0x0 DUP2 GT PUSH2 0xE6E JUMPI PUSH1 0x40 MLOAD PUSH3 0x461BCD PUSH1 0xE5 SHL DUP2 MSTORE PUSH1 0x20 PUSH1 0x4 DUP3 ADD MSTORE PUSH1 0x1F PUSH1 0x24 DUP3 ADD MSTORE PUSH32 0x5072696365206D7573742062652067726561746572207468616E207A65726F00 PUSH1 0x44 DUP3 ADD MSTORE PUSH1 0x64 ADD PUSH2 0x886 JUMP JUMPDEST PUSH1 0x1 DUP5 LT ISZERO DUP1 ISZERO PUSH2 0xE80 JUMPI POP PUSH1 0x2 DUP5 GT ISZERO JUMPDEST PUSH2 0xE9C JUMPI PUSH1 0x40 MLOAD PUSH3 0x461BCD PUSH1 0xE5 SHL DUP2 MSTORE PUSH1 0x4 ADD PUSH2 0x886 SWAP1 PUSH2 0x417E JUMP JUMPDEST PUSH1 0x0 DUP3 MLOAD GT PUSH2 0xEF8 JUMPI PUSH1 0x40 MLOAD PUSH3 0x461BCD PUSH1 0xE5 SHL DUP2 MSTORE PUSH1 0x20 PUSH1 0x4 DUP3 ADD MSTORE PUSH1 0x22 PUSH1 0x24 DUP3 ADD MSTORE PUSH32 0x4D75737420696E636C756465206174206C65617374206F6E6520726172697469 PUSH1 0x44 DUP3 ADD MSTORE PUSH2 0x6573 PUSH1 0xF0 SHL PUSH1 0x64 DUP3 ADD MSTORE PUSH1 0x84 ADD PUSH2 0x886 JUMP JUMPDEST PUSH1 0x0 JUMPDEST DUP3 MLOAD DUP2 LT ISZERO PUSH2 0xFB2 JUMPI PUSH1 0x1 DUP4 DUP3 DUP2 MLOAD DUP2 LT PUSH2 0xF18 JUMPI PUSH2 0xF18 PUSH2 0x44CD JUMP JUMPDEST PUSH1 0x20 MUL PUSH1 0x20 ADD ADD MLOAD LT ISZERO DUP1 ISZERO PUSH2 0xF48 JUMPI POP PUSH1 0x7 DUP4 DUP3 DUP2 MLOAD DUP2 LT PUSH2 0xF3D JUMPI PUSH2 0xF3D PUSH2 0x44CD JUMP JUMPDEST PUSH1 0x20 MUL PUSH1 0x20 ADD ADD MLOAD GT ISZERO JUMPDEST PUSH2 0xFA0 JUMPI PUSH1 0x40 MLOAD PUSH3 0x461BCD PUSH1 0xE5 SHL DUP2 MSTORE PUSH1 0x20 PUSH1 0x4 DUP3 ADD MSTORE PUSH1 0x23 PUSH1 0x24 DUP3 ADD MSTORE PUSH32 0x4D757374207261726974792066726F6D20434F4D4D4F4E20746F204D59544849 PUSH1 0x44 DUP3 ADD MSTORE PUSH3 0x10D053 PUSH1 0xEA SHL PUSH1 0x64 DUP3 ADD MSTORE PUSH1 0x84 ADD PUSH2 0x886 JUMP JUMPDEST DUP1 PUSH2 0xFAA DUP2 PUSH2 0x4446 JUMP JUMPDEST SWAP2 POP POP PUSH2 0xEFB JUMP JUMPDEST POP PUSH1 0x0 DUP7 ISZERO PUSH2 0xFE4 JUMPI PUSH1 0x11 SLOAD DUP8 GT ISZERO PUSH2 0xFDD JUMPI PUSH1 0x40 MLOAD PUSH3 0x461BCD PUSH1 0xE5 SHL DUP2 MSTORE PUSH1 0x4 ADD PUSH2 0x886 SWAP1 PUSH2 0x4205 JUMP JUMPDEST POP DUP6 PUSH2 0xFFF JUMP JUMPDEST PUSH1 0x11 DUP1 SLOAD SWAP1 PUSH1 0x0 PUSH2 0xFF4 DUP4 PUSH2 0x4446 JUMP JUMPDEST SWAP2 SWAP1 POP SSTORE POP PUSH1 0x11 SLOAD SWAP1 POP JUMPDEST PUSH1 0x0 PUSH1 0x40 MLOAD DUP1 PUSH1 0xE0 ADD PUSH1 0x40 MSTORE DUP1 DUP4 DUP2 MSTORE PUSH1 0x20 ADD DUP9 DUP2 MSTORE PUSH1 0x20 ADD DUP5 DUP2 MSTORE PUSH1 0x20 ADD DUP8 PUSH1 0x3 DUP2 GT ISZERO PUSH2 0x1030 JUMPI PUSH2 0x1030 PUSH2 0x44A1 JUMP JUMPDEST PUSH1 0x3 DUP2 GT ISZERO PUSH2 0x1041 JUMPI PUSH2 0x1041 PUSH2 0x44A1 JUMP JUMPDEST DUP2 MSTORE PUSH1 0x20 DUP1 DUP3 ADD DUP9 SWAP1 MSTORE PUSH1 0x40 DUP1 MLOAD PUSH1 0x0 DUP1 DUP3 MSTORE SWAP3 DUP2 ADD DUP3 MSTORE SWAP3 ADD SWAP2 SWAP1 POP DUP2 MSTORE PUSH1 0x0 PUSH1 0x20 SWAP2 DUP3 ADD DUP2 SWAP1 MSTORE DUP5 DUP2 MSTORE PUSH1 0xE DUP3 MSTORE PUSH1 0x40 SWAP1 DUP2 SWAP1 KECCAK256 DUP4 MLOAD DUP2 SSTORE SWAP2 DUP4 ADD MLOAD PUSH1 0x1 DUP4 DUP2 ADD SWAP2 SWAP1 SWAP2 SSTORE SWAP1 DUP4 ADD MLOAD PUSH1 0x2 DUP4 ADD SSTORE PUSH1 0x60 DUP4 ADD MLOAD PUSH1 0x3 DUP1 DUP5 ADD DUP1 SLOAD SWAP6 SWAP7 POP DUP7 SWAP6 SWAP3 SWAP4 SWAP1 SWAP3 PUSH1 0xFF NOT AND SWAP2 DUP5 SWAP1 DUP2 GT ISZERO PUSH2 0x10BC JUMPI PUSH2 0x10BC PUSH2 0x44A1 JUMP JUMPDEST MUL OR SWAP1 SSTORE POP PUSH1 0x80 DUP3 ADD MLOAD PUSH1 0x4 DUP3 ADD SSTORE PUSH1 0xA0 DUP3 ADD MLOAD DUP1 MLOAD PUSH2 0x10E6 SWAP2 PUSH1 0x5 DUP5 ADD SWAP2 PUSH1 0x20 SWAP1 SWAP2 ADD SWAP1 PUSH2 0x3B19 JUMP JUMPDEST POP PUSH1 0xC0 SWAP2 SWAP1 SWAP2 ADD MLOAD PUSH1 0x6 SWAP1 SWAP2 ADD DUP1 SLOAD PUSH1 0xFF NOT AND SWAP2 ISZERO ISZERO SWAP2 SWAP1 SWAP2 OR SWAP1 SSTORE PUSH1 0x0 JUMPDEST DUP5 MLOAD DUP2 LT ISZERO PUSH2 0x11A8 JUMPI PUSH1 0xE PUSH1 0x0 DUP5 DUP2 MSTORE PUSH1 0x20 ADD SWAP1 DUP2 MSTORE PUSH1 0x20 ADD PUSH1 0x0 KECCAK256 PUSH1 0x5 ADD DUP6 DUP3 DUP2 MLOAD DUP2 LT PUSH2 0x1136 JUMPI PUSH2 0x1136 PUSH2 0x44CD JUMP JUMPDEST PUSH1 0x20 MUL PUSH1 0x20 ADD ADD MLOAD PUSH1 0xC DUP2 GT ISZERO PUSH2 0x114F JUMPI PUSH2 0x114F PUSH2 0x44A1 JUMP JUMPDEST DUP2 SLOAD PUSH1 0x1 DUP2 ADD DUP4 SSTORE PUSH1 0x0 SWAP3 DUP4 MSTORE PUSH1 0x20 SWAP3 DUP4 SWAP1 KECCAK256 SWAP3 DUP2 DIV SWAP1 SWAP3 ADD DUP1 SLOAD SWAP2 SWAP3 SWAP1 SWAP2 PUSH1 0xFF PUSH1 0x1F SWAP1 SWAP3 AND PUSH2 0x100 EXP SWAP2 DUP3 MUL NOT AND SWAP1 DUP4 PUSH1 0xC DUP2 GT ISZERO PUSH2 0x1191 JUMPI PUSH2 0x1191 PUSH2 0x44A1 JUMP JUMPDEST MUL OR SWAP1 SSTORE POP DUP1 PUSH2 0x11A0 DUP2 PUSH2 0x4446 JUMP JUMPDEST SWAP2 POP POP PUSH2 0x1105 JUMP JUMPDEST POP POP PUSH1 0x1 PUSH1 0xB SSTORE POP POP POP POP POP POP POP JUMP JUMPDEST PUSH2 0x9BC DUP4 DUP4 DUP4 PUSH1 0x40 MLOAD DUP1 PUSH1 0x20 ADD PUSH1 0x40 MSTORE DUP1 PUSH1 0x0 DUP2 MSTORE POP PUSH2 0x2493 JUMP JUMPDEST PUSH1 0x60 PUSH1 0x11 SLOAD DUP3 GT ISZERO PUSH2 0x11F7 JUMPI PUSH1 0x40 MLOAD PUSH3 0x461BCD PUSH1 0xE5 SHL DUP2 MSTORE PUSH1 0x4 ADD PUSH2 0x886 SWAP1 PUSH2 0x4205 JUMP JUMPDEST PUSH1 0x0 DUP3 DUP2 MSTORE PUSH1 0xE PUSH1 0x20 MSTORE PUSH1 0x40 DUP2 KECCAK256 PUSH1 0x5 ADD SLOAD PUSH8 0xFFFFFFFFFFFFFFFF DUP2 GT ISZERO PUSH2 0x1221 JUMPI PUSH2 0x1221 PUSH2 0x44E3 JUMP JUMPDEST PUSH1 0x40 MLOAD SWAP1 DUP1 DUP3 MSTORE DUP1 PUSH1 0x20 MUL PUSH1 0x20 ADD DUP3 ADD PUSH1 0x40 MSTORE DUP1 ISZERO PUSH2 0x124A JUMPI DUP2 PUSH1 0x20 ADD PUSH1 0x20 DUP3 MUL DUP1 CALLDATASIZE DUP4 CALLDATACOPY ADD SWAP1 POP JUMPDEST POP SWAP1 POP PUSH1 0x0 JUMPDEST PUSH1 0x0 DUP5 DUP2 MSTORE PUSH1 0xE PUSH1 0x20 MSTORE PUSH1 0x40 SWAP1 KECCAK256 PUSH1 0x5 ADD SLOAD DUP2 LT ISZERO PUSH2 0x12EC JUMPI PUSH1 0x0 DUP5 DUP2 MSTORE PUSH1 0xE PUSH1 0x20 MSTORE PUSH1 0x40 SWAP1 KECCAK256 PUSH1 0x5 ADD DUP1 SLOAD DUP3 SWAP1 DUP2 LT PUSH2 0x128C JUMPI PUSH2 0x128C PUSH2 0x44CD JUMP JUMPDEST SWAP1 PUSH1 0x0 MSTORE PUSH1 0x20 PUSH1 0x0 KECCAK256 SWAP1 PUSH1 0x20 SWAP2 DUP3 DUP3 DIV ADD SWAP2 SWAP1 MOD SWAP1 SLOAD SWAP1 PUSH2 0x100 EXP SWAP1 DIV PUSH1 0xFF AND PUSH1 0xC DUP2 GT ISZERO PUSH2 0x12BD JUMPI PUSH2 0x12BD PUSH2 0x44A1 JUMP JUMPDEST DUP3 DUP3 DUP2 MLOAD DUP2 LT PUSH2 0x12CF JUMPI PUSH2 0x12CF PUSH2 0x44CD JUMP JUMPDEST PUSH1 0x20 SWAP1 DUP2 MUL SWAP2 SWAP1 SWAP2 ADD ADD MSTORE DUP1 PUSH2 0x12E4 DUP2 PUSH2 0x4446 JUMP JUMPDEST SWAP2 POP POP PUSH2 0x1250 JUMP JUMPDEST POP SWAP3 SWAP2 POP POP JUMP JUMPDEST PUSH1 0x0 PUSH2 0x12FE PUSH1 0x8 SLOAD SWAP1 JUMP JUMPDEST DUP3 LT PUSH2 0x1361 JUMPI PUSH1 0x40 MLOAD PUSH3 0x461BCD PUSH1 0xE5 SHL DUP2 MSTORE PUSH1 0x20 PUSH1 0x4 DUP3 ADD MSTORE PUSH1 0x2C PUSH1 0x24 DUP3 ADD MSTORE PUSH32 0x455243373231456E756D657261626C653A20676C6F62616C20696E646578206F PUSH1 0x44 DUP3 ADD MSTORE PUSH12 0x7574206F6620626F756E6473 PUSH1 0xA0 SHL PUSH1 0x64 DUP3 ADD MSTORE PUSH1 0x84 ADD PUSH2 0x886 JUMP JUMPDEST PUSH1 0x8 DUP3 DUP2 SLOAD DUP2 LT PUSH2 0x1374 JUMPI PUSH2 0x1374 PUSH2 0x44CD JUMP JUMPDEST SWAP1 PUSH1 0x0 MSTORE PUSH1 0x20 PUSH1 0x0 KECCAK256 ADD SLOAD SWAP1 POP SWAP2 SWAP1 POP JUMP JUMPDEST PUSH1 0xA SLOAD PUSH1 0x1 PUSH1 0x1 PUSH1 0xA0 SHL SUB AND CALLER EQ PUSH2 0x13B0 JUMPI PUSH1 0x40 MLOAD PUSH3 0x461BCD PUSH1 0xE5 SHL DUP2 MSTORE PUSH1 0x4 ADD PUSH2 0x886 SWAP1 PUSH2 0x41D0 JUMP JUMPDEST PUSH2 0x13B9 DUP2 PUSH2 0x3380 JUMP JUMPDEST POP JUMP JUMPDEST PUSH1 0xC SLOAD PUSH1 0xFF AND ISZERO ISZERO PUSH1 0x1 EQ PUSH2 0x13E3 JUMPI PUSH1 0x40 MLOAD PUSH3 0x461BCD PUSH1 0xE5 SHL DUP2 MSTORE PUSH1 0x4 ADD PUSH2 0x886 SWAP1 PUSH2 0x4284 JUMP JUMPDEST PUSH2 0x13EC DUP3 PUSH2 0x3060 JUMP JUMPDEST PUSH2 0x13F5 JUMPI PUSH1 0x0 DUP1 REVERT JUMPDEST CALLER PUSH2 0x13FF DUP4 PUSH2 0x1618 JUMP JUMPDEST PUSH1 0x1 PUSH1 0x1 PUSH1 0xA0 SHL SUB AND EQ PUSH2 0x1412 JUMPI PUSH1 0x0 DUP1 REVERT JUMPDEST PUSH1 0x0 DUP3 DUP2 MSTORE PUSH1 0xD PUSH1 0x20 SWAP1 DUP2 MSTORE PUSH1 0x40 DUP1 DUP4 KECCAK256 DUP2 MLOAD PUSH1 0xE0 DUP2 ADD DUP4 MSTORE DUP2 SLOAD DUP2 MSTORE PUSH1 0x1 DUP3 ADD SLOAD SWAP4 DUP2 ADD SWAP4 SWAP1 SWAP4 MSTORE PUSH1 0x2 DUP2 ADD SLOAD SWAP2 DUP4 ADD SWAP2 SWAP1 SWAP2 MSTORE PUSH1 0x3 DUP2 ADD SLOAD PUSH1 0x60 DUP4 ADD SWAP1 PUSH1 0xFF AND PUSH1 0x4 DUP2 GT ISZERO PUSH2 0x1465 JUMPI PUSH2 0x1465 PUSH2 0x44A1 JUMP JUMPDEST PUSH1 0x4 DUP2 GT ISZERO PUSH2 0x1476 JUMPI PUSH2 0x1476 PUSH2 0x44A1 JUMP JUMPDEST DUP2 MSTORE PUSH1 0x20 ADD PUSH1 0x3 DUP3 ADD PUSH1 0x1 SWAP1 SLOAD SWAP1 PUSH2 0x100 EXP SWAP1 DIV PUSH1 0xFF AND PUSH1 0x3 DUP2 GT ISZERO PUSH2 0x149E JUMPI PUSH2 0x149E PUSH2 0x44A1 JUMP JUMPDEST PUSH1 0x3 DUP2 GT ISZERO PUSH2 0x14AF JUMPI PUSH2 0x14AF PUSH2 0x44A1 JUMP JUMPDEST DUP2 MSTORE PUSH1 0x20 ADD PUSH1 0x3 DUP3 ADD PUSH1 0x2 SWAP1 SLOAD SWAP1 PUSH2 0x100 EXP SWAP1 DIV PUSH1 0xFF AND PUSH1 0x7 DUP2 GT ISZERO PUSH2 0x14D7 JUMPI PUSH2 0x14D7 PUSH2 0x44A1 JUMP JUMPDEST PUSH1 0x7 DUP2 GT ISZERO PUSH2 0x14E8 JUMPI PUSH2 0x14E8 PUSH2 0x44A1 JUMP JUMPDEST DUP2 MSTORE PUSH1 0x20 ADD PUSH1 0x3 DUP3 ADD PUSH1 0x3 SWAP1 SLOAD SWAP1 PUSH2 0x100 EXP SWAP1 DIV PUSH1 0xFF AND PUSH1 0xC DUP2 GT ISZERO PUSH2 0x1510 JUMPI PUSH2 0x1510 PUSH2 0x44A1 JUMP JUMPDEST PUSH1 0xC DUP2 GT ISZERO PUSH2 0x1521 JUMPI PUSH2 0x1521 PUSH2 0x44A1 JUMP JUMPDEST SWAP1 MSTORE POP PUSH1 0x20 DUP1 DUP3 ADD DUP5 DUP2 MSTORE PUSH1 0x0 DUP7 DUP2 MSTORE PUSH1 0xD SWAP1 SWAP3 MSTORE PUSH1 0x40 SWAP2 DUP3 SWAP1 KECCAK256 DUP4 MLOAD DUP2 SSTORE SWAP1 MLOAD PUSH1 0x1 DUP1 DUP4 ADD SWAP2 SWAP1 SWAP2 SSTORE SWAP2 DUP4 ADD MLOAD PUSH1 0x2 DUP3 ADD SSTORE PUSH1 0x60 DUP4 ADD MLOAD PUSH1 0x3 DUP3 ADD DUP1 SLOAD SWAP5 SWAP6 POP DUP6 SWAP5 SWAP3 SWAP4 SWAP2 SWAP3 SWAP1 SWAP2 PUSH1 0xFF NOT SWAP1 SWAP2 AND SWAP1 DUP4 PUSH1 0x4 DUP2 GT ISZERO PUSH2 0x1583 JUMPI PUSH2 0x1583 PUSH2 0x44A1 JUMP JUMPDEST MUL OR SWAP1 SSTORE POP PUSH1 0x80 DUP3 ADD MLOAD DUP2 PUSH1 0x3 ADD PUSH1 0x1 PUSH2 0x100 EXP DUP2 SLOAD DUP2 PUSH1 0xFF MUL NOT AND SWAP1 DUP4 PUSH1 0x3 DUP2 GT ISZERO PUSH2 0x15B2 JUMPI PUSH2 0x15B2 PUSH2 0x44A1 JUMP JUMPDEST MUL OR SWAP1 SSTORE POP PUSH1 0xA0 DUP3 ADD MLOAD PUSH1 0x3 DUP3 ADD DUP1 SLOAD PUSH3 0xFF0000 NOT AND PUSH3 0x10000 DUP4 PUSH1 0x7 DUP2 GT ISZERO PUSH2 0x15DE JUMPI PUSH2 0x15DE PUSH2 0x44A1 JUMP JUMPDEST MUL OR SWAP1 SSTORE POP PUSH1 0xC0 DUP3 ADD MLOAD PUSH1 0x3 DUP3 ADD DUP1 SLOAD PUSH4 0xFF000000 NOT AND PUSH4 0x1000000 DUP4 PUSH1 0xC DUP2 GT ISZERO PUSH2 0x160C JUMPI PUSH2 0x160C PUSH2 0x44A1 JUMP JUMPDEST MUL OR SWAP1 SSTORE POP POP POP POP POP POP JUMP JUMPDEST PUSH1 0x0 DUP2 DUP2 MSTORE PUSH1 0x2 PUSH1 0x20 MSTORE PUSH1 0x40 DUP2 KECCAK256 SLOAD PUSH1 0x1 PUSH1 0x1 PUSH1 0xA0 SHL SUB AND DUP1 PUSH2 0x786 JUMPI PUSH1 0x40 MLOAD PUSH3 0x461BCD PUSH1 0xE5 SHL DUP2 MSTORE PUSH1 0x20 PUSH1 0x4 DUP3 ADD MSTORE PUSH1 0x29 PUSH1 0x24 DUP3 ADD MSTORE PUSH32 0x4552433732313A206F776E657220717565727920666F72206E6F6E6578697374 PUSH1 0x44 DUP3 ADD MSTORE PUSH9 0x32B73A103A37B5B2B7 PUSH1 0xB9 SHL PUSH1 0x64 DUP3 ADD MSTORE PUSH1 0x84 ADD PUSH2 0x886 JUMP JUMPDEST PUSH1 0x0 PUSH1 0x1 PUSH1 0x1 PUSH1 0xA0 SHL SUB DUP3 AND PUSH2 0x16FA JUMPI PUSH1 0x40 MLOAD PUSH3 0x461BCD PUSH1 0xE5 SHL DUP2 MSTORE PUSH1 0x20 PUSH1 0x4 DUP3 ADD MSTORE PUSH1 0x2A PUSH1 0x24 DUP3 ADD MSTORE PUSH32 0x4552433732313A2062616C616E636520717565727920666F7220746865207A65 PUSH1 0x44 DUP3 ADD MSTORE PUSH10 0x726F2061646472657373 PUSH1 0xB0 SHL PUSH1 0x64 DUP3 ADD MSTORE PUSH1 0x84 ADD PUSH2 0x886 JUMP JUMPDEST POP PUSH1 0x1 PUSH1 0x1 PUSH1 0xA0 SHL SUB AND PUSH1 0x0 SWAP1 DUP2 MSTORE PUSH1 0x3 PUSH1 0x20 MSTORE PUSH1 0x40 SWAP1 KECCAK256 SLOAD SWAP1 JUMP JUMPDEST PUSH1 0xA SLOAD PUSH1 0x1 PUSH1 0x1 PUSH1 0xA0 SHL SUB AND CALLER EQ PUSH2 0x1740 JUMPI PUSH1 0x40 MLOAD PUSH3 0x461BCD PUSH1 0xE5 SHL DUP2 MSTORE PUSH1 0x4 ADD PUSH2 0x886 SWAP1 PUSH2 0x41D0 JUMP JUMPDEST PUSH2 0x174A PUSH1 0x0 PUSH2 0x3397 JUMP JUMPDEST JUMP JUMPDEST PUSH1 0x60 PUSH1 0x0 PUSH2 0x1759 DUP4 PUSH2 0x168F JUMP JUMPDEST SWAP1 POP DUP1 PUSH2 0x177A JUMPI PUSH1 0x40 DUP1 MLOAD PUSH1 0x0 DUP1 DUP3 MSTORE PUSH1 0x20 DUP3 ADD SWAP1 SWAP3 MSTORE SWAP1 JUMPDEST POP SWAP4 SWAP3 POP POP POP JUMP JUMPDEST PUSH1 0x0 DUP2 PUSH8 0xFFFFFFFFFFFFFFFF DUP2 GT ISZERO PUSH2 0x1795 JUMPI PUSH2 0x1795 PUSH2 0x44E3 JUMP JUMPDEST PUSH1 0x40 MLOAD SWAP1 DUP1 DUP3 MSTORE DUP1 PUSH1 0x20 MUL PUSH1 0x20 ADD DUP3 ADD PUSH1 0x40 MSTORE DUP1 ISZERO PUSH2 0x17BE JUMPI DUP2 PUSH1 0x20 ADD PUSH1 0x20 DUP3 MUL DUP1 CALLDATASIZE DUP4 CALLDATACOPY ADD SWAP1 POP JUMPDEST POP SWAP1 POP PUSH1 0x0 JUMPDEST DUP3 DUP2 LT ISZERO PUSH2 0x1772 JUMPI PUSH2 0x17D6 DUP6 DUP3 PUSH2 0xCA0 JUMP JUMPDEST DUP3 DUP3 DUP2 MLOAD DUP2 LT PUSH2 0x17E8 JUMPI PUSH2 0x17E8 PUSH2 0x44CD JUMP JUMPDEST PUSH1 0x20 SWAP1 DUP2 MUL SWAP2 SWAP1 SWAP2 ADD ADD MSTORE DUP1 PUSH2 0x17FD DUP2 PUSH2 0x4446 JUMP JUMPDEST SWAP2 POP POP PUSH2 0x17C4 JUMP JUMPDEST POP SWAP2 SWAP1 POP JUMP JUMPDEST CALLER PUSH2 0x1815 JUMPI PUSH1 0x0 DUP1 REVERT JUMPDEST PUSH1 0xA SLOAD PUSH1 0x1 PUSH1 0x1 PUSH1 0xA0 SHL SUB AND CALLER EQ ISZERO PUSH2 0x182D JUMPI PUSH1 0x0 DUP1 REVERT JUMPDEST PUSH1 0x11 SLOAD DUP2 GT ISZERO PUSH2 0x184F JUMPI PUSH1 0x40 MLOAD PUSH3 0x461BCD PUSH1 0xE5 SHL DUP2 MSTORE PUSH1 0x4 ADD PUSH2 0x886 SWAP1 PUSH2 0x4205 JUMP JUMPDEST PUSH1 0x0 DUP2 DUP2 MSTORE PUSH1 0xE PUSH1 0x20 SWAP1 DUP2 MSTORE PUSH1 0x40 DUP1 DUP4 KECCAK256 DUP2 MLOAD PUSH1 0xE0 DUP2 ADD DUP4 MSTORE DUP2 SLOAD DUP2 MSTORE PUSH1 0x1 DUP3 ADD SLOAD SWAP4 DUP2 ADD SWAP4 SWAP1 SWAP4 MSTORE PUSH1 0x2 DUP2 ADD SLOAD SWAP2 DUP4 ADD SWAP2 SWAP1 SWAP2 MSTORE PUSH1 0x3 DUP1 DUP3 ADD SLOAD PUSH1 0x60 DUP5 ADD SWAP2 PUSH1 0xFF SWAP1 SWAP2 AND SWAP1 DUP2 GT ISZERO PUSH2 0x18A4 JUMPI PUSH2 0x18A4 PUSH2 0x44A1 JUMP JUMPDEST PUSH1 0x3 DUP2 GT ISZERO PUSH2 0x18B5 JUMPI PUSH2 0x18B5 PUSH2 0x44A1 JUMP JUMPDEST DUP2 MSTORE PUSH1 0x20 ADD PUSH1 0x4 DUP3 ADD SLOAD DUP2 MSTORE PUSH1 0x20 ADD PUSH1 0x5 DUP3 ADD DUP1 SLOAD DUP1 PUSH1 0x20 MUL PUSH1 0x20 ADD PUSH1 0x40 MLOAD SWAP1 DUP2 ADD PUSH1 0x40 MSTORE DUP1 SWAP3 SWAP2 SWAP1 DUP2 DUP2 MSTORE PUSH1 0x20 ADD DUP3 DUP1 SLOAD DUP1 ISZERO PUSH2 0x1942 JUMPI PUSH1 0x20 MUL DUP3 ADD SWAP2 SWAP1 PUSH1 0x0 MSTORE PUSH1 0x20 PUSH1 0x0 KECCAK256 SWAP1 PUSH1 0x0 SWAP1 JUMPDEST DUP3 DUP3 SWAP1 SLOAD SWAP1 PUSH2 0x100 EXP SWAP1 DIV PUSH1 0xFF AND PUSH1 0xC DUP2 GT ISZERO PUSH2 0x1920 JUMPI PUSH2 0x1920 PUSH2 0x44A1 JUMP JUMPDEST DUP2 MSTORE PUSH1 0x20 PUSH1 0x1 SWAP3 DUP4 ADD DUP2 DUP2 DIV SWAP5 DUP6 ADD SWAP5 SWAP1 SWAP4 SUB SWAP1 SWAP3 MUL SWAP2 ADD DUP1 DUP5 GT PUSH2 0x1901 JUMPI SWAP1 POP JUMPDEST POP POP POP SWAP2 DUP4 MSTORE POP POP PUSH1 0x6 SWAP2 SWAP1 SWAP2 ADD SLOAD PUSH1 0xFF AND ISZERO ISZERO PUSH1 0x20 SWAP1 SWAP2 ADD MSTORE PUSH1 0x40 DUP2 ADD MLOAD SWAP1 SWAP2 POP CALLVALUE LT ISZERO PUSH2 0x1970 JUMPI PUSH1 0x0 DUP1 REVERT JUMPDEST PUSH1 0x0 DUP1 JUMPDEST DUP3 PUSH1 0xA0 ADD MLOAD MLOAD DUP2 LT ISZERO PUSH2 0x1A9E JUMPI PUSH1 0x1 JUMPDEST PUSH1 0x10 SLOAD DUP2 GT PUSH2 0x1A8B JUMPI PUSH1 0x1 PUSH1 0x0 DUP3 DUP2 MSTORE PUSH1 0xD PUSH1 0x20 MSTORE PUSH1 0x40 SWAP1 KECCAK256 PUSH1 0x3 ADD SLOAD PUSH1 0xFF AND PUSH1 0x4 DUP2 GT ISZERO PUSH2 0x19B5 JUMPI PUSH2 0x19B5 PUSH2 0x44A1 JUMP JUMPDEST EQ DUP1 ISZERO PUSH2 0x1A1B JUMPI POP DUP4 PUSH1 0xA0 ADD MLOAD DUP3 DUP2 MLOAD DUP2 LT PUSH2 0x19D3 JUMPI PUSH2 0x19D3 PUSH2 0x44CD JUMP JUMPDEST PUSH1 0x20 MUL PUSH1 0x20 ADD ADD MLOAD PUSH1 0xC DUP2 GT ISZERO PUSH2 0x19EC JUMPI PUSH2 0x19EC PUSH2 0x44A1 JUMP JUMPDEST PUSH1 0x0 DUP3 DUP2 MSTORE PUSH1 0xD PUSH1 0x20 MSTORE PUSH1 0x40 SWAP1 KECCAK256 PUSH1 0x3 ADD SLOAD PUSH4 0x1000000 SWAP1 DIV PUSH1 0xFF AND PUSH1 0xC DUP2 GT ISZERO PUSH2 0x1A19 JUMPI PUSH2 0x1A19 PUSH2 0x44A1 JUMP JUMPDEST EQ JUMPDEST DUP1 ISZERO PUSH2 0x1A66 JUMPI POP DUP4 PUSH1 0x60 ADD MLOAD PUSH1 0x3 DUP2 GT ISZERO PUSH2 0x1A38 JUMPI PUSH2 0x1A38 PUSH2 0x44A1 JUMP JUMPDEST PUSH1 0x0 DUP3 DUP2 MSTORE PUSH1 0xD PUSH1 0x20 MSTORE PUSH1 0x40 SWAP1 KECCAK256 PUSH1 0x3 SWAP1 DUP2 ADD SLOAD PUSH2 0x100 SWAP1 DIV PUSH1 0xFF AND SWAP1 DUP2 GT ISZERO PUSH2 0x1A64 JUMPI PUSH2 0x1A64 PUSH2 0x44A1 JUMP JUMPDEST EQ JUMPDEST ISZERO PUSH2 0x1A79 JUMPI DUP3 PUSH2 0x1A75 DUP2 PUSH2 0x4446 JUMP JUMPDEST SWAP4 POP POP JUMPDEST DUP1 PUSH2 0x1A83 DUP2 PUSH2 0x4446 JUMP JUMPDEST SWAP2 POP POP PUSH2 0x1984 JUMP JUMPDEST POP DUP1 PUSH2 0x1A96 DUP2 PUSH2 0x4446 JUMP JUMPDEST SWAP2 POP POP PUSH2 0x1974 JUMP JUMPDEST POP DUP2 PUSH1 0x20 ADD MLOAD DUP2 LT ISZERO PUSH2 0x1AFF JUMPI PUSH1 0x40 MLOAD PUSH3 0x461BCD PUSH1 0xE5 SHL DUP2 MSTORE PUSH1 0x20 PUSH1 0x4 DUP3 ADD MSTORE PUSH1 0x24 DUP1 DUP3 ADD MSTORE PUSH32 0x546865726520617265206E6F20656E6F75676820617661696C61626C6520746F PUSH1 0x44 DUP3 ADD MSTORE PUSH4 0x6B656E73 PUSH1 0xE0 SHL PUSH1 0x64 DUP3 ADD MSTORE PUSH1 0x84 ADD PUSH2 0x886 JUMP JUMPDEST PUSH1 0x0 DUP2 PUSH8 0xFFFFFFFFFFFFFFFF DUP2 GT ISZERO PUSH2 0x1B1A JUMPI PUSH2 0x1B1A PUSH2 0x44E3 JUMP JUMPDEST PUSH1 0x40 MLOAD SWAP1 DUP1 DUP3 MSTORE DUP1 PUSH1 0x20 MUL PUSH1 0x20 ADD DUP3 ADD PUSH1 0x40 MSTORE DUP1 ISZERO PUSH2 0x1B43 JUMPI DUP2 PUSH1 0x20 ADD PUSH1 0x20 DUP3 MUL DUP1 CALLDATASIZE DUP4 CALLDATACOPY ADD SWAP1 POP JUMPDEST POP SWAP1 POP PUSH1 0x0 DUP1 JUMPDEST DUP5 PUSH1 0xA0 ADD MLOAD MLOAD DUP2 LT ISZERO PUSH2 0x1C91 JUMPI PUSH1 0x1 JUMPDEST PUSH1 0x10 SLOAD DUP2 GT PUSH2 0x1C7E JUMPI PUSH1 0x1 PUSH1 0x0 DUP3 DUP2 MSTORE PUSH1 0xD PUSH1 0x20 MSTORE PUSH1 0x40 SWAP1 KECCAK256 PUSH1 0x3 ADD SLOAD PUSH1 0xFF AND PUSH1 0x4 DUP2 GT ISZERO PUSH2 0x1B8B JUMPI PUSH2 0x1B8B PUSH2 0x44A1 JUMP JUMPDEST EQ DUP1 ISZERO PUSH2 0x1BF1 JUMPI POP DUP6 PUSH1 0xA0 ADD MLOAD DUP3 DUP2 MLOAD DUP2 LT PUSH2 0x1BA9 JUMPI PUSH2 0x1BA9 PUSH2 0x44CD JUMP JUMPDEST PUSH1 0x20 MUL PUSH1 0x20 ADD ADD MLOAD PUSH1 0xC DUP2 GT ISZERO PUSH2 0x1BC2 JUMPI PUSH2 0x1BC2 PUSH2 0x44A1 JUMP JUMPDEST PUSH1 0x0 DUP3 DUP2 MSTORE PUSH1 0xD PUSH1 0x20 MSTORE PUSH1 0x40 SWAP1 KECCAK256 PUSH1 0x3 ADD SLOAD PUSH4 0x1000000 SWAP1 DIV PUSH1 0xFF AND PUSH1 0xC DUP2 GT ISZERO PUSH2 0x1BEF JUMPI PUSH2 0x1BEF PUSH2 0x44A1 JUMP JUMPDEST EQ JUMPDEST DUP1 ISZERO PUSH2 0x1C3C JUMPI POP DUP6 PUSH1 0x60 ADD MLOAD PUSH1 0x3 DUP2 GT ISZERO PUSH2 0x1C0E JUMPI PUSH2 0x1C0E PUSH2 0x44A1 JUMP JUMPDEST PUSH1 0x0 DUP3 DUP2 MSTORE PUSH1 0xD PUSH1 0x20 MSTORE PUSH1 0x40 SWAP1 KECCAK256 PUSH1 0x3 SWAP1 DUP2 ADD SLOAD PUSH2 0x100 SWAP1 DIV PUSH1 0xFF AND SWAP1 DUP2 GT ISZERO PUSH2 0x1C3A JUMPI PUSH2 0x1C3A PUSH2 0x44A1 JUMP JUMPDEST EQ JUMPDEST ISZERO PUSH2 0x1C6C JUMPI DUP1 DUP5 DUP5 PUSH2 0x1C4D DUP2 PUSH2 0x4446 JUMP JUMPDEST SWAP6 POP DUP2 MLOAD DUP2 LT PUSH2 0x1C5F JUMPI PUSH2 0x1C5F PUSH2 0x44CD JUMP JUMPDEST PUSH1 0x20 MUL PUSH1 0x20 ADD ADD DUP2 DUP2 MSTORE POP POP JUMPDEST DUP1 PUSH2 0x1C76 DUP2 PUSH2 0x4446 JUMP JUMPDEST SWAP2 POP POP PUSH2 0x1B5A JUMP JUMPDEST POP DUP1 PUSH2 0x1C89 DUP2 PUSH2 0x4446 JUMP JUMPDEST SWAP2 POP POP PUSH2 0x1B4A JUMP JUMPDEST POP PUSH1 0x0 DUP5 PUSH1 0x20 ADD MLOAD PUSH8 0xFFFFFFFFFFFFFFFF DUP2 GT ISZERO PUSH2 0x1CB1 JUMPI PUSH2 0x1CB1 PUSH2 0x44E3 JUMP JUMPDEST PUSH1 0x40 MLOAD SWAP1 DUP1 DUP3 MSTORE DUP1 PUSH1 0x20 MUL PUSH1 0x20 ADD DUP3 ADD PUSH1 0x40 MSTORE DUP1 ISZERO PUSH2 0x1CDA JUMPI DUP2 PUSH1 0x20 ADD PUSH1 0x20 DUP3 MUL DUP1 CALLDATASIZE DUP4 CALLDATACOPY ADD SWAP1 POP JUMPDEST POP SWAP1 POP PUSH1 0x0 PUSH1 0x1 DUP2 JUMPDEST DUP8 PUSH1 0x20 ADD MLOAD DUP2 LT ISZERO PUSH2 0x1DFD JUMPI JUMPDEST PUSH1 0x0 DUP8 TIMESTAMP CALLER DUP6 PUSH2 0x1CFF DUP2 PUSH2 0x4446 JUMP JUMPDEST SWAP7 POP PUSH1 0x40 MLOAD PUSH1 0x20 ADD PUSH2 0x1D36 SWAP4 SWAP3 SWAP2 SWAP1 SWAP3 DUP4 MSTORE PUSH1 0x60 SWAP2 SWAP1 SWAP2 SHL PUSH12 0xFFFFFFFFFFFFFFFFFFFFFFFF NOT AND PUSH1 0x20 DUP4 ADD MSTORE PUSH1 0x34 DUP3 ADD MSTORE PUSH1 0x54 ADD SWAP1 JUMP JUMPDEST PUSH1 0x40 MLOAD PUSH1 0x20 DUP2 DUP4 SUB SUB DUP2 MSTORE SWAP1 PUSH1 0x40 MSTORE DUP1 MLOAD SWAP1 PUSH1 0x20 ADD KECCAK256 PUSH1 0x0 SHR PUSH2 0x1D59 SWAP2 SWAP1 PUSH2 0x4461 JUMP JUMPDEST SWAP1 POP PUSH1 0x0 DUP1 JUMPDEST DUP6 DUP2 LT ISZERO PUSH2 0x1DAD JUMPI DUP2 ISZERO DUP1 ISZERO PUSH2 0x1D8D JUMPI POP DUP7 DUP2 DUP2 MLOAD DUP2 LT PUSH2 0x1D82 JUMPI PUSH2 0x1D82 PUSH2 0x44CD JUMP JUMPDEST PUSH1 0x20 MUL PUSH1 0x20 ADD ADD MLOAD DUP4 EQ JUMPDEST ISZERO PUSH2 0x1D9B JUMPI PUSH1 0x1 SWAP2 POP PUSH2 0x1DAD JUMP JUMPDEST DUP1 PUSH2 0x1DA5 DUP2 PUSH2 0x4446 JUMP JUMPDEST SWAP2 POP POP PUSH2 0x1D5F JUMP JUMPDEST POP DUP1 PUSH2 0x1DE4 JUMPI DUP2 DUP7 DUP7 PUSH2 0x1DBF DUP2 PUSH2 0x4446 JUMP JUMPDEST SWAP8 POP DUP2 MLOAD DUP2 LT PUSH2 0x1DD1 JUMPI PUSH2 0x1DD1 PUSH2 0x44CD JUMP JUMPDEST PUSH1 0x20 MUL PUSH1 0x20 ADD ADD DUP2 DUP2 MSTORE POP POP POP POP PUSH2 0x1DEB JUMP JUMPDEST POP POP PUSH2 0x1CF0 JUMP JUMPDEST DUP1 PUSH2 0x1DF5 DUP2 PUSH2 0x4446 JUMP JUMPDEST SWAP2 POP POP PUSH2 0x1CE3 JUMP JUMPDEST POP PUSH1 0x0 JUMPDEST DUP8 PUSH1 0x20 ADD MLOAD DUP2 LT ISZERO PUSH2 0x2073 JUMPI PUSH1 0x0 DUP7 DUP6 DUP4 DUP2 MLOAD DUP2 LT PUSH2 0x1E22 JUMPI PUSH2 0x1E22 PUSH2 0x44CD JUMP JUMPDEST PUSH1 0x20 MUL PUSH1 0x20 ADD ADD MLOAD DUP2 MLOAD DUP2 LT PUSH2 0x1E3A JUMPI PUSH2 0x1E3A PUSH2 0x44CD JUMP JUMPDEST PUSH1 0x20 MUL PUSH1 0x20 ADD ADD MLOAD SWAP1 POP PUSH1 0x0 PUSH2 0x1E4F DUP3 PUSH2 0x1618 JUMP JUMPDEST SWAP1 POP PUSH2 0x1E5C DUP2 CALLER DUP5 PUSH2 0x31D5 JUMP JUMPDEST PUSH1 0x0 DUP3 DUP2 MSTORE PUSH1 0xD PUSH1 0x20 SWAP1 DUP2 MSTORE PUSH1 0x40 DUP1 DUP4 KECCAK256 DUP2 MLOAD PUSH1 0xE0 DUP2 ADD DUP4 MSTORE DUP2 SLOAD DUP2 MSTORE PUSH1 0x1 DUP3 ADD SLOAD SWAP4 DUP2 ADD SWAP4 SWAP1 SWAP4 MSTORE PUSH1 0x2 DUP2 ADD SLOAD SWAP2 DUP4 ADD SWAP2 SWAP1 SWAP2 MSTORE PUSH1 0x3 DUP2 ADD SLOAD PUSH1 0x60 DUP4 ADD SWAP1 PUSH1 0xFF AND PUSH1 0x4 DUP2 GT ISZERO PUSH2 0x1EAF JUMPI PUSH2 0x1EAF PUSH2 0x44A1 JUMP JUMPDEST PUSH1 0x4 DUP2 GT ISZERO PUSH2 0x1EC0 JUMPI PUSH2 0x1EC0 PUSH2 0x44A1 JUMP JUMPDEST DUP2 MSTORE PUSH1 0x20 ADD PUSH1 0x3 DUP3 ADD PUSH1 0x1 SWAP1 SLOAD SWAP1 PUSH2 0x100 EXP SWAP1 DIV PUSH1 0xFF AND PUSH1 0x3 DUP2 GT ISZERO PUSH2 0x1EE8 JUMPI PUSH2 0x1EE8 PUSH2 0x44A1 JUMP JUMPDEST PUSH1 0x3 DUP2 GT ISZERO PUSH2 0x1EF9 JUMPI PUSH2 0x1EF9 PUSH2 0x44A1 JUMP JUMPDEST DUP2 MSTORE PUSH1 0x20 ADD PUSH1 0x3 DUP3 ADD PUSH1 0x2 SWAP1 SLOAD SWAP1 PUSH2 0x100 EXP SWAP1 DIV PUSH1 0xFF AND PUSH1 0x7 DUP2 GT ISZERO PUSH2 0x1F21 JUMPI PUSH2 0x1F21 PUSH2 0x44A1 JUMP JUMPDEST PUSH1 0x7 DUP2 GT ISZERO PUSH2 0x1F32 JUMPI PUSH2 0x1F32 PUSH2 0x44A1 JUMP JUMPDEST DUP2 MSTORE PUSH1 0x20 ADD PUSH1 0x3 DUP3 ADD PUSH1 0x3 SWAP1 SLOAD SWAP1 PUSH2 0x100 EXP SWAP1 DIV PUSH1 0xFF AND PUSH1 0xC DUP2 GT ISZERO PUSH2 0x1F5A JUMPI PUSH2 0x1F5A PUSH2 0x44A1 JUMP JUMPDEST PUSH1 0xC DUP2 GT ISZERO PUSH2 0x1F6B JUMPI PUSH2 0x1F6B PUSH2 0x44A1 JUMP JUMPDEST SWAP1 MSTORE POP SWAP1 POP PUSH1 0x2 PUSH1 0x60 DUP3 ADD DUP2 SWAP1 MSTORE POP PUSH1 0x0 DUP4 DUP2 MSTORE PUSH1 0xD PUSH1 0x20 SWAP1 DUP2 MSTORE PUSH1 0x40 SWAP2 DUP3 SWAP1 KECCAK256 DUP4 MLOAD DUP2 SSTORE SWAP1 DUP4 ADD MLOAD PUSH1 0x1 DUP1 DUP4 ADD SWAP2 SWAP1 SWAP2 SSTORE SWAP2 DUP4 ADD MLOAD PUSH1 0x2 DUP3 ADD SSTORE PUSH1 0x60 DUP4 ADD MLOAD PUSH1 0x3 DUP3 ADD DUP1 SLOAD DUP6 SWAP5 PUSH1 0xFF NOT SWAP1 SWAP2 AND SWAP1 DUP4 PUSH1 0x4 DUP2 GT ISZERO PUSH2 0x1FCC JUMPI PUSH2 0x1FCC PUSH2 0x44A1 JUMP JUMPDEST MUL OR SWAP1 SSTORE POP PUSH1 0x80 DUP3 ADD MLOAD DUP2 PUSH1 0x3 ADD PUSH1 0x1 PUSH2 0x100 EXP DUP2 SLOAD DUP2 PUSH1 0xFF MUL NOT AND SWAP1 DUP4 PUSH1 0x3 DUP2 GT ISZERO PUSH2 0x1FFB JUMPI PUSH2 0x1FFB PUSH2 0x44A1 JUMP JUMPDEST MUL OR SWAP1 SSTORE POP PUSH1 0xA0 DUP3 ADD MLOAD PUSH1 0x3 DUP3 ADD DUP1 SLOAD PUSH3 0xFF0000 NOT AND PUSH3 0x10000 DUP4 PUSH1 0x7 DUP2 GT ISZERO PUSH2 0x2027 JUMPI PUSH2 0x2027 PUSH2 0x44A1 JUMP JUMPDEST MUL OR SWAP1 SSTORE POP PUSH1 0xC0 DUP3 ADD MLOAD PUSH1 0x3 DUP3 ADD DUP1 SLOAD PUSH4 0xFF000000 NOT AND PUSH4 0x1000000 DUP4 PUSH1 0xC DUP2 GT ISZERO PUSH2 0x2055 JUMPI PUSH2 0x2055 PUSH2 0x44A1 JUMP JUMPDEST MUL OR SWAP1 SSTORE POP SWAP1 POP POP POP POP POP DUP1 DUP1 PUSH2 0x206B SWAP1 PUSH2 0x4446 JUMP JUMPDEST SWAP2 POP POP PUSH2 0x1E01 JUMP JUMPDEST POP PUSH1 0x0 PUSH2 0x2088 PUSH1 0xA SLOAD PUSH1 0x1 PUSH1 0x1 PUSH1 0xA0 SHL SUB AND SWAP1 JUMP JUMPDEST PUSH1 0x40 MLOAD SWAP1 SWAP2 POP PUSH1 0x1 PUSH1 0x1 PUSH1 0xA0 SHL SUB DUP3 AND SWAP1 CALLVALUE DUP1 ISZERO PUSH2 0x8FC MUL SWAP2 PUSH1 0x0 DUP2 DUP2 DUP2 DUP6 DUP9 DUP9 CALL SWAP4 POP POP POP POP ISZERO DUP1 ISZERO PUSH2 0x20C0 JUMPI RETURNDATASIZE PUSH1 0x0 DUP1 RETURNDATACOPY RETURNDATASIZE PUSH1 0x0 REVERT JUMPDEST POP POP POP POP POP POP POP POP POP POP JUMP JUMPDEST PUSH1 0xA SLOAD PUSH1 0x1 PUSH1 0x1 PUSH1 0xA0 SHL SUB AND CALLER EQ PUSH2 0x20F6 JUMPI PUSH1 0x40 MLOAD PUSH3 0x461BCD PUSH1 0xE5 SHL DUP2 MSTORE PUSH1 0x4 ADD PUSH2 0x886 SWAP1 PUSH2 0x41D0 JUMP JUMPDEST PUSH1 0x11 SLOAD DUP2 GT ISZERO PUSH2 0x2105 JUMPI PUSH1 0x0 DUP1 REVERT JUMPDEST PUSH1 0x0 SWAP1 DUP2 MSTORE PUSH1 0xE PUSH1 0x20 MSTORE PUSH1 0x40 SWAP1 KECCAK256 PUSH1 0x6 ADD DUP1 SLOAD PUSH1 0xFF NOT AND PUSH1 0x1 OR SWAP1 SSTORE JUMP JUMPDEST PUSH1 0x60 PUSH1 0x1 DUP1 SLOAD PUSH2 0x79B SWAP1 PUSH2 0x4411 JUMP JUMPDEST PUSH1 0x1 PUSH1 0x1 PUSH1 0xA0 SHL SUB DUP3 AND CALLER EQ ISZERO PUSH2 0x218B JUMPI PUSH1 0x40 MLOAD PUSH3 0x461BCD PUSH1 0xE5 SHL DUP2 MSTORE PUSH1 0x20 PUSH1 0x4 DUP3 ADD MSTORE PUSH1 0x19 PUSH1 0x24 DUP3 ADD MSTORE PUSH32 0x4552433732313A20617070726F766520746F2063616C6C657200000000000000 PUSH1 0x44 DUP3 ADD MSTORE PUSH1 0x64 ADD PUSH2 0x886 JUMP JUMPDEST CALLER PUSH1 0x0 DUP2 DUP2 MSTORE PUSH1 0x5 PUSH1 0x20 SWAP1 DUP2 MSTORE PUSH1 0x40 DUP1 DUP4 KECCAK256 PUSH1 0x1 PUSH1 0x1 PUSH1 0xA0 SHL SUB DUP8 AND DUP1 DUP6 MSTORE SWAP1 DUP4 MSTORE SWAP3 DUP2 SWAP1 KECCAK256 DUP1 SLOAD PUSH1 0xFF NOT AND DUP7 ISZERO ISZERO SWAP1 DUP2 OR SWAP1 SWAP2 SSTORE SWAP1 MLOAD SWAP1 DUP2 MSTORE SWAP2 SWAP3 SWAP2 PUSH32 0x17307EAB39AB6107E8899845AD3D59BD9653F200F220920489CA2B5937696C31 SWAP2 ADD PUSH1 0x40 MLOAD DUP1 SWAP2 SUB SWAP1 LOG3 POP POP JUMP JUMPDEST PUSH2 0x2200 DUP3 PUSH2 0x3060 JUMP JUMPDEST PUSH2 0x2209 JUMPI PUSH1 0x0 DUP1 REVERT JUMPDEST CALLER PUSH2 0x2213 DUP4 PUSH2 0x1618 JUMP JUMPDEST PUSH1 0x1 PUSH1 0x1 PUSH1 0xA0 SHL SUB AND EQ PUSH2 0x2226 JUMPI PUSH1 0x0 DUP1 REVERT JUMPDEST PUSH1 0x0 DUP3 DUP2 MSTORE PUSH1 0xD PUSH1 0x20 SWAP1 DUP2 MSTORE PUSH1 0x40 DUP1 DUP4 KECCAK256 DUP2 MLOAD PUSH1 0xE0 DUP2 ADD DUP4 MSTORE DUP2 SLOAD DUP2 MSTORE PUSH1 0x1 DUP3 ADD SLOAD SWAP4 DUP2 ADD SWAP4 SWAP1 SWAP4 MSTORE PUSH1 0x2 DUP2 ADD SLOAD SWAP2 DUP4 ADD SWAP2 SWAP1 SWAP2 MSTORE PUSH1 0x3 DUP2 ADD SLOAD PUSH1 0x60 DUP4 ADD SWAP1 PUSH1 0xFF AND PUSH1 0x4 DUP2 GT ISZERO PUSH2 0x2279 JUMPI PUSH2 0x2279 PUSH2 0x44A1 JUMP JUMPDEST PUSH1 0x4 DUP2 GT ISZERO PUSH2 0x228A JUMPI PUSH2 0x228A PUSH2 0x44A1 JUMP JUMPDEST DUP2 MSTORE PUSH1 0x20 ADD PUSH1 0x3 DUP3 ADD PUSH1 0x1 SWAP1 SLOAD SWAP1 PUSH2 0x100 EXP SWAP1 DIV PUSH1 0xFF AND PUSH1 0x3 DUP2 GT ISZERO PUSH2 0x22B2 JUMPI PUSH2 0x22B2 PUSH2 0x44A1 JUMP JUMPDEST PUSH1 0x3 DUP2 GT ISZERO PUSH2 0x22C3 JUMPI PUSH2 0x22C3 PUSH2 0x44A1 JUMP JUMPDEST DUP2 MSTORE PUSH1 0x20 ADD PUSH1 0x3 DUP3 ADD PUSH1 0x2 SWAP1 SLOAD SWAP1 PUSH2 0x100 EXP SWAP1 DIV PUSH1 0xFF AND PUSH1 0x7 DUP2 GT ISZERO PUSH2 0x22EB JUMPI PUSH2 0x22EB PUSH2 0x44A1 JUMP JUMPDEST PUSH1 0x7 DUP2 GT ISZERO PUSH2 0x22FC JUMPI PUSH2 0x22FC PUSH2 0x44A1 JUMP JUMPDEST DUP2 MSTORE PUSH1 0x20 ADD PUSH1 0x3 DUP3 ADD PUSH1 0x3 SWAP1 SLOAD SWAP1 PUSH2 0x100 EXP SWAP1 DIV PUSH1 0xFF AND PUSH1 0xC DUP2 GT ISZERO PUSH2 0x2324 JUMPI PUSH2 0x2324 PUSH2 0x44A1 JUMP JUMPDEST PUSH1 0xC DUP2 GT ISZERO PUSH2 0x2335 JUMPI PUSH2 0x2335 PUSH2 0x44A1 JUMP JUMPDEST SWAP1 MSTORE POP SWAP1 POP PUSH1 0x0 DUP2 PUSH1 0x60 ADD MLOAD PUSH1 0x4 DUP2 GT ISZERO PUSH2 0x2352 JUMPI PUSH2 0x2352 PUSH2 0x44A1 JUMP JUMPDEST EQ ISZERO DUP1 ISZERO PUSH2 0x2376 JUMPI POP PUSH1 0x1 DUP2 PUSH1 0x60 ADD MLOAD PUSH1 0x4 DUP2 GT ISZERO PUSH2 0x2373 JUMPI PUSH2 0x2373 PUSH2 0x44A1 JUMP JUMPDEST EQ ISZERO JUMPDEST PUSH2 0x23CD JUMPI PUSH1 0x40 MLOAD PUSH3 0x461BCD PUSH1 0xE5 SHL DUP2 MSTORE PUSH1 0x20 PUSH1 0x4 DUP3 ADD MSTORE PUSH1 0x22 PUSH1 0x24 DUP3 ADD MSTORE PUSH32 0x54686520746F6B656E206865616C74682063616E6E6F74206265207570646174 PUSH1 0x44 DUP3 ADD MSTORE PUSH2 0x1959 PUSH1 0xF2 SHL PUSH1 0x64 DUP3 ADD MSTORE PUSH1 0x84 ADD PUSH2 0x886 JUMP JUMPDEST DUP2 DUP2 PUSH1 0x40 ADD MLOAD EQ ISZERO PUSH2 0x23DE JUMPI PUSH1 0x0 DUP1 REVERT JUMPDEST PUSH1 0x64 DUP3 GT ISZERO PUSH2 0x243D JUMPI PUSH1 0x40 MLOAD PUSH3 0x461BCD PUSH1 0xE5 SHL DUP2 MSTORE PUSH1 0x20 PUSH1 0x4 DUP3 ADD MSTORE PUSH1 0x25 PUSH1 0x24 DUP3 ADD MSTORE PUSH32 0x546F6B656E206865616C7468206D7573742062652066726F6D207A65726F2074 PUSH1 0x44 DUP3 ADD MSTORE PUSH5 0x6F2031303 PUSH1 0xDC SHL PUSH1 0x64 DUP3 ADD MSTORE PUSH1 0x84 ADD PUSH2 0x886 JUMP JUMPDEST PUSH1 0x40 DUP1 DUP3 ADD DUP4 DUP2 MSTORE PUSH1 0x0 DUP6 DUP2 MSTORE PUSH1 0xD PUSH1 0x20 SWAP1 DUP2 MSTORE SWAP3 SWAP1 KECCAK256 DUP4 MLOAD DUP2 SSTORE SWAP2 DUP4 ADD MLOAD PUSH1 0x1 DUP1 DUP5 ADD SWAP2 SWAP1 SWAP2 SSTORE SWAP1 MLOAD PUSH1 0x2 DUP4 ADD SSTORE PUSH1 0x60 DUP4 ADD MLOAD PUSH1 0x3 DUP4 ADD DUP1 SLOAD DUP6 SWAP5 SWAP4 PUSH1 0xFF NOT SWAP1 SWAP2 AND SWAP1 DUP4 PUSH1 0x4 DUP2 GT ISZERO PUSH2 0x1583 JUMPI PUSH2 0x1583 PUSH2 0x44A1 JUMP JUMPDEST PUSH2 0x249D CALLER DUP4 PUSH2 0x30EB JUMP JUMPDEST PUSH2 0x24B9 JUMPI PUSH1 0x40 MLOAD PUSH3 0x461BCD PUSH1 0xE5 SHL DUP2 MSTORE PUSH1 0x4 ADD PUSH2 0x886 SWAP1 PUSH2 0x4233 JUMP JUMPDEST PUSH2 0x24C5 DUP5 DUP5 DUP5 DUP5 PUSH2 0x33E9 JUMP JUMPDEST POP POP POP POP JUMP JUMPDEST PUSH2 0x24D4 DUP3 PUSH2 0x3060 JUMP JUMPDEST PUSH2 0x24DD JUMPI PUSH1 0x0 DUP1 REVERT JUMPDEST CALLER PUSH2 0x24E7 DUP4 PUSH2 0x1618 JUMP JUMPDEST PUSH1 0x1 PUSH1 0x1 PUSH1 0xA0 SHL SUB AND EQ PUSH2 0x24FA JUMPI PUSH1 0x0 DUP1 REVERT JUMPDEST PUSH1 0x0 DUP3 DUP2 MSTORE PUSH1 0xD PUSH1 0x20 SWAP1 DUP2 MSTORE PUSH1 0x40 DUP1 DUP4 KECCAK256 DUP2 MLOAD PUSH1 0xE0 DUP2 ADD DUP4 MSTORE DUP2 SLOAD DUP2 MSTORE PUSH1 0x1 DUP3 ADD SLOAD SWAP4 DUP2 ADD SWAP4 SWAP1 SWAP4 MSTORE PUSH1 0x2 DUP2 ADD SLOAD SWAP2 DUP4 ADD SWAP2 SWAP1 SWAP2 MSTORE PUSH1 0x3 DUP2 ADD SLOAD PUSH1 0x60 DUP4 ADD SWAP1 PUSH1 0xFF AND PUSH1 0x4 DUP2 GT ISZERO PUSH2 0x254D JUMPI PUSH2 0x254D PUSH2 0x44A1 JUMP JUMPDEST PUSH1 0x4 DUP2 GT ISZERO PUSH2 0x255E JUMPI PUSH2 0x255E PUSH2 0x44A1 JUMP JUMPDEST DUP2 MSTORE PUSH1 0x20 ADD PUSH1 0x3 DUP3 ADD PUSH1 0x1 SWAP1 SLOAD SWAP1 PUSH2 0x100 EXP SWAP1 DIV PUSH1 0xFF AND PUSH1 0x3 DUP2 GT ISZERO PUSH2 0x2586 JUMPI PUSH2 0x2586 PUSH2 0x44A1 JUMP JUMPDEST PUSH1 0x3 DUP2 GT ISZERO PUSH2 0x2597 JUMPI PUSH2 0x2597 PUSH2 0x44A1 JUMP JUMPDEST DUP2 MSTORE PUSH1 0x20 ADD PUSH1 0x3 DUP3 ADD PUSH1 0x2 SWAP1 SLOAD SWAP1 PUSH2 0x100 EXP SWAP1 DIV PUSH1 0xFF AND PUSH1 0x7 DUP2 GT ISZERO PUSH2 0x25BF JUMPI PUSH2 0x25BF PUSH2 0x44A1 JUMP JUMPDEST PUSH1 0x7 DUP2 GT ISZERO PUSH2 0x25D0 JUMPI PUSH2 0x25D0 PUSH2 0x44A1 JUMP JUMPDEST DUP2 MSTORE PUSH1 0x20 ADD PUSH1 0x3 DUP3 ADD PUSH1 0x3 SWAP1 SLOAD SWAP1 PUSH2 0x100 EXP SWAP1 DIV PUSH1 0xFF AND PUSH1 0xC DUP2 GT ISZERO PUSH2 0x25F8 JUMPI PUSH2 0x25F8 PUSH2 0x44A1 JUMP JUMPDEST PUSH1 0xC DUP2 GT ISZERO PUSH2 0x2609 JUMPI PUSH2 0x2609 PUSH2 0x44A1 JUMP JUMPDEST SWAP1 MSTORE POP SWAP1 POP PUSH1 0x0 DUP2 PUSH1 0x60 ADD MLOAD PUSH1 0x4 DUP2 GT ISZERO PUSH2 0x2626 JUMPI PUSH2 0x2626 PUSH2 0x44A1 JUMP JUMPDEST EQ ISZERO DUP1 ISZERO PUSH2 0x264A JUMPI POP PUSH1 0x1 DUP2 PUSH1 0x60 ADD MLOAD PUSH1 0x4 DUP2 GT ISZERO PUSH2 0x2647 JUMPI PUSH2 0x2647 PUSH2 0x44A1 JUMP JUMPDEST EQ ISZERO JUMPDEST PUSH2 0x26A1 JUMPI PUSH1 0x40 MLOAD PUSH3 0x461BCD PUSH1 0xE5 SHL DUP2 MSTORE PUSH1 0x20 PUSH1 0x4 DUP3 ADD MSTORE PUSH1 0x22 PUSH1 0x24 DUP3 ADD MSTORE PUSH32 0x54686520746F6B656E207374617475732063616E6E6F74206265207570646174 PUSH1 0x44 DUP3 ADD MSTORE PUSH2 0x1959 PUSH1 0xF2 SHL PUSH1 0x64 DUP3 ADD MSTORE PUSH1 0x84 ADD PUSH2 0x886 JUMP JUMPDEST DUP2 PUSH1 0x4 DUP2 GT ISZERO PUSH2 0x26B3 JUMPI PUSH2 0x26B3 PUSH2 0x44A1 JUMP JUMPDEST PUSH1 0x4 DUP2 GT ISZERO PUSH2 0x26C4 JUMPI PUSH2 0x26C4 PUSH2 0x44A1 JUMP JUMPDEST DUP2 PUSH1 0x60 ADD MLOAD PUSH1 0x4 DUP2 GT ISZERO PUSH2 0x26DA JUMPI PUSH2 0x26DA PUSH2 0x44A1 JUMP JUMPDEST EQ ISZERO PUSH2 0x26E5 JUMPI PUSH1 0x0 DUP1 REVERT JUMPDEST PUSH1 0x4 DUP3 EQ ISZERO PUSH2 0x2740 JUMPI PUSH1 0x40 DUP2 ADD MLOAD ISZERO PUSH2 0x2740 JUMPI PUSH1 0x40 MLOAD PUSH3 0x461BCD PUSH1 0xE5 SHL DUP2 MSTORE PUSH1 0x20 PUSH1 0x4 DUP3 ADD MSTORE PUSH1 0x1C PUSH1 0x24 DUP3 ADD MSTORE PUSH32 0x54686520746F6B656E206865616C7468206973206E6F74207A65726F00000000 PUSH1 0x44 DUP3 ADD MSTORE PUSH1 0x64 ADD PUSH2 0x886 JUMP JUMPDEST PUSH1 0x2 DUP3 PUSH1 0x4 DUP2 GT ISZERO PUSH2 0x2754 JUMPI PUSH2 0x2754 PUSH2 0x44A1 JUMP JUMPDEST PUSH1 0x4 DUP2 GT ISZERO PUSH2 0x2765 JUMPI PUSH2 0x2765 PUSH2 0x44A1 JUMP JUMPDEST LT ISZERO DUP1 ISZERO PUSH2 0x2796 JUMPI POP PUSH1 0x4 DUP3 PUSH1 0x4 DUP2 GT ISZERO PUSH2 0x2782 JUMPI PUSH2 0x2782 PUSH2 0x44A1 JUMP JUMPDEST PUSH1 0x4 DUP2 GT ISZERO PUSH2 0x2793 JUMPI PUSH2 0x2793 PUSH2 0x44A1 JUMP JUMPDEST GT ISZERO JUMPDEST PUSH2 0x279F JUMPI PUSH1 0x0 DUP1 REVERT JUMPDEST DUP2 PUSH1 0x4 DUP2 GT ISZERO PUSH2 0x27B1 JUMPI PUSH2 0x27B1 PUSH2 0x44A1 JUMP JUMPDEST DUP2 PUSH1 0x60 ADD SWAP1 PUSH1 0x4 DUP2 GT ISZERO PUSH2 0x27C7 JUMPI PUSH2 0x27C7 PUSH2 0x44A1 JUMP JUMPDEST SWAP1 DUP2 PUSH1 0x4 DUP2 GT ISZERO PUSH2 0x27DA JUMPI PUSH2 0x27DA PUSH2 0x44A1 JUMP JUMPDEST SWAP1 MSTORE POP PUSH1 0x0 DUP4 DUP2 MSTORE PUSH1 0xD PUSH1 0x20 SWAP1 DUP2 MSTORE PUSH1 0x40 SWAP2 DUP3 SWAP1 KECCAK256 DUP4 MLOAD DUP2 SSTORE SWAP1 DUP4 ADD MLOAD PUSH1 0x1 DUP1 DUP4 ADD SWAP2 SWAP1 SWAP2 SSTORE SWAP2 DUP4 ADD MLOAD PUSH1 0x2 DUP3 ADD SSTORE PUSH1 0x60 DUP4 ADD MLOAD PUSH1 0x3 DUP3 ADD DUP1 SLOAD DUP6 SWAP5 PUSH1 0xFF NOT SWAP1 SWAP2 AND SWAP1 DUP4 PUSH1 0x4 DUP2 GT ISZERO PUSH2 0x1583 JUMPI PUSH2 0x1583 PUSH2 0x44A1 JUMP JUMPDEST PUSH1 0xA SLOAD PUSH1 0x1 PUSH1 0x1 PUSH1 0xA0 SHL SUB AND CALLER EQ PUSH2 0x2859 JUMPI PUSH1 0x40 MLOAD PUSH3 0x461BCD PUSH1 0xE5 SHL DUP2 MSTORE PUSH1 0x4 ADD PUSH2 0x886 SWAP1 PUSH2 0x41D0 JUMP JUMPDEST PUSH1 0x2 PUSH1 0xB SLOAD EQ ISZERO PUSH2 0x28AC JUMPI PUSH1 0x40 MLOAD PUSH3 0x461BCD PUSH1 0xE5 SHL DUP2 MSTORE PUSH1 0x20 PUSH1 0x4 DUP3 ADD MSTORE PUSH1 0x1F PUSH1 0x24 DUP3 ADD MSTORE PUSH32 0x5265656E7472616E637947756172643A207265656E7472616E742063616C6C00 PUSH1 0x44 DUP3 ADD MSTORE PUSH1 0x64 ADD PUSH2 0x886 JUMP JUMPDEST PUSH1 0x2 PUSH1 0xB SSTORE DUP5 ISZERO DUP1 ISZERO SWAP1 PUSH2 0x28C3 JUMPI POP PUSH3 0x186A0 DUP6 GT ISZERO JUMPDEST PUSH2 0x290F JUMPI PUSH1 0x40 MLOAD PUSH3 0x461BCD PUSH1 0xE5 SHL DUP2 MSTORE PUSH1 0x20 PUSH1 0x4 DUP3 ADD MSTORE PUSH1 0x1F PUSH1 0x24 DUP3 ADD MSTORE PUSH32 0x4D757374206D696E742066726F6D203120746F20313030303030204E46547300 PUSH1 0x44 DUP3 ADD MSTORE PUSH1 0x64 ADD PUSH2 0x886 JUMP JUMPDEST PUSH1 0x1 DUP4 LT ISZERO DUP1 ISZERO PUSH2 0x2921 JUMPI POP PUSH1 0x7 DUP4 GT ISZERO JUMPDEST PUSH2 0x2983 JUMPI PUSH1 0x40 MLOAD PUSH3 0x461BCD PUSH1 0xE5 SHL DUP2 MSTORE PUSH1 0x20 PUSH1 0x4 DUP3 ADD MSTORE PUSH1 0x2D PUSH1 0x24 DUP3 ADD MSTORE PUSH32 0x546F6B656E2043617465676F7279206D7573742062652066726F6D2057454150 PUSH1 0x44 DUP3 ADD MSTORE PUSH13 0x4F4E5320746F20424144474553 PUSH1 0x98 SHL PUSH1 0x64 DUP3 ADD MSTORE PUSH1 0x84 ADD PUSH2 0x886 JUMP JUMPDEST PUSH1 0x1 DUP3 LT ISZERO DUP1 ISZERO PUSH2 0x2995 JUMPI POP PUSH1 0xC DUP3 GT ISZERO JUMPDEST PUSH2 0x29FB JUMPI PUSH1 0x40 MLOAD PUSH3 0x461BCD PUSH1 0xE5 SHL DUP2 MSTORE PUSH1 0x20 PUSH1 0x4 DUP3 ADD MSTORE PUSH1 0x31 PUSH1 0x24 DUP3 ADD MSTORE PUSH32 0x546F6B656E20526172697479206D7573742062652066726F6D20434F4D4D4F4E PUSH1 0x44 DUP3 ADD MSTORE PUSH17 0x81D1BC810931050D2D7D112505353D391 PUSH1 0x7A SHL PUSH1 0x64 DUP3 ADD MSTORE PUSH1 0x84 ADD PUSH2 0x886 JUMP JUMPDEST PUSH1 0x7 DUP4 EQ PUSH2 0x2AB1 JUMPI PUSH1 0x1 DUP5 LT ISZERO DUP1 ISZERO PUSH2 0x2A15 JUMPI POP PUSH1 0x2 DUP5 GT ISZERO JUMPDEST PUSH2 0x2A31 JUMPI PUSH1 0x40 MLOAD PUSH3 0x461BCD PUSH1 0xE5 SHL DUP2 MSTORE PUSH1 0x4 ADD PUSH2 0x886 SWAP1 PUSH2 0x417E JUMP JUMPDEST PUSH1 0x1 DUP3 LT ISZERO DUP1 ISZERO PUSH2 0x2A43 JUMPI POP PUSH1 0x7 DUP3 GT ISZERO JUMPDEST PUSH2 0x2AAC JUMPI PUSH1 0x40 MLOAD PUSH3 0x461BCD PUSH1 0xE5 SHL DUP2 MSTORE PUSH1 0x20 PUSH1 0x4 DUP3 ADD MSTORE PUSH1 0x34 PUSH1 0x24 DUP3 ADD MSTORE PUSH32 0x4E6F726D616C20546F6B656E20526172697479206D757374732062652066726F PUSH1 0x44 DUP3 ADD MSTORE PUSH20 0x1B4810D3D35353D3881D1BC8135655121250D053 PUSH1 0x62 SHL PUSH1 0x64 DUP3 ADD MSTORE PUSH1 0x84 ADD PUSH2 0x886 JUMP JUMPDEST PUSH2 0x2B95 JUMP JUMPDEST PUSH1 0x3 DUP5 EQ PUSH2 0x2B11 JUMPI PUSH1 0x40 MLOAD PUSH3 0x461BCD PUSH1 0xE5 SHL DUP2 MSTORE PUSH1 0x20 PUSH1 0x4 DUP3 ADD MSTORE PUSH1 0x27 PUSH1 0x24 DUP3 ADD MSTORE PUSH32 0x426164676520546F6B656E2046616374696F6E206D75737420626520554E5350 PUSH1 0x44 DUP3 ADD MSTORE PUSH7 0x1150D251925151 PUSH1 0xCA SHL PUSH1 0x64 DUP3 ADD MSTORE PUSH1 0x84 ADD PUSH2 0x886 JUMP JUMPDEST PUSH1 0x8 DUP3 LT ISZERO DUP1 ISZERO PUSH2 0x2B23 JUMPI POP PUSH1 0xC DUP3 GT ISZERO JUMPDEST PUSH2 0x2B95 JUMPI PUSH1 0x40 MLOAD PUSH3 0x461BCD PUSH1 0xE5 SHL DUP2 MSTORE PUSH1 0x20 PUSH1 0x4 DUP3 ADD MSTORE PUSH1 0x38 PUSH1 0x24 DUP3 ADD MSTORE PUSH32 0x426164676520546F6B656E20526172697479206D757374732062652066726F6D PUSH1 0x44 DUP3 ADD MSTORE PUSH32 0x2042524F4E5A4520746F20424C41434B5F4449414D4F4E440000000000000000 PUSH1 0x64 DUP3 ADD MSTORE PUSH1 0x84 ADD PUSH2 0x886 JUMP JUMPDEST PUSH1 0x1 DUP5 EQ ISZERO PUSH2 0x2C27 JUMPI PUSH1 0x1 DUP4 LT ISZERO DUP1 ISZERO PUSH2 0x2BB0 JUMPI POP PUSH1 0x3 DUP4 GT ISZERO JUMPDEST PUSH2 0x2C22 JUMPI PUSH1 0x40 MLOAD PUSH3 0x461BCD PUSH1 0xE5 SHL DUP2 MSTORE PUSH1 0x20 PUSH1 0x4 DUP3 ADD MSTORE PUSH1 0x3B PUSH1 0x24 DUP3 ADD MSTORE PUSH32 0x5355525649564F525320546F6B656E2043617465676F7279206D757374206265 PUSH1 0x44 DUP3 ADD MSTORE PUSH32 0x2066726F6D20574541504F4E5320746F2041434345534F524945530000000000 PUSH1 0x64 DUP3 ADD MSTORE PUSH1 0x84 ADD PUSH2 0x886 JUMP JUMPDEST PUSH2 0x2CC6 JUMP JUMPDEST PUSH1 0x2 DUP5 EQ ISZERO PUSH2 0x2CC6 JUMPI PUSH1 0x4 DUP4 LT ISZERO DUP1 ISZERO PUSH2 0x2C42 JUMPI POP PUSH1 0x6 DUP4 GT ISZERO JUMPDEST PUSH2 0x2CC6 JUMPI PUSH1 0x40 MLOAD PUSH3 0x461BCD PUSH1 0xE5 SHL DUP2 MSTORE PUSH1 0x20 PUSH1 0x4 DUP3 ADD MSTORE PUSH1 0x49 PUSH1 0x24 DUP3 ADD MSTORE PUSH32 0x534349454E544953545320546F6B656E2043617465676F7279206D7573742062 PUSH1 0x44 DUP3 ADD MSTORE PUSH32 0x652066726F6D20564952555345535F424143544552494120746F205649525553 PUSH1 0x64 DUP3 ADD MSTORE PUSH9 0x5F56415249414E5453 PUSH1 0xB8 SHL PUSH1 0x84 DUP3 ADD MSTORE PUSH1 0xA4 ADD PUSH2 0x886 JUMP JUMPDEST PUSH1 0x0 DUP2 GT PUSH2 0x2D16 JUMPI PUSH1 0x40 MLOAD PUSH3 0x461BCD PUSH1 0xE5 SHL DUP2 MSTORE PUSH1 0x20 PUSH1 0x4 DUP3 ADD MSTORE PUSH1 0x1F PUSH1 0x24 DUP3 ADD MSTORE PUSH32 0x5072696365206D7573742062652067726561746572207468616E207A65726F00 PUSH1 0x44 DUP3 ADD MSTORE PUSH1 0x64 ADD PUSH2 0x886 JUMP JUMPDEST PUSH1 0x0 JUMPDEST DUP6 DUP2 LT ISZERO PUSH2 0x2F08 JUMPI PUSH1 0x10 DUP1 SLOAD SWAP1 PUSH1 0x0 PUSH2 0x2D31 DUP4 PUSH2 0x4446 JUMP JUMPDEST SWAP2 SWAP1 POP SSTORE POP PUSH2 0x2D53 PUSH2 0x2D4B PUSH1 0xA SLOAD PUSH1 0x1 PUSH1 0x1 PUSH1 0xA0 SHL SUB AND SWAP1 JUMP JUMPDEST PUSH1 0x10 SLOAD PUSH2 0x341C JUMP JUMPDEST PUSH1 0x0 PUSH1 0x40 MLOAD DUP1 PUSH1 0xE0 ADD PUSH1 0x40 MSTORE DUP1 PUSH1 0x10 SLOAD DUP2 MSTORE PUSH1 0x20 ADD DUP5 DUP2 MSTORE PUSH1 0x20 ADD PUSH1 0x64 DUP2 MSTORE PUSH1 0x20 ADD PUSH1 0x1 PUSH1 0x4 DUP2 GT ISZERO PUSH2 0x2D88 JUMPI PUSH2 0x2D88 PUSH2 0x44A1 JUMP JUMPDEST DUP2 MSTORE PUSH1 0x20 ADD DUP8 PUSH1 0x3 DUP2 GT ISZERO PUSH2 0x2D9F JUMPI PUSH2 0x2D9F PUSH2 0x44A1 JUMP JUMPDEST PUSH1 0x3 DUP2 GT ISZERO PUSH2 0x2DB0 JUMPI PUSH2 0x2DB0 PUSH2 0x44A1 JUMP JUMPDEST DUP2 MSTORE PUSH1 0x20 ADD DUP7 PUSH1 0x7 DUP2 GT ISZERO PUSH2 0x2DC7 JUMPI PUSH2 0x2DC7 PUSH2 0x44A1 JUMP JUMPDEST PUSH1 0x7 DUP2 GT ISZERO PUSH2 0x2DD8 JUMPI PUSH2 0x2DD8 PUSH2 0x44A1 JUMP JUMPDEST DUP2 MSTORE PUSH1 0x20 ADD DUP6 PUSH1 0xC DUP2 GT ISZERO PUSH2 0x2DEF JUMPI PUSH2 0x2DEF PUSH2 0x44A1 JUMP JUMPDEST PUSH1 0xC DUP2 GT ISZERO PUSH2 0x2E00 JUMPI PUSH2 0x2E00 PUSH2 0x44A1 JUMP JUMPDEST DUP2 MSTORE POP SWAP1 POP DUP1 PUSH1 0xD PUSH1 0x0 PUSH1 0x10 SLOAD DUP2 MSTORE PUSH1 0x20 ADD SWAP1 DUP2 MSTORE PUSH1 0x20 ADD PUSH1 0x0 KECCAK256 PUSH1 0x0 DUP3 ADD MLOAD DUP2 PUSH1 0x0 ADD SSTORE PUSH1 0x20 DUP3 ADD MLOAD DUP2 PUSH1 0x1 ADD SSTORE PUSH1 0x40 DUP3 ADD MLOAD DUP2 PUSH1 0x2 ADD SSTORE PUSH1 0x60 DUP3 ADD MLOAD DUP2 PUSH1 0x3 ADD PUSH1 0x0 PUSH2 0x100 EXP DUP2 SLOAD DUP2 PUSH1 0xFF MUL NOT AND SWAP1 DUP4 PUSH1 0x4 DUP2 GT ISZERO PUSH2 0x2E63 JUMPI PUSH2 0x2E63 PUSH2 0x44A1 JUMP JUMPDEST MUL OR SWAP1 SSTORE POP PUSH1 0x80 DUP3 ADD MLOAD DUP2 PUSH1 0x3 ADD PUSH1 0x1 PUSH2 0x100 EXP DUP2 SLOAD DUP2 PUSH1 0xFF MUL NOT AND SWAP1 DUP4 PUSH1 0x3 DUP2 GT ISZERO PUSH2 0x2E92 JUMPI PUSH2 0x2E92 PUSH2 0x44A1 JUMP JUMPDEST MUL OR SWAP1 SSTORE POP PUSH1 0xA0 DUP3 ADD MLOAD PUSH1 0x3 DUP3 ADD DUP1 SLOAD PUSH3 0xFF0000 NOT AND PUSH3 0x10000 DUP4 PUSH1 0x7 DUP2 GT ISZERO PUSH2 0x2EBE JUMPI PUSH2 0x2EBE PUSH2 0x44A1 JUMP JUMPDEST MUL OR SWAP1 SSTORE POP PUSH1 0xC0 DUP3 ADD MLOAD PUSH1 0x3 DUP3 ADD DUP1 SLOAD PUSH4 0xFF000000 NOT AND PUSH4 0x1000000 DUP4 PUSH1 0xC DUP2 GT ISZERO PUSH2 0x2EEC JUMPI PUSH2 0x2EEC PUSH2 0x44A1 JUMP JUMPDEST MUL OR SWAP1 SSTORE POP SWAP1 POP POP POP DUP1 DUP1 PUSH2 0x2F00 SWAP1 PUSH2 0x4446 JUMP JUMPDEST SWAP2 POP POP PUSH2 0x2D19 JUMP JUMPDEST POP POP PUSH1 0x1 PUSH1 0xB SSTORE POP POP POP POP JUMP JUMPDEST PUSH1 0x60 PUSH1 0x0 PUSH2 0x2F22 DUP4 PUSH2 0x3436 JUMP JUMPDEST SWAP1 POP PUSH1 0x0 DUP2 MLOAD GT PUSH2 0x2F42 JUMPI PUSH1 0x40 MLOAD DUP1 PUSH1 0x20 ADD PUSH1 0x40 MSTORE DUP1 PUSH1 0x0 DUP2 MSTORE POP PUSH2 0x2F63 JUMP JUMPDEST DUP1 PUSH1 0x40 MLOAD PUSH1 0x20 ADD PUSH2 0x2F53 SWAP2 SWAP1 PUSH2 0x404D JUMP JUMPDEST PUSH1 0x40 MLOAD PUSH1 0x20 DUP2 DUP4 SUB SUB DUP2 MSTORE SWAP1 PUSH1 0x40 MSTORE JUMPDEST SWAP4 SWAP3 POP POP POP JUMP JUMPDEST PUSH1 0xA SLOAD PUSH1 0x1 PUSH1 0x1 PUSH1 0xA0 SHL SUB AND CALLER EQ PUSH2 0x2F94 JUMPI PUSH1 0x40 MLOAD PUSH3 0x461BCD PUSH1 0xE5 SHL DUP2 MSTORE PUSH1 0x4 ADD PUSH2 0x886 SWAP1 PUSH2 0x41D0 JUMP JUMPDEST PUSH1 0xC DUP1 SLOAD PUSH1 0xFF NOT AND PUSH1 0x1 OR SWAP1 SSTORE JUMP JUMPDEST PUSH1 0xA SLOAD PUSH1 0x1 PUSH1 0x1 PUSH1 0xA0 SHL SUB AND CALLER EQ PUSH2 0x2FCD JUMPI PUSH1 0x40 MLOAD PUSH3 0x461BCD PUSH1 0xE5 SHL DUP2 MSTORE PUSH1 0x4 ADD PUSH2 0x886 SWAP1 PUSH2 0x41D0 JUMP JUMPDEST PUSH1 0x1 PUSH1 0x1 PUSH1 0xA0 SHL SUB DUP2 AND PUSH2 0x3032 JUMPI PUSH1 0x40 MLOAD PUSH3 0x461BCD PUSH1 0xE5 SHL DUP2 MSTORE PUSH1 0x20 PUSH1 0x4 DUP3 ADD MSTORE PUSH1 0x26 PUSH1 0x24 DUP3 ADD MSTORE PUSH32 0x4F776E61626C653A206E6577206F776E657220697320746865207A65726F2061 PUSH1 0x44 DUP3 ADD MSTORE PUSH6 0x646472657373 PUSH1 0xD0 SHL PUSH1 0x64 DUP3 ADD MSTORE PUSH1 0x84 ADD PUSH2 0x886 JUMP JUMPDEST PUSH2 0x13B9 DUP2 PUSH2 0x3397 JUMP JUMPDEST PUSH1 0x0 PUSH1 0x1 PUSH1 0x1 PUSH1 0xE0 SHL SUB NOT DUP3 AND PUSH4 0x780E9D63 PUSH1 0xE0 SHL EQ DUP1 PUSH2 0x786 JUMPI POP PUSH2 0x786 DUP3 PUSH2 0x34EA JUMP JUMPDEST PUSH1 0x0 SWAP1 DUP2 MSTORE PUSH1 0x2 PUSH1 0x20 MSTORE PUSH1 0x40 SWAP1 KECCAK256 SLOAD PUSH1 0x1 PUSH1 0x1 PUSH1 0xA0 SHL SUB AND ISZERO ISZERO SWAP1 JUMP JUMPDEST PUSH1 0x0 DUP2 DUP2 MSTORE PUSH1 0x4 PUSH1 0x20 MSTORE PUSH1 0x40 SWAP1 KECCAK256 DUP1 SLOAD PUSH1 0x1 PUSH1 0x1 PUSH1 0xA0 SHL SUB NOT AND PUSH1 0x1 PUSH1 0x1 PUSH1 0xA0 SHL SUB DUP5 AND SWAP1 DUP2 OR SWAP1 SWAP2 SSTORE DUP2 SWAP1 PUSH2 0x30B2 DUP3 PUSH2 0x1618 JUMP JUMPDEST PUSH1 0x1 PUSH1 0x1 PUSH1 0xA0 SHL SUB AND PUSH32 0x8C5BE1E5EBEC7D5BD14F71427D1E84F3DD0314C0F7B2291E5B200AC8C7C3B925 PUSH1 0x40 MLOAD PUSH1 0x40 MLOAD DUP1 SWAP2 SUB SWAP1 LOG4 POP POP JUMP JUMPDEST PUSH1 0x0 PUSH2 0x30F6 DUP3 PUSH2 0x3060 JUMP JUMPDEST PUSH2 0x3157 JUMPI PUSH1 0x40 MLOAD PUSH3 0x461BCD PUSH1 0xE5 SHL DUP2 MSTORE PUSH1 0x20 PUSH1 0x4 DUP3 ADD MSTORE PUSH1 0x2C PUSH1 0x24 DUP3 ADD MSTORE PUSH32 0x4552433732313A206F70657261746F7220717565727920666F72206E6F6E6578 PUSH1 0x44 DUP3 ADD MSTORE PUSH12 0x34B9BA32B73A103A37B5B2B7 PUSH1 0xA1 SHL PUSH1 0x64 DUP3 ADD MSTORE PUSH1 0x84 ADD PUSH2 0x886 JUMP JUMPDEST PUSH1 0x0 PUSH2 0x3162 DUP4 PUSH2 0x1618 JUMP JUMPDEST SWAP1 POP DUP1 PUSH1 0x1 PUSH1 0x1 PUSH1 0xA0 SHL SUB AND DUP5 PUSH1 0x1 PUSH1 0x1 PUSH1 0xA0 SHL SUB AND EQ DUP1 PUSH2 0x319D JUMPI POP DUP4 PUSH1 0x1 PUSH1 0x1 PUSH1 0xA0 SHL SUB AND PUSH2 0x3192 DUP5 PUSH2 0x81E JUMP JUMPDEST PUSH1 0x1 PUSH1 0x1 PUSH1 0xA0 SHL SUB AND EQ JUMPDEST DUP1 PUSH2 0x31CD JUMPI POP PUSH1 0x1 PUSH1 0x1 PUSH1 0xA0 SHL SUB DUP1 DUP3 AND PUSH1 0x0 SWAP1 DUP2 MSTORE PUSH1 0x5 PUSH1 0x20 SWAP1 DUP2 MSTORE PUSH1 0x40 DUP1 DUP4 KECCAK256 SWAP4 DUP9 AND DUP4 MSTORE SWAP3 SWAP1 MSTORE KECCAK256 SLOAD PUSH1 0xFF AND JUMPDEST SWAP5 SWAP4 POP POP POP POP JUMP JUMPDEST DUP3 PUSH1 0x1 PUSH1 0x1 PUSH1 0xA0 SHL SUB AND PUSH2 0x31E8 DUP3 PUSH2 0x1618 JUMP JUMPDEST PUSH1 0x1 PUSH1 0x1 PUSH1 0xA0 SHL SUB AND EQ PUSH2 0x3250 JUMPI PUSH1 0x40 MLOAD PUSH3 0x461BCD PUSH1 0xE5 SHL DUP2 MSTORE PUSH1 0x20 PUSH1 0x4 DUP3 ADD MSTORE PUSH1 0x29 PUSH1 0x24 DUP3 ADD MSTORE PUSH32 0x4552433732313A207472616E73666572206F6620746F6B656E20746861742069 PUSH1 0x44 DUP3 ADD MSTORE PUSH9 0x39903737BA1037BBB7 PUSH1 0xB9 SHL PUSH1 0x64 DUP3 ADD MSTORE PUSH1 0x84 ADD PUSH2 0x886 JUMP JUMPDEST PUSH1 0x1 PUSH1 0x1 PUSH1 0xA0 SHL SUB DUP3 AND PUSH2 0x32B2 JUMPI PUSH1 0x40 MLOAD PUSH3 0x461BCD PUSH1 0xE5 SHL DUP2 MSTORE PUSH1 0x20 PUSH1 0x4 DUP3 ADD MSTORE PUSH1 0x24 DUP1 DUP3 ADD MSTORE PUSH32 0x4552433732313A207472616E7366657220746F20746865207A65726F20616464 PUSH1 0x44 DUP3 ADD MSTORE PUSH4 0x72657373 PUSH1 0xE0 SHL PUSH1 0x64 DUP3 ADD MSTORE PUSH1 0x84 ADD PUSH2 0x886 JUMP JUMPDEST PUSH2 0x32BD DUP4 DUP4 DUP4 PUSH2 0x353A JUMP JUMPDEST PUSH2 0x32C8 PUSH1 0x0 DUP3 PUSH2 0x307D JUMP JUMPDEST PUSH1 0x1 PUSH1 0x1 PUSH1 0xA0 SHL SUB DUP4 AND PUSH1 0x0 SWAP1 DUP2 MSTORE PUSH1 0x3 PUSH1 0x20 MSTORE PUSH1 0x40 DUP2 KECCAK256 DUP1 SLOAD PUSH1 0x1 SWAP3 SWAP1 PUSH2 0x32F1 SWAP1 DUP5 SWAP1 PUSH2 0x43CE JUMP JUMPDEST SWAP1 SWAP2 SSTORE POP POP PUSH1 0x1 PUSH1 0x1 PUSH1 0xA0 SHL SUB DUP3 AND PUSH1 0x0 SWAP1 DUP2 MSTORE PUSH1 0x3 PUSH1 0x20 MSTORE PUSH1 0x40 DUP2 KECCAK256 DUP1 SLOAD PUSH1 0x1 SWAP3 SWAP1 PUSH2 0x331F SWAP1 DUP5 SWAP1 PUSH2 0x43A2 JUMP JUMPDEST SWAP1 SWAP2 SSTORE POP POP PUSH1 0x0 DUP2 DUP2 MSTORE PUSH1 0x2 PUSH1 0x20 MSTORE PUSH1 0x40 DUP1 DUP3 KECCAK256 DUP1 SLOAD PUSH1 0x1 PUSH1 0x1 PUSH1 0xA0 SHL SUB NOT AND PUSH1 0x1 PUSH1 0x1 PUSH1 0xA0 SHL SUB DUP7 DUP2 AND SWAP2 DUP3 OR SWAP1 SWAP3 SSTORE SWAP2 MLOAD DUP5 SWAP4 SWAP2 DUP8 AND SWAP2 PUSH32 0xDDF252AD1BE2C89B69C2B068FC378DAA952BA7F163C4A11628F55A4DF523B3EF SWAP2 LOG4 POP POP POP JUMP JUMPDEST DUP1 MLOAD PUSH2 0x3393 SWAP1 PUSH1 0xF SWAP1 PUSH1 0x20 DUP5 ADD SWAP1 PUSH2 0x3BCD JUMP JUMPDEST POP POP JUMP JUMPDEST PUSH1 0xA DUP1 SLOAD PUSH1 0x1 PUSH1 0x1 PUSH1 0xA0 SHL SUB DUP4 DUP2 AND PUSH1 0x1 PUSH1 0x1 PUSH1 0xA0 SHL SUB NOT DUP4 AND DUP2 OR SWAP1 SWAP4 SSTORE PUSH1 0x40 MLOAD SWAP2 AND SWAP2 SWAP1 DUP3 SWAP1 PUSH32 0x8BE0079C531659141344CD1FD0A4F28419497F9722A3DAAFE3B4186F6B6457E0 SWAP1 PUSH1 0x0 SWAP1 LOG3 POP POP JUMP JUMPDEST PUSH2 0x33F4 DUP5 DUP5 DUP5 PUSH2 0x31D5 JUMP JUMPDEST PUSH2 0x3400 DUP5 DUP5 DUP5 DUP5 PUSH2 0x3545 JUMP JUMPDEST PUSH2 0x24C5 JUMPI PUSH1 0x40 MLOAD PUSH3 0x461BCD PUSH1 0xE5 SHL DUP2 MSTORE PUSH1 0x4 ADD PUSH2 0x886 SWAP1 PUSH2 0x412C JUMP JUMPDEST PUSH2 0x3393 DUP3 DUP3 PUSH1 0x40 MLOAD DUP1 PUSH1 0x20 ADD PUSH1 0x40 MSTORE DUP1 PUSH1 0x0 DUP2 MSTORE POP PUSH2 0x3652 JUMP JUMPDEST PUSH1 0x60 PUSH2 0x3441 DUP3 PUSH2 0x3060 JUMP JUMPDEST PUSH2 0x34A5 JUMPI PUSH1 0x40 MLOAD PUSH3 0x461BCD PUSH1 0xE5 SHL DUP2 MSTORE PUSH1 0x20 PUSH1 0x4 DUP3 ADD MSTORE PUSH1 0x2F PUSH1 0x24 DUP3 ADD MSTORE PUSH32 0x4552433732314D657461646174613A2055524920717565727920666F72206E6F PUSH1 0x44 DUP3 ADD MSTORE PUSH15 0x3732BC34B9BA32B73A103A37B5B2B7 PUSH1 0x89 SHL PUSH1 0x64 DUP3 ADD MSTORE PUSH1 0x84 ADD PUSH2 0x886 JUMP JUMPDEST PUSH1 0x0 PUSH2 0x34AF PUSH2 0x3685 JUMP JUMPDEST SWAP1 POP PUSH1 0x0 DUP2 MLOAD GT PUSH2 0x34CF JUMPI PUSH1 0x40 MLOAD DUP1 PUSH1 0x20 ADD PUSH1 0x40 MSTORE DUP1 PUSH1 0x0 DUP2 MSTORE POP PUSH2 0x2F63 JUMP JUMPDEST DUP1 PUSH2 0x34D9 DUP5 PUSH2 0x3694 JUMP JUMPDEST PUSH1 0x40 MLOAD PUSH1 0x20 ADD PUSH2 0x2F53 SWAP3 SWAP2 SWAP1 PUSH2 0x4069 JUMP JUMPDEST PUSH1 0x0 PUSH1 0x1 PUSH1 0x1 PUSH1 0xE0 SHL SUB NOT DUP3 AND PUSH4 0x80AC58CD PUSH1 0xE0 SHL EQ DUP1 PUSH2 0x351B JUMPI POP PUSH1 0x1 PUSH1 0x1 PUSH1 0xE0 SHL SUB NOT DUP3 AND PUSH4 0x5B5E139F PUSH1 0xE0 SHL EQ JUMPDEST DUP1 PUSH2 0x786 JUMPI POP PUSH4 0x1FFC9A7 PUSH1 0xE0 SHL PUSH1 0x1 PUSH1 0x1 PUSH1 0xE0 SHL SUB NOT DUP4 AND EQ PUSH2 0x786 JUMP JUMPDEST PUSH2 0x9BC DUP4 DUP4 DUP4 PUSH2 0x3792 JUMP JUMPDEST PUSH1 0x0 PUSH1 0x1 PUSH1 0x1 PUSH1 0xA0 SHL SUB DUP5 AND EXTCODESIZE ISZERO PUSH2 0x3647 JUMPI PUSH1 0x40 MLOAD PUSH4 0xA85BD01 PUSH1 0xE1 SHL DUP2 MSTORE PUSH1 0x1 PUSH1 0x1 PUSH1 0xA0 SHL SUB DUP6 AND SWAP1 PUSH4 0x150B7A02 SWAP1 PUSH2 0x3589 SWAP1 CALLER SWAP1 DUP10 SWAP1 DUP9 SWAP1 DUP9 SWAP1 PUSH1 0x4 ADD PUSH2 0x4098 JUMP JUMPDEST PUSH1 0x20 PUSH1 0x40 MLOAD DUP1 DUP4 SUB DUP2 PUSH1 0x0 DUP8 DUP1 EXTCODESIZE ISZERO DUP1 ISZERO PUSH2 0x35A3 JUMPI PUSH1 0x0 DUP1 REVERT JUMPDEST POP GAS CALL SWAP3 POP POP POP DUP1 ISZERO PUSH2 0x35D3 JUMPI POP PUSH1 0x40 DUP1 MLOAD PUSH1 0x1F RETURNDATASIZE SWAP1 DUP2 ADD PUSH1 0x1F NOT AND DUP3 ADD SWAP1 SWAP3 MSTORE PUSH2 0x35D0 SWAP2 DUP2 ADD SWAP1 PUSH2 0x3E53 JUMP JUMPDEST PUSH1 0x1 JUMPDEST PUSH2 0x362D JUMPI RETURNDATASIZE DUP1 DUP1 ISZERO PUSH2 0x3601 JUMPI PUSH1 0x40 MLOAD SWAP2 POP PUSH1 0x1F NOT PUSH1 0x3F RETURNDATASIZE ADD AND DUP3 ADD PUSH1 0x40 MSTORE RETURNDATASIZE DUP3 MSTORE RETURNDATASIZE PUSH1 0x0 PUSH1 0x20 DUP5 ADD RETURNDATACOPY PUSH2 0x3606 JUMP JUMPDEST PUSH1 0x60 SWAP2 POP JUMPDEST POP DUP1 MLOAD PUSH2 0x3625 JUMPI PUSH1 0x40 MLOAD PUSH3 0x461BCD PUSH1 0xE5 SHL DUP2 MSTORE PUSH1 0x4 ADD PUSH2 0x886 SWAP1 PUSH2 0x412C JUMP JUMPDEST DUP1 MLOAD DUP2 PUSH1 0x20 ADD REVERT JUMPDEST PUSH1 0x1 PUSH1 0x1 PUSH1 0xE0 SHL SUB NOT AND PUSH4 0xA85BD01 PUSH1 0xE1 SHL EQ SWAP1 POP PUSH2 0x31CD JUMP JUMPDEST POP PUSH1 0x1 SWAP5 SWAP4 POP POP POP POP JUMP JUMPDEST PUSH2 0x365C DUP4 DUP4 PUSH2 0x384A JUMP JUMPDEST PUSH2 0x3669 PUSH1 0x0 DUP5 DUP5 DUP5 PUSH2 0x3545 JUMP JUMPDEST PUSH2 0x9BC JUMPI PUSH1 0x40 MLOAD PUSH3 0x461BCD PUSH1 0xE5 SHL DUP2 MSTORE PUSH1 0x4 ADD PUSH2 0x886 SWAP1 PUSH2 0x412C JUMP JUMPDEST PUSH1 0x60 PUSH1 0xF DUP1 SLOAD PUSH2 0x79B SWAP1 PUSH2 0x4411 JUMP JUMPDEST PUSH1 0x60 DUP2 PUSH2 0x36B8 JUMPI POP POP PUSH1 0x40 DUP1 MLOAD DUP1 DUP3 ADD SWAP1 SWAP2 MSTORE PUSH1 0x1 DUP2 MSTORE PUSH1 0x3 PUSH1 0xFC SHL PUSH1 0x20 DUP3 ADD MSTORE SWAP1 JUMP JUMPDEST DUP2 PUSH1 0x0 JUMPDEST DUP2 ISZERO PUSH2 0x36E2 JUMPI DUP1 PUSH2 0x36CC DUP2 PUSH2 0x4446 JUMP JUMPDEST SWAP2 POP PUSH2 0x36DB SWAP1 POP PUSH1 0xA DUP4 PUSH2 0x43BA JUMP JUMPDEST SWAP2 POP PUSH2 0x36BC JUMP JUMPDEST PUSH1 0x0 DUP2 PUSH8 0xFFFFFFFFFFFFFFFF DUP2 GT ISZERO PUSH2 0x36FD JUMPI PUSH2 0x36FD PUSH2 0x44E3 JUMP JUMPDEST PUSH1 0x40 MLOAD SWAP1 DUP1 DUP3 MSTORE DUP1 PUSH1 0x1F ADD PUSH1 0x1F NOT AND PUSH1 0x20 ADD DUP3 ADD PUSH1 0x40 MSTORE DUP1 ISZERO PUSH2 0x3727 JUMPI PUSH1 0x20 DUP3 ADD DUP2 DUP1 CALLDATASIZE DUP4 CALLDATACOPY ADD SWAP1 POP JUMPDEST POP SWAP1 POP JUMPDEST DUP5 ISZERO PUSH2 0x31CD JUMPI PUSH2 0x373C PUSH1 0x1 DUP4 PUSH2 0x43CE JUMP JUMPDEST SWAP2 POP PUSH2 0x3749 PUSH1 0xA DUP7 PUSH2 0x4461 JUMP JUMPDEST PUSH2 0x3754 SWAP1 PUSH1 0x30 PUSH2 0x43A2 JUMP JUMPDEST PUSH1 0xF8 SHL DUP2 DUP4 DUP2 MLOAD DUP2 LT PUSH2 0x3769 JUMPI PUSH2 0x3769 PUSH2 0x44CD JUMP JUMPDEST PUSH1 0x20 ADD ADD SWAP1 PUSH1 0x1 PUSH1 0x1 PUSH1 0xF8 SHL SUB NOT AND SWAP1 DUP2 PUSH1 0x0 BYTE SWAP1 MSTORE8 POP PUSH2 0x378B PUSH1 0xA DUP7 PUSH2 0x43BA JUMP JUMPDEST SWAP5 POP PUSH2 0x372B JUMP JUMPDEST PUSH1 0x1 PUSH1 0x1 PUSH1 0xA0 SHL SUB DUP4 AND PUSH2 0x37ED JUMPI PUSH2 0x37E8 DUP2 PUSH1 0x8 DUP1 SLOAD PUSH1 0x0 DUP4 DUP2 MSTORE PUSH1 0x9 PUSH1 0x20 MSTORE PUSH1 0x40 DUP2 KECCAK256 DUP3 SWAP1 SSTORE PUSH1 0x1 DUP3 ADD DUP4 SSTORE SWAP2 SWAP1 SWAP2 MSTORE PUSH32 0xF3F7A9FE364FAAB93B216DA50A3214154F22A0A2B415B23A84C8169E8B636EE3 ADD SSTORE JUMP JUMPDEST PUSH2 0x3810 JUMP JUMPDEST DUP2 PUSH1 0x1 PUSH1 0x1 PUSH1 0xA0 SHL SUB AND DUP4 PUSH1 0x1 PUSH1 0x1 PUSH1 0xA0 SHL SUB AND EQ PUSH2 0x3810 JUMPI PUSH2 0x3810 DUP4 DUP3 PUSH2 0x3989 JUMP JUMPDEST PUSH1 0x1 PUSH1 0x1 PUSH1 0xA0 SHL SUB DUP3 AND PUSH2 0x3827 JUMPI PUSH2 0x9BC DUP2 PUSH2 0x3A26 JUMP JUMPDEST DUP3 PUSH1 0x1 PUSH1 0x1 PUSH1 0xA0 SHL SUB AND DUP3 PUSH1 0x1 PUSH1 0x1 PUSH1 0xA0 SHL SUB AND EQ PUSH2 0x9BC JUMPI PUSH2 0x9BC DUP3 DUP3 PUSH2 0x3AD5 JUMP JUMPDEST PUSH1 0x1 PUSH1 0x1 PUSH1 0xA0 SHL SUB DUP3 AND PUSH2 0x38A0 JUMPI PUSH1 0x40 MLOAD PUSH3 0x461BCD PUSH1 0xE5 SHL DUP2 MSTORE PUSH1 0x20 PUSH1 0x4 DUP3 ADD DUP2 SWAP1 MSTORE PUSH1 0x24 DUP3 ADD MSTORE PUSH32 0x4552433732313A206D696E7420746F20746865207A65726F2061646472657373 PUSH1 0x44 DUP3 ADD MSTORE PUSH1 0x64 ADD PUSH2 0x886 JUMP JUMPDEST PUSH2 0x38A9 DUP2 PUSH2 0x3060 JUMP JUMPDEST ISZERO PUSH2 0x38F6 JUMPI PUSH1 0x40 MLOAD PUSH3 0x461BCD PUSH1 0xE5 SHL DUP2 MSTORE PUSH1 0x20 PUSH1 0x4 DUP3 ADD MSTORE PUSH1 0x1C PUSH1 0x24 DUP3 ADD MSTORE PUSH32 0x4552433732313A20746F6B656E20616C7265616479206D696E74656400000000 PUSH1 0x44 DUP3 ADD MSTORE PUSH1 0x64 ADD PUSH2 0x886 JUMP JUMPDEST PUSH2 0x3902 PUSH1 0x0 DUP4 DUP4 PUSH2 0x353A JUMP JUMPDEST PUSH1 0x1 PUSH1 0x1 PUSH1 0xA0 SHL SUB DUP3 AND PUSH1 0x0 SWAP1 DUP2 MSTORE PUSH1 0x3 PUSH1 0x20 MSTORE PUSH1 0x40 DUP2 KECCAK256 DUP1 SLOAD PUSH1 0x1 SWAP3 SWAP1 PUSH2 0x392B SWAP1 DUP5 SWAP1 PUSH2 0x43A2 JUMP JUMPDEST SWAP1 SWAP2 SSTORE POP POP PUSH1 0x0 DUP2 DUP2 MSTORE PUSH1 0x2 PUSH1 0x20 MSTORE PUSH1 0x40 DUP1 DUP3 KECCAK256 DUP1 SLOAD PUSH1 0x1 PUSH1 0x1 PUSH1 0xA0 SHL SUB NOT AND PUSH1 0x1 PUSH1 0x1 PUSH1 0xA0 SHL SUB DUP7 AND SWAP1 DUP2 OR SWAP1 SWAP2 SSTORE SWAP1 MLOAD DUP4 SWAP3 SWAP1 PUSH32 0xDDF252AD1BE2C89B69C2B068FC378DAA952BA7F163C4A11628F55A4DF523B3EF SWAP1 DUP3 SWAP1 LOG4 POP POP JUMP JUMPDEST PUSH1 0x0 PUSH1 0x1 PUSH2 0x3996 DUP5 PUSH2 0x168F JUMP JUMPDEST PUSH2 0x39A0 SWAP2 SWAP1 PUSH2 0x43CE JUMP JUMPDEST PUSH1 0x0 DUP4 DUP2 MSTORE PUSH1 0x7 PUSH1 0x20 MSTORE PUSH1 0x40 SWAP1 KECCAK256 SLOAD SWAP1 SWAP2 POP DUP1 DUP3 EQ PUSH2 0x39F3 JUMPI PUSH1 0x1 PUSH1 0x1 PUSH1 0xA0 SHL SUB DUP5 AND PUSH1 0x0 SWAP1 DUP2 MSTORE PUSH1 0x6 PUSH1 0x20 SWAP1 DUP2 MSTORE PUSH1 0x40 DUP1 DUP4 KECCAK256 DUP6 DUP5 MSTORE DUP3 MSTORE DUP1 DUP4 KECCAK256 SLOAD DUP5 DUP5 MSTORE DUP2 DUP5 KECCAK256 DUP2 SWAP1 SSTORE DUP4 MSTORE PUSH1 0x7 SWAP1 SWAP2 MSTORE SWAP1 KECCAK256 DUP2 SWAP1 SSTORE JUMPDEST POP PUSH1 0x0 SWAP2 DUP3 MSTORE PUSH1 0x7 PUSH1 0x20 SWAP1 DUP2 MSTORE PUSH1 0x40 DUP1 DUP5 KECCAK256 DUP5 SWAP1 SSTORE PUSH1 0x1 PUSH1 0x1 PUSH1 0xA0 SHL SUB SWAP1 SWAP5 AND DUP4 MSTORE PUSH1 0x6 DUP2 MSTORE DUP4 DUP4 KECCAK256 SWAP2 DUP4 MSTORE MSTORE SWAP1 DUP2 KECCAK256 SSTORE JUMP JUMPDEST PUSH1 0x8 SLOAD PUSH1 0x0 SWAP1 PUSH2 0x3A38 SWAP1 PUSH1 0x1 SWAP1 PUSH2 0x43CE JUMP JUMPDEST PUSH1 0x0 DUP4 DUP2 MSTORE PUSH1 0x9 PUSH1 0x20 MSTORE PUSH1 0x40 DUP2 KECCAK256 SLOAD PUSH1 0x8 DUP1 SLOAD SWAP4 SWAP5 POP SWAP1 SWAP3 DUP5 SWAP1 DUP2 LT PUSH2 0x3A60 JUMPI PUSH2 0x3A60 PUSH2 0x44CD JUMP JUMPDEST SWAP1 PUSH1 0x0 MSTORE PUSH1 0x20 PUSH1 0x0 KECCAK256 ADD SLOAD SWAP1 POP DUP1 PUSH1 0x8 DUP4 DUP2 SLOAD DUP2 LT PUSH2 0x3A81 JUMPI PUSH2 0x3A81 PUSH2 0x44CD JUMP JUMPDEST PUSH1 0x0 SWAP2 DUP3 MSTORE PUSH1 0x20 DUP1 DUP4 KECCAK256 SWAP1 SWAP2 ADD SWAP3 SWAP1 SWAP3 SSTORE DUP3 DUP2 MSTORE PUSH1 0x9 SWAP1 SWAP2 MSTORE PUSH1 0x40 DUP1 DUP3 KECCAK256 DUP5 SWAP1 SSTORE DUP6 DUP3 MSTORE DUP2 KECCAK256 SSTORE PUSH1 0x8 DUP1 SLOAD DUP1 PUSH2 0x3AB9 JUMPI PUSH2 0x3AB9 PUSH2 0x44B7 JUMP JUMPDEST PUSH1 0x1 SWAP1 SUB DUP2 DUP2 SWAP1 PUSH1 0x0 MSTORE PUSH1 0x20 PUSH1 0x0 KECCAK256 ADD PUSH1 0x0 SWAP1 SSTORE SWAP1 SSTORE POP POP POP POP JUMP JUMPDEST PUSH1 0x0 PUSH2 0x3AE0 DUP4 PUSH2 0x168F JUMP JUMPDEST PUSH1 0x1 PUSH1 0x1 PUSH1 0xA0 SHL SUB SWAP1 SWAP4 AND PUSH1 0x0 SWAP1 DUP2 MSTORE PUSH1 0x6 PUSH1 0x20 SWAP1 DUP2 MSTORE PUSH1 0x40 DUP1 DUP4 KECCAK256 DUP7 DUP5 MSTORE DUP3 MSTORE DUP1 DUP4 KECCAK256 DUP6 SWAP1 SSTORE SWAP4 DUP3 MSTORE PUSH1 0x7 SWAP1 MSTORE SWAP2 SWAP1 SWAP2 KECCAK256 SWAP2 SWAP1 SWAP2 SSTORE POP JUMP JUMPDEST DUP3 DUP1 SLOAD DUP3 DUP3 SSTORE SWAP1 PUSH1 0x0 MSTORE PUSH1 0x20 PUSH1 0x0 KECCAK256 SWAP1 PUSH1 0x1F ADD PUSH1 0x20 SWAP1 DIV DUP2 ADD SWAP3 DUP3 ISZERO PUSH2 0x3BBD JUMPI SWAP2 PUSH1 0x20 MUL DUP3 ADD PUSH1 0x0 JUMPDEST DUP4 DUP3 GT ISZERO PUSH2 0x3B8E JUMPI DUP4 MLOAD DUP4 DUP3 PUSH2 0x100 EXP DUP2 SLOAD DUP2 PUSH1 0xFF MUL NOT AND SWAP1 DUP4 PUSH1 0xC DUP2 GT ISZERO PUSH2 0x3B6D JUMPI PUSH2 0x3B6D PUSH2 0x44A1 JUMP JUMPDEST MUL OR SWAP1 SSTORE POP SWAP3 PUSH1 0x20 ADD SWAP3 PUSH1 0x1 ADD PUSH1 0x20 DUP2 PUSH1 0x0 ADD DIV SWAP3 DUP4 ADD SWAP3 PUSH1 0x1 SUB MUL PUSH2 0x3B42 JUMP JUMPDEST DUP1 ISZERO PUSH2 0x3BBB JUMPI DUP3 DUP2 PUSH2 0x100 EXP DUP2 SLOAD SWAP1 PUSH1 0xFF MUL NOT AND SWAP1 SSTORE PUSH1 0x1 ADD PUSH1 0x20 DUP2 PUSH1 0x0 ADD DIV SWAP3 DUP4 ADD SWAP3 PUSH1 0x1 SUB MUL PUSH2 0x3B8E JUMP JUMPDEST POP JUMPDEST POP PUSH2 0x3BC9 SWAP3 SWAP2 POP PUSH2 0x3C41 JUMP JUMPDEST POP SWAP1 JUMP JUMPDEST DUP3 DUP1 SLOAD PUSH2 0x3BD9 SWAP1 PUSH2 0x4411 JUMP JUMPDEST SWAP1 PUSH1 0x0 MSTORE PUSH1 0x20 PUSH1 0x0 KECCAK256 SWAP1 PUSH1 0x1F ADD PUSH1 0x20 SWAP1 DIV DUP2 ADD SWAP3 DUP3 PUSH2 0x3BFB JUMPI PUSH1 0x0 DUP6 SSTORE PUSH2 0x3BBD JUMP JUMPDEST DUP3 PUSH1 0x1F LT PUSH2 0x3C14 JUMPI DUP1 MLOAD PUSH1 0xFF NOT AND DUP4 DUP1 ADD OR DUP6 SSTORE PUSH2 0x3BBD JUMP JUMPDEST DUP3 DUP1 ADD PUSH1 0x1 ADD DUP6 SSTORE DUP3 ISZERO PUSH2 0x3BBD JUMPI SWAP2 DUP3 ADD JUMPDEST DUP3 DUP2 GT ISZERO PUSH2 0x3BBD JUMPI DUP3 MLOAD DUP3 SSTORE SWAP2 PUSH1 0x20 ADD SWAP2 SWAP1 PUSH1 0x1 ADD SWAP1 PUSH2 0x3C26 JUMP JUMPDEST JUMPDEST DUP1 DUP3 GT ISZERO PUSH2 0x3BC9 JUMPI PUSH1 0x0 DUP2 SSTORE PUSH1 0x1 ADD PUSH2 0x3C42 JUMP JUMPDEST PUSH1 0x0 PUSH8 0xFFFFFFFFFFFFFFFF DUP4 GT ISZERO PUSH2 0x3C70 JUMPI PUSH2 0x3C70 PUSH2 0x44E3 JUMP JUMPDEST PUSH2 0x3C83 PUSH1 0x1F DUP5 ADD PUSH1 0x1F NOT AND PUSH1 0x20 ADD PUSH2 0x4371 JUMP JUMPDEST SWAP1 POP DUP3 DUP2 MSTORE DUP4 DUP4 DUP4 ADD GT ISZERO PUSH2 0x3C97 JUMPI PUSH1 0x0 DUP1 REVERT JUMPDEST DUP3 DUP3 PUSH1 0x20 DUP4 ADD CALLDATACOPY PUSH1 0x0 PUSH1 0x20 DUP5 DUP4 ADD ADD MSTORE SWAP4 SWAP3 POP POP POP JUMP JUMPDEST DUP1 CALLDATALOAD PUSH1 0x1 PUSH1 0x1 PUSH1 0xA0 SHL SUB DUP2 AND DUP2 EQ PUSH2 0x3CC5 JUMPI PUSH1 0x0 DUP1 REVERT JUMPDEST SWAP2 SWAP1 POP JUMP JUMPDEST PUSH1 0x0 PUSH1 0x20 DUP3 DUP5 SUB SLT ISZERO PUSH2 0x3CDC JUMPI PUSH1 0x0 DUP1 REVERT JUMPDEST PUSH2 0x2F63 DUP3 PUSH2 0x3CAE JUMP JUMPDEST PUSH1 0x0 DUP1 PUSH1 0x40 DUP4 DUP6 SUB SLT ISZERO PUSH2 0x3CF8 JUMPI PUSH1 0x0 DUP1 REVERT JUMPDEST PUSH2 0x3D01 DUP4 PUSH2 0x3CAE JUMP JUMPDEST SWAP2 POP PUSH2 0x3D0F PUSH1 0x20 DUP5 ADD PUSH2 0x3CAE JUMP JUMPDEST SWAP1 POP SWAP3 POP SWAP3 SWAP1 POP JUMP JUMPDEST PUSH1 0x0 DUP1 PUSH1 0x0 PUSH1 0x60 DUP5 DUP7 SUB SLT ISZERO PUSH2 0x3D2D JUMPI PUSH1 0x0 DUP1 REVERT JUMPDEST PUSH2 0x3D36 DUP5 PUSH2 0x3CAE JUMP JUMPDEST SWAP3 POP PUSH2 0x3D44 PUSH1 0x20 DUP6 ADD PUSH2 0x3CAE JUMP JUMPDEST SWAP2 POP PUSH1 0x40 DUP5 ADD CALLDATALOAD SWAP1 POP SWAP3 POP SWAP3 POP SWAP3 JUMP JUMPDEST PUSH1 0x0 DUP1 PUSH1 0x0 DUP1 PUSH1 0x80 DUP6 DUP8 SUB SLT ISZERO PUSH2 0x3D6A JUMPI PUSH1 0x0 DUP1 REVERT JUMPDEST PUSH2 0x3D73 DUP6 PUSH2 0x3CAE JUMP JUMPDEST SWAP4 POP PUSH2 0x3D81 PUSH1 0x20 DUP7 ADD PUSH2 0x3CAE JUMP JUMPDEST SWAP3 POP PUSH1 0x40 DUP6 ADD CALLDATALOAD SWAP2 POP PUSH1 0x60 DUP6 ADD CALLDATALOAD PUSH8 0xFFFFFFFFFFFFFFFF DUP2 GT ISZERO PUSH2 0x3DA4 JUMPI PUSH1 0x0 DUP1 REVERT JUMPDEST DUP6 ADD PUSH1 0x1F DUP2 ADD DUP8 SGT PUSH2 0x3DB5 JUMPI PUSH1 0x0 DUP1 REVERT JUMPDEST PUSH2 0x3DC4 DUP8 DUP3 CALLDATALOAD PUSH1 0x20 DUP5 ADD PUSH2 0x3C56 JUMP JUMPDEST SWAP2 POP POP SWAP3 SWAP6 SWAP2 SWAP5 POP SWAP3 POP JUMP JUMPDEST PUSH1 0x0 DUP1 PUSH1 0x40 DUP4 DUP6 SUB SLT ISZERO PUSH2 0x3DE3 JUMPI PUSH1 0x0 DUP1 REVERT JUMPDEST PUSH2 0x3DEC DUP4 PUSH2 0x3CAE JUMP JUMPDEST SWAP2 POP PUSH1 0x20 DUP4 ADD CALLDATALOAD DUP1 ISZERO ISZERO DUP2 EQ PUSH2 0x3E01 JUMPI PUSH1 0x0 DUP1 REVERT JUMPDEST DUP1 SWAP2 POP POP SWAP3 POP SWAP3 SWAP1 POP JUMP JUMPDEST PUSH1 0x0 DUP1 PUSH1 0x40 DUP4 DUP6 SUB SLT ISZERO PUSH2 0x3E1F JUMPI PUSH1 0x0 DUP1 REVERT JUMPDEST PUSH2 0x3E28 DUP4 PUSH2 0x3CAE JUMP JUMPDEST SWAP5 PUSH1 0x20 SWAP4 SWAP1 SWAP4 ADD CALLDATALOAD SWAP4 POP POP POP JUMP JUMPDEST PUSH1 0x0 PUSH1 0x20 DUP3 DUP5 SUB SLT ISZERO PUSH2 0x3E48 JUMPI PUSH1 0x0 DUP1 REVERT JUMPDEST DUP2 CALLDATALOAD PUSH2 0x2F63 DUP2 PUSH2 0x44F9 JUMP JUMPDEST PUSH1 0x0 PUSH1 0x20 DUP3 DUP5 SUB SLT ISZERO PUSH2 0x3E65 JUMPI PUSH1 0x0 DUP1 REVERT JUMPDEST DUP2 MLOAD PUSH2 0x2F63 DUP2 PUSH2 0x44F9 JUMP JUMPDEST PUSH1 0x0 PUSH1 0x20 DUP3 DUP5 SUB SLT ISZERO PUSH2 0x3E82 JUMPI PUSH1 0x0 DUP1 REVERT JUMPDEST DUP2 CALLDATALOAD PUSH8 0xFFFFFFFFFFFFFFFF DUP2 GT ISZERO PUSH2 0x3E99 JUMPI PUSH1 0x0 DUP1 REVERT JUMPDEST DUP3 ADD PUSH1 0x1F DUP2 ADD DUP5 SGT PUSH2 0x3EAA JUMPI PUSH1 0x0 DUP1 REVERT JUMPDEST PUSH2 0x31CD DUP5 DUP3 CALLDATALOAD PUSH1 0x20 DUP5 ADD PUSH2 0x3C56 JUMP JUMPDEST PUSH1 0x0 PUSH1 0x20 DUP3 DUP5 SUB SLT ISZERO PUSH2 0x3ECB JUMPI PUSH1 0x0 DUP1 REVERT JUMPDEST POP CALLDATALOAD SWAP2 SWAP1 POP JUMP JUMPDEST PUSH1 0x0 DUP1 PUSH1 0x40 DUP4 DUP6 SUB SLT ISZERO PUSH2 0x3EE5 JUMPI PUSH1 0x0 DUP1 REVERT JUMPDEST POP POP DUP1 CALLDATALOAD SWAP3 PUSH1 0x20 SWAP1 SWAP2 ADD CALLDATALOAD SWAP2 POP JUMP JUMPDEST PUSH1 0x0 DUP1 PUSH1 0x0 DUP1 PUSH1 0x0 DUP1 PUSH1 0xC0 DUP8 DUP10 SUB SLT ISZERO PUSH2 0x3F0D JUMPI PUSH1 0x0 DUP1 REVERT JUMPDEST DUP7 CALLDATALOAD SWAP6 POP PUSH1 0x20 DUP1 DUP9 ADD CALLDATALOAD SWAP6 POP PUSH1 0x40 DUP9 ADD CALLDATALOAD SWAP5 POP PUSH1 0x60 DUP9 ADD CALLDATALOAD SWAP4 POP PUSH1 0x80 DUP9 ADD CALLDATALOAD PUSH8 0xFFFFFFFFFFFFFFFF DUP1 DUP3 GT ISZERO PUSH2 0x3F42 JUMPI PUSH1 0x0 DUP1 REVERT JUMPDEST DUP2 DUP11 ADD SWAP2 POP DUP11 PUSH1 0x1F DUP4 ADD SLT PUSH2 0x3F56 JUMPI PUSH1 0x0 DUP1 REVERT JUMPDEST DUP2 CALLDATALOAD DUP2 DUP2 GT ISZERO PUSH2 0x3F68 JUMPI PUSH2 0x3F68 PUSH2 0x44E3 JUMP JUMPDEST DUP1 PUSH1 0x5 SHL SWAP2 POP PUSH2 0x3F79 DUP5 DUP4 ADD PUSH2 0x4371 JUMP JUMPDEST DUP2 DUP2 MSTORE DUP5 DUP2 ADD SWAP1 DUP5 DUP7 ADD DUP5 DUP7 ADD DUP8 ADD DUP16 LT ISZERO PUSH2 0x3F94 JUMPI PUSH1 0x0 DUP1 REVERT JUMPDEST PUSH1 0x0 SWAP6 POP JUMPDEST DUP4 DUP7 LT ISZERO PUSH2 0x3FB7 JUMPI DUP1 CALLDATALOAD DUP4 MSTORE PUSH1 0x1 SWAP6 SWAP1 SWAP6 ADD SWAP5 SWAP2 DUP7 ADD SWAP2 DUP7 ADD PUSH2 0x3F99 JUMP JUMPDEST POP DUP1 SWAP8 POP POP POP POP POP POP POP PUSH1 0xA0 DUP8 ADD CALLDATALOAD SWAP1 POP SWAP3 SWAP6 POP SWAP3 SWAP6 POP SWAP3 SWAP6 JUMP JUMPDEST PUSH1 0x0 DUP1 PUSH1 0x0 DUP1 PUSH1 0x0 PUSH1 0xA0 DUP7 DUP9 SUB SLT ISZERO PUSH2 0x3FEA JUMPI PUSH1 0x0 DUP1 REVERT JUMPDEST POP POP DUP4 CALLDATALOAD SWAP6 PUSH1 0x20 DUP6 ADD CALLDATALOAD SWAP6 POP PUSH1 0x40 DUP6 ADD CALLDATALOAD SWAP5 PUSH1 0x60 DUP2 ADD CALLDATALOAD SWAP5 POP PUSH1 0x80 ADD CALLDATALOAD SWAP3 POP SWAP1 POP JUMP JUMPDEST PUSH1 0x0 DUP2 MLOAD DUP1 DUP5 MSTORE PUSH2 0x4025 DUP2 PUSH1 0x20 DUP7 ADD PUSH1 0x20 DUP7 ADD PUSH2 0x43E5 JUMP JUMPDEST PUSH1 0x1F ADD PUSH1 0x1F NOT AND SWAP3 SWAP1 SWAP3 ADD PUSH1 0x20 ADD SWAP3 SWAP2 POP POP JUMP JUMPDEST PUSH1 0x4 DUP2 LT PUSH2 0x4049 JUMPI PUSH2 0x4049 PUSH2 0x44A1 JUMP JUMPDEST SWAP1 MSTORE JUMP JUMPDEST PUSH1 0x0 DUP3 MLOAD PUSH2 0x405F DUP2 DUP5 PUSH1 0x20 DUP8 ADD PUSH2 0x43E5 JUMP JUMPDEST SWAP2 SWAP1 SWAP2 ADD SWAP3 SWAP2 POP POP JUMP JUMPDEST PUSH1 0x0 DUP4 MLOAD PUSH2 0x407B DUP2 DUP5 PUSH1 0x20 DUP9 ADD PUSH2 0x43E5 JUMP JUMPDEST DUP4 MLOAD SWAP1 DUP4 ADD SWAP1 PUSH2 0x408F DUP2 DUP4 PUSH1 0x20 DUP9 ADD PUSH2 0x43E5 JUMP JUMPDEST ADD SWAP5 SWAP4 POP POP POP POP JUMP JUMPDEST PUSH1 0x1 PUSH1 0x1 PUSH1 0xA0 SHL SUB DUP6 DUP2 AND DUP3 MSTORE DUP5 AND PUSH1 0x20 DUP3 ADD MSTORE PUSH1 0x40 DUP2 ADD DUP4 SWAP1 MSTORE PUSH1 0x80 PUSH1 0x60 DUP3 ADD DUP2 SWAP1 MSTORE PUSH1 0x0 SWAP1 PUSH2 0x40CB SWAP1 DUP4 ADD DUP5 PUSH2 0x400D JUMP JUMPDEST SWAP7 SWAP6 POP POP POP POP POP POP JUMP JUMPDEST PUSH1 0x20 DUP1 DUP3 MSTORE DUP3 MLOAD DUP3 DUP3 ADD DUP2 SWAP1 MSTORE PUSH1 0x0 SWAP2 SWAP1 DUP5 DUP3 ADD SWAP1 PUSH1 0x40 DUP6 ADD SWAP1 DUP5 JUMPDEST DUP2 DUP2 LT ISZERO PUSH2 0x410D JUMPI DUP4 MLOAD DUP4 MSTORE SWAP3 DUP5 ADD SWAP3 SWAP2 DUP5 ADD SWAP2 PUSH1 0x1 ADD PUSH2 0x40F1 JUMP JUMPDEST POP SWAP1 SWAP7 SWAP6 POP POP POP POP POP POP JUMP JUMPDEST PUSH1 0x20 DUP2 MSTORE PUSH1 0x0 PUSH2 0x2F63 PUSH1 0x20 DUP4 ADD DUP5 PUSH2 0x400D JUMP JUMPDEST PUSH1 0x20 DUP1 DUP3 MSTORE PUSH1 0x32 SWAP1 DUP3 ADD MSTORE PUSH32 0x4552433732313A207472616E7366657220746F206E6F6E204552433732315265 PUSH1 0x40 DUP3 ADD MSTORE PUSH18 0x31B2B4BB32B91034B6B83632B6B2B73A32B9 PUSH1 0x71 SHL PUSH1 0x60 DUP3 ADD MSTORE PUSH1 0x80 ADD SWAP1 JUMP JUMPDEST PUSH1 0x20 DUP1 DUP3 MSTORE PUSH1 0x32 SWAP1 DUP3 ADD MSTORE PUSH32 0x546F6B656E2046616374696F6E206D7573742062652066726F6D205355525649 PUSH1 0x40 DUP3 ADD MSTORE PUSH18 0x564F525320746F20534349454E5449535453 PUSH1 0x70 SHL PUSH1 0x60 DUP3 ADD MSTORE PUSH1 0x80 ADD SWAP1 JUMP JUMPDEST PUSH1 0x20 DUP1 DUP3 MSTORE DUP2 DUP2 ADD MSTORE PUSH32 0x4F776E61626C653A2063616C6C6572206973206E6F7420746865206F776E6572 PUSH1 0x40 DUP3 ADD MSTORE PUSH1 0x60 ADD SWAP1 JUMP JUMPDEST PUSH1 0x20 DUP1 DUP3 MSTORE PUSH1 0x14 SWAP1 DUP3 ADD MSTORE PUSH20 0x10DC985D195259081A5CC81B9BDD08195E1A5CDD PUSH1 0x62 SHL PUSH1 0x40 DUP3 ADD MSTORE PUSH1 0x60 ADD SWAP1 JUMP JUMPDEST PUSH1 0x20 DUP1 DUP3 MSTORE PUSH1 0x31 SWAP1 DUP3 ADD MSTORE PUSH32 0x4552433732313A207472616E736665722063616C6C6572206973206E6F74206F PUSH1 0x40 DUP3 ADD MSTORE PUSH17 0x1DDB995C881B9BDC88185C1C1C9BDD9959 PUSH1 0x7A SHL PUSH1 0x60 DUP3 ADD MSTORE PUSH1 0x80 ADD SWAP1 JUMP JUMPDEST PUSH1 0x20 DUP1 DUP3 MSTORE PUSH1 0x22 SWAP1 DUP3 ADD MSTORE PUSH32 0x4D61726B6574706C6163652066656174757265206973206E6F7420656E61626C PUSH1 0x40 DUP3 ADD MSTORE PUSH2 0x1959 PUSH1 0xF2 SHL PUSH1 0x60 DUP3 ADD MSTORE PUSH1 0x80 ADD SWAP1 JUMP JUMPDEST DUP7 DUP2 MSTORE PUSH1 0x20 DUP2 ADD DUP7 SWAP1 MSTORE PUSH1 0x40 DUP2 ADD DUP6 SWAP1 MSTORE PUSH1 0xC0 DUP2 ADD PUSH2 0x42E8 PUSH1 0x60 DUP4 ADD DUP7 PUSH2 0x4039 JUMP JUMPDEST DUP4 PUSH1 0x80 DUP4 ADD MSTORE DUP3 ISZERO ISZERO PUSH1 0xA0 DUP4 ADD MSTORE SWAP8 SWAP7 POP POP POP POP POP POP POP JUMP JUMPDEST DUP8 DUP2 MSTORE PUSH1 0x20 DUP2 ADD DUP8 SWAP1 MSTORE PUSH1 0x40 DUP2 ADD DUP7 SWAP1 MSTORE PUSH1 0xE0 DUP2 ADD PUSH1 0x5 DUP7 LT PUSH2 0x4326 JUMPI PUSH2 0x4326 PUSH2 0x44A1 JUMP JUMPDEST DUP6 PUSH1 0x60 DUP4 ADD MSTORE PUSH2 0x4339 PUSH1 0x80 DUP4 ADD DUP7 PUSH2 0x4039 JUMP JUMPDEST PUSH1 0x8 DUP5 LT PUSH2 0x4349 JUMPI PUSH2 0x4349 PUSH2 0x44A1 JUMP JUMPDEST DUP4 PUSH1 0xA0 DUP4 ADD MSTORE PUSH1 0xD DUP4 LT PUSH2 0x435F JUMPI PUSH2 0x435F PUSH2 0x44A1 JUMP JUMPDEST DUP3 PUSH1 0xC0 DUP4 ADD MSTORE SWAP9 SWAP8 POP POP POP POP POP POP POP POP JUMP JUMPDEST PUSH1 0x40 MLOAD PUSH1 0x1F DUP3 ADD PUSH1 0x1F NOT AND DUP2 ADD PUSH8 0xFFFFFFFFFFFFFFFF DUP2 GT DUP3 DUP3 LT OR ISZERO PUSH2 0x439A JUMPI PUSH2 0x439A PUSH2 0x44E3 JUMP JUMPDEST PUSH1 0x40 MSTORE SWAP2 SWAP1 POP JUMP JUMPDEST PUSH1 0x0 DUP3 NOT DUP3 GT ISZERO PUSH2 0x43B5 JUMPI PUSH2 0x43B5 PUSH2 0x4475 JUMP JUMPDEST POP ADD SWAP1 JUMP JUMPDEST PUSH1 0x0 DUP3 PUSH2 0x43C9 JUMPI PUSH2 0x43C9 PUSH2 0x448B JUMP JUMPDEST POP DIV SWAP1 JUMP JUMPDEST PUSH1 0x0 DUP3 DUP3 LT ISZERO PUSH2 0x43E0 JUMPI PUSH2 0x43E0 PUSH2 0x4475 JUMP JUMPDEST POP SUB SWAP1 JUMP JUMPDEST PUSH1 0x0 JUMPDEST DUP4 DUP2 LT ISZERO PUSH2 0x4400 JUMPI DUP2 DUP2 ADD MLOAD DUP4 DUP3 ADD MSTORE PUSH1 0x20 ADD PUSH2 0x43E8 JUMP JUMPDEST DUP4 DUP2 GT ISZERO PUSH2 0x24C5 JUMPI POP POP PUSH1 0x0 SWAP2 ADD MSTORE JUMP JUMPDEST PUSH1 0x1 DUP2 DUP2 SHR SWAP1 DUP3 AND DUP1 PUSH2 0x4425 JUMPI PUSH1 0x7F DUP3 AND SWAP2 POP JUMPDEST PUSH1 0x20 DUP3 LT DUP2 EQ ISZERO PUSH2 0x1805 JUMPI PUSH4 0x4E487B71 PUSH1 0xE0 SHL PUSH1 0x0 MSTORE PUSH1 0x22 PUSH1 0x4 MSTORE PUSH1 0x24 PUSH1 0x0 REVERT JUMPDEST PUSH1 0x0 PUSH1 0x0 NOT DUP3 EQ ISZERO PUSH2 0x445A JUMPI PUSH2 0x445A PUSH2 0x4475 JUMP JUMPDEST POP PUSH1 0x1 ADD SWAP1 JUMP JUMPDEST PUSH1 0x0 DUP3 PUSH2 0x4470 JUMPI PUSH2 0x4470 PUSH2 0x448B JUMP JUMPDEST POP MOD SWAP1 JUMP JUMPDEST PUSH4 0x4E487B71 PUSH1 0xE0 SHL PUSH1 0x0 MSTORE PUSH1 0x11 PUSH1 0x4 MSTORE PUSH1 0x24 PUSH1 0x0 REVERT JUMPDEST PUSH4 0x4E487B71 PUSH1 0xE0 SHL PUSH1 0x0 MSTORE PUSH1 0x12 PUSH1 0x4 MSTORE PUSH1 0x24 PUSH1 0x0 REVERT JUMPDEST PUSH4 0x4E487B71 PUSH1 0xE0 SHL PUSH1 0x0 MSTORE PUSH1 0x21 PUSH1 0x4 MSTORE PUSH1 0x24 PUSH1 0x0 REVERT JUMPDEST PUSH4 0x4E487B71 PUSH1 0xE0 SHL PUSH1 0x0 MSTORE PUSH1 0x31 PUSH1 0x4 MSTORE PUSH1 0x24 PUSH1 0x0 REVERT JUMPDEST PUSH4 0x4E487B71 PUSH1 0xE0 SHL PUSH1 0x0 MSTORE PUSH1 0x32 PUSH1 0x4 MSTORE PUSH1 0x24 PUSH1 0x0 REVERT JUMPDEST PUSH4 0x4E487B71 PUSH1 0xE0 SHL PUSH1 0x0 MSTORE PUSH1 0x41 PUSH1 0x4 MSTORE PUSH1 0x24 PUSH1 0x0 REVERT JUMPDEST PUSH1 0x1 PUSH1 0x1 PUSH1 0xE0 SHL SUB NOT DUP2 AND DUP2 EQ PUSH2 0x13B9 JUMPI PUSH1 0x0 DUP1 REVERT INVALID LOG2 PUSH5 0x6970667358 0x22 SLT KECCAK256 SGT MUL 0x2C DUP16 PUSH21 0x1D90C4730F74F89C3EC4EC1FA9D32285E1E83FD8F6 0xC6 0x28 CODESIZE SWAP8 SWAP16 0xE0 PUSH5 0x736F6C6343 STOP ADDMOD SMOD STOP CALLER "
		},
		"gasEstimates": {
			"creation": {
				"codeDepositCost": "3546600",
				"executionCost": "infinite",
				"totalCost": "infinite"
			},
			"external": {
				"MAX_CRATE_TOKEN_COUNT()": "284",
				"MAX_MINT_TOKEN_COUNT()": "328",
				"applyCrate(uint256,uint256,uint256,uint256,uint256[],uint256)": "infinite",
				"approve(address,uint256)": "infinite",
				"balanceOf(address)": "2635",
				"buyCrate(uint256)": "infinite",
				"buyToken(uint256)": "infinite",
				"changeTokenPrice(uint256,uint256)": "186127",
				"crateUmblData(uint256)": "13284",
				"deleteCrate(uint256)": "28850",
				"getApproved(uint256)": "4822",
				"getCrateRarities(uint256)": "infinite",
				"isApprovedForAll(address,address)": "infinite",
				"isEnabledSale()": "2389",
				"mintToken(uint256,uint256,uint256,uint256,uint256)": "infinite",
				"name()": "infinite",
				"nextCrateId()": "2361",
				"nextTokenId()": "2385",
				"owner()": "2465",
				"ownerOf(uint256)": "2689",
				"pauseMarketPlace()": "26636",
				"renounceOwnership()": "28185",
				"safeTransferFrom(address,address,uint256)": "infinite",
				"safeTransferFrom(address,address,uint256,bytes)": "infinite",
				"setApprovalForAll(address,bool)": "26739",
				"setBaseURI(string)": "infinite",
				"setTokenHealth(uint256,uint256)": "184118",
				"setTokenStatus(uint256,uint256)": "184527",
				"startMarketPlace()": "26596",
				"supportsInterface(bytes4)": "infinite",
				"symbol()": "infinite",
				"tokenByIndex(uint256)": "6760",
				"tokenOfOwnerByIndex(address,uint256)": "4998",
				"tokenURI(uint256)": "infinite",
				"tokenUmblData(uint256)": "9192",
				"tokensOfOwner(address)": "infinite",
				"totalSupply()": "2349",
				"transferFrom(address,address,uint256)": "infinite",
				"transferOwnership(address)": "28444"
			},
			"internal": {
				"_baseURI()": "infinite",
				"_beforeTokenTransfer(address,address,uint256)": "infinite",
				"_setBaseURI(string memory)": "infinite"
			}
		},
		"methodIdentifiers": {
			"MAX_CRATE_TOKEN_COUNT()": "594455f5",
			"MAX_MINT_TOKEN_COUNT()": "af055820",
			"applyCrate(uint256,uint256,uint256,uint256,uint256[],uint256)": "406b9872",
			"approve(address,uint256)": "095ea7b3",
			"balanceOf(address)": "70a08231",
			"buyCrate(uint256)": "9016617c",
			"buyToken(uint256)": "2d296bf1",
			"changeTokenPrice(uint256,uint256)": "62e8e8ac",
			"crateUmblData(uint256)": "b38d817c",
			"deleteCrate(uint256)": "955a6615",
			"getApproved(uint256)": "081812fc",
			"getCrateRarities(uint256)": "48333113",
			"isApprovedForAll(address,address)": "e985e9c5",
			"isEnabledSale()": "1d4175a5",
			"mintToken(uint256,uint256,uint256,uint256,uint256)": "c717e8ea",
			"name()": "06fdde03",
			"nextCrateId()": "cb9953e7",
			"nextTokenId()": "75794a3c",
			"owner()": "8da5cb5b",
			"ownerOf(uint256)": "6352211e",
			"pauseMarketPlace()": "2d21a464",
			"renounceOwnership()": "715018a6",
			"safeTransferFrom(address,address,uint256)": "42842e0e",
			"safeTransferFrom(address,address,uint256,bytes)": "b88d4fde",
			"setApprovalForAll(address,bool)": "a22cb465",
			"setBaseURI(string)": "55f804b3",
			"setTokenHealth(uint256,uint256)": "b8049b99",
			"setTokenStatus(uint256,uint256)": "b99a15f8",
			"startMarketPlace()": "e119248e",
			"supportsInterface(bytes4)": "01ffc9a7",
			"symbol()": "95d89b41",
			"tokenByIndex(uint256)": "4f6ccce7",
			"tokenOfOwnerByIndex(address,uint256)": "2f745c59",
			"tokenURI(uint256)": "c87b56dd",
			"tokenUmblData(uint256)": "1280cb62",
			"tokensOfOwner(address)": "8462151c",
			"totalSupply()": "18160ddd",
			"transferFrom(address,address,uint256)": "23b872dd",
			"transferOwnership(address)": "f2fde38b"
		}
	},
	"abi": [
		{
			"inputs": [
				{
					"internalType": "string",
					"name": "baseURI",
					"type": "string"
				}
			],
			"stateMutability": "nonpayable",
			"type": "constructor"
		},
		{
			"anonymous": false,
			"inputs": [
				{
					"indexed": true,
					"internalType": "address",
					"name": "owner",
					"type": "address"
				},
				{
					"indexed": true,
					"internalType": "address",
					"name": "approved",
					"type": "address"
				},
				{
					"indexed": true,
					"internalType": "uint256",
					"name": "tokenId",
					"type": "uint256"
				}
			],
			"name": "Approval",
			"type": "event"
		},
		{
			"anonymous": false,
			"inputs": [
				{
					"indexed": true,
					"internalType": "address",
					"name": "owner",
					"type": "address"
				},
				{
					"indexed": true,
					"internalType": "address",
					"name": "operator",
					"type": "address"
				},
				{
					"indexed": false,
					"internalType": "bool",
					"name": "approved",
					"type": "bool"
				}
			],
			"name": "ApprovalForAll",
			"type": "event"
		},
		{
			"anonymous": false,
			"inputs": [
				{
					"indexed": true,
					"internalType": "address",
					"name": "previousOwner",
					"type": "address"
				},
				{
					"indexed": true,
					"internalType": "address",
					"name": "newOwner",
					"type": "address"
				}
			],
			"name": "OwnershipTransferred",
			"type": "event"
		},
		{
			"anonymous": false,
			"inputs": [
				{
					"indexed": true,
					"internalType": "address",
					"name": "from",
					"type": "address"
				},
				{
					"indexed": true,
					"internalType": "address",
					"name": "to",
					"type": "address"
				},
				{
					"indexed": true,
					"internalType": "uint256",
					"name": "tokenId",
					"type": "uint256"
				}
			],
			"name": "Transfer",
			"type": "event"
		},
		{
			"inputs": [],
			"name": "MAX_CRATE_TOKEN_COUNT",
			"outputs": [
				{
					"internalType": "uint256",
					"name": "",
					"type": "uint256"
				}
			],
			"stateMutability": "view",
			"type": "function"
		},
		{
			"inputs": [],
			"name": "MAX_MINT_TOKEN_COUNT",
			"outputs": [
				{
					"internalType": "uint256",
					"name": "",
					"type": "uint256"
				}
			],
			"stateMutability": "view",
			"type": "function"
		},
		{
			"inputs": [
				{
					"internalType": "uint256",
					"name": "_crateId",
					"type": "uint256"
				},
				{
					"internalType": "uint256",
					"name": "_numTokens",
					"type": "uint256"
				},
				{
					"internalType": "uint256",
					"name": "_faction",
					"type": "uint256"
				},
				{
					"internalType": "uint256",
					"name": "_level",
					"type": "uint256"
				},
				{
					"internalType": "uint256[]",
					"name": "_rarities",
					"type": "uint256[]"
				},
				{
					"internalType": "uint256",
					"name": "_price",
					"type": "uint256"
				}
			],
			"name": "applyCrate",
			"outputs": [],
			"stateMutability": "nonpayable",
			"type": "function"
		},
		{
			"inputs": [
				{
					"internalType": "address",
					"name": "to",
					"type": "address"
				},
				{
					"internalType": "uint256",
					"name": "tokenId",
					"type": "uint256"
				}
			],
			"name": "approve",
			"outputs": [],
			"stateMutability": "nonpayable",
			"type": "function"
		},
		{
			"inputs": [
				{
					"internalType": "address",
					"name": "owner",
					"type": "address"
				}
			],
			"name": "balanceOf",
			"outputs": [
				{
					"internalType": "uint256",
					"name": "",
					"type": "uint256"
				}
			],
			"stateMutability": "view",
			"type": "function"
		},
		{
			"inputs": [
				{
					"internalType": "uint256",
					"name": "_crateId",
					"type": "uint256"
				}
			],
			"name": "buyCrate",
			"outputs": [],
			"stateMutability": "payable",
			"type": "function"
		},
		{
			"inputs": [
				{
					"internalType": "uint256",
					"name": "_tokenId",
					"type": "uint256"
				}
			],
			"name": "buyToken",
			"outputs": [],
			"stateMutability": "payable",
			"type": "function"
		},
		{
			"inputs": [
				{
					"internalType": "uint256",
					"name": "_tokenId",
					"type": "uint256"
				},
				{
					"internalType": "uint256",
					"name": "_newPrice",
					"type": "uint256"
				}
			],
			"name": "changeTokenPrice",
			"outputs": [],
			"stateMutability": "payable",
			"type": "function"
		},
		{
			"inputs": [
				{
					"internalType": "uint256",
					"name": "",
					"type": "uint256"
				}
			],
			"name": "crateUmblData",
			"outputs": [
				{
					"internalType": "uint256",
					"name": "id",
					"type": "uint256"
				},
				{
					"internalType": "uint256",
					"name": "tokenCount",
					"type": "uint256"
				},
				{
					"internalType": "uint256",
					"name": "price",
					"type": "uint256"
				},
				{
					"internalType": "enum UmblNFT.TokenFaction",
					"name": "faction",
					"type": "uint8"
				},
				{
					"internalType": "uint256",
					"name": "level",
					"type": "uint256"
				},
				{
					"internalType": "bool",
					"name": "isDeleted",
					"type": "bool"
				}
			],
			"stateMutability": "view",
			"type": "function"
		},
		{
			"inputs": [
				{
					"internalType": "uint256",
					"name": "_index",
					"type": "uint256"
				}
			],
			"name": "deleteCrate",
			"outputs": [],
			"stateMutability": "nonpayable",
			"type": "function"
		},
		{
			"inputs": [
				{
					"internalType": "uint256",
					"name": "tokenId",
					"type": "uint256"
				}
			],
			"name": "getApproved",
			"outputs": [
				{
					"internalType": "address",
					"name": "",
					"type": "address"
				}
			],
			"stateMutability": "view",
			"type": "function"
		},
		{
			"inputs": [
				{
					"internalType": "uint256",
					"name": "_index",
					"type": "uint256"
				}
			],
			"name": "getCrateRarities",
			"outputs": [
				{
					"internalType": "uint256[]",
					"name": "",
					"type": "uint256[]"
				}
			],
			"stateMutability": "view",
			"type": "function"
		},
		{
			"inputs": [
				{
					"internalType": "address",
					"name": "owner",
					"type": "address"
				},
				{
					"internalType": "address",
					"name": "operator",
					"type": "address"
				}
			],
			"name": "isApprovedForAll",
			"outputs": [
				{
					"internalType": "bool",
					"name": "",
					"type": "bool"
				}
			],
			"stateMutability": "view",
			"type": "function"
		},
		{
			"inputs": [],
			"name": "isEnabledSale",
			"outputs": [
				{
					"internalType": "bool",
					"name": "",
					"type": "bool"
				}
			],
			"stateMutability": "view",
			"type": "function"
		},
		{
			"inputs": [
				{
					"internalType": "uint256",
					"name": "_numTokens",
					"type": "uint256"
				},
				{
					"internalType": "uint256",
					"name": "_faction",
					"type": "uint256"
				},
				{
					"internalType": "uint256",
					"name": "_category",
					"type": "uint256"
				},
				{
					"internalType": "uint256",
					"name": "_rarity",
					"type": "uint256"
				},
				{
					"internalType": "uint256",
					"name": "_price",
					"type": "uint256"
				}
			],
			"name": "mintToken",
			"outputs": [],
			"stateMutability": "nonpayable",
			"type": "function"
		},
		{
			"inputs": [],
			"name": "name",
			"outputs": [
				{
					"internalType": "string",
					"name": "",
					"type": "string"
				}
			],
			"stateMutability": "view",
			"type": "function"
		},
		{
			"inputs": [],
			"name": "nextCrateId",
			"outputs": [
				{
					"internalType": "uint256",
					"name": "",
					"type": "uint256"
				}
			],
			"stateMutability": "view",
			"type": "function"
		},
		{
			"inputs": [],
			"name": "nextTokenId",
			"outputs": [
				{
					"internalType": "uint256",
					"name": "",
					"type": "uint256"
				}
			],
			"stateMutability": "view",
			"type": "function"
		},
		{
			"inputs": [],
			"name": "owner",
			"outputs": [
				{
					"internalType": "address",
					"name": "",
					"type": "address"
				}
			],
			"stateMutability": "view",
			"type": "function"
		},
		{
			"inputs": [
				{
					"internalType": "uint256",
					"name": "tokenId",
					"type": "uint256"
				}
			],
			"name": "ownerOf",
			"outputs": [
				{
					"internalType": "address",
					"name": "",
					"type": "address"
				}
			],
			"stateMutability": "view",
			"type": "function"
		},
		{
			"inputs": [],
			"name": "pauseMarketPlace",
			"outputs": [],
			"stateMutability": "nonpayable",
			"type": "function"
		},
		{
			"inputs": [],
			"name": "renounceOwnership",
			"outputs": [],
			"stateMutability": "nonpayable",
			"type": "function"
		},
		{
			"inputs": [
				{
					"internalType": "address",
					"name": "from",
					"type": "address"
				},
				{
					"internalType": "address",
					"name": "to",
					"type": "address"
				},
				{
					"internalType": "uint256",
					"name": "tokenId",
					"type": "uint256"
				}
			],
			"name": "safeTransferFrom",
			"outputs": [],
			"stateMutability": "nonpayable",
			"type": "function"
		},
		{
			"inputs": [
				{
					"internalType": "address",
					"name": "from",
					"type": "address"
				},
				{
					"internalType": "address",
					"name": "to",
					"type": "address"
				},
				{
					"internalType": "uint256",
					"name": "tokenId",
					"type": "uint256"
				},
				{
					"internalType": "bytes",
					"name": "_data",
					"type": "bytes"
				}
			],
			"name": "safeTransferFrom",
			"outputs": [],
			"stateMutability": "nonpayable",
			"type": "function"
		},
		{
			"inputs": [
				{
					"internalType": "address",
					"name": "operator",
					"type": "address"
				},
				{
					"internalType": "bool",
					"name": "approved",
					"type": "bool"
				}
			],
			"name": "setApprovalForAll",
			"outputs": [],
			"stateMutability": "nonpayable",
			"type": "function"
		},
		{
			"inputs": [
				{
					"internalType": "string",
					"name": "baseURI",
					"type": "string"
				}
			],
			"name": "setBaseURI",
			"outputs": [],
			"stateMutability": "nonpayable",
			"type": "function"
		},
		{
			"inputs": [
				{
					"internalType": "uint256",
					"name": "_tokenId",
					"type": "uint256"
				},
				{
					"internalType": "uint256",
					"name": "_tokenHealth",
					"type": "uint256"
				}
			],
			"name": "setTokenHealth",
			"outputs": [],
			"stateMutability": "payable",
			"type": "function"
		},
		{
			"inputs": [
				{
					"internalType": "uint256",
					"name": "_tokenId",
					"type": "uint256"
				},
				{
					"internalType": "uint256",
					"name": "_tokenStatus",
					"type": "uint256"
				}
			],
			"name": "setTokenStatus",
			"outputs": [],
			"stateMutability": "payable",
			"type": "function"
		},
		{
			"inputs": [],
			"name": "startMarketPlace",
			"outputs": [],
			"stateMutability": "nonpayable",
			"type": "function"
		},
		{
			"inputs": [
				{
					"internalType": "bytes4",
					"name": "interfaceId",
					"type": "bytes4"
				}
			],
			"name": "supportsInterface",
			"outputs": [
				{
					"internalType": "bool",
					"name": "",
					"type": "bool"
				}
			],
			"stateMutability": "view",
			"type": "function"
		},
		{
			"inputs": [],
			"name": "symbol",
			"outputs": [
				{
					"internalType": "string",
					"name": "",
					"type": "string"
				}
			],
			"stateMutability": "view",
			"type": "function"
		},
		{
			"inputs": [
				{
					"internalType": "uint256",
					"name": "index",
					"type": "uint256"
				}
			],
			"name": "tokenByIndex",
			"outputs": [
				{
					"internalType": "uint256",
					"name": "",
					"type": "uint256"
				}
			],
			"stateMutability": "view",
			"type": "function"
		},
		{
			"inputs": [
				{
					"internalType": "address",
					"name": "owner",
					"type": "address"
				},
				{
					"internalType": "uint256",
					"name": "index",
					"type": "uint256"
				}
			],
			"name": "tokenOfOwnerByIndex",
			"outputs": [
				{
					"internalType": "uint256",
					"name": "",
					"type": "uint256"
				}
			],
			"stateMutability": "view",
			"type": "function"
		},
		{
			"inputs": [
				{
					"internalType": "uint256",
					"name": "tokenId",
					"type": "uint256"
				}
			],
			"name": "tokenURI",
			"outputs": [
				{
					"internalType": "string",
					"name": "",
					"type": "string"
				}
			],
			"stateMutability": "view",
			"type": "function"
		},
		{
			"inputs": [
				{
					"internalType": "uint256",
					"name": "",
					"type": "uint256"
				}
			],
			"name": "tokenUmblData",
			"outputs": [
				{
					"internalType": "uint256",
					"name": "id",
					"type": "uint256"
				},
				{
					"internalType": "uint256",
					"name": "price",
					"type": "uint256"
				},
				{
					"internalType": "uint256",
					"name": "health",
					"type": "uint256"
				},
				{
					"internalType": "enum UmblNFT.TokenStatus",
					"name": "status",
					"type": "uint8"
				},
				{
					"internalType": "enum UmblNFT.TokenFaction",
					"name": "faction",
					"type": "uint8"
				},
				{
					"internalType": "enum UmblNFT.TokenCategory",
					"name": "category",
					"type": "uint8"
				},
				{
					"internalType": "enum UmblNFT.TokenRarity",
					"name": "rarity",
					"type": "uint8"
				}
			],
			"stateMutability": "view",
			"type": "function"
		},
		{
			"inputs": [
				{
					"internalType": "address",
					"name": "_owner",
					"type": "address"
				}
			],
			"name": "tokensOfOwner",
			"outputs": [
				{
					"internalType": "uint256[]",
					"name": "",
					"type": "uint256[]"
				}
			],
			"stateMutability": "view",
			"type": "function"
		},
		{
			"inputs": [],
			"name": "totalSupply",
			"outputs": [
				{
					"internalType": "uint256",
					"name": "",
					"type": "uint256"
				}
			],
			"stateMutability": "view",
			"type": "function"
		},
		{
			"inputs": [
				{
					"internalType": "address",
					"name": "from",
					"type": "address"
				},
				{
					"internalType": "address",
					"name": "to",
					"type": "address"
				},
				{
					"internalType": "uint256",
					"name": "tokenId",
					"type": "uint256"
				}
			],
			"name": "transferFrom",
			"outputs": [],
			"stateMutability": "nonpayable",
			"type": "function"
		},
		{
			"inputs": [
				{
					"internalType": "address",
					"name": "newOwner",
					"type": "address"
				}
			],
			"name": "transferOwnership",
			"outputs": [],
			"stateMutability": "nonpayable",
			"type": "function"
		}
	]
}