{
  "contractName": "UmblNFT",
  "abi": [
    {
      "inputs": [],
      "stateMutability": "nonpayable",
      "type": "constructor"
    },
    {
      "anonymous": false,
      "inputs": [
        {
          "indexed": true,
          "internalType": "address",
          "name": "owner",
          "type": "address"
        },
        {
          "indexed": true,
          "internalType": "address",
          "name": "approved",
          "type": "address"
        },
        {
          "indexed": true,
          "internalType": "uint256",
          "name": "tokenId",
          "type": "uint256"
        }
      ],
      "name": "Approval",
      "type": "event"
    },
    {
      "anonymous": false,
      "inputs": [
        {
          "indexed": true,
          "internalType": "address",
          "name": "owner",
          "type": "address"
        },
        {
          "indexed": true,
          "internalType": "address",
          "name": "operator",
          "type": "address"
        },
        {
          "indexed": false,
          "internalType": "bool",
          "name": "approved",
          "type": "bool"
        }
      ],
      "name": "ApprovalForAll",
      "type": "event"
    },
    {
      "anonymous": false,
      "inputs": [
        {
          "indexed": true,
          "internalType": "address",
          "name": "previousOwner",
          "type": "address"
        },
        {
          "indexed": true,
          "internalType": "address",
          "name": "newOwner",
          "type": "address"
        }
      ],
      "name": "OwnershipTransferred",
      "type": "event"
    },
    {
      "anonymous": false,
      "inputs": [
        {
          "indexed": true,
          "internalType": "address",
          "name": "from",
          "type": "address"
        },
        {
          "indexed": true,
          "internalType": "address",
          "name": "to",
          "type": "address"
        },
        {
          "indexed": true,
          "internalType": "uint256",
          "name": "tokenId",
          "type": "uint256"
        }
      ],
      "name": "Transfer",
      "type": "event"
    },
    {
      "inputs": [
        {
          "internalType": "uint256",
          "name": "",
          "type": "uint256"
        }
      ],
      "name": "allUmblData",
      "outputs": [
        {
          "internalType": "uint256",
          "name": "tokenId",
          "type": "uint256"
        },
        {
          "internalType": "string",
          "name": "tokenName",
          "type": "string"
        },
        {
          "internalType": "string",
          "name": "tokenURI",
          "type": "string"
        },
        {
          "internalType": "address payable",
          "name": "mintedBy",
          "type": "address"
        },
        {
          "internalType": "address payable",
          "name": "currentOwner",
          "type": "address"
        },
        {
          "internalType": "address payable",
          "name": "previousOwner",
          "type": "address"
        },
        {
          "internalType": "uint256",
          "name": "price",
          "type": "uint256"
        },
        {
          "internalType": "uint256",
          "name": "numberOfTransfers",
          "type": "uint256"
        },
        {
          "internalType": "bool",
          "name": "forSale",
          "type": "bool"
        }
      ],
      "stateMutability": "view",
      "type": "function"
    },
    {
      "inputs": [
        {
          "internalType": "address",
          "name": "to",
          "type": "address"
        },
        {
          "internalType": "uint256",
          "name": "tokenId",
          "type": "uint256"
        }
      ],
      "name": "approve",
      "outputs": [],
      "stateMutability": "nonpayable",
      "type": "function"
    },
    {
      "inputs": [
        {
          "internalType": "address",
          "name": "owner",
          "type": "address"
        }
      ],
      "name": "balanceOf",
      "outputs": [
        {
          "internalType": "uint256",
          "name": "",
          "type": "uint256"
        }
      ],
      "stateMutability": "view",
      "type": "function"
    },
    {
      "inputs": [
        {
          "internalType": "uint256",
          "name": "tokenId",
          "type": "uint256"
        }
      ],
      "name": "getApproved",
      "outputs": [
        {
          "internalType": "address",
          "name": "",
          "type": "address"
        }
      ],
      "stateMutability": "view",
      "type": "function"
    },
    {
      "inputs": [
        {
          "internalType": "address",
          "name": "owner",
          "type": "address"
        },
        {
          "internalType": "address",
          "name": "operator",
          "type": "address"
        }
      ],
      "name": "isApprovedForAll",
      "outputs": [
        {
          "internalType": "bool",
          "name": "",
          "type": "bool"
        }
      ],
      "stateMutability": "view",
      "type": "function"
    },
    {
      "inputs": [],
      "name": "name",
      "outputs": [
        {
          "internalType": "string",
          "name": "",
          "type": "string"
        }
      ],
      "stateMutability": "view",
      "type": "function"
    },
    {
      "inputs": [],
      "name": "owner",
      "outputs": [
        {
          "internalType": "address",
          "name": "",
          "type": "address"
        }
      ],
      "stateMutability": "view",
      "type": "function"
    },
    {
      "inputs": [
        {
          "internalType": "uint256",
          "name": "tokenId",
          "type": "uint256"
        }
      ],
      "name": "ownerOf",
      "outputs": [
        {
          "internalType": "address",
          "name": "",
          "type": "address"
        }
      ],
      "stateMutability": "view",
      "type": "function"
    },
    {
      "inputs": [],
      "name": "renounceOwnership",
      "outputs": [],
      "stateMutability": "nonpayable",
      "type": "function"
    },
    {
      "inputs": [
        {
          "internalType": "address",
          "name": "from",
          "type": "address"
        },
        {
          "internalType": "address",
          "name": "to",
          "type": "address"
        },
        {
          "internalType": "uint256",
          "name": "tokenId",
          "type": "uint256"
        }
      ],
      "name": "safeTransferFrom",
      "outputs": [],
      "stateMutability": "nonpayable",
      "type": "function"
    },
    {
      "inputs": [
        {
          "internalType": "address",
          "name": "from",
          "type": "address"
        },
        {
          "internalType": "address",
          "name": "to",
          "type": "address"
        },
        {
          "internalType": "uint256",
          "name": "tokenId",
          "type": "uint256"
        },
        {
          "internalType": "bytes",
          "name": "_data",
          "type": "bytes"
        }
      ],
      "name": "safeTransferFrom",
      "outputs": [],
      "stateMutability": "nonpayable",
      "type": "function"
    },
    {
      "inputs": [
        {
          "internalType": "address",
          "name": "operator",
          "type": "address"
        },
        {
          "internalType": "bool",
          "name": "approved",
          "type": "bool"
        }
      ],
      "name": "setApprovalForAll",
      "outputs": [],
      "stateMutability": "nonpayable",
      "type": "function"
    },
    {
      "inputs": [
        {
          "internalType": "bytes4",
          "name": "interfaceId",
          "type": "bytes4"
        }
      ],
      "name": "supportsInterface",
      "outputs": [
        {
          "internalType": "bool",
          "name": "",
          "type": "bool"
        }
      ],
      "stateMutability": "view",
      "type": "function"
    },
    {
      "inputs": [],
      "name": "symbol",
      "outputs": [
        {
          "internalType": "string",
          "name": "",
          "type": "string"
        }
      ],
      "stateMutability": "view",
      "type": "function"
    },
    {
      "inputs": [],
      "name": "tokenCounter",
      "outputs": [
        {
          "internalType": "uint256",
          "name": "",
          "type": "uint256"
        }
      ],
      "stateMutability": "view",
      "type": "function"
    },
    {
      "inputs": [],
      "name": "tokenName",
      "outputs": [
        {
          "internalType": "string",
          "name": "",
          "type": "string"
        }
      ],
      "stateMutability": "view",
      "type": "function"
    },
    {
      "inputs": [
        {
          "internalType": "string",
          "name": "",
          "type": "string"
        }
      ],
      "name": "tokenNameExists",
      "outputs": [
        {
          "internalType": "bool",
          "name": "",
          "type": "bool"
        }
      ],
      "stateMutability": "view",
      "type": "function"
    },
    {
      "inputs": [],
      "name": "tokenSymbol",
      "outputs": [
        {
          "internalType": "string",
          "name": "",
          "type": "string"
        }
      ],
      "stateMutability": "view",
      "type": "function"
    },
    {
      "inputs": [
        {
          "internalType": "uint256",
          "name": "tokenId",
          "type": "uint256"
        }
      ],
      "name": "tokenURI",
      "outputs": [
        {
          "internalType": "string",
          "name": "",
          "type": "string"
        }
      ],
      "stateMutability": "view",
      "type": "function"
    },
    {
      "inputs": [
        {
          "internalType": "string",
          "name": "",
          "type": "string"
        }
      ],
      "name": "tokenURIExists",
      "outputs": [
        {
          "internalType": "bool",
          "name": "",
          "type": "bool"
        }
      ],
      "stateMutability": "view",
      "type": "function"
    },
    {
      "inputs": [
        {
          "internalType": "address",
          "name": "from",
          "type": "address"
        },
        {
          "internalType": "address",
          "name": "to",
          "type": "address"
        },
        {
          "internalType": "uint256",
          "name": "tokenId",
          "type": "uint256"
        }
      ],
      "name": "transferFrom",
      "outputs": [],
      "stateMutability": "nonpayable",
      "type": "function"
    },
    {
      "inputs": [
        {
          "internalType": "address",
          "name": "newOwner",
          "type": "address"
        }
      ],
      "name": "transferOwnership",
      "outputs": [],
      "stateMutability": "nonpayable",
      "type": "function"
    },
    {
      "inputs": [
        {
          "internalType": "string",
          "name": "_name",
          "type": "string"
        },
        {
          "internalType": "string",
          "name": "_tokenURI",
          "type": "string"
        },
        {
          "internalType": "uint256",
          "name": "_price",
          "type": "uint256"
        }
      ],
      "name": "mintUmbl",
      "outputs": [
        {
          "internalType": "uint256",
          "name": "",
          "type": "uint256"
        }
      ],
      "stateMutability": "nonpayable",
      "type": "function"
    },
    {
      "inputs": [
        {
          "internalType": "uint256",
          "name": "_tokenId",
          "type": "uint256"
        }
      ],
      "name": "getTokenOwner",
      "outputs": [
        {
          "internalType": "address",
          "name": "",
          "type": "address"
        }
      ],
      "stateMutability": "view",
      "type": "function"
    },
    {
      "inputs": [
        {
          "internalType": "uint256",
          "name": "_tokenId",
          "type": "uint256"
        }
      ],
      "name": "getTokenMetaData",
      "outputs": [
        {
          "internalType": "string",
          "name": "",
          "type": "string"
        }
      ],
      "stateMutability": "view",
      "type": "function"
    },
    {
      "inputs": [],
      "name": "getNumberOfTokenMinted",
      "outputs": [
        {
          "internalType": "uint256",
          "name": "",
          "type": "uint256"
        }
      ],
      "stateMutability": "view",
      "type": "function"
    },
    {
      "inputs": [],
      "name": "getTotalNumberOfTokensOwnedByAnAddress",
      "outputs": [
        {
          "internalType": "uint256",
          "name": "",
          "type": "uint256"
        }
      ],
      "stateMutability": "view",
      "type": "function"
    },
    {
      "inputs": [
        {
          "internalType": "uint256",
          "name": "_tokenId",
          "type": "uint256"
        }
      ],
      "name": "getTokenExists",
      "outputs": [
        {
          "internalType": "bool",
          "name": "",
          "type": "bool"
        }
      ],
      "stateMutability": "view",
      "type": "function"
    },
    {
      "inputs": [
        {
          "internalType": "uint256",
          "name": "_tokenId",
          "type": "uint256"
        }
      ],
      "name": "buyToken",
      "outputs": [],
      "stateMutability": "payable",
      "type": "function"
    },
    {
      "inputs": [
        {
          "internalType": "uint256",
          "name": "_tokenId",
          "type": "uint256"
        },
        {
          "internalType": "uint256",
          "name": "_newPrice",
          "type": "uint256"
        }
      ],
      "name": "changeTokenPrice",
      "outputs": [],
      "stateMutability": "nonpayable",
      "type": "function"
    },
    {
      "inputs": [
        {
          "internalType": "uint256",
          "name": "_tokenId",
          "type": "uint256"
        }
      ],
      "name": "toggleForSale",
      "outputs": [],
      "stateMutability": "nonpayable",
      "type": "function"
    }
  ],
  "bytecode": "0x60806040523480156200001157600080fd5b506040518060400160405280600881526020017f556d626c204e46540000000000000000000000000000000000000000000000008152506040518060400160405280600481526020017f554d424c000000000000000000000000000000000000000000000000000000008152508160009080519060200190620000969291906200036b565b508060019080519060200190620000af9291906200036b565b505050620000d2620000c66200016960201b60201c565b6200017160201b60201c565b620000e26200023760201b60201c565b60099080519060200190620000f99291906200036b565b506200010a620002d160201b60201c565b600a9080519060200190620001219291906200036b565b5033600860006101000a81548173ffffffffffffffffffffffffffffffffffffffff021916908373ffffffffffffffffffffffffffffffffffffffff16021790555062000480565b600033905090565b6000600760009054906101000a900473ffffffffffffffffffffffffffffffffffffffff16905081600760006101000a81548173ffffffffffffffffffffffffffffffffffffffff021916908373ffffffffffffffffffffffffffffffffffffffff1602179055508173ffffffffffffffffffffffffffffffffffffffff168173ffffffffffffffffffffffffffffffffffffffff167f8be0079c531659141344cd1fd0a4f28419497f9722a3daafe3b4186f6b6457e060405160405180910390a35050565b60606000805462000248906200041b565b80601f016020809104026020016040519081016040528092919081815260200182805462000276906200041b565b8015620002c75780601f106200029b57610100808354040283529160200191620002c7565b820191906000526020600020905b815481529060010190602001808311620002a957829003601f168201915b5050505050905090565b606060018054620002e2906200041b565b80601f016020809104026020016040519081016040528092919081815260200182805462000310906200041b565b8015620003615780601f10620003355761010080835404028352916020019162000361565b820191906000526020600020905b8154815290600101906020018083116200034357829003601f168201915b5050505050905090565b82805462000379906200041b565b90600052602060002090601f0160209004810192826200039d5760008555620003e9565b82601f10620003b857805160ff1916838001178555620003e9565b82800160010185558215620003e9579182015b82811115620003e8578251825591602001919060010190620003cb565b5b509050620003f89190620003fc565b5090565b5b8082111562000417576000816000905550600101620003fd565b5090565b600060028204905060018216806200043457607f821691505b602082108114156200044b576200044a62000451565b5b50919050565b7f4e487b7100000000000000000000000000000000000000000000000000000000600052602260045260246000fd5b614c3f80620004906000396000f3fe6080604052600436106101d85760003560e01c8063715018a611610102578063a5cd761f11610095578063d082e38111610064578063d082e38114610703578063e985e9c51461072e578063f2fde38b1461076b578063fc5463fe14610794576101d8565b8063a5cd761f14610635578063ab3c176114610672578063b88d4fde1461069d578063c87b56dd146106c6576101d8565b8063a1841cac116100d1578063a1841cac1461057b578063a22cb465146105a6578063a32018b9146105cf578063a46b1fac146105f8576101d8565b8063715018a6146104e35780637b61c320146104fa5780638da5cb5b1461052557806395d89b4114610550576101d8565b80632d296bf11161017a5780636352211e116101495780636352211e1461040157806367c623cf1461043e5780636c02a9311461047b57806370a08231146104a6576101d8565b80632d296bf11461035657806342842e0e1461037257806343d32ae71461039b57806362e8e8ac146103d8576101d8565b8063095ea7b3116101b6578063095ea7b3146102825780630fc13d28146102ab578063142687f3146102f057806323b872dd1461032d576101d8565b806301ffc9a7146101dd57806306fdde031461021a578063081812fc14610245575b600080fd5b3480156101e957600080fd5b5061020460048036038101906101ff91906139b8565b6107d1565b6040516102119190613f4a565b60405180910390f35b34801561022657600080fd5b5061022f6108b3565b60405161023c9190613f65565b60405180910390f35b34801561025157600080fd5b5061026c60048036038101906102679190613ae6565b610945565b6040516102799190613ee3565b60405180910390f35b34801561028e57600080fd5b506102a960048036038101906102a49190613978565b6109ca565b005b3480156102b757600080fd5b506102d260048036038101906102cd9190613ae6565b610ae2565b6040516102e7999897969594939291906141e2565b60405180910390f35b3480156102fc57600080fd5b5061031760048036038101906103129190613ae6565b610cad565b6040516103249190613f4a565b60405180910390f35b34801561033957600080fd5b50610354600480360381019061034f9190613862565b610cc4565b005b610370600480360381019061036b9190613ae6565b610d24565b005b34801561037e57600080fd5b5061039960048036038101906103949190613862565b611384565b005b3480156103a757600080fd5b506103c260048036038101906103bd9190613a12565b6113a4565b6040516103cf9190613f4a565b60405180910390f35b3480156103e457600080fd5b506103ff60048036038101906103fa9190613b13565b6113da565b005b34801561040d57600080fd5b5061042860048036038101906104239190613ae6565b611862565b6040516104359190613ee3565b60405180910390f35b34801561044a57600080fd5b5061046560048036038101906104609190613ae6565b611914565b6040516104729190613f65565b60405180910390f35b34801561048757600080fd5b5061049061192c565b60405161049d9190613f65565b60405180910390f35b3480156104b257600080fd5b506104cd60048036038101906104c891906137f5565b6119ba565b6040516104da91906141c7565b60405180910390f35b3480156104ef57600080fd5b506104f8611a72565b005b34801561050657600080fd5b5061050f611afa565b60405161051c9190613f65565b60405180910390f35b34801561053157600080fd5b5061053a611b88565b6040516105479190613ee3565b60405180910390f35b34801561055c57600080fd5b50610565611bb2565b6040516105729190613f65565b60405180910390f35b34801561058757600080fd5b50610590611c44565b60405161059d91906141c7565b60405180910390f35b3480156105b257600080fd5b506105cd60048036038101906105c89190613938565b611c59565b005b3480156105db57600080fd5b506105f660048036038101906105f19190613ae6565b611dda565b005b34801561060457600080fd5b5061061f600480360381019061061a9190613a12565b61228c565b60405161062c9190613f4a565b60405180910390f35b34801561064157600080fd5b5061065c60048036038101906106579190613ae6565b6122c2565b6040516106699190613ee3565b60405180910390f35b34801561067e57600080fd5b506106876122d9565b60405161069491906141c7565b60405180910390f35b3480156106a957600080fd5b506106c460048036038101906106bf91906138b5565b6122e8565b005b3480156106d257600080fd5b506106ed60048036038101906106e89190613ae6565b61234a565b6040516106fa9190613f65565b60405180910390f35b34801561070f57600080fd5b5061071861249c565b60405161072591906141c7565b60405180910390f35b34801561073a57600080fd5b5061075560048036038101906107509190613822565b6124a2565b6040516107629190613f4a565b60405180910390f35b34801561077757600080fd5b50610792600480360381019061078d91906137f5565b612536565b005b3480156107a057600080fd5b506107bb60048036038101906107b69190613a5b565b61262e565b6040516107c891906141c7565b60405180910390f35b60007f80ac58cd000000000000000000000000000000000000000000000000000000007bffffffffffffffffffffffffffffffffffffffffffffffffffffffff1916827bffffffffffffffffffffffffffffffffffffffffffffffffffffffff1916148061089c57507f5b5e139f000000000000000000000000000000000000000000000000000000007bffffffffffffffffffffffffffffffffffffffffffffffffffffffff1916827bffffffffffffffffffffffffffffffffffffffffffffffffffffffff1916145b806108ac57506108ab82612a06565b5b9050919050565b6060600080546108c2906144ca565b80601f01602080910402602001604051908101604052809291908181526020018280546108ee906144ca565b801561093b5780601f106109105761010080835404028352916020019161093b565b820191906000526020600020905b81548152906001019060200180831161091e57829003601f168201915b5050505050905090565b600061095082612a70565b61098f576040517f08c379a000000000000000000000000000000000000000000000000000000000815260040161098690614107565b60405180910390fd5b6004600083815260200190815260200160002060009054906101000a900473ffffffffffffffffffffffffffffffffffffffff169050919050565b60006109d582611862565b90508073ffffffffffffffffffffffffffffffffffffffff168373ffffffffffffffffffffffffffffffffffffffff161415610a46576040517f08c379a0000000000000000000000000000000000000000000000000000000008152600401610a3d90614187565b60405180910390fd5b8073ffffffffffffffffffffffffffffffffffffffff16610a65612adc565b73ffffffffffffffffffffffffffffffffffffffff161480610a945750610a9381610a8e612adc565b6124a2565b5b610ad3576040517f08c379a0000000000000000000000000000000000000000000000000000000008152600401610aca90614047565b60405180910390fd5b610add8383612ae4565b505050565b600c602052806000526040600020600091509050806000015490806001018054610b0b906144ca565b80601f0160208091040260200160405190810160405280929190818152602001828054610b37906144ca565b8015610b845780601f10610b5957610100808354040283529160200191610b84565b820191906000526020600020905b815481529060010190602001808311610b6757829003601f168201915b505050505090806002018054610b99906144ca565b80601f0160208091040260200160405190810160405280929190818152602001828054610bc5906144ca565b8015610c125780601f10610be757610100808354040283529160200191610c12565b820191906000526020600020905b815481529060010190602001808311610bf557829003601f168201915b5050505050908060030160009054906101000a900473ffffffffffffffffffffffffffffffffffffffff16908060040160009054906101000a900473ffffffffffffffffffffffffffffffffffffffff16908060050160009054906101000a900473ffffffffffffffffffffffffffffffffffffffff16908060060154908060070154908060080160009054906101000a900460ff16905089565b600080610cb983612a70565b905080915050919050565b610cd5610ccf612adc565b82612b9d565b610d14576040517f08c379a0000000000000000000000000000000000000000000000000000000008152600401610d0b906141a7565b60405180910390fd5b610d1f838383612c7b565b505050565b600073ffffffffffffffffffffffffffffffffffffffff163373ffffffffffffffffffffffffffffffffffffffff161415610d5e57600080fd5b610d6781612a70565b610d7057600080fd5b6000610d7b82611862565b9050600073ffffffffffffffffffffffffffffffffffffffff168173ffffffffffffffffffffffffffffffffffffffff161415610db757600080fd5b3373ffffffffffffffffffffffffffffffffffffffff168173ffffffffffffffffffffffffffffffffffffffff161415610df057600080fd5b6000600c60008481526020019081526020016000206040518061012001604052908160008201548152602001600182018054610e2b906144ca565b80601f0160208091040260200160405190810160405280929190818152602001828054610e57906144ca565b8015610ea45780601f10610e7957610100808354040283529160200191610ea4565b820191906000526020600020905b815481529060010190602001808311610e8757829003601f168201915b50505050508152602001600282018054610ebd906144ca565b80601f0160208091040260200160405190810160405280929190818152602001828054610ee9906144ca565b8015610f365780601f10610f0b57610100808354040283529160200191610f36565b820191906000526020600020905b815481529060010190602001808311610f1957829003601f168201915b505050505081526020016003820160009054906101000a900473ffffffffffffffffffffffffffffffffffffffff1673ffffffffffffffffffffffffffffffffffffffff1673ffffffffffffffffffffffffffffffffffffffff1681526020016004820160009054906101000a900473ffffffffffffffffffffffffffffffffffffffff1673ffffffffffffffffffffffffffffffffffffffff1673ffffffffffffffffffffffffffffffffffffffff1681526020016005820160009054906101000a900473ffffffffffffffffffffffffffffffffffffffff1673ffffffffffffffffffffffffffffffffffffffff1673ffffffffffffffffffffffffffffffffffffffff16815260200160068201548152602001600782015481526020016008820160009054906101000a900460ff16151515158152505090508060c0015134101561108357600080fd5b80610100015161109257600080fd5b61109d823385612c7b565b6000816080015190506000600a346110b5919061439d565b9050600081346110c591906143ce565b9050600860009054906101000a900473ffffffffffffffffffffffffffffffffffffffff1673ffffffffffffffffffffffffffffffffffffffff166108fc839081150290604051600060405180830381858888f1935050505015801561112f573d6000803e3d6000fd5b508273ffffffffffffffffffffffffffffffffffffffff166108fc829081150290604051600060405180830381858888f19350505050158015611176573d6000803e3d6000fd5b5083608001518460a0019073ffffffffffffffffffffffffffffffffffffffff16908173ffffffffffffffffffffffffffffffffffffffff168152505033846080019073ffffffffffffffffffffffffffffffffffffffff16908173ffffffffffffffffffffffffffffffffffffffff168152505060018460e0018181516111fe9190614347565b9150818152505060008461010001901515908115158152505083600c6000888152602001908152602001600020600082015181600001556020820151816001019080519060200190611251929190613609565b50604082015181600201908051906020019061126e929190613609565b5060608201518160030160006101000a81548173ffffffffffffffffffffffffffffffffffffffff021916908373ffffffffffffffffffffffffffffffffffffffff16021790555060808201518160040160006101000a81548173ffffffffffffffffffffffffffffffffffffffff021916908373ffffffffffffffffffffffffffffffffffffffff16021790555060a08201518160050160006101000a81548173ffffffffffffffffffffffffffffffffffffffff021916908373ffffffffffffffffffffffffffffffffffffffff16021790555060c0820151816006015560e082015181600701556101008201518160080160006101000a81548160ff021916908315150217905550905050505050505050565b61139f838383604051806020016040528060008152506122e8565b505050565b600e818051602081018201805184825260208301602085012081835280955050505050506000915054906101000a900460ff1681565b600073ffffffffffffffffffffffffffffffffffffffff163373ffffffffffffffffffffffffffffffffffffffff16141561141457600080fd5b61141d82612a70565b61142657600080fd5b600061143183611862565b90503373ffffffffffffffffffffffffffffffffffffffff168173ffffffffffffffffffffffffffffffffffffffff161461146b57600080fd5b6000600c600085815260200190815260200160002060405180610120016040529081600082015481526020016001820180546114a6906144ca565b80601f01602080910402602001604051908101604052809291908181526020018280546114d2906144ca565b801561151f5780601f106114f45761010080835404028352916020019161151f565b820191906000526020600020905b81548152906001019060200180831161150257829003601f168201915b50505050508152602001600282018054611538906144ca565b80601f0160208091040260200160405190810160405280929190818152602001828054611564906144ca565b80156115b15780601f10611586576101008083540402835291602001916115b1565b820191906000526020600020905b81548152906001019060200180831161159457829003601f168201915b505050505081526020016003820160009054906101000a900473ffffffffffffffffffffffffffffffffffffffff1673ffffffffffffffffffffffffffffffffffffffff1673ffffffffffffffffffffffffffffffffffffffff1681526020016004820160009054906101000a900473ffffffffffffffffffffffffffffffffffffffff1673ffffffffffffffffffffffffffffffffffffffff1673ffffffffffffffffffffffffffffffffffffffff1681526020016005820160009054906101000a900473ffffffffffffffffffffffffffffffffffffffff1673ffffffffffffffffffffffffffffffffffffffff1673ffffffffffffffffffffffffffffffffffffffff16815260200160068201548152602001600782015481526020016008820160009054906101000a900460ff1615151515815250509050828160c001818152505080600c6000868152602001908152602001600020600082015181600001556020820151816001019080519060200190611731929190613609565b50604082015181600201908051906020019061174e929190613609565b5060608201518160030160006101000a81548173ffffffffffffffffffffffffffffffffffffffff021916908373ffffffffffffffffffffffffffffffffffffffff16021790555060808201518160040160006101000a81548173ffffffffffffffffffffffffffffffffffffffff021916908373ffffffffffffffffffffffffffffffffffffffff16021790555060a08201518160050160006101000a81548173ffffffffffffffffffffffffffffffffffffffff021916908373ffffffffffffffffffffffffffffffffffffffff16021790555060c0820151816006015560e082015181600701556101008201518160080160006101000a81548160ff02191690831515021790555090505050505050565b6000806002600084815260200190815260200160002060009054906101000a900473ffffffffffffffffffffffffffffffffffffffff169050600073ffffffffffffffffffffffffffffffffffffffff168173ffffffffffffffffffffffffffffffffffffffff16141561190b576040517f08c379a000000000000000000000000000000000000000000000000000000000815260040161190290614087565b60405180910390fd5b80915050919050565b606060006119218361234a565b905080915050919050565b60098054611939906144ca565b80601f0160208091040260200160405190810160405280929190818152602001828054611965906144ca565b80156119b25780601f10611987576101008083540402835291602001916119b2565b820191906000526020600020905b81548152906001019060200180831161199557829003601f168201915b505050505081565b60008073ffffffffffffffffffffffffffffffffffffffff168273ffffffffffffffffffffffffffffffffffffffff161415611a2b576040517f08c379a0000000000000000000000000000000000000000000000000000000008152600401611a2290614067565b60405180910390fd5b600360008373ffffffffffffffffffffffffffffffffffffffff1673ffffffffffffffffffffffffffffffffffffffff168152602001908152602001600020549050919050565b611a7a612adc565b73ffffffffffffffffffffffffffffffffffffffff16611a98611b88565b73ffffffffffffffffffffffffffffffffffffffff1614611aee576040517f08c379a0000000000000000000000000000000000000000000000000000000008152600401611ae590614127565b60405180910390fd5b611af86000612ed7565b565b600a8054611b07906144ca565b80601f0160208091040260200160405190810160405280929190818152602001828054611b33906144ca565b8015611b805780601f10611b5557610100808354040283529160200191611b80565b820191906000526020600020905b815481529060010190602001808311611b6357829003601f168201915b505050505081565b6000600760009054906101000a900473ffffffffffffffffffffffffffffffffffffffff16905090565b606060018054611bc1906144ca565b80601f0160208091040260200160405190810160405280929190818152602001828054611bed906144ca565b8015611c3a5780601f10611c0f57610100808354040283529160200191611c3a565b820191906000526020600020905b815481529060010190602001808311611c1d57829003601f168201915b5050505050905090565b600080611c50336119ba565b90508091505090565b611c61612adc565b73ffffffffffffffffffffffffffffffffffffffff168273ffffffffffffffffffffffffffffffffffffffff161415611ccf576040517f08c379a0000000000000000000000000000000000000000000000000000000008152600401611cc690614007565b60405180910390fd5b8060056000611cdc612adc565b73ffffffffffffffffffffffffffffffffffffffff1673ffffffffffffffffffffffffffffffffffffffff16815260200190815260200160002060008473ffffffffffffffffffffffffffffffffffffffff1673ffffffffffffffffffffffffffffffffffffffff16815260200190815260200160002060006101000a81548160ff0219169083151502179055508173ffffffffffffffffffffffffffffffffffffffff16611d89612adc565b73ffffffffffffffffffffffffffffffffffffffff167f17307eab39ab6107e8899845ad3d59bd9653f200f220920489ca2b5937696c3183604051611dce9190613f4a565b60405180910390a35050565b600073ffffffffffffffffffffffffffffffffffffffff163373ffffffffffffffffffffffffffffffffffffffff161415611e1457600080fd5b611e1d81612a70565b611e2657600080fd5b6000611e3182611862565b90503373ffffffffffffffffffffffffffffffffffffffff168173ffffffffffffffffffffffffffffffffffffffff1614611e6b57600080fd5b6000600c60008481526020019081526020016000206040518061012001604052908160008201548152602001600182018054611ea6906144ca565b80601f0160208091040260200160405190810160405280929190818152602001828054611ed2906144ca565b8015611f1f5780601f10611ef457610100808354040283529160200191611f1f565b820191906000526020600020905b815481529060010190602001808311611f0257829003601f168201915b50505050508152602001600282018054611f38906144ca565b80601f0160208091040260200160405190810160405280929190818152602001828054611f64906144ca565b8015611fb15780601f10611f8657610100808354040283529160200191611fb1565b820191906000526020600020905b815481529060010190602001808311611f9457829003601f168201915b505050505081526020016003820160009054906101000a900473ffffffffffffffffffffffffffffffffffffffff1673ffffffffffffffffffffffffffffffffffffffff1673ffffffffffffffffffffffffffffffffffffffff1681526020016004820160009054906101000a900473ffffffffffffffffffffffffffffffffffffffff1673ffffffffffffffffffffffffffffffffffffffff1673ffffffffffffffffffffffffffffffffffffffff1681526020016005820160009054906101000a900473ffffffffffffffffffffffffffffffffffffffff1673ffffffffffffffffffffffffffffffffffffffff1673ffffffffffffffffffffffffffffffffffffffff16815260200160068201548152602001600782015481526020016008820160009054906101000a900460ff16151515158152505090508061010001511561210f57600081610100019015159081151581525050612122565b6001816101000190151590811515815250505b80600c600085815260200190815260200160002060008201518160000155602082015181600101908051906020019061215c929190613609565b506040820151816002019080519060200190612179929190613609565b5060608201518160030160006101000a81548173ffffffffffffffffffffffffffffffffffffffff021916908373ffffffffffffffffffffffffffffffffffffffff16021790555060808201518160040160006101000a81548173ffffffffffffffffffffffffffffffffffffffff021916908373ffffffffffffffffffffffffffffffffffffffff16021790555060a08201518160050160006101000a81548173ffffffffffffffffffffffffffffffffffffffff021916908373ffffffffffffffffffffffffffffffffffffffff16021790555060c0820151816006015560e082015181600701556101008201518160080160006101000a81548160ff021916908315150217905550905050505050565b600d818051602081018201805184825260208301602085012081835280955050505050506000915054906101000a900460ff1681565b6000806122ce83611862565b905080915050919050565b600080600b5490508091505090565b6122f96122f3612adc565b83612b9d565b612338576040517f08c379a000000000000000000000000000000000000000000000000000000000815260040161232f906141a7565b60405180910390fd5b61234484848484612f9d565b50505050565b606061235582612a70565b612394576040517f08c379a000000000000000000000000000000000000000000000000000000000815260040161238b906140e7565b60405180910390fd5b60006006600084815260200190815260200160002080546123b4906144ca565b80601f01602080910402602001604051908101604052809291908181526020018280546123e0906144ca565b801561242d5780601f106124025761010080835404028352916020019161242d565b820191906000526020600020905b81548152906001019060200180831161241057829003601f168201915b50505050509050600061243e612ff9565b9050600081511415612454578192505050612497565b600082511115612489578082604051602001612471929190613ebf565b60405160208183030381529060405292505050612497565b61249284613010565b925050505b919050565b600b5481565b6000600560008473ffffffffffffffffffffffffffffffffffffffff1673ffffffffffffffffffffffffffffffffffffffff16815260200190815260200160002060008373ffffffffffffffffffffffffffffffffffffffff1673ffffffffffffffffffffffffffffffffffffffff16815260200190815260200160002060009054906101000a900460ff16905092915050565b61253e612adc565b73ffffffffffffffffffffffffffffffffffffffff1661255c611b88565b73ffffffffffffffffffffffffffffffffffffffff16146125b2576040517f08c379a00000000000000000000000000000000000000000000000000000000081526004016125a990614127565b60405180910390fd5b600073ffffffffffffffffffffffffffffffffffffffff168173ffffffffffffffffffffffffffffffffffffffff161415612622576040517f08c379a000000000000000000000000000000000000000000000000000000000815260040161261990613fa7565b60405180910390fd5b61262b81612ed7565b50565b6000612638612adc565b73ffffffffffffffffffffffffffffffffffffffff16612656611b88565b73ffffffffffffffffffffffffffffffffffffffff16146126ac576040517f08c379a00000000000000000000000000000000000000000000000000000000081526004016126a390614127565b60405180910390fd5b600073ffffffffffffffffffffffffffffffffffffffff163373ffffffffffffffffffffffffffffffffffffffff1614156126e657600080fd5b600b60008154809291906126f99061452d565b9190505550612709600b54612a70565b1561271357600080fd5b600e836040516127239190613ea8565b908152602001604051809103902060009054906101000a900460ff161561274957600080fd5b600d846040516127599190613ea8565b908152602001604051809103902060009054906101000a900460ff161561277f57600080fd5b61278b33600b546130b7565b612797600b5484613285565b6001600e846040516127a99190613ea8565b908152602001604051809103902060006101000a81548160ff0219169083151502179055506001600d856040516127e09190613ea8565b908152602001604051809103902060006101000a81548160ff0219169083151502179055506000604051806101200160405280600b5481526020018681526020018581526020013373ffffffffffffffffffffffffffffffffffffffff1681526020013373ffffffffffffffffffffffffffffffffffffffff168152602001600073ffffffffffffffffffffffffffffffffffffffff1681526020018481526020016000815260200160011515815250905080600c6000600b5481526020019081526020016000206000820151816000015560208201518160010190805190602001906128ce929190613609565b5060408201518160020190805190602001906128eb929190613609565b5060608201518160030160006101000a81548173ffffffffffffffffffffffffffffffffffffffff021916908373ffffffffffffffffffffffffffffffffffffffff16021790555060808201518160040160006101000a81548173ffffffffffffffffffffffffffffffffffffffff021916908373ffffffffffffffffffffffffffffffffffffffff16021790555060a08201518160050160006101000a81548173ffffffffffffffffffffffffffffffffffffffff021916908373ffffffffffffffffffffffffffffffffffffffff16021790555060c0820151816006015560e082015181600701556101008201518160080160006101000a81548160ff021916908315150217905550905050600b549150509392505050565b60007f01ffc9a7000000000000000000000000000000000000000000000000000000007bffffffffffffffffffffffffffffffffffffffffffffffffffffffff1916827bffffffffffffffffffffffffffffffffffffffffffffffffffffffff1916149050919050565b60008073ffffffffffffffffffffffffffffffffffffffff166002600084815260200190815260200160002060009054906101000a900473ffffffffffffffffffffffffffffffffffffffff1673ffffffffffffffffffffffffffffffffffffffff1614159050919050565b600033905090565b816004600083815260200190815260200160002060006101000a81548173ffffffffffffffffffffffffffffffffffffffff021916908373ffffffffffffffffffffffffffffffffffffffff160217905550808273ffffffffffffffffffffffffffffffffffffffff16612b5783611862565b73ffffffffffffffffffffffffffffffffffffffff167f8c5be1e5ebec7d5bd14f71427d1e84f3dd0314c0f7b2291e5b200ac8c7c3b92560405160405180910390a45050565b6000612ba882612a70565b612be7576040517f08c379a0000000000000000000000000000000000000000000000000000000008152600401612bde90614027565b60405180910390fd5b6000612bf283611862565b90508073ffffffffffffffffffffffffffffffffffffffff168473ffffffffffffffffffffffffffffffffffffffff161480612c6157508373ffffffffffffffffffffffffffffffffffffffff16612c4984610945565b73ffffffffffffffffffffffffffffffffffffffff16145b80612c725750612c7181856124a2565b5b91505092915050565b8273ffffffffffffffffffffffffffffffffffffffff16612c9b82611862565b73ffffffffffffffffffffffffffffffffffffffff1614612cf1576040517f08c379a0000000000000000000000000000000000000000000000000000000008152600401612ce890614147565b60405180910390fd5b600073ffffffffffffffffffffffffffffffffffffffff168273ffffffffffffffffffffffffffffffffffffffff161415612d61576040517f08c379a0000000000000000000000000000000000000000000000000000000008152600401612d5890613fe7565b60405180910390fd5b612d6c8383836132f9565b612d77600082612ae4565b6001600360008573ffffffffffffffffffffffffffffffffffffffff1673ffffffffffffffffffffffffffffffffffffffff1681526020019081526020016000206000828254612dc791906143ce565b925050819055506001600360008473ffffffffffffffffffffffffffffffffffffffff1673ffffffffffffffffffffffffffffffffffffffff1681526020019081526020016000206000828254612e1e9190614347565b92505081905550816002600083815260200190815260200160002060006101000a81548173ffffffffffffffffffffffffffffffffffffffff021916908373ffffffffffffffffffffffffffffffffffffffff160217905550808273ffffffffffffffffffffffffffffffffffffffff168473ffffffffffffffffffffffffffffffffffffffff167fddf252ad1be2c89b69c2b068fc378daa952ba7f163c4a11628f55a4df523b3ef60405160405180910390a4505050565b6000600760009054906101000a900473ffffffffffffffffffffffffffffffffffffffff16905081600760006101000a81548173ffffffffffffffffffffffffffffffffffffffff021916908373ffffffffffffffffffffffffffffffffffffffff1602179055508173ffffffffffffffffffffffffffffffffffffffff168173ffffffffffffffffffffffffffffffffffffffff167f8be0079c531659141344cd1fd0a4f28419497f9722a3daafe3b4186f6b6457e060405160405180910390a35050565b612fa8848484612c7b565b612fb4848484846132fe565b612ff3576040517f08c379a0000000000000000000000000000000000000000000000000000000008152600401612fea90613f87565b60405180910390fd5b50505050565b606060405180602001604052806000815250905090565b606061301b82612a70565b61305a576040517f08c379a000000000000000000000000000000000000000000000000000000000815260040161305190614167565b60405180910390fd5b6000613064612ff9565b9050600081511161308457604051806020016040528060008152506130af565b8061308e84613495565b60405160200161309f929190613ebf565b6040516020818303038152906040525b915050919050565b600073ffffffffffffffffffffffffffffffffffffffff168273ffffffffffffffffffffffffffffffffffffffff161415613127576040517f08c379a000000000000000000000000000000000000000000000000000000000815260040161311e906140c7565b60405180910390fd5b61313081612a70565b15613170576040517f08c379a000000000000000000000000000000000000000000000000000000000815260040161316790613fc7565b60405180910390fd5b61317c600083836132f9565b6001600360008473ffffffffffffffffffffffffffffffffffffffff1673ffffffffffffffffffffffffffffffffffffffff16815260200190815260200160002060008282546131cc9190614347565b92505081905550816002600083815260200190815260200160002060006101000a81548173ffffffffffffffffffffffffffffffffffffffff021916908373ffffffffffffffffffffffffffffffffffffffff160217905550808273ffffffffffffffffffffffffffffffffffffffff16600073ffffffffffffffffffffffffffffffffffffffff167fddf252ad1be2c89b69c2b068fc378daa952ba7f163c4a11628f55a4df523b3ef60405160405180910390a45050565b61328e82612a70565b6132cd576040517f08c379a00000000000000000000000000000000000000000000000000000000081526004016132c4906140a7565b60405180910390fd5b806006600084815260200190815260200160002090805190602001906132f4929190613609565b505050565b505050565b600061331f8473ffffffffffffffffffffffffffffffffffffffff166135f6565b15613488578373ffffffffffffffffffffffffffffffffffffffff1663150b7a02613348612adc565b8786866040518563ffffffff1660e01b815260040161336a9493929190613efe565b602060405180830381600087803b15801561338457600080fd5b505af19250505080156133b557506040513d601f19601f820116820180604052508101906133b291906139e5565b60015b613438573d80600081146133e5576040519150601f19603f3d011682016040523d82523d6000602084013e6133ea565b606091505b50600081511415613430576040517f08c379a000000000000000000000000000000000000000000000000000000000815260040161342790613f87565b60405180910390fd5b805181602001fd5b63150b7a0260e01b7bffffffffffffffffffffffffffffffffffffffffffffffffffffffff1916817bffffffffffffffffffffffffffffffffffffffffffffffffffffffff19161491505061348d565b600190505b949350505050565b606060008214156134dd576040518060400160405280600181526020017f300000000000000000000000000000000000000000000000000000000000000081525090506135f1565b600082905060005b6000821461350f5780806134f89061452d565b915050600a82613508919061439d565b91506134e5565b60008167ffffffffffffffff81111561352b5761352a614663565b5b6040519080825280601f01601f19166020018201604052801561355d5781602001600182028036833780820191505090505b5090505b600085146135ea5760018261357691906143ce565b9150600a856135859190614576565b60306135919190614347565b60f81b8183815181106135a7576135a6614634565b5b60200101907effffffffffffffffffffffffffffffffffffffffffffffffffffffffffffff1916908160001a905350600a856135e3919061439d565b9450613561565b8093505050505b919050565b600080823b905060008111915050919050565b828054613615906144ca565b90600052602060002090601f016020900481019282613637576000855561367e565b82601f1061365057805160ff191683800117855561367e565b8280016001018555821561367e579182015b8281111561367d578251825591602001919060010190613662565b5b50905061368b919061368f565b5090565b5b808211156136a8576000816000905550600101613690565b5090565b60006136bf6136ba846142a2565b61427d565b9050828152602081018484840111156136db576136da614697565b5b6136e6848285614488565b509392505050565b60006137016136fc846142d3565b61427d565b90508281526020810184848401111561371d5761371c614697565b5b613728848285614488565b509392505050565b60008135905061373f81614bad565b92915050565b60008135905061375481614bc4565b92915050565b60008135905061376981614bdb565b92915050565b60008151905061377e81614bdb565b92915050565b600082601f83011261379957613798614692565b5b81356137a98482602086016136ac565b91505092915050565b600082601f8301126137c7576137c6614692565b5b81356137d78482602086016136ee565b91505092915050565b6000813590506137ef81614bf2565b92915050565b60006020828403121561380b5761380a6146a1565b5b600061381984828501613730565b91505092915050565b60008060408385031215613839576138386146a1565b5b600061384785828601613730565b925050602061385885828601613730565b9150509250929050565b60008060006060848603121561387b5761387a6146a1565b5b600061388986828701613730565b935050602061389a86828701613730565b92505060406138ab868287016137e0565b9150509250925092565b600080600080608085870312156138cf576138ce6146a1565b5b60006138dd87828801613730565b94505060206138ee87828801613730565b93505060406138ff878288016137e0565b925050606085013567ffffffffffffffff8111156139205761391f61469c565b5b61392c87828801613784565b91505092959194509250565b6000806040838503121561394f5761394e6146a1565b5b600061395d85828601613730565b925050602061396e85828601613745565b9150509250929050565b6000806040838503121561398f5761398e6146a1565b5b600061399d85828601613730565b92505060206139ae858286016137e0565b9150509250929050565b6000602082840312156139ce576139cd6146a1565b5b60006139dc8482850161375a565b91505092915050565b6000602082840312156139fb576139fa6146a1565b5b6000613a098482850161376f565b91505092915050565b600060208284031215613a2857613a276146a1565b5b600082013567ffffffffffffffff811115613a4657613a4561469c565b5b613a52848285016137b2565b91505092915050565b600080600060608486031215613a7457613a736146a1565b5b600084013567ffffffffffffffff811115613a9257613a9161469c565b5b613a9e868287016137b2565b935050602084013567ffffffffffffffff811115613abf57613abe61469c565b5b613acb868287016137b2565b9250506040613adc868287016137e0565b9150509250925092565b600060208284031215613afc57613afb6146a1565b5b6000613b0a848285016137e0565b91505092915050565b60008060408385031215613b2a57613b296146a1565b5b6000613b38858286016137e0565b9250506020613b49858286016137e0565b9150509250929050565b613b5c81614414565b82525050565b613b6b81614402565b82525050565b613b7a81614426565b82525050565b6000613b8b82614304565b613b95818561431a565b9350613ba5818560208601614497565b613bae816146a6565b840191505092915050565b6000613bc48261430f565b613bce818561432b565b9350613bde818560208601614497565b613be7816146a6565b840191505092915050565b6000613bfd8261430f565b613c07818561433c565b9350613c17818560208601614497565b80840191505092915050565b6000613c3060328361432b565b9150613c3b826146b7565b604082019050919050565b6000613c5360268361432b565b9150613c5e82614706565b604082019050919050565b6000613c76601c8361432b565b9150613c8182614755565b602082019050919050565b6000613c9960248361432b565b9150613ca48261477e565b604082019050919050565b6000613cbc60198361432b565b9150613cc7826147cd565b602082019050919050565b6000613cdf602c8361432b565b9150613cea826147f6565b604082019050919050565b6000613d0260388361432b565b9150613d0d82614845565b604082019050919050565b6000613d25602a8361432b565b9150613d3082614894565b604082019050919050565b6000613d4860298361432b565b9150613d53826148e3565b604082019050919050565b6000613d6b602e8361432b565b9150613d7682614932565b604082019050919050565b6000613d8e60208361432b565b9150613d9982614981565b602082019050919050565b6000613db160318361432b565b9150613dbc826149aa565b604082019050919050565b6000613dd4602c8361432b565b9150613ddf826149f9565b604082019050919050565b6000613df760208361432b565b9150613e0282614a48565b602082019050919050565b6000613e1a60298361432b565b9150613e2582614a71565b604082019050919050565b6000613e3d602f8361432b565b9150613e4882614ac0565b604082019050919050565b6000613e6060218361432b565b9150613e6b82614b0f565b604082019050919050565b6000613e8360318361432b565b9150613e8e82614b5e565b604082019050919050565b613ea28161447e565b82525050565b6000613eb48284613bf2565b915081905092915050565b6000613ecb8285613bf2565b9150613ed78284613bf2565b91508190509392505050565b6000602082019050613ef86000830184613b62565b92915050565b6000608082019050613f136000830187613b62565b613f206020830186613b62565b613f2d6040830185613e99565b8181036060830152613f3f8184613b80565b905095945050505050565b6000602082019050613f5f6000830184613b71565b92915050565b60006020820190508181036000830152613f7f8184613bb9565b905092915050565b60006020820190508181036000830152613fa081613c23565b9050919050565b60006020820190508181036000830152613fc081613c46565b9050919050565b60006020820190508181036000830152613fe081613c69565b9050919050565b6000602082019050818103600083015261400081613c8c565b9050919050565b6000602082019050818103600083015261402081613caf565b9050919050565b6000602082019050818103600083015261404081613cd2565b9050919050565b6000602082019050818103600083015261406081613cf5565b9050919050565b6000602082019050818103600083015261408081613d18565b9050919050565b600060208201905081810360008301526140a081613d3b565b9050919050565b600060208201905081810360008301526140c081613d5e565b9050919050565b600060208201905081810360008301526140e081613d81565b9050919050565b6000602082019050818103600083015261410081613da4565b9050919050565b6000602082019050818103600083015261412081613dc7565b9050919050565b6000602082019050818103600083015261414081613dea565b9050919050565b6000602082019050818103600083015261416081613e0d565b9050919050565b6000602082019050818103600083015261418081613e30565b9050919050565b600060208201905081810360008301526141a081613e53565b9050919050565b600060208201905081810360008301526141c081613e76565b9050919050565b60006020820190506141dc6000830184613e99565b92915050565b6000610120820190506141f8600083018c613e99565b818103602083015261420a818b613bb9565b9050818103604083015261421e818a613bb9565b905061422d6060830189613b53565b61423a6080830188613b53565b61424760a0830187613b53565b61425460c0830186613e99565b61426160e0830185613e99565b61426f610100830184613b71565b9a9950505050505050505050565b6000614287614298565b905061429382826144fc565b919050565b6000604051905090565b600067ffffffffffffffff8211156142bd576142bc614663565b5b6142c6826146a6565b9050602081019050919050565b600067ffffffffffffffff8211156142ee576142ed614663565b5b6142f7826146a6565b9050602081019050919050565b600081519050919050565b600081519050919050565b600082825260208201905092915050565b600082825260208201905092915050565b600081905092915050565b60006143528261447e565b915061435d8361447e565b9250827fffffffffffffffffffffffffffffffffffffffffffffffffffffffffffffffff03821115614392576143916145a7565b5b828201905092915050565b60006143a88261447e565b91506143b38361447e565b9250826143c3576143c26145d6565b5b828204905092915050565b60006143d98261447e565b91506143e48361447e565b9250828210156143f7576143f66145a7565b5b828203905092915050565b600061440d8261445e565b9050919050565b600061441f8261445e565b9050919050565b60008115159050919050565b60007fffffffff0000000000000000000000000000000000000000000000000000000082169050919050565b600073ffffffffffffffffffffffffffffffffffffffff82169050919050565b6000819050919050565b82818337600083830152505050565b60005b838110156144b557808201518184015260208101905061449a565b838111156144c4576000848401525b50505050565b600060028204905060018216806144e257607f821691505b602082108114156144f6576144f5614605565b5b50919050565b614505826146a6565b810181811067ffffffffffffffff8211171561452457614523614663565b5b80604052505050565b60006145388261447e565b91507fffffffffffffffffffffffffffffffffffffffffffffffffffffffffffffffff82141561456b5761456a6145a7565b5b600182019050919050565b60006145818261447e565b915061458c8361447e565b92508261459c5761459b6145d6565b5b828206905092915050565b7f4e487b7100000000000000000000000000000000000000000000000000000000600052601160045260246000fd5b7f4e487b7100000000000000000000000000000000000000000000000000000000600052601260045260246000fd5b7f4e487b7100000000000000000000000000000000000000000000000000000000600052602260045260246000fd5b7f4e487b7100000000000000000000000000000000000000000000000000000000600052603260045260246000fd5b7f4e487b7100000000000000000000000000000000000000000000000000000000600052604160045260246000fd5b600080fd5b600080fd5b600080fd5b600080fd5b6000601f19601f8301169050919050565b7f4552433732313a207472616e7366657220746f206e6f6e20455243373231526560008201527f63656976657220696d706c656d656e7465720000000000000000000000000000602082015250565b7f4f776e61626c653a206e6577206f776e657220697320746865207a65726f206160008201527f6464726573730000000000000000000000000000000000000000000000000000602082015250565b7f4552433732313a20746f6b656e20616c7265616479206d696e74656400000000600082015250565b7f4552433732313a207472616e7366657220746f20746865207a65726f2061646460008201527f7265737300000000000000000000000000000000000000000000000000000000602082015250565b7f4552433732313a20617070726f766520746f2063616c6c657200000000000000600082015250565b7f4552433732313a206f70657261746f7220717565727920666f72206e6f6e657860008201527f697374656e7420746f6b656e0000000000000000000000000000000000000000602082015250565b7f4552433732313a20617070726f76652063616c6c6572206973206e6f74206f7760008201527f6e6572206e6f7220617070726f76656420666f7220616c6c0000000000000000602082015250565b7f4552433732313a2062616c616e636520717565727920666f7220746865207a6560008201527f726f206164647265737300000000000000000000000000000000000000000000602082015250565b7f4552433732313a206f776e657220717565727920666f72206e6f6e657869737460008201527f656e7420746f6b656e0000000000000000000000000000000000000000000000602082015250565b7f45524337323155524953746f726167653a2055524920736574206f66206e6f6e60008201527f6578697374656e7420746f6b656e000000000000000000000000000000000000602082015250565b7f4552433732313a206d696e7420746f20746865207a65726f2061646472657373600082015250565b7f45524337323155524953746f726167653a2055524920717565727920666f722060008201527f6e6f6e6578697374656e7420746f6b656e000000000000000000000000000000602082015250565b7f4552433732313a20617070726f76656420717565727920666f72206e6f6e657860008201527f697374656e7420746f6b656e0000000000000000000000000000000000000000602082015250565b7f4f776e61626c653a2063616c6c6572206973206e6f7420746865206f776e6572600082015250565b7f4552433732313a207472616e73666572206f6620746f6b656e2074686174206960008201527f73206e6f74206f776e0000000000000000000000000000000000000000000000602082015250565b7f4552433732314d657461646174613a2055524920717565727920666f72206e6f60008201527f6e6578697374656e7420746f6b656e0000000000000000000000000000000000602082015250565b7f4552433732313a20617070726f76616c20746f2063757272656e74206f776e6560008201527f7200000000000000000000000000000000000000000000000000000000000000602082015250565b7f4552433732313a207472616e736665722063616c6c6572206973206e6f74206f60008201527f776e6572206e6f7220617070726f766564000000000000000000000000000000602082015250565b614bb681614402565b8114614bc157600080fd5b50565b614bcd81614426565b8114614bd857600080fd5b50565b614be481614432565b8114614bef57600080fd5b50565b614bfb8161447e565b8114614c0657600080fd5b5056fea2646970667358221220965fc11ebac963a2cea11e6e2e239e6ad6e54934a3c5145c736c89ad807419c864736f6c63430008070033",
  "immutableReferences": {},
  "source": "// contracts/UmblNFT.sol\r\n// SPDX-License-Identifier: MIT\r\npragma solidity ^0.8.0;\r\n\r\nimport \"@openzeppelin/contracts/token/ERC721/ERC721.sol\";\r\nimport \"@openzeppelin/contracts/token/ERC721/extensions/ERC721Enumerable.sol\";\r\nimport \"@openzeppelin/contracts/token/ERC721/extensions/ERC721URIStorage.sol\";\r\nimport \"@openzeppelin/contracts/access/Ownable.sol\";\r\n\r\ncontract UmblNFT is ERC721URIStorage, Ownable {\r\n    // this contract's owner address\r\n    address payable tokenOwnerAddress;    \r\n    // this contract's token name\r\n    string public tokenName;\r\n    // this contract's token symbol\r\n    string public tokenSymbol;\r\n    // total number of token minted\r\n    uint256 public tokenCounter;\r\n    // token data structure\r\n    struct UmblData {\r\n        uint256 tokenId;\r\n        string tokenName;\r\n        string tokenURI;\r\n        address payable mintedBy;\r\n        address payable currentOwner;\r\n        address payable previousOwner;\r\n        uint256 price;\r\n        uint256 numberOfTransfers;\r\n        bool forSale;\r\n    }\r\n\r\n    // map token id to umbl data\r\n    mapping(uint256 => UmblData) public allUmblData;\r\n    // check if token name exists\r\n    mapping(string => bool) public tokenNameExists;\r\n    // check if token URI exists\r\n    mapping(string => bool) public tokenURIExists;\r\n\r\n    // initialize contract while deployment with contract's token name and symbol\r\n    constructor() ERC721(\"Umbl NFT\", \"UMBL\") {\r\n        tokenName = name();\r\n        tokenSymbol = symbol();\r\n        tokenOwnerAddress = payable(msg.sender);\r\n    }\r\n\r\n    // mint a new token\r\n    function mintUmbl(string memory _name, string memory _tokenURI,  uint256 _price)\r\n        public onlyOwner\r\n        returns (uint256)\r\n    {\r\n        // check if this function caller is not an zero address account\r\n        require(msg.sender != address(0));\r\n\r\n        // increase token counter\r\n        tokenCounter ++;\r\n\r\n        // check if a token exists with the above token id => incremented counter\r\n        require(!_exists(tokenCounter));\r\n        // check if the token URI already exists or not\r\n        require(!tokenURIExists[_tokenURI]);\r\n        // check if the token name already exists or not\r\n        require(!tokenNameExists[_name]);\r\n\r\n        // mint the token\r\n        _mint(msg.sender, tokenCounter);\r\n        // set token URI\r\n        _setTokenURI(tokenCounter, _tokenURI);\r\n\r\n        // make passed token URI as exists\r\n        tokenURIExists[_tokenURI] = true;\r\n        // make passed token name as exists\r\n        tokenNameExists[_name] = true;\r\n\r\n        // create a new token struct and pass it new values\r\n        UmblData memory newUmblData = UmblData(\r\n            tokenCounter,\r\n            _name,\r\n            _tokenURI,\r\n            payable(msg.sender),\r\n            payable(msg.sender),\r\n            payable(address(0)),\r\n            _price,\r\n            0,\r\n            true\r\n        );\r\n\r\n        // add the token id and it's struct to all tokens mapping\r\n        allUmblData[tokenCounter] = newUmblData;\r\n\r\n        // return token id\r\n        return tokenCounter;\r\n    }\r\n\r\n    // get owner of the token\r\n    function getTokenOwner(uint256 _tokenId)\r\n        public view\r\n        returns(address) \r\n    {\r\n        address _tokenOwner = ownerOf(_tokenId);\r\n        return _tokenOwner;\r\n    }\r\n\r\n    // get metadata of the token\r\n    function getTokenMetaData(uint _tokenId)\r\n        public view\r\n        returns(string memory ) \r\n    {\r\n        string memory _tokenMetaData = tokenURI(_tokenId);\r\n        return _tokenMetaData;\r\n    }\r\n\r\n    // get total number of tokens minted so far\r\n    function getNumberOfTokenMinted()\r\n        public view\r\n        returns(uint256)\r\n    {\r\n        // uint256 _totalNumberOfTokensMinted = totalSupply();\r\n        uint256 _totalNumberOfTokensMinted = tokenCounter;\r\n        return _totalNumberOfTokensMinted;\r\n    }\r\n\r\n    // get total number of tokens owned by an address\r\n    function getTotalNumberOfTokensOwnedByAnAddress()\r\n        public view\r\n        returns(uint256)\r\n    {\r\n        uint256 _totalNumberOfTokensOwned = balanceOf(msg.sender);\r\n        return _totalNumberOfTokensOwned;\r\n    }\r\n\r\n    // check if the token already exists\r\n    function getTokenExists(uint256 _tokenId)\r\n        public view\r\n        returns(bool)\r\n    {\r\n        bool _tokenExists = _exists(_tokenId);\r\n        return _tokenExists;\r\n    }\r\n\r\n    // buy a token by passing in the token's id\r\n    function buyToken(uint256 _tokenId)\r\n        public payable\r\n    {\r\n        // check if the function caller is not an zero address account\r\n        require(msg.sender != address(0));\r\n\r\n        // check if the token id of the token being bought exists or not\r\n        require(_exists(_tokenId));\r\n\r\n        // get the token's owner\r\n        address tokenOwner = ownerOf(_tokenId);\r\n\r\n        // token's owner should not be an zero address account\r\n        require(tokenOwner != address(0));\r\n\r\n        // the one who wants to buy the token should not be the token's owner\r\n        require(tokenOwner != msg.sender);\r\n\r\n        // get the token from all UmblData mapping and create a memory of it as defined\r\n        UmblData memory umblData = allUmblData[_tokenId];\r\n\r\n        // price sent in to buy should be equal to or more than the token's price\r\n        require(msg.value >= umblData.price);\r\n\r\n        // token should be for sale\r\n        require(umblData.forSale);\r\n\r\n        // transfer the token from owner to the caller of the function (buyer)\r\n        _transfer(tokenOwner, msg.sender, _tokenId);\r\n\r\n        // get owner of the token\r\n        address payable sendTo = umblData.currentOwner;\r\n\r\n        // get divided value of total token price\r\n        uint256 _priceToOwner = msg.value / 10;\r\n        uint256 _priceToSeller = msg.value - _priceToOwner;\r\n\r\n        // send 10% token's worth of bnb to the owner\r\n        tokenOwnerAddress.transfer(_priceToOwner);\r\n\r\n        // send 90% token's worth of bnb to the owner\r\n        sendTo.transfer(_priceToSeller);\r\n\r\n        // update the token's previous owner\r\n        umblData.previousOwner = umblData.currentOwner;\r\n\r\n        // update the token's current owner\r\n        umblData.currentOwner = payable(msg.sender);\r\n\r\n        // update the token's transferred time\r\n        umblData.numberOfTransfers += 1;\r\n\r\n        // update the token's forSale to false\r\n        umblData.forSale = false;\r\n\r\n        // set and update that token in the mapping\r\n        allUmblData[_tokenId] = umblData;\r\n    }\r\n\r\n    // update token's price\r\n    function changeTokenPrice(uint256 _tokenId, uint256 _newPrice)\r\n        public\r\n    {\r\n        // require caller of the function is not an empty address account\r\n        require(msg.sender != address(0));\r\n\r\n        // require that token should exist\r\n        require(_exists(_tokenId));\r\n\r\n        // get the token's owner\r\n        address _tokenOwner = ownerOf(_tokenId);\r\n\r\n        // check the token's owner should be equal to the caller of the function\r\n        require(_tokenOwner == msg.sender);\r\n\r\n        // get the token's struct from mapping and create a memory of it\r\n        UmblData memory umblData = allUmblData[_tokenId];\r\n\r\n        // update the token's price with new price\r\n        umblData.price = _newPrice;\r\n\r\n        // set and update the token in the mapping\r\n        allUmblData[_tokenId] = umblData;\r\n    }\r\n\r\n    // switch between set for sale and set not for sale\r\n    function toggleForSale(uint256 _tokenId)\r\n        public\r\n    {\r\n        // require caller of the function is not an empty address account\r\n        require(msg.sender != address(0));\r\n\r\n        // require that token should exist\r\n        require(_exists(_tokenId));\r\n\r\n        // get the token's owner\r\n        address _tokenOwner = ownerOf(_tokenId);\r\n\r\n        // check the token's owner should be equal to the caller of the function\r\n        require(_tokenOwner == msg.sender);\r\n\r\n        // get the token's struct from mapping and create a memory of it\r\n        UmblData memory umblData = allUmblData[_tokenId];\r\n\r\n        // update the token's forSale\r\n        if(umblData.forSale) {\r\n            umblData.forSale = false;\r\n        } else {\r\n            umblData.forSale = true;\r\n        }\r\n\r\n        // set and update the token in the mapping\r\n        allUmblData[_tokenId] = umblData;\r\n    }\r\n}",
  "sourcePath": "E:/Projects/Umbrella/Work/Umbrella/Contract/contracts/UmblNFT.sol",
  "compiler": {
    "name": "solc",
    "version": "0.8.7+commit.e28d00a7.Emscripten.clang"
  },
  "schemaVersion": "3.4.1",
  "updatedAt": "2021-08-20T01:07:16.920Z",
  "devdoc": {
    "kind": "dev",
    "methods": {
      "approve(address,uint256)": {
        "details": "See {IERC721-approve}."
      },
      "balanceOf(address)": {
        "details": "See {IERC721-balanceOf}."
      },
      "getApproved(uint256)": {
        "details": "See {IERC721-getApproved}."
      },
      "isApprovedForAll(address,address)": {
        "details": "See {IERC721-isApprovedForAll}."
      },
      "name()": {
        "details": "See {IERC721Metadata-name}."
      },
      "owner()": {
        "details": "Returns the address of the current owner."
      },
      "ownerOf(uint256)": {
        "details": "See {IERC721-ownerOf}."
      },
      "renounceOwnership()": {
        "details": "Leaves the contract without owner. It will not be possible to call `onlyOwner` functions anymore. Can only be called by the current owner. NOTE: Renouncing ownership will leave the contract without an owner, thereby removing any functionality that is only available to the owner."
      },
      "safeTransferFrom(address,address,uint256)": {
        "details": "See {IERC721-safeTransferFrom}."
      },
      "safeTransferFrom(address,address,uint256,bytes)": {
        "details": "See {IERC721-safeTransferFrom}."
      },
      "setApprovalForAll(address,bool)": {
        "details": "See {IERC721-setApprovalForAll}."
      },
      "supportsInterface(bytes4)": {
        "details": "See {IERC165-supportsInterface}."
      },
      "symbol()": {
        "details": "See {IERC721Metadata-symbol}."
      },
      "tokenURI(uint256)": {
        "details": "See {IERC721Metadata-tokenURI}."
      },
      "transferFrom(address,address,uint256)": {
        "details": "See {IERC721-transferFrom}."
      },
      "transferOwnership(address)": {
        "details": "Transfers ownership of the contract to a new account (`newOwner`). Can only be called by the current owner."
      }
    },
    "version": 1
  },
  "userdoc": {
    "kind": "user",
    "methods": {},
    "version": 1
  }
}