{
  "contractName": "UmblNFT",
  "abi": [
    {
      "inputs": [],
      "stateMutability": "nonpayable",
      "type": "constructor"
    },
    {
      "anonymous": false,
      "inputs": [
        {
          "indexed": true,
          "internalType": "address",
          "name": "owner",
          "type": "address"
        },
        {
          "indexed": true,
          "internalType": "address",
          "name": "approved",
          "type": "address"
        },
        {
          "indexed": true,
          "internalType": "uint256",
          "name": "tokenId",
          "type": "uint256"
        }
      ],
      "name": "Approval",
      "type": "event"
    },
    {
      "anonymous": false,
      "inputs": [
        {
          "indexed": true,
          "internalType": "address",
          "name": "owner",
          "type": "address"
        },
        {
          "indexed": true,
          "internalType": "address",
          "name": "operator",
          "type": "address"
        },
        {
          "indexed": false,
          "internalType": "bool",
          "name": "approved",
          "type": "bool"
        }
      ],
      "name": "ApprovalForAll",
      "type": "event"
    },
    {
      "anonymous": false,
      "inputs": [
        {
          "indexed": true,
          "internalType": "address",
          "name": "previousOwner",
          "type": "address"
        },
        {
          "indexed": true,
          "internalType": "address",
          "name": "newOwner",
          "type": "address"
        }
      ],
      "name": "OwnershipTransferred",
      "type": "event"
    },
    {
      "anonymous": false,
      "inputs": [
        {
          "indexed": true,
          "internalType": "address",
          "name": "from",
          "type": "address"
        },
        {
          "indexed": true,
          "internalType": "address",
          "name": "to",
          "type": "address"
        },
        {
          "indexed": true,
          "internalType": "uint256",
          "name": "tokenId",
          "type": "uint256"
        }
      ],
      "name": "Transfer",
      "type": "event"
    },
    {
      "inputs": [
        {
          "internalType": "uint256",
          "name": "",
          "type": "uint256"
        }
      ],
      "name": "allUmblData",
      "outputs": [
        {
          "internalType": "uint256",
          "name": "tokenId",
          "type": "uint256"
        },
        {
          "internalType": "string",
          "name": "tokenName",
          "type": "string"
        },
        {
          "internalType": "string",
          "name": "tokenURI",
          "type": "string"
        },
        {
          "internalType": "address payable",
          "name": "mintedBy",
          "type": "address"
        },
        {
          "internalType": "address payable",
          "name": "currentOwner",
          "type": "address"
        },
        {
          "internalType": "address payable",
          "name": "previousOwner",
          "type": "address"
        },
        {
          "internalType": "uint256",
          "name": "price",
          "type": "uint256"
        },
        {
          "internalType": "uint256",
          "name": "numberOfTransfers",
          "type": "uint256"
        },
        {
          "internalType": "bool",
          "name": "forSale",
          "type": "bool"
        }
      ],
      "stateMutability": "view",
      "type": "function"
    },
    {
      "inputs": [
        {
          "internalType": "address",
          "name": "to",
          "type": "address"
        },
        {
          "internalType": "uint256",
          "name": "tokenId",
          "type": "uint256"
        }
      ],
      "name": "approve",
      "outputs": [],
      "stateMutability": "nonpayable",
      "type": "function"
    },
    {
      "inputs": [
        {
          "internalType": "address",
          "name": "owner",
          "type": "address"
        }
      ],
      "name": "balanceOf",
      "outputs": [
        {
          "internalType": "uint256",
          "name": "",
          "type": "uint256"
        }
      ],
      "stateMutability": "view",
      "type": "function"
    },
    {
      "inputs": [
        {
          "internalType": "uint256",
          "name": "tokenId",
          "type": "uint256"
        }
      ],
      "name": "getApproved",
      "outputs": [
        {
          "internalType": "address",
          "name": "",
          "type": "address"
        }
      ],
      "stateMutability": "view",
      "type": "function"
    },
    {
      "inputs": [
        {
          "internalType": "address",
          "name": "owner",
          "type": "address"
        },
        {
          "internalType": "address",
          "name": "operator",
          "type": "address"
        }
      ],
      "name": "isApprovedForAll",
      "outputs": [
        {
          "internalType": "bool",
          "name": "",
          "type": "bool"
        }
      ],
      "stateMutability": "view",
      "type": "function"
    },
    {
      "inputs": [],
      "name": "name",
      "outputs": [
        {
          "internalType": "string",
          "name": "",
          "type": "string"
        }
      ],
      "stateMutability": "view",
      "type": "function"
    },
    {
      "inputs": [],
      "name": "owner",
      "outputs": [
        {
          "internalType": "address",
          "name": "",
          "type": "address"
        }
      ],
      "stateMutability": "view",
      "type": "function"
    },
    {
      "inputs": [
        {
          "internalType": "uint256",
          "name": "tokenId",
          "type": "uint256"
        }
      ],
      "name": "ownerOf",
      "outputs": [
        {
          "internalType": "address",
          "name": "",
          "type": "address"
        }
      ],
      "stateMutability": "view",
      "type": "function"
    },
    {
      "inputs": [],
      "name": "renounceOwnership",
      "outputs": [],
      "stateMutability": "nonpayable",
      "type": "function"
    },
    {
      "inputs": [
        {
          "internalType": "address",
          "name": "from",
          "type": "address"
        },
        {
          "internalType": "address",
          "name": "to",
          "type": "address"
        },
        {
          "internalType": "uint256",
          "name": "tokenId",
          "type": "uint256"
        }
      ],
      "name": "safeTransferFrom",
      "outputs": [],
      "stateMutability": "nonpayable",
      "type": "function"
    },
    {
      "inputs": [
        {
          "internalType": "address",
          "name": "from",
          "type": "address"
        },
        {
          "internalType": "address",
          "name": "to",
          "type": "address"
        },
        {
          "internalType": "uint256",
          "name": "tokenId",
          "type": "uint256"
        },
        {
          "internalType": "bytes",
          "name": "_data",
          "type": "bytes"
        }
      ],
      "name": "safeTransferFrom",
      "outputs": [],
      "stateMutability": "nonpayable",
      "type": "function"
    },
    {
      "inputs": [
        {
          "internalType": "address",
          "name": "operator",
          "type": "address"
        },
        {
          "internalType": "bool",
          "name": "approved",
          "type": "bool"
        }
      ],
      "name": "setApprovalForAll",
      "outputs": [],
      "stateMutability": "nonpayable",
      "type": "function"
    },
    {
      "inputs": [
        {
          "internalType": "bytes4",
          "name": "interfaceId",
          "type": "bytes4"
        }
      ],
      "name": "supportsInterface",
      "outputs": [
        {
          "internalType": "bool",
          "name": "",
          "type": "bool"
        }
      ],
      "stateMutability": "view",
      "type": "function"
    },
    {
      "inputs": [],
      "name": "symbol",
      "outputs": [
        {
          "internalType": "string",
          "name": "",
          "type": "string"
        }
      ],
      "stateMutability": "view",
      "type": "function"
    },
    {
      "inputs": [],
      "name": "tokenCounter",
      "outputs": [
        {
          "internalType": "uint256",
          "name": "",
          "type": "uint256"
        }
      ],
      "stateMutability": "view",
      "type": "function"
    },
    {
      "inputs": [],
      "name": "tokenName",
      "outputs": [
        {
          "internalType": "string",
          "name": "",
          "type": "string"
        }
      ],
      "stateMutability": "view",
      "type": "function"
    },
    {
      "inputs": [
        {
          "internalType": "string",
          "name": "",
          "type": "string"
        }
      ],
      "name": "tokenNameExists",
      "outputs": [
        {
          "internalType": "bool",
          "name": "",
          "type": "bool"
        }
      ],
      "stateMutability": "view",
      "type": "function"
    },
    {
      "inputs": [],
      "name": "tokenSymbol",
      "outputs": [
        {
          "internalType": "string",
          "name": "",
          "type": "string"
        }
      ],
      "stateMutability": "view",
      "type": "function"
    },
    {
      "inputs": [
        {
          "internalType": "uint256",
          "name": "tokenId",
          "type": "uint256"
        }
      ],
      "name": "tokenURI",
      "outputs": [
        {
          "internalType": "string",
          "name": "",
          "type": "string"
        }
      ],
      "stateMutability": "view",
      "type": "function"
    },
    {
      "inputs": [
        {
          "internalType": "string",
          "name": "",
          "type": "string"
        }
      ],
      "name": "tokenURIExists",
      "outputs": [
        {
          "internalType": "bool",
          "name": "",
          "type": "bool"
        }
      ],
      "stateMutability": "view",
      "type": "function"
    },
    {
      "inputs": [
        {
          "internalType": "address",
          "name": "from",
          "type": "address"
        },
        {
          "internalType": "address",
          "name": "to",
          "type": "address"
        },
        {
          "internalType": "uint256",
          "name": "tokenId",
          "type": "uint256"
        }
      ],
      "name": "transferFrom",
      "outputs": [],
      "stateMutability": "nonpayable",
      "type": "function"
    },
    {
      "inputs": [
        {
          "internalType": "address",
          "name": "newOwner",
          "type": "address"
        }
      ],
      "name": "transferOwnership",
      "outputs": [],
      "stateMutability": "nonpayable",
      "type": "function"
    },
    {
      "inputs": [],
      "name": "toggleResell",
      "outputs": [],
      "stateMutability": "nonpayable",
      "type": "function"
    },
    {
      "inputs": [],
      "name": "toggleUse",
      "outputs": [],
      "stateMutability": "nonpayable",
      "type": "function"
    },
    {
      "inputs": [
        {
          "internalType": "string",
          "name": "_name",
          "type": "string"
        },
        {
          "internalType": "string",
          "name": "_tokenURI",
          "type": "string"
        },
        {
          "internalType": "uint256",
          "name": "_price",
          "type": "uint256"
        }
      ],
      "name": "mintUmbl",
      "outputs": [
        {
          "internalType": "uint256",
          "name": "",
          "type": "uint256"
        }
      ],
      "stateMutability": "nonpayable",
      "type": "function"
    },
    {
      "inputs": [
        {
          "internalType": "uint256",
          "name": "_tokenId",
          "type": "uint256"
        }
      ],
      "name": "getTokenOwner",
      "outputs": [
        {
          "internalType": "address",
          "name": "",
          "type": "address"
        }
      ],
      "stateMutability": "view",
      "type": "function"
    },
    {
      "inputs": [
        {
          "internalType": "uint256",
          "name": "_tokenId",
          "type": "uint256"
        }
      ],
      "name": "getTokenMetaData",
      "outputs": [
        {
          "internalType": "string",
          "name": "",
          "type": "string"
        }
      ],
      "stateMutability": "view",
      "type": "function"
    },
    {
      "inputs": [],
      "name": "getNumberOfTokenMinted",
      "outputs": [
        {
          "internalType": "uint256",
          "name": "",
          "type": "uint256"
        }
      ],
      "stateMutability": "view",
      "type": "function"
    },
    {
      "inputs": [],
      "name": "getTotalNumberOfTokensOwnedByAnAddress",
      "outputs": [
        {
          "internalType": "uint256",
          "name": "",
          "type": "uint256"
        }
      ],
      "stateMutability": "view",
      "type": "function"
    },
    {
      "inputs": [
        {
          "internalType": "uint256",
          "name": "_tokenId",
          "type": "uint256"
        }
      ],
      "name": "getTokenExists",
      "outputs": [
        {
          "internalType": "bool",
          "name": "",
          "type": "bool"
        }
      ],
      "stateMutability": "view",
      "type": "function"
    },
    {
      "inputs": [
        {
          "internalType": "uint256",
          "name": "_tokenId",
          "type": "uint256"
        }
      ],
      "name": "useToken",
      "outputs": [],
      "stateMutability": "payable",
      "type": "function"
    },
    {
      "inputs": [
        {
          "internalType": "uint256",
          "name": "_tokenId",
          "type": "uint256"
        }
      ],
      "name": "buyToken",
      "outputs": [],
      "stateMutability": "payable",
      "type": "function"
    },
    {
      "inputs": [
        {
          "internalType": "uint256",
          "name": "_tokenId",
          "type": "uint256"
        },
        {
          "internalType": "uint256",
          "name": "_newPrice",
          "type": "uint256"
        }
      ],
      "name": "changeTokenPrice",
      "outputs": [],
      "stateMutability": "nonpayable",
      "type": "function"
    },
    {
      "inputs": [
        {
          "internalType": "uint256",
          "name": "_tokenId",
          "type": "uint256"
        }
      ],
      "name": "toggleForSale",
      "outputs": [],
      "stateMutability": "nonpayable",
      "type": "function"
    }
  ],
  "bytecode": "0x60806040523480156200001157600080fd5b506040518060400160405280600881526020017f556d626c204e46540000000000000000000000000000000000000000000000008152506040518060400160405280600481526020017f554d424c00000000000000000000000000000000000000000000000000000000815250816000908051906020019062000096929190620003a1565b508060019080519060200190620000af929190620003a1565b505050620000d2620000c66200019f60201b60201c565b620001a760201b60201c565b620000e26200026d60201b60201c565b60099080519060200190620000f9929190620003a1565b506200010a6200030760201b60201c565b600a908051906020019062000121929190620003a1565b5033600860006101000a81548173ffffffffffffffffffffffffffffffffffffffff021916908373ffffffffffffffffffffffffffffffffffffffff1602179055506000600c60006101000a81548160ff0219169083151502179055506000600c60016101000a81548160ff021916908315150217905550620004b6565b600033905090565b6000600760009054906101000a900473ffffffffffffffffffffffffffffffffffffffff16905081600760006101000a81548173ffffffffffffffffffffffffffffffffffffffff021916908373ffffffffffffffffffffffffffffffffffffffff1602179055508173ffffffffffffffffffffffffffffffffffffffff168173ffffffffffffffffffffffffffffffffffffffff167f8be0079c531659141344cd1fd0a4f28419497f9722a3daafe3b4186f6b6457e060405160405180910390a35050565b6060600080546200027e9062000451565b80601f0160208091040260200160405190810160405280929190818152602001828054620002ac9062000451565b8015620002fd5780601f10620002d157610100808354040283529160200191620002fd565b820191906000526020600020905b815481529060010190602001808311620002df57829003601f168201915b5050505050905090565b606060018054620003189062000451565b80601f0160208091040260200160405190810160405280929190818152602001828054620003469062000451565b8015620003975780601f106200036b5761010080835404028352916020019162000397565b820191906000526020600020905b8154815290600101906020018083116200037957829003601f168201915b5050505050905090565b828054620003af9062000451565b90600052602060002090601f016020900481019282620003d357600085556200041f565b82601f10620003ee57805160ff19168380011785556200041f565b828001600101855582156200041f579182015b828111156200041e57825182559160200191906001019062000401565b5b5090506200042e919062000432565b5090565b5b808211156200044d57600081600090555060010162000433565b5090565b600060028204905060018216806200046a57607f821691505b6020821081141562000481576200048062000487565b5b50919050565b7f4e487b7100000000000000000000000000000000000000000000000000000000600052602260045260246000fd5b61543c80620004c66000396000f3fe6080604052600436106101f95760003560e01c80638da5cb5b1161010d578063b88d4fde116100a0578063e985e9c51161006f578063e985e9c514610766578063f2fde38b146107a3578063fc5463fe146107cc578063fdd560c014610809578063fec3357e14610825576101f9565b8063b88d4fde146106be578063b95d24cf146106e7578063c87b56dd146106fe578063d082e3811461073b576101f9565b8063a32018b9116100dc578063a32018b9146105f0578063a46b1fac14610619578063a5cd761f14610656578063ab3c176114610693576101f9565b80638da5cb5b1461054657806395d89b4114610571578063a1841cac1461059c578063a22cb465146105c7576101f9565b806342842e0e1161019057806367c623cf1161015f57806367c623cf1461045f5780636c02a9311461049c57806370a08231146104c7578063715018a6146105045780637b61c3201461051b576101f9565b806342842e0e1461039357806343d32ae7146103bc57806362e8e8ac146103f95780636352211e14610422576101f9565b80630fc13d28116101cc5780630fc13d28146102cc578063142687f31461031157806323b872dd1461034e5780632d296bf114610377576101f9565b806301ffc9a7146101fe57806306fdde031461023b578063081812fc14610266578063095ea7b3146102a3575b600080fd5b34801561020a57600080fd5b50610225600480360381019061022091906141b5565b61083c565b6040516102329190614747565b60405180910390f35b34801561024757600080fd5b5061025061091e565b60405161025d9190614762565b60405180910390f35b34801561027257600080fd5b5061028d600480360381019061028891906142e3565b6109b0565b60405161029a91906146e0565b60405180910390f35b3480156102af57600080fd5b506102ca60048036038101906102c59190614175565b610a35565b005b3480156102d857600080fd5b506102f360048036038101906102ee91906142e3565b610b4d565b604051610308999897969594939291906149df565b60405180910390f35b34801561031d57600080fd5b50610338600480360381019061033391906142e3565b610d18565b6040516103459190614747565b60405180910390f35b34801561035a57600080fd5b506103756004803603810190610370919061405f565b610d2f565b005b610391600480360381019061038c91906142e3565b610d8f565b005b34801561039f57600080fd5b506103ba60048036038101906103b5919061405f565b6113ef565b005b3480156103c857600080fd5b506103e360048036038101906103de919061420f565b61140f565b6040516103f09190614747565b60405180910390f35b34801561040557600080fd5b50610420600480360381019061041b9190614310565b611445565b005b34801561042e57600080fd5b50610449600480360381019061044491906142e3565b6118cd565b60405161045691906146e0565b60405180910390f35b34801561046b57600080fd5b50610486600480360381019061048191906142e3565b61197f565b6040516104939190614762565b60405180910390f35b3480156104a857600080fd5b506104b1611997565b6040516104be9190614762565b60405180910390f35b3480156104d357600080fd5b506104ee60048036038101906104e99190613ff2565b611a25565b6040516104fb91906149c4565b60405180910390f35b34801561051057600080fd5b50610519611add565b005b34801561052757600080fd5b50610530611b65565b60405161053d9190614762565b60405180910390f35b34801561055257600080fd5b5061055b611bf3565b60405161056891906146e0565b60405180910390f35b34801561057d57600080fd5b50610586611c1d565b6040516105939190614762565b60405180910390f35b3480156105a857600080fd5b506105b1611caf565b6040516105be91906149c4565b60405180910390f35b3480156105d357600080fd5b506105ee60048036038101906105e99190614135565b611cc4565b005b3480156105fc57600080fd5b50610617600480360381019061061291906142e3565b611e45565b005b34801561062557600080fd5b50610640600480360381019061063b919061420f565b612317565b60405161064d9190614747565b60405180910390f35b34801561066257600080fd5b5061067d600480360381019061067891906142e3565b61234d565b60405161068a91906146e0565b60405180910390f35b34801561069f57600080fd5b506106a8612364565b6040516106b591906149c4565b60405180910390f35b3480156106ca57600080fd5b506106e560048036038101906106e091906140b2565b612373565b005b3480156106f357600080fd5b506106fc6123d5565b005b34801561070a57600080fd5b50610725600480360381019061072091906142e3565b6124ab565b6040516107329190614762565b60405180910390f35b34801561074757600080fd5b506107506125fd565b60405161075d91906149c4565b60405180910390f35b34801561077257600080fd5b5061078d6004803603810190610788919061401f565b612603565b60405161079a9190614747565b60405180910390f35b3480156107af57600080fd5b506107ca60048036038101906107c59190613ff2565b612697565b005b3480156107d857600080fd5b506107f360048036038101906107ee9190614258565b61278f565b60405161080091906149c4565b60405180910390f35b610823600480360381019061081e91906142e3565b612b67565b005b34801561083157600080fd5b5061083a61312d565b005b60007f80ac58cd000000000000000000000000000000000000000000000000000000007bffffffffffffffffffffffffffffffffffffffffffffffffffffffff1916827bffffffffffffffffffffffffffffffffffffffffffffffffffffffff1916148061090757507f5b5e139f000000000000000000000000000000000000000000000000000000007bffffffffffffffffffffffffffffffffffffffffffffffffffffffff1916827bffffffffffffffffffffffffffffffffffffffffffffffffffffffff1916145b80610917575061091682613203565b5b9050919050565b60606000805461092d90614cc7565b80601f016020809104026020016040519081016040528092919081815260200182805461095990614cc7565b80156109a65780601f1061097b576101008083540402835291602001916109a6565b820191906000526020600020905b81548152906001019060200180831161098957829003601f168201915b5050505050905090565b60006109bb8261326d565b6109fa576040517f08c379a00000000000000000000000000000000000000000000000000000000081526004016109f190614904565b60405180910390fd5b6004600083815260200190815260200160002060009054906101000a900473ffffffffffffffffffffffffffffffffffffffff169050919050565b6000610a40826118cd565b90508073ffffffffffffffffffffffffffffffffffffffff168373ffffffffffffffffffffffffffffffffffffffff161415610ab1576040517f08c379a0000000000000000000000000000000000000000000000000000000008152600401610aa890614984565b60405180910390fd5b8073ffffffffffffffffffffffffffffffffffffffff16610ad06132d9565b73ffffffffffffffffffffffffffffffffffffffff161480610aff5750610afe81610af96132d9565b612603565b5b610b3e576040517f08c379a0000000000000000000000000000000000000000000000000000000008152600401610b3590614844565b60405180910390fd5b610b4883836132e1565b505050565b600d602052806000526040600020600091509050806000015490806001018054610b7690614cc7565b80601f0160208091040260200160405190810160405280929190818152602001828054610ba290614cc7565b8015610bef5780601f10610bc457610100808354040283529160200191610bef565b820191906000526020600020905b815481529060010190602001808311610bd257829003601f168201915b505050505090806002018054610c0490614cc7565b80601f0160208091040260200160405190810160405280929190818152602001828054610c3090614cc7565b8015610c7d5780601f10610c5257610100808354040283529160200191610c7d565b820191906000526020600020905b815481529060010190602001808311610c6057829003601f168201915b5050505050908060030160009054906101000a900473ffffffffffffffffffffffffffffffffffffffff16908060040160009054906101000a900473ffffffffffffffffffffffffffffffffffffffff16908060050160009054906101000a900473ffffffffffffffffffffffffffffffffffffffff16908060060154908060070154908060080160009054906101000a900460ff16905089565b600080610d248361326d565b905080915050919050565b610d40610d3a6132d9565b8261339a565b610d7f576040517f08c379a0000000000000000000000000000000000000000000000000000000008152600401610d76906149a4565b60405180910390fd5b610d8a838383613478565b505050565b600073ffffffffffffffffffffffffffffffffffffffff163373ffffffffffffffffffffffffffffffffffffffff161415610dc957600080fd5b610dd28161326d565b610ddb57600080fd5b6000610de6826118cd565b9050600073ffffffffffffffffffffffffffffffffffffffff168173ffffffffffffffffffffffffffffffffffffffff161415610e2257600080fd5b3373ffffffffffffffffffffffffffffffffffffffff168173ffffffffffffffffffffffffffffffffffffffff161415610e5b57600080fd5b6000600d60008481526020019081526020016000206040518061012001604052908160008201548152602001600182018054610e9690614cc7565b80601f0160208091040260200160405190810160405280929190818152602001828054610ec290614cc7565b8015610f0f5780601f10610ee457610100808354040283529160200191610f0f565b820191906000526020600020905b815481529060010190602001808311610ef257829003601f168201915b50505050508152602001600282018054610f2890614cc7565b80601f0160208091040260200160405190810160405280929190818152602001828054610f5490614cc7565b8015610fa15780601f10610f7657610100808354040283529160200191610fa1565b820191906000526020600020905b815481529060010190602001808311610f8457829003601f168201915b505050505081526020016003820160009054906101000a900473ffffffffffffffffffffffffffffffffffffffff1673ffffffffffffffffffffffffffffffffffffffff1673ffffffffffffffffffffffffffffffffffffffff1681526020016004820160009054906101000a900473ffffffffffffffffffffffffffffffffffffffff1673ffffffffffffffffffffffffffffffffffffffff1673ffffffffffffffffffffffffffffffffffffffff1681526020016005820160009054906101000a900473ffffffffffffffffffffffffffffffffffffffff1673ffffffffffffffffffffffffffffffffffffffff1673ffffffffffffffffffffffffffffffffffffffff16815260200160068201548152602001600782015481526020016008820160009054906101000a900460ff16151515158152505090508060c001513410156110ee57600080fd5b8061010001516110fd57600080fd5b611108823385613478565b6000816080015190506000600a346111209190614b9a565b9050600081346111309190614bcb565b9050600860009054906101000a900473ffffffffffffffffffffffffffffffffffffffff1673ffffffffffffffffffffffffffffffffffffffff166108fc839081150290604051600060405180830381858888f1935050505015801561119a573d6000803e3d6000fd5b508273ffffffffffffffffffffffffffffffffffffffff166108fc829081150290604051600060405180830381858888f193505050501580156111e1573d6000803e3d6000fd5b5083608001518460a0019073ffffffffffffffffffffffffffffffffffffffff16908173ffffffffffffffffffffffffffffffffffffffff168152505033846080019073ffffffffffffffffffffffffffffffffffffffff16908173ffffffffffffffffffffffffffffffffffffffff168152505060018460e0018181516112699190614b44565b9150818152505060008461010001901515908115158152505083600d60008881526020019081526020016000206000820151816000015560208201518160010190805190602001906112bc929190613e06565b5060408201518160020190805190602001906112d9929190613e06565b5060608201518160030160006101000a81548173ffffffffffffffffffffffffffffffffffffffff021916908373ffffffffffffffffffffffffffffffffffffffff16021790555060808201518160040160006101000a81548173ffffffffffffffffffffffffffffffffffffffff021916908373ffffffffffffffffffffffffffffffffffffffff16021790555060a08201518160050160006101000a81548173ffffffffffffffffffffffffffffffffffffffff021916908373ffffffffffffffffffffffffffffffffffffffff16021790555060c0820151816006015560e082015181600701556101008201518160080160006101000a81548160ff021916908315150217905550905050505050505050565b61140a83838360405180602001604052806000815250612373565b505050565b600f818051602081018201805184825260208301602085012081835280955050505050506000915054906101000a900460ff1681565b600073ffffffffffffffffffffffffffffffffffffffff163373ffffffffffffffffffffffffffffffffffffffff16141561147f57600080fd5b6114888261326d565b61149157600080fd5b600061149c836118cd565b90503373ffffffffffffffffffffffffffffffffffffffff168173ffffffffffffffffffffffffffffffffffffffff16146114d657600080fd5b6000600d6000858152602001908152602001600020604051806101200160405290816000820154815260200160018201805461151190614cc7565b80601f016020809104026020016040519081016040528092919081815260200182805461153d90614cc7565b801561158a5780601f1061155f5761010080835404028352916020019161158a565b820191906000526020600020905b81548152906001019060200180831161156d57829003601f168201915b505050505081526020016002820180546115a390614cc7565b80601f01602080910402602001604051908101604052809291908181526020018280546115cf90614cc7565b801561161c5780601f106115f15761010080835404028352916020019161161c565b820191906000526020600020905b8154815290600101906020018083116115ff57829003601f168201915b505050505081526020016003820160009054906101000a900473ffffffffffffffffffffffffffffffffffffffff1673ffffffffffffffffffffffffffffffffffffffff1673ffffffffffffffffffffffffffffffffffffffff1681526020016004820160009054906101000a900473ffffffffffffffffffffffffffffffffffffffff1673ffffffffffffffffffffffffffffffffffffffff1673ffffffffffffffffffffffffffffffffffffffff1681526020016005820160009054906101000a900473ffffffffffffffffffffffffffffffffffffffff1673ffffffffffffffffffffffffffffffffffffffff1673ffffffffffffffffffffffffffffffffffffffff16815260200160068201548152602001600782015481526020016008820160009054906101000a900460ff1615151515815250509050828160c001818152505080600d600086815260200190815260200160002060008201518160000155602082015181600101908051906020019061179c929190613e06565b5060408201518160020190805190602001906117b9929190613e06565b5060608201518160030160006101000a81548173ffffffffffffffffffffffffffffffffffffffff021916908373ffffffffffffffffffffffffffffffffffffffff16021790555060808201518160040160006101000a81548173ffffffffffffffffffffffffffffffffffffffff021916908373ffffffffffffffffffffffffffffffffffffffff16021790555060a08201518160050160006101000a81548173ffffffffffffffffffffffffffffffffffffffff021916908373ffffffffffffffffffffffffffffffffffffffff16021790555060c0820151816006015560e082015181600701556101008201518160080160006101000a81548160ff02191690831515021790555090505050505050565b6000806002600084815260200190815260200160002060009054906101000a900473ffffffffffffffffffffffffffffffffffffffff169050600073ffffffffffffffffffffffffffffffffffffffff168173ffffffffffffffffffffffffffffffffffffffff161415611976576040517f08c379a000000000000000000000000000000000000000000000000000000000815260040161196d90614884565b60405180910390fd5b80915050919050565b6060600061198c836124ab565b905080915050919050565b600980546119a490614cc7565b80601f01602080910402602001604051908101604052809291908181526020018280546119d090614cc7565b8015611a1d5780601f106119f257610100808354040283529160200191611a1d565b820191906000526020600020905b815481529060010190602001808311611a0057829003601f168201915b505050505081565b60008073ffffffffffffffffffffffffffffffffffffffff168273ffffffffffffffffffffffffffffffffffffffff161415611a96576040517f08c379a0000000000000000000000000000000000000000000000000000000008152600401611a8d90614864565b60405180910390fd5b600360008373ffffffffffffffffffffffffffffffffffffffff1673ffffffffffffffffffffffffffffffffffffffff168152602001908152602001600020549050919050565b611ae56132d9565b73ffffffffffffffffffffffffffffffffffffffff16611b03611bf3565b73ffffffffffffffffffffffffffffffffffffffff1614611b59576040517f08c379a0000000000000000000000000000000000000000000000000000000008152600401611b5090614924565b60405180910390fd5b611b6360006136d4565b565b600a8054611b7290614cc7565b80601f0160208091040260200160405190810160405280929190818152602001828054611b9e90614cc7565b8015611beb5780601f10611bc057610100808354040283529160200191611beb565b820191906000526020600020905b815481529060010190602001808311611bce57829003601f168201915b505050505081565b6000600760009054906101000a900473ffffffffffffffffffffffffffffffffffffffff16905090565b606060018054611c2c90614cc7565b80601f0160208091040260200160405190810160405280929190818152602001828054611c5890614cc7565b8015611ca55780601f10611c7a57610100808354040283529160200191611ca5565b820191906000526020600020905b815481529060010190602001808311611c8857829003601f168201915b5050505050905090565b600080611cbb33611a25565b90508091505090565b611ccc6132d9565b73ffffffffffffffffffffffffffffffffffffffff168273ffffffffffffffffffffffffffffffffffffffff161415611d3a576040517f08c379a0000000000000000000000000000000000000000000000000000000008152600401611d3190614804565b60405180910390fd5b8060056000611d476132d9565b73ffffffffffffffffffffffffffffffffffffffff1673ffffffffffffffffffffffffffffffffffffffff16815260200190815260200160002060008473ffffffffffffffffffffffffffffffffffffffff1673ffffffffffffffffffffffffffffffffffffffff16815260200190815260200160002060006101000a81548160ff0219169083151502179055508173ffffffffffffffffffffffffffffffffffffffff16611df46132d9565b73ffffffffffffffffffffffffffffffffffffffff167f17307eab39ab6107e8899845ad3d59bd9653f200f220920489ca2b5937696c3183604051611e399190614747565b60405180910390a35050565b60011515600c60009054906101000a900460ff16151514611e6557600080fd5b600073ffffffffffffffffffffffffffffffffffffffff163373ffffffffffffffffffffffffffffffffffffffff161415611e9f57600080fd5b611ea88161326d565b611eb157600080fd5b6000611ebc826118cd565b90503373ffffffffffffffffffffffffffffffffffffffff168173ffffffffffffffffffffffffffffffffffffffff1614611ef657600080fd5b6000600d60008481526020019081526020016000206040518061012001604052908160008201548152602001600182018054611f3190614cc7565b80601f0160208091040260200160405190810160405280929190818152602001828054611f5d90614cc7565b8015611faa5780601f10611f7f57610100808354040283529160200191611faa565b820191906000526020600020905b815481529060010190602001808311611f8d57829003601f168201915b50505050508152602001600282018054611fc390614cc7565b80601f0160208091040260200160405190810160405280929190818152602001828054611fef90614cc7565b801561203c5780601f106120115761010080835404028352916020019161203c565b820191906000526020600020905b81548152906001019060200180831161201f57829003601f168201915b505050505081526020016003820160009054906101000a900473ffffffffffffffffffffffffffffffffffffffff1673ffffffffffffffffffffffffffffffffffffffff1673ffffffffffffffffffffffffffffffffffffffff1681526020016004820160009054906101000a900473ffffffffffffffffffffffffffffffffffffffff1673ffffffffffffffffffffffffffffffffffffffff1673ffffffffffffffffffffffffffffffffffffffff1681526020016005820160009054906101000a900473ffffffffffffffffffffffffffffffffffffffff1673ffffffffffffffffffffffffffffffffffffffff1673ffffffffffffffffffffffffffffffffffffffff16815260200160068201548152602001600782015481526020016008820160009054906101000a900460ff16151515158152505090508061010001511561219a576000816101000190151590811515815250506121ad565b6001816101000190151590811515815250505b80600d60008581526020019081526020016000206000820151816000015560208201518160010190805190602001906121e7929190613e06565b506040820151816002019080519060200190612204929190613e06565b5060608201518160030160006101000a81548173ffffffffffffffffffffffffffffffffffffffff021916908373ffffffffffffffffffffffffffffffffffffffff16021790555060808201518160040160006101000a81548173ffffffffffffffffffffffffffffffffffffffff021916908373ffffffffffffffffffffffffffffffffffffffff16021790555060a08201518160050160006101000a81548173ffffffffffffffffffffffffffffffffffffffff021916908373ffffffffffffffffffffffffffffffffffffffff16021790555060c0820151816006015560e082015181600701556101008201518160080160006101000a81548160ff021916908315150217905550905050505050565b600e818051602081018201805184825260208301602085012081835280955050505050506000915054906101000a900460ff1681565b600080612359836118cd565b905080915050919050565b600080600b5490508091505090565b61238461237e6132d9565b8361339a565b6123c3576040517f08c379a00000000000000000000000000000000000000000000000000000000081526004016123ba906149a4565b60405180910390fd5b6123cf8484848461379a565b50505050565b6123dd6132d9565b73ffffffffffffffffffffffffffffffffffffffff166123fb611bf3565b73ffffffffffffffffffffffffffffffffffffffff1614612451576040517f08c379a000000000000000000000000000000000000000000000000000000000815260040161244890614924565b60405180910390fd5b60011515600c60009054906101000a900460ff161515141561248d576000600c60006101000a81548160ff0219169083151502179055506124a9565b6001600c60006101000a81548160ff0219169083151502179055505b565b60606124b68261326d565b6124f5576040517f08c379a00000000000000000000000000000000000000000000000000000000081526004016124ec906148e4565b60405180910390fd5b600060066000848152602001908152602001600020805461251590614cc7565b80601f016020809104026020016040519081016040528092919081815260200182805461254190614cc7565b801561258e5780601f106125635761010080835404028352916020019161258e565b820191906000526020600020905b81548152906001019060200180831161257157829003601f168201915b50505050509050600061259f6137f6565b90506000815114156125b55781925050506125f8565b6000825111156125ea5780826040516020016125d29291906146bc565b604051602081830303815290604052925050506125f8565b6125f38461380d565b925050505b919050565b600b5481565b6000600560008473ffffffffffffffffffffffffffffffffffffffff1673ffffffffffffffffffffffffffffffffffffffff16815260200190815260200160002060008373ffffffffffffffffffffffffffffffffffffffff1673ffffffffffffffffffffffffffffffffffffffff16815260200190815260200160002060009054906101000a900460ff16905092915050565b61269f6132d9565b73ffffffffffffffffffffffffffffffffffffffff166126bd611bf3565b73ffffffffffffffffffffffffffffffffffffffff1614612713576040517f08c379a000000000000000000000000000000000000000000000000000000000815260040161270a90614924565b60405180910390fd5b600073ffffffffffffffffffffffffffffffffffffffff168173ffffffffffffffffffffffffffffffffffffffff161415612783576040517f08c379a000000000000000000000000000000000000000000000000000000000815260040161277a906147a4565b60405180910390fd5b61278c816136d4565b50565b60006127996132d9565b73ffffffffffffffffffffffffffffffffffffffff166127b7611bf3565b73ffffffffffffffffffffffffffffffffffffffff161461280d576040517f08c379a000000000000000000000000000000000000000000000000000000000815260040161280490614924565b60405180910390fd5b600073ffffffffffffffffffffffffffffffffffffffff163373ffffffffffffffffffffffffffffffffffffffff16141561284757600080fd5b600b600081548092919061285a90614d2a565b919050555061286a600b5461326d565b1561287457600080fd5b600f8360405161288491906146a5565b908152602001604051809103902060009054906101000a900460ff16156128aa57600080fd5b600e846040516128ba91906146a5565b908152602001604051809103902060009054906101000a900460ff16156128e057600080fd5b6128ec33600b546138b4565b6128f8600b5484613a82565b6001600f8460405161290a91906146a5565b908152602001604051809103902060006101000a81548160ff0219169083151502179055506001600e8560405161294191906146a5565b908152602001604051809103902060006101000a81548160ff0219169083151502179055506000604051806101200160405280600b5481526020018681526020018581526020013373ffffffffffffffffffffffffffffffffffffffff1681526020013373ffffffffffffffffffffffffffffffffffffffff168152602001600073ffffffffffffffffffffffffffffffffffffffff1681526020018481526020016000815260200160011515815250905080600d6000600b548152602001908152602001600020600082015181600001556020820151816001019080519060200190612a2f929190613e06565b506040820151816002019080519060200190612a4c929190613e06565b5060608201518160030160006101000a81548173ffffffffffffffffffffffffffffffffffffffff021916908373ffffffffffffffffffffffffffffffffffffffff16021790555060808201518160040160006101000a81548173ffffffffffffffffffffffffffffffffffffffff021916908373ffffffffffffffffffffffffffffffffffffffff16021790555060a08201518160050160006101000a81548173ffffffffffffffffffffffffffffffffffffffff021916908373ffffffffffffffffffffffffffffffffffffffff16021790555060c0820151816006015560e082015181600701556101008201518160080160006101000a81548160ff021916908315150217905550905050600b549150509392505050565b60011515600c60019054906101000a900460ff16151514612b8757600080fd5b600073ffffffffffffffffffffffffffffffffffffffff163373ffffffffffffffffffffffffffffffffffffffff161415612bc157600080fd5b612bca8161326d565b612bd357600080fd5b6000612bde826118cd565b9050600073ffffffffffffffffffffffffffffffffffffffff168173ffffffffffffffffffffffffffffffffffffffff161415612c1a57600080fd5b3373ffffffffffffffffffffffffffffffffffffffff168173ffffffffffffffffffffffffffffffffffffffff1614612c5257600080fd5b6000600d60008481526020019081526020016000206040518061012001604052908160008201548152602001600182018054612c8d90614cc7565b80601f0160208091040260200160405190810160405280929190818152602001828054612cb990614cc7565b8015612d065780601f10612cdb57610100808354040283529160200191612d06565b820191906000526020600020905b815481529060010190602001808311612ce957829003601f168201915b50505050508152602001600282018054612d1f90614cc7565b80601f0160208091040260200160405190810160405280929190818152602001828054612d4b90614cc7565b8015612d985780601f10612d6d57610100808354040283529160200191612d98565b820191906000526020600020905b815481529060010190602001808311612d7b57829003601f168201915b505050505081526020016003820160009054906101000a900473ffffffffffffffffffffffffffffffffffffffff1673ffffffffffffffffffffffffffffffffffffffff1673ffffffffffffffffffffffffffffffffffffffff1681526020016004820160009054906101000a900473ffffffffffffffffffffffffffffffffffffffff1673ffffffffffffffffffffffffffffffffffffffff1673ffffffffffffffffffffffffffffffffffffffff1681526020016005820160009054906101000a900473ffffffffffffffffffffffffffffffffffffffff1673ffffffffffffffffffffffffffffffffffffffff1673ffffffffffffffffffffffffffffffffffffffff16815260200160068201548152602001600782015481526020016008820160009054906101000a900460ff1615151515815250509050612f0182600860009054906101000a900473ffffffffffffffffffffffffffffffffffffffff1685613478565b80608001518160a0019073ffffffffffffffffffffffffffffffffffffffff16908173ffffffffffffffffffffffffffffffffffffffff1681525050600860009054906101000a900473ffffffffffffffffffffffffffffffffffffffff16816080019073ffffffffffffffffffffffffffffffffffffffff16908173ffffffffffffffffffffffffffffffffffffffff168152505060018160e001818151612faa9190614b44565b9150818152505060018161010001901515908115158152505080600d6000858152602001908152602001600020600082015181600001556020820151816001019080519060200190612ffd929190613e06565b50604082015181600201908051906020019061301a929190613e06565b5060608201518160030160006101000a81548173ffffffffffffffffffffffffffffffffffffffff021916908373ffffffffffffffffffffffffffffffffffffffff16021790555060808201518160040160006101000a81548173ffffffffffffffffffffffffffffffffffffffff021916908373ffffffffffffffffffffffffffffffffffffffff16021790555060a08201518160050160006101000a81548173ffffffffffffffffffffffffffffffffffffffff021916908373ffffffffffffffffffffffffffffffffffffffff16021790555060c0820151816006015560e082015181600701556101008201518160080160006101000a81548160ff021916908315150217905550905050505050565b6131356132d9565b73ffffffffffffffffffffffffffffffffffffffff16613153611bf3565b73ffffffffffffffffffffffffffffffffffffffff16146131a9576040517f08c379a00000000000000000000000000000000000000000000000000000000081526004016131a090614924565b60405180910390fd5b60001515600c60019054906101000a900460ff16151514156131e5576001600c60016101000a81548160ff021916908315150217905550613201565b6000600c60016101000a81548160ff0219169083151502179055505b565b60007f01ffc9a7000000000000000000000000000000000000000000000000000000007bffffffffffffffffffffffffffffffffffffffffffffffffffffffff1916827bffffffffffffffffffffffffffffffffffffffffffffffffffffffff1916149050919050565b60008073ffffffffffffffffffffffffffffffffffffffff166002600084815260200190815260200160002060009054906101000a900473ffffffffffffffffffffffffffffffffffffffff1673ffffffffffffffffffffffffffffffffffffffff1614159050919050565b600033905090565b816004600083815260200190815260200160002060006101000a81548173ffffffffffffffffffffffffffffffffffffffff021916908373ffffffffffffffffffffffffffffffffffffffff160217905550808273ffffffffffffffffffffffffffffffffffffffff16613354836118cd565b73ffffffffffffffffffffffffffffffffffffffff167f8c5be1e5ebec7d5bd14f71427d1e84f3dd0314c0f7b2291e5b200ac8c7c3b92560405160405180910390a45050565b60006133a58261326d565b6133e4576040517f08c379a00000000000000000000000000000000000000000000000000000000081526004016133db90614824565b60405180910390fd5b60006133ef836118cd565b90508073ffffffffffffffffffffffffffffffffffffffff168473ffffffffffffffffffffffffffffffffffffffff16148061345e57508373ffffffffffffffffffffffffffffffffffffffff16613446846109b0565b73ffffffffffffffffffffffffffffffffffffffff16145b8061346f575061346e8185612603565b5b91505092915050565b8273ffffffffffffffffffffffffffffffffffffffff16613498826118cd565b73ffffffffffffffffffffffffffffffffffffffff16146134ee576040517f08c379a00000000000000000000000000000000000000000000000000000000081526004016134e590614944565b60405180910390fd5b600073ffffffffffffffffffffffffffffffffffffffff168273ffffffffffffffffffffffffffffffffffffffff16141561355e576040517f08c379a0000000000000000000000000000000000000000000000000000000008152600401613555906147e4565b60405180910390fd5b613569838383613af6565b6135746000826132e1565b6001600360008573ffffffffffffffffffffffffffffffffffffffff1673ffffffffffffffffffffffffffffffffffffffff16815260200190815260200160002060008282546135c49190614bcb565b925050819055506001600360008473ffffffffffffffffffffffffffffffffffffffff1673ffffffffffffffffffffffffffffffffffffffff168152602001908152602001600020600082825461361b9190614b44565b92505081905550816002600083815260200190815260200160002060006101000a81548173ffffffffffffffffffffffffffffffffffffffff021916908373ffffffffffffffffffffffffffffffffffffffff160217905550808273ffffffffffffffffffffffffffffffffffffffff168473ffffffffffffffffffffffffffffffffffffffff167fddf252ad1be2c89b69c2b068fc378daa952ba7f163c4a11628f55a4df523b3ef60405160405180910390a4505050565b6000600760009054906101000a900473ffffffffffffffffffffffffffffffffffffffff16905081600760006101000a81548173ffffffffffffffffffffffffffffffffffffffff021916908373ffffffffffffffffffffffffffffffffffffffff1602179055508173ffffffffffffffffffffffffffffffffffffffff168173ffffffffffffffffffffffffffffffffffffffff167f8be0079c531659141344cd1fd0a4f28419497f9722a3daafe3b4186f6b6457e060405160405180910390a35050565b6137a5848484613478565b6137b184848484613afb565b6137f0576040517f08c379a00000000000000000000000000000000000000000000000000000000081526004016137e790614784565b60405180910390fd5b50505050565b606060405180602001604052806000815250905090565b60606138188261326d565b613857576040517f08c379a000000000000000000000000000000000000000000000000000000000815260040161384e90614964565b60405180910390fd5b60006138616137f6565b9050600081511161388157604051806020016040528060008152506138ac565b8061388b84613c92565b60405160200161389c9291906146bc565b6040516020818303038152906040525b915050919050565b600073ffffffffffffffffffffffffffffffffffffffff168273ffffffffffffffffffffffffffffffffffffffff161415613924576040517f08c379a000000000000000000000000000000000000000000000000000000000815260040161391b906148c4565b60405180910390fd5b61392d8161326d565b1561396d576040517f08c379a0000000000000000000000000000000000000000000000000000000008152600401613964906147c4565b60405180910390fd5b61397960008383613af6565b6001600360008473ffffffffffffffffffffffffffffffffffffffff1673ffffffffffffffffffffffffffffffffffffffff16815260200190815260200160002060008282546139c99190614b44565b92505081905550816002600083815260200190815260200160002060006101000a81548173ffffffffffffffffffffffffffffffffffffffff021916908373ffffffffffffffffffffffffffffffffffffffff160217905550808273ffffffffffffffffffffffffffffffffffffffff16600073ffffffffffffffffffffffffffffffffffffffff167fddf252ad1be2c89b69c2b068fc378daa952ba7f163c4a11628f55a4df523b3ef60405160405180910390a45050565b613a8b8261326d565b613aca576040517f08c379a0000000000000000000000000000000000000000000000000000000008152600401613ac1906148a4565b60405180910390fd5b80600660008481526020019081526020016000209080519060200190613af1929190613e06565b505050565b505050565b6000613b1c8473ffffffffffffffffffffffffffffffffffffffff16613df3565b15613c85578373ffffffffffffffffffffffffffffffffffffffff1663150b7a02613b456132d9565b8786866040518563ffffffff1660e01b8152600401613b6794939291906146fb565b602060405180830381600087803b158015613b8157600080fd5b505af1925050508015613bb257506040513d601f19601f82011682018060405250810190613baf91906141e2565b60015b613c35573d8060008114613be2576040519150601f19603f3d011682016040523d82523d6000602084013e613be7565b606091505b50600081511415613c2d576040517f08c379a0000000000000000000000000000000000000000000000000000000008152600401613c2490614784565b60405180910390fd5b805181602001fd5b63150b7a0260e01b7bffffffffffffffffffffffffffffffffffffffffffffffffffffffff1916817bffffffffffffffffffffffffffffffffffffffffffffffffffffffff191614915050613c8a565b600190505b949350505050565b60606000821415613cda576040518060400160405280600181526020017f30000000000000000000000000000000000000000000000000000000000000008152509050613dee565b600082905060005b60008214613d0c578080613cf590614d2a565b915050600a82613d059190614b9a565b9150613ce2565b60008167ffffffffffffffff811115613d2857613d27614e60565b5b6040519080825280601f01601f191660200182016040528015613d5a5781602001600182028036833780820191505090505b5090505b60008514613de757600182613d739190614bcb565b9150600a85613d829190614d73565b6030613d8e9190614b44565b60f81b818381518110613da457613da3614e31565b5b60200101907effffffffffffffffffffffffffffffffffffffffffffffffffffffffffffff1916908160001a905350600a85613de09190614b9a565b9450613d5e565b8093505050505b919050565b600080823b905060008111915050919050565b828054613e1290614cc7565b90600052602060002090601f016020900481019282613e345760008555613e7b565b82601f10613e4d57805160ff1916838001178555613e7b565b82800160010185558215613e7b579182015b82811115613e7a578251825591602001919060010190613e5f565b5b509050613e889190613e8c565b5090565b5b80821115613ea5576000816000905550600101613e8d565b5090565b6000613ebc613eb784614a9f565b614a7a565b905082815260208101848484011115613ed857613ed7614e94565b5b613ee3848285614c85565b509392505050565b6000613efe613ef984614ad0565b614a7a565b905082815260208101848484011115613f1a57613f19614e94565b5b613f25848285614c85565b509392505050565b600081359050613f3c816153aa565b92915050565b600081359050613f51816153c1565b92915050565b600081359050613f66816153d8565b92915050565b600081519050613f7b816153d8565b92915050565b600082601f830112613f9657613f95614e8f565b5b8135613fa6848260208601613ea9565b91505092915050565b600082601f830112613fc457613fc3614e8f565b5b8135613fd4848260208601613eeb565b91505092915050565b600081359050613fec816153ef565b92915050565b60006020828403121561400857614007614e9e565b5b600061401684828501613f2d565b91505092915050565b6000806040838503121561403657614035614e9e565b5b600061404485828601613f2d565b925050602061405585828601613f2d565b9150509250929050565b60008060006060848603121561407857614077614e9e565b5b600061408686828701613f2d565b935050602061409786828701613f2d565b92505060406140a886828701613fdd565b9150509250925092565b600080600080608085870312156140cc576140cb614e9e565b5b60006140da87828801613f2d565b94505060206140eb87828801613f2d565b93505060406140fc87828801613fdd565b925050606085013567ffffffffffffffff81111561411d5761411c614e99565b5b61412987828801613f81565b91505092959194509250565b6000806040838503121561414c5761414b614e9e565b5b600061415a85828601613f2d565b925050602061416b85828601613f42565b9150509250929050565b6000806040838503121561418c5761418b614e9e565b5b600061419a85828601613f2d565b92505060206141ab85828601613fdd565b9150509250929050565b6000602082840312156141cb576141ca614e9e565b5b60006141d984828501613f57565b91505092915050565b6000602082840312156141f8576141f7614e9e565b5b600061420684828501613f6c565b91505092915050565b60006020828403121561422557614224614e9e565b5b600082013567ffffffffffffffff81111561424357614242614e99565b5b61424f84828501613faf565b91505092915050565b60008060006060848603121561427157614270614e9e565b5b600084013567ffffffffffffffff81111561428f5761428e614e99565b5b61429b86828701613faf565b935050602084013567ffffffffffffffff8111156142bc576142bb614e99565b5b6142c886828701613faf565b92505060406142d986828701613fdd565b9150509250925092565b6000602082840312156142f9576142f8614e9e565b5b600061430784828501613fdd565b91505092915050565b6000806040838503121561432757614326614e9e565b5b600061433585828601613fdd565b925050602061434685828601613fdd565b9150509250929050565b61435981614c11565b82525050565b61436881614bff565b82525050565b61437781614c23565b82525050565b600061438882614b01565b6143928185614b17565b93506143a2818560208601614c94565b6143ab81614ea3565b840191505092915050565b60006143c182614b0c565b6143cb8185614b28565b93506143db818560208601614c94565b6143e481614ea3565b840191505092915050565b60006143fa82614b0c565b6144048185614b39565b9350614414818560208601614c94565b80840191505092915050565b600061442d603283614b28565b915061443882614eb4565b604082019050919050565b6000614450602683614b28565b915061445b82614f03565b604082019050919050565b6000614473601c83614b28565b915061447e82614f52565b602082019050919050565b6000614496602483614b28565b91506144a182614f7b565b604082019050919050565b60006144b9601983614b28565b91506144c482614fca565b602082019050919050565b60006144dc602c83614b28565b91506144e782614ff3565b604082019050919050565b60006144ff603883614b28565b915061450a82615042565b604082019050919050565b6000614522602a83614b28565b915061452d82615091565b604082019050919050565b6000614545602983614b28565b9150614550826150e0565b604082019050919050565b6000614568602e83614b28565b91506145738261512f565b604082019050919050565b600061458b602083614b28565b91506145968261517e565b602082019050919050565b60006145ae603183614b28565b91506145b9826151a7565b604082019050919050565b60006145d1602c83614b28565b91506145dc826151f6565b604082019050919050565b60006145f4602083614b28565b91506145ff82615245565b602082019050919050565b6000614617602983614b28565b91506146228261526e565b604082019050919050565b600061463a602f83614b28565b9150614645826152bd565b604082019050919050565b600061465d602183614b28565b91506146688261530c565b604082019050919050565b6000614680603183614b28565b915061468b8261535b565b604082019050919050565b61469f81614c7b565b82525050565b60006146b182846143ef565b915081905092915050565b60006146c882856143ef565b91506146d482846143ef565b91508190509392505050565b60006020820190506146f5600083018461435f565b92915050565b6000608082019050614710600083018761435f565b61471d602083018661435f565b61472a6040830185614696565b818103606083015261473c818461437d565b905095945050505050565b600060208201905061475c600083018461436e565b92915050565b6000602082019050818103600083015261477c81846143b6565b905092915050565b6000602082019050818103600083015261479d81614420565b9050919050565b600060208201905081810360008301526147bd81614443565b9050919050565b600060208201905081810360008301526147dd81614466565b9050919050565b600060208201905081810360008301526147fd81614489565b9050919050565b6000602082019050818103600083015261481d816144ac565b9050919050565b6000602082019050818103600083015261483d816144cf565b9050919050565b6000602082019050818103600083015261485d816144f2565b9050919050565b6000602082019050818103600083015261487d81614515565b9050919050565b6000602082019050818103600083015261489d81614538565b9050919050565b600060208201905081810360008301526148bd8161455b565b9050919050565b600060208201905081810360008301526148dd8161457e565b9050919050565b600060208201905081810360008301526148fd816145a1565b9050919050565b6000602082019050818103600083015261491d816145c4565b9050919050565b6000602082019050818103600083015261493d816145e7565b9050919050565b6000602082019050818103600083015261495d8161460a565b9050919050565b6000602082019050818103600083015261497d8161462d565b9050919050565b6000602082019050818103600083015261499d81614650565b9050919050565b600060208201905081810360008301526149bd81614673565b9050919050565b60006020820190506149d96000830184614696565b92915050565b6000610120820190506149f5600083018c614696565b8181036020830152614a07818b6143b6565b90508181036040830152614a1b818a6143b6565b9050614a2a6060830189614350565b614a376080830188614350565b614a4460a0830187614350565b614a5160c0830186614696565b614a5e60e0830185614696565b614a6c61010083018461436e565b9a9950505050505050505050565b6000614a84614a95565b9050614a908282614cf9565b919050565b6000604051905090565b600067ffffffffffffffff821115614aba57614ab9614e60565b5b614ac382614ea3565b9050602081019050919050565b600067ffffffffffffffff821115614aeb57614aea614e60565b5b614af482614ea3565b9050602081019050919050565b600081519050919050565b600081519050919050565b600082825260208201905092915050565b600082825260208201905092915050565b600081905092915050565b6000614b4f82614c7b565b9150614b5a83614c7b565b9250827fffffffffffffffffffffffffffffffffffffffffffffffffffffffffffffffff03821115614b8f57614b8e614da4565b5b828201905092915050565b6000614ba582614c7b565b9150614bb083614c7b565b925082614bc057614bbf614dd3565b5b828204905092915050565b6000614bd682614c7b565b9150614be183614c7b565b925082821015614bf457614bf3614da4565b5b828203905092915050565b6000614c0a82614c5b565b9050919050565b6000614c1c82614c5b565b9050919050565b60008115159050919050565b60007fffffffff0000000000000000000000000000000000000000000000000000000082169050919050565b600073ffffffffffffffffffffffffffffffffffffffff82169050919050565b6000819050919050565b82818337600083830152505050565b60005b83811015614cb2578082015181840152602081019050614c97565b83811115614cc1576000848401525b50505050565b60006002820490506001821680614cdf57607f821691505b60208210811415614cf357614cf2614e02565b5b50919050565b614d0282614ea3565b810181811067ffffffffffffffff82111715614d2157614d20614e60565b5b80604052505050565b6000614d3582614c7b565b91507fffffffffffffffffffffffffffffffffffffffffffffffffffffffffffffffff821415614d6857614d67614da4565b5b600182019050919050565b6000614d7e82614c7b565b9150614d8983614c7b565b925082614d9957614d98614dd3565b5b828206905092915050565b7f4e487b7100000000000000000000000000000000000000000000000000000000600052601160045260246000fd5b7f4e487b7100000000000000000000000000000000000000000000000000000000600052601260045260246000fd5b7f4e487b7100000000000000000000000000000000000000000000000000000000600052602260045260246000fd5b7f4e487b7100000000000000000000000000000000000000000000000000000000600052603260045260246000fd5b7f4e487b7100000000000000000000000000000000000000000000000000000000600052604160045260246000fd5b600080fd5b600080fd5b600080fd5b600080fd5b6000601f19601f8301169050919050565b7f4552433732313a207472616e7366657220746f206e6f6e20455243373231526560008201527f63656976657220696d706c656d656e7465720000000000000000000000000000602082015250565b7f4f776e61626c653a206e6577206f776e657220697320746865207a65726f206160008201527f6464726573730000000000000000000000000000000000000000000000000000602082015250565b7f4552433732313a20746f6b656e20616c7265616479206d696e74656400000000600082015250565b7f4552433732313a207472616e7366657220746f20746865207a65726f2061646460008201527f7265737300000000000000000000000000000000000000000000000000000000602082015250565b7f4552433732313a20617070726f766520746f2063616c6c657200000000000000600082015250565b7f4552433732313a206f70657261746f7220717565727920666f72206e6f6e657860008201527f697374656e7420746f6b656e0000000000000000000000000000000000000000602082015250565b7f4552433732313a20617070726f76652063616c6c6572206973206e6f74206f7760008201527f6e6572206e6f7220617070726f76656420666f7220616c6c0000000000000000602082015250565b7f4552433732313a2062616c616e636520717565727920666f7220746865207a6560008201527f726f206164647265737300000000000000000000000000000000000000000000602082015250565b7f4552433732313a206f776e657220717565727920666f72206e6f6e657869737460008201527f656e7420746f6b656e0000000000000000000000000000000000000000000000602082015250565b7f45524337323155524953746f726167653a2055524920736574206f66206e6f6e60008201527f6578697374656e7420746f6b656e000000000000000000000000000000000000602082015250565b7f4552433732313a206d696e7420746f20746865207a65726f2061646472657373600082015250565b7f45524337323155524953746f726167653a2055524920717565727920666f722060008201527f6e6f6e6578697374656e7420746f6b656e000000000000000000000000000000602082015250565b7f4552433732313a20617070726f76656420717565727920666f72206e6f6e657860008201527f697374656e7420746f6b656e0000000000000000000000000000000000000000602082015250565b7f4f776e61626c653a2063616c6c6572206973206e6f7420746865206f776e6572600082015250565b7f4552433732313a207472616e73666572206f6620746f6b656e2074686174206960008201527f73206e6f74206f776e0000000000000000000000000000000000000000000000602082015250565b7f4552433732314d657461646174613a2055524920717565727920666f72206e6f60008201527f6e6578697374656e7420746f6b656e0000000000000000000000000000000000602082015250565b7f4552433732313a20617070726f76616c20746f2063757272656e74206f776e6560008201527f7200000000000000000000000000000000000000000000000000000000000000602082015250565b7f4552433732313a207472616e736665722063616c6c6572206973206e6f74206f60008201527f776e6572206e6f7220617070726f766564000000000000000000000000000000602082015250565b6153b381614bff565b81146153be57600080fd5b50565b6153ca81614c23565b81146153d557600080fd5b50565b6153e181614c2f565b81146153ec57600080fd5b50565b6153f881614c7b565b811461540357600080fd5b5056fea26469706673582212202aae0d9536445e40e9d032804312d22d4a4ae47e7bee8042403b1632cfc11fa164736f6c63430008070033",
  "immutableReferences": {},
  "source": "// contracts/UmblNFT.sol\r\n// SPDX-License-Identifier: MIT\r\npragma solidity ^0.8.0;\r\n\r\nimport \"@openzeppelin/contracts/token/ERC721/ERC721.sol\";\r\nimport \"@openzeppelin/contracts/token/ERC721/extensions/ERC721Enumerable.sol\";\r\nimport \"@openzeppelin/contracts/token/ERC721/extensions/ERC721URIStorage.sol\";\r\nimport \"@openzeppelin/contracts/access/Ownable.sol\";\r\n\r\ncontract UmblNFT is ERC721URIStorage, Ownable {    \r\n    // this contract's owner address\r\n    address payable tokenOwnerAddress;    \r\n    // this contract's token name\r\n    string public tokenName;\r\n    // this contract's token symbol\r\n    string public tokenSymbol;\r\n    // total number of token minted\r\n    uint256 public tokenCounter;\r\n    // token data structure    \r\n    struct UmblData {\r\n        uint256 tokenId;\r\n        string tokenName;\r\n        string tokenURI;\r\n        address payable mintedBy;\r\n        address payable currentOwner;\r\n        address payable previousOwner;\r\n        uint256 price;\r\n        uint256 numberOfTransfers;\r\n        bool forSale;\r\n    }\r\n    // flag for reselling feature\r\n    bool private resellFlag;\r\n    // flag for allowing users to use token in game\r\n    bool private useFlag;\r\n\r\n    // map token id to umbl data\r\n    mapping(uint256 => UmblData) public allUmblData;\r\n    // check if token name exists\r\n    mapping(string => bool) public tokenNameExists;\r\n    // check if token URI exists\r\n    mapping(string => bool) public tokenURIExists;\r\n\r\n    // initialize contract while deployment with contract's token name and symbol\r\n    constructor() ERC721(\"Umbl NFT\", \"UMBL\") {\r\n        tokenName = name();\r\n        tokenSymbol = symbol();\r\n        tokenOwnerAddress = payable(msg.sender);\r\n        resellFlag = false;\r\n        useFlag = false;\r\n    }\r\n\r\n    // switch resell flag for marketplace feature\r\n    function toggleResell() public onlyOwner {\r\n        if(resellFlag == true) {\r\n            resellFlag = false;\r\n        } else {\r\n            resellFlag = true;\r\n        }\r\n    }\r\n\r\n    // switch use flag for game feature\r\n    function toggleUse() public onlyOwner {\r\n        if(useFlag == false) {\r\n            useFlag = true;\r\n        } else {\r\n            useFlag = false;\r\n        }\r\n    }\r\n\r\n    // mint a new token\r\n    function mintUmbl(string memory _name, string memory _tokenURI,  uint256 _price)\r\n        public onlyOwner\r\n        returns (uint256)\r\n    {\r\n        // check if this function caller is not an zero address account\r\n        require(msg.sender != address(0));\r\n\r\n        // increase token counter\r\n        tokenCounter ++;\r\n\r\n        // check if a token exists with the above token id => incremented counter\r\n        require(!_exists(tokenCounter));\r\n        // check if the token URI already exists or not\r\n        require(!tokenURIExists[_tokenURI]);\r\n        // check if the token name already exists or not\r\n        require(!tokenNameExists[_name]);\r\n\r\n        // mint the token\r\n        _mint(msg.sender, tokenCounter);\r\n        // set token URI\r\n        _setTokenURI(tokenCounter, _tokenURI);\r\n\r\n        // make passed token URI as exists\r\n        tokenURIExists[_tokenURI] = true;\r\n        // make passed token name as exists\r\n        tokenNameExists[_name] = true;\r\n\r\n        // create a new token struct and pass it new values\r\n        UmblData memory newUmblData = UmblData(\r\n            tokenCounter,\r\n            _name,\r\n            _tokenURI,\r\n            payable(msg.sender),\r\n            payable(msg.sender),\r\n            payable(address(0)),\r\n            _price,\r\n            0,\r\n            true\r\n        );\r\n\r\n        // add the token id and it's struct to all tokens mapping\r\n        allUmblData[tokenCounter] = newUmblData;\r\n\r\n        // return token id\r\n        return tokenCounter;\r\n    }\r\n\r\n    // get owner of the token\r\n    function getTokenOwner(uint256 _tokenId)\r\n        public view\r\n        returns(address) \r\n    {\r\n        address _tokenOwner = ownerOf(_tokenId);\r\n        return _tokenOwner;\r\n    }\r\n\r\n    // get metadata of the token\r\n    function getTokenMetaData(uint _tokenId)\r\n        public view\r\n        returns(string memory ) \r\n    {\r\n        string memory _tokenMetaData = tokenURI(_tokenId);\r\n        return _tokenMetaData;\r\n    }\r\n\r\n    // get total number of tokens minted so far\r\n    function getNumberOfTokenMinted()\r\n        public view\r\n        returns(uint256)\r\n    {\r\n        // uint256 _totalNumberOfTokensMinted = totalSupply();\r\n        uint256 _totalNumberOfTokensMinted = tokenCounter;\r\n        return _totalNumberOfTokensMinted;\r\n    }\r\n\r\n    // get total number of tokens owned by an address\r\n    function getTotalNumberOfTokensOwnedByAnAddress()\r\n        public view\r\n        returns(uint256)\r\n    {\r\n        uint256 _totalNumberOfTokensOwned = balanceOf(msg.sender);\r\n        return _totalNumberOfTokensOwned;\r\n    }\r\n\r\n    // check if the token already exists\r\n    function getTokenExists(uint256 _tokenId)\r\n        public view\r\n        returns(bool)\r\n    {\r\n        bool _tokenExists = _exists(_tokenId);\r\n        return _tokenExists;\r\n    }\r\n\r\n    // use token for game feature\r\n    function useToken(uint256 _tokenId) \r\n        public payable\r\n    {\r\n        // check if the use flag is true\r\n        require(useFlag == true);\r\n\r\n        // check if the function caller is not an zero address account\r\n        require(msg.sender != address(0));\r\n\r\n        // check if the token id of the token being bought exists or not\r\n        require(_exists(_tokenId));\r\n\r\n        // get the token's owner\r\n        address tokenOwner = ownerOf(_tokenId);\r\n\r\n        // token's owner should not be an zero address account\r\n        require(tokenOwner != address(0));\r\n\r\n        // check current call is same with the token's owner\r\n        require(tokenOwner == msg.sender);\r\n\r\n        // get the token from all UmblData mapping and create a memory of it as defined\r\n        UmblData memory umblData = allUmblData[_tokenId];\r\n\r\n        // transfer the token from owner to the contract owner\r\n        _transfer(tokenOwner, tokenOwnerAddress, _tokenId);\r\n\r\n        // update the token's previous owner\r\n        umblData.previousOwner = umblData.currentOwner;\r\n\r\n        // update the token's current owner\r\n        umblData.currentOwner = tokenOwnerAddress;\r\n\r\n        // update the token's transferred time\r\n        umblData.numberOfTransfers += 1;\r\n\r\n        // update the token's forSale to false\r\n        umblData.forSale = true;\r\n\r\n        // set and update that token in the mapping\r\n        allUmblData[_tokenId] = umblData;\r\n    }\r\n\r\n    // buy a token by passing in the token's id\r\n    function buyToken(uint256 _tokenId)\r\n        public payable\r\n    {        \r\n        // check if the function caller is not an zero address account\r\n        require(msg.sender != address(0));\r\n\r\n        // check if the token id of the token being bought exists or not\r\n        require(_exists(_tokenId));\r\n\r\n        // get the token's owner\r\n        address tokenOwner = ownerOf(_tokenId);\r\n\r\n        // token's owner should not be an zero address account\r\n        require(tokenOwner != address(0));\r\n\r\n        // the one who wants to buy the token should not be the token's owner\r\n        require(tokenOwner != msg.sender);\r\n\r\n        // get the token from all UmblData mapping and create a memory of it as defined\r\n        UmblData memory umblData = allUmblData[_tokenId];\r\n\r\n        // price sent in to buy should be equal to or more than the token's price\r\n        require(msg.value >= umblData.price);\r\n\r\n        // token should be for sale\r\n        require(umblData.forSale);\r\n\r\n        // transfer the token from owner to the caller of the function (buyer)\r\n        _transfer(tokenOwner, msg.sender, _tokenId);\r\n\r\n        // get owner of the token\r\n        address payable sendTo = umblData.currentOwner;\r\n\r\n        // get divided value of total token price\r\n        uint256 _priceToOwner = msg.value / 10;\r\n        uint256 _priceToSeller = msg.value - _priceToOwner;\r\n\r\n        // send 10% token's worth of bnb to the owner\r\n        tokenOwnerAddress.transfer(_priceToOwner);\r\n\r\n        // send 90% token's worth of bnb to the owner\r\n        sendTo.transfer(_priceToSeller);\r\n\r\n        // update the token's previous owner\r\n        umblData.previousOwner = umblData.currentOwner;\r\n\r\n        // update the token's current owner\r\n        umblData.currentOwner = payable(msg.sender);\r\n\r\n        // update the token's transferred time\r\n        umblData.numberOfTransfers += 1;\r\n\r\n        // update the token's forSale to false\r\n        umblData.forSale = false;\r\n\r\n        // set and update that token in the mapping\r\n        allUmblData[_tokenId] = umblData;\r\n    }\r\n\r\n    // update token's price\r\n    function changeTokenPrice(uint256 _tokenId, uint256 _newPrice)\r\n        public\r\n    {\r\n        // require caller of the function is not an empty address account\r\n        require(msg.sender != address(0));\r\n\r\n        // require that token should exist\r\n        require(_exists(_tokenId));\r\n\r\n        // get the token's owner\r\n        address _tokenOwner = ownerOf(_tokenId);\r\n\r\n        // check the token's owner should be equal to the caller of the function\r\n        require(_tokenOwner == msg.sender);\r\n\r\n        // get the token's struct from mapping and create a memory of it\r\n        UmblData memory umblData = allUmblData[_tokenId];\r\n\r\n        // update the token's price with new price\r\n        umblData.price = _newPrice;\r\n\r\n        // set and update the token in the mapping\r\n        allUmblData[_tokenId] = umblData;\r\n    }\r\n\r\n    // switch between set for sale and set not for sale\r\n    function toggleForSale(uint256 _tokenId)\r\n        public\r\n    {\r\n        // require the resell flag is true\r\n        require(resellFlag == true);\r\n\r\n        // require caller of the function is not an empty address account\r\n        require(msg.sender != address(0));\r\n\r\n        // require that token should exist\r\n        require(_exists(_tokenId));\r\n\r\n        // get the token's owner\r\n        address _tokenOwner = ownerOf(_tokenId);\r\n\r\n        // check the token's owner should be equal to the caller of the function\r\n        require(_tokenOwner == msg.sender);\r\n\r\n        // get the token's struct from mapping and create a memory of it\r\n        UmblData memory umblData = allUmblData[_tokenId];\r\n\r\n        // update the token's forSale\r\n        if(umblData.forSale) {\r\n            umblData.forSale = false;\r\n        } else {\r\n            umblData.forSale = true;\r\n        }\r\n\r\n        // set and update the token in the mapping\r\n        allUmblData[_tokenId] = umblData;\r\n    }\r\n}",
  "sourcePath": "E:/Projects/Umbrella/Work/Umbrella/Contract/contracts/UmblNFT.sol",
  "compiler": {
    "name": "solc",
    "version": "0.8.7+commit.e28d00a7.Emscripten.clang"
  },
  "schemaVersion": "3.4.1",
  "updatedAt": "2021-08-20T06:01:40.728Z",
  "devdoc": {
    "kind": "dev",
    "methods": {
      "approve(address,uint256)": {
        "details": "See {IERC721-approve}."
      },
      "balanceOf(address)": {
        "details": "See {IERC721-balanceOf}."
      },
      "getApproved(uint256)": {
        "details": "See {IERC721-getApproved}."
      },
      "isApprovedForAll(address,address)": {
        "details": "See {IERC721-isApprovedForAll}."
      },
      "name()": {
        "details": "See {IERC721Metadata-name}."
      },
      "owner()": {
        "details": "Returns the address of the current owner."
      },
      "ownerOf(uint256)": {
        "details": "See {IERC721-ownerOf}."
      },
      "renounceOwnership()": {
        "details": "Leaves the contract without owner. It will not be possible to call `onlyOwner` functions anymore. Can only be called by the current owner. NOTE: Renouncing ownership will leave the contract without an owner, thereby removing any functionality that is only available to the owner."
      },
      "safeTransferFrom(address,address,uint256)": {
        "details": "See {IERC721-safeTransferFrom}."
      },
      "safeTransferFrom(address,address,uint256,bytes)": {
        "details": "See {IERC721-safeTransferFrom}."
      },
      "setApprovalForAll(address,bool)": {
        "details": "See {IERC721-setApprovalForAll}."
      },
      "supportsInterface(bytes4)": {
        "details": "See {IERC165-supportsInterface}."
      },
      "symbol()": {
        "details": "See {IERC721Metadata-symbol}."
      },
      "tokenURI(uint256)": {
        "details": "See {IERC721Metadata-tokenURI}."
      },
      "transferFrom(address,address,uint256)": {
        "details": "See {IERC721-transferFrom}."
      },
      "transferOwnership(address)": {
        "details": "Transfers ownership of the contract to a new account (`newOwner`). Can only be called by the current owner."
      }
    },
    "version": 1
  },
  "userdoc": {
    "kind": "user",
    "methods": {},
    "version": 1
  }
}