{
  "contractName": "UmblNFT",
  "abi": [
    {
      "inputs": [
        {
          "internalType": "string",
          "name": "baseURI",
          "type": "string"
        }
      ],
      "stateMutability": "nonpayable",
      "type": "constructor"
    },
    {
      "anonymous": false,
      "inputs": [
        {
          "indexed": true,
          "internalType": "address",
          "name": "owner",
          "type": "address"
        },
        {
          "indexed": true,
          "internalType": "address",
          "name": "approved",
          "type": "address"
        },
        {
          "indexed": true,
          "internalType": "uint256",
          "name": "tokenId",
          "type": "uint256"
        }
      ],
      "name": "Approval",
      "type": "event"
    },
    {
      "anonymous": false,
      "inputs": [
        {
          "indexed": true,
          "internalType": "address",
          "name": "owner",
          "type": "address"
        },
        {
          "indexed": true,
          "internalType": "address",
          "name": "operator",
          "type": "address"
        },
        {
          "indexed": false,
          "internalType": "bool",
          "name": "approved",
          "type": "bool"
        }
      ],
      "name": "ApprovalForAll",
      "type": "event"
    },
    {
      "anonymous": false,
      "inputs": [
        {
          "indexed": true,
          "internalType": "address",
          "name": "previousOwner",
          "type": "address"
        },
        {
          "indexed": true,
          "internalType": "address",
          "name": "newOwner",
          "type": "address"
        }
      ],
      "name": "OwnershipTransferred",
      "type": "event"
    },
    {
      "anonymous": false,
      "inputs": [
        {
          "indexed": true,
          "internalType": "address",
          "name": "from",
          "type": "address"
        },
        {
          "indexed": true,
          "internalType": "address",
          "name": "to",
          "type": "address"
        },
        {
          "indexed": true,
          "internalType": "uint256",
          "name": "tokenId",
          "type": "uint256"
        }
      ],
      "name": "Transfer",
      "type": "event"
    },
    {
      "inputs": [],
      "name": "MAX_MINTING_TOKENS",
      "outputs": [
        {
          "internalType": "uint256",
          "name": "",
          "type": "uint256"
        }
      ],
      "stateMutability": "view",
      "type": "function"
    },
    {
      "inputs": [
        {
          "internalType": "address",
          "name": "to",
          "type": "address"
        },
        {
          "internalType": "uint256",
          "name": "tokenId",
          "type": "uint256"
        }
      ],
      "name": "approve",
      "outputs": [],
      "stateMutability": "nonpayable",
      "type": "function"
    },
    {
      "inputs": [
        {
          "internalType": "address",
          "name": "owner",
          "type": "address"
        }
      ],
      "name": "balanceOf",
      "outputs": [
        {
          "internalType": "uint256",
          "name": "",
          "type": "uint256"
        }
      ],
      "stateMutability": "view",
      "type": "function"
    },
    {
      "inputs": [
        {
          "internalType": "uint256",
          "name": "tokenId",
          "type": "uint256"
        }
      ],
      "name": "getApproved",
      "outputs": [
        {
          "internalType": "address",
          "name": "",
          "type": "address"
        }
      ],
      "stateMutability": "view",
      "type": "function"
    },
    {
      "inputs": [
        {
          "internalType": "address",
          "name": "owner",
          "type": "address"
        },
        {
          "internalType": "address",
          "name": "operator",
          "type": "address"
        }
      ],
      "name": "isApprovedForAll",
      "outputs": [
        {
          "internalType": "bool",
          "name": "",
          "type": "bool"
        }
      ],
      "stateMutability": "view",
      "type": "function"
    },
    {
      "inputs": [],
      "name": "isEnabledSale",
      "outputs": [
        {
          "internalType": "bool",
          "name": "",
          "type": "bool"
        }
      ],
      "stateMutability": "view",
      "type": "function"
    },
    {
      "inputs": [],
      "name": "name",
      "outputs": [
        {
          "internalType": "string",
          "name": "",
          "type": "string"
        }
      ],
      "stateMutability": "view",
      "type": "function"
    },
    {
      "inputs": [],
      "name": "nextTokenId",
      "outputs": [
        {
          "internalType": "uint256",
          "name": "",
          "type": "uint256"
        }
      ],
      "stateMutability": "view",
      "type": "function"
    },
    {
      "inputs": [],
      "name": "owner",
      "outputs": [
        {
          "internalType": "address",
          "name": "",
          "type": "address"
        }
      ],
      "stateMutability": "view",
      "type": "function"
    },
    {
      "inputs": [
        {
          "internalType": "uint256",
          "name": "tokenId",
          "type": "uint256"
        }
      ],
      "name": "ownerOf",
      "outputs": [
        {
          "internalType": "address",
          "name": "",
          "type": "address"
        }
      ],
      "stateMutability": "view",
      "type": "function"
    },
    {
      "inputs": [],
      "name": "renounceOwnership",
      "outputs": [],
      "stateMutability": "nonpayable",
      "type": "function"
    },
    {
      "inputs": [
        {
          "internalType": "address",
          "name": "from",
          "type": "address"
        },
        {
          "internalType": "address",
          "name": "to",
          "type": "address"
        },
        {
          "internalType": "uint256",
          "name": "tokenId",
          "type": "uint256"
        }
      ],
      "name": "safeTransferFrom",
      "outputs": [],
      "stateMutability": "nonpayable",
      "type": "function"
    },
    {
      "inputs": [
        {
          "internalType": "address",
          "name": "from",
          "type": "address"
        },
        {
          "internalType": "address",
          "name": "to",
          "type": "address"
        },
        {
          "internalType": "uint256",
          "name": "tokenId",
          "type": "uint256"
        },
        {
          "internalType": "bytes",
          "name": "_data",
          "type": "bytes"
        }
      ],
      "name": "safeTransferFrom",
      "outputs": [],
      "stateMutability": "nonpayable",
      "type": "function"
    },
    {
      "inputs": [
        {
          "internalType": "address",
          "name": "operator",
          "type": "address"
        },
        {
          "internalType": "bool",
          "name": "approved",
          "type": "bool"
        }
      ],
      "name": "setApprovalForAll",
      "outputs": [],
      "stateMutability": "nonpayable",
      "type": "function"
    },
    {
      "inputs": [],
      "name": "symbol",
      "outputs": [
        {
          "internalType": "string",
          "name": "",
          "type": "string"
        }
      ],
      "stateMutability": "view",
      "type": "function"
    },
    {
      "inputs": [
        {
          "internalType": "uint256",
          "name": "index",
          "type": "uint256"
        }
      ],
      "name": "tokenByIndex",
      "outputs": [
        {
          "internalType": "uint256",
          "name": "",
          "type": "uint256"
        }
      ],
      "stateMutability": "view",
      "type": "function"
    },
    {
      "inputs": [
        {
          "internalType": "address",
          "name": "owner",
          "type": "address"
        },
        {
          "internalType": "uint256",
          "name": "index",
          "type": "uint256"
        }
      ],
      "name": "tokenOfOwnerByIndex",
      "outputs": [
        {
          "internalType": "uint256",
          "name": "",
          "type": "uint256"
        }
      ],
      "stateMutability": "view",
      "type": "function"
    },
    {
      "inputs": [
        {
          "internalType": "uint256",
          "name": "",
          "type": "uint256"
        }
      ],
      "name": "tokenUmblData",
      "outputs": [
        {
          "internalType": "uint256",
          "name": "id",
          "type": "uint256"
        },
        {
          "internalType": "uint256",
          "name": "price",
          "type": "uint256"
        },
        {
          "internalType": "enum UmblNFT.TokenStatus",
          "name": "status",
          "type": "uint8"
        }
      ],
      "stateMutability": "view",
      "type": "function"
    },
    {
      "inputs": [],
      "name": "totalSupply",
      "outputs": [
        {
          "internalType": "uint256",
          "name": "",
          "type": "uint256"
        }
      ],
      "stateMutability": "view",
      "type": "function"
    },
    {
      "inputs": [
        {
          "internalType": "address",
          "name": "from",
          "type": "address"
        },
        {
          "internalType": "address",
          "name": "to",
          "type": "address"
        },
        {
          "internalType": "uint256",
          "name": "tokenId",
          "type": "uint256"
        }
      ],
      "name": "transferFrom",
      "outputs": [],
      "stateMutability": "nonpayable",
      "type": "function"
    },
    {
      "inputs": [
        {
          "internalType": "address",
          "name": "newOwner",
          "type": "address"
        }
      ],
      "name": "transferOwnership",
      "outputs": [],
      "stateMutability": "nonpayable",
      "type": "function"
    },
    {
      "inputs": [
        {
          "internalType": "address",
          "name": "_owner",
          "type": "address"
        }
      ],
      "name": "tokensOfOwner",
      "outputs": [
        {
          "internalType": "uint256[]",
          "name": "",
          "type": "uint256[]"
        }
      ],
      "stateMutability": "view",
      "type": "function"
    },
    {
      "inputs": [
        {
          "internalType": "uint256",
          "name": "numTokens",
          "type": "uint256"
        },
        {
          "internalType": "uint256",
          "name": "_price",
          "type": "uint256"
        }
      ],
      "name": "mint",
      "outputs": [],
      "stateMutability": "nonpayable",
      "type": "function"
    },
    {
      "inputs": [
        {
          "internalType": "uint256",
          "name": "_tokenId",
          "type": "uint256"
        }
      ],
      "name": "getTokenOwner",
      "outputs": [
        {
          "internalType": "address",
          "name": "",
          "type": "address"
        }
      ],
      "stateMutability": "view",
      "type": "function"
    },
    {
      "inputs": [
        {
          "internalType": "uint256",
          "name": "_tokenId",
          "type": "uint256"
        }
      ],
      "name": "getTokenMetaData",
      "outputs": [
        {
          "internalType": "string",
          "name": "",
          "type": "string"
        }
      ],
      "stateMutability": "view",
      "type": "function"
    },
    {
      "inputs": [],
      "name": "getTotalNumberOfTokensOwnedByAnAddress",
      "outputs": [
        {
          "internalType": "uint256",
          "name": "",
          "type": "uint256"
        }
      ],
      "stateMutability": "view",
      "type": "function"
    },
    {
      "inputs": [
        {
          "internalType": "uint256",
          "name": "_tokenId",
          "type": "uint256"
        },
        {
          "internalType": "enum UmblNFT.TokenStatus",
          "name": "_tokenStatus",
          "type": "uint8"
        }
      ],
      "name": "setTokenStatus",
      "outputs": [],
      "stateMutability": "payable",
      "type": "function"
    },
    {
      "inputs": [
        {
          "internalType": "uint256",
          "name": "_tokenId",
          "type": "uint256"
        }
      ],
      "name": "buyToken",
      "outputs": [],
      "stateMutability": "payable",
      "type": "function"
    },
    {
      "inputs": [
        {
          "internalType": "uint256",
          "name": "_tokenId",
          "type": "uint256"
        },
        {
          "internalType": "uint256",
          "name": "_newPrice",
          "type": "uint256"
        }
      ],
      "name": "changeTokenPrice",
      "outputs": [],
      "stateMutability": "nonpayable",
      "type": "function"
    },
    {
      "inputs": [
        {
          "internalType": "bytes4",
          "name": "interfaceId",
          "type": "bytes4"
        }
      ],
      "name": "supportsInterface",
      "outputs": [
        {
          "internalType": "bool",
          "name": "",
          "type": "bool"
        }
      ],
      "stateMutability": "view",
      "type": "function"
    },
    {
      "inputs": [],
      "name": "getMintedCount",
      "outputs": [
        {
          "internalType": "uint256",
          "name": "",
          "type": "uint256"
        }
      ],
      "stateMutability": "view",
      "type": "function"
    },
    {
      "inputs": [
        {
          "internalType": "uint256",
          "name": "tokenId",
          "type": "uint256"
        }
      ],
      "name": "tokenURI",
      "outputs": [
        {
          "internalType": "string",
          "name": "",
          "type": "string"
        }
      ],
      "stateMutability": "view",
      "type": "function"
    },
    {
      "inputs": [
        {
          "internalType": "string",
          "name": "baseURI",
          "type": "string"
        }
      ],
      "name": "setBaseURI",
      "outputs": [],
      "stateMutability": "nonpayable",
      "type": "function"
    },
    {
      "inputs": [],
      "name": "startMint",
      "outputs": [],
      "stateMutability": "nonpayable",
      "type": "function"
    },
    {
      "inputs": [],
      "name": "pauseMint",
      "outputs": [],
      "stateMutability": "nonpayable",
      "type": "function"
    }
  ],
  "bytecode": "0x60806040526000600c60006101000a81548160ff0219169083151502179055506000600f553480156200003157600080fd5b5060405162004e0f38038062004e0f83398181016040528101906200005791906200041c565b6040518060400160405280600881526020017f556d626c204e46540000000000000000000000000000000000000000000000008152506040518060400160405280600481526020017f554d424c000000000000000000000000000000000000000000000000000000008152508160009080519060200190620000db929190620002ee565b508060019080519060200190620000f4929190620002ee565b505050620001176200010b6200013760201b60201c565b6200013f60201b60201c565b6001600b8190555062000130816200020560201b60201c565b5062000674565b600033905090565b6000600a60009054906101000a900473ffffffffffffffffffffffffffffffffffffffff16905081600a60006101000a81548173ffffffffffffffffffffffffffffffffffffffff021916908373ffffffffffffffffffffffffffffffffffffffff1602179055508173ffffffffffffffffffffffffffffffffffffffff168173ffffffffffffffffffffffffffffffffffffffff167f8be0079c531659141344cd1fd0a4f28419497f9722a3daafe3b4186f6b6457e060405160405180910390a35050565b620002156200013760201b60201c565b73ffffffffffffffffffffffffffffffffffffffff166200023b620002a860201b60201c565b73ffffffffffffffffffffffffffffffffffffffff161462000294576040517f08c379a00000000000000000000000000000000000000000000000000000000081526004016200028b9062000494565b60405180910390fd5b620002a581620002d260201b60201c565b50565b6000600a60009054906101000a900473ffffffffffffffffffffffffffffffffffffffff16905090565b80600e9080519060200190620002ea929190620002ee565b5050565b828054620002fc906200055c565b90600052602060002090601f0160209004810192826200032057600085556200036c565b82601f106200033b57805160ff19168380011785556200036c565b828001600101855582156200036c579182015b828111156200036b5782518255916020019190600101906200034e565b5b5090506200037b91906200037f565b5090565b5b808211156200039a57600081600090555060010162000380565b5090565b6000620003b5620003af84620004df565b620004b6565b905082815260208101848484011115620003d457620003d36200062b565b5b620003e184828562000526565b509392505050565b600082601f83011262000401576200040062000626565b5b8151620004138482602086016200039e565b91505092915050565b60006020828403121562000435576200043462000635565b5b600082015167ffffffffffffffff81111562000456576200045562000630565b5b6200046484828501620003e9565b91505092915050565b60006200047c60208362000515565b915062000489826200064b565b602082019050919050565b60006020820190508181036000830152620004af816200046d565b9050919050565b6000620004c2620004d5565b9050620004d0828262000592565b919050565b6000604051905090565b600067ffffffffffffffff821115620004fd57620004fc620005f7565b5b62000508826200063a565b9050602081019050919050565b600082825260208201905092915050565b60005b838110156200054657808201518184015260208101905062000529565b8381111562000556576000848401525b50505050565b600060028204905060018216806200057557607f821691505b602082108114156200058c576200058b620005c8565b5b50919050565b6200059d826200063a565b810181811067ffffffffffffffff82111715620005bf57620005be620005f7565b5b80604052505050565b7f4e487b7100000000000000000000000000000000000000000000000000000000600052602260045260246000fd5b7f4e487b7100000000000000000000000000000000000000000000000000000000600052604160045260246000fd5b600080fd5b600080fd5b600080fd5b600080fd5b6000601f19601f8301169050919050565b7f4f776e61626c653a2063616c6c6572206973206e6f7420746865206f776e6572600082015250565b61478b80620006846000396000f3fe6080604052600436106102045760003560e01c806367c623cf11610118578063a5cd761f116100a0578063cf532b221161006f578063cf532b2214610780578063e985e9c5146107ab578063ebc9bd3b146107e8578063f2fde38b14610813578063f807427d1461083c57610204565b8063a5cd761f146106c6578063b88d4fde14610703578063c87b56dd1461072c578063cd85cdb51461076957610204565b80638462151c116100e75780638462151c146105df5780638da5cb5b1461061c57806395d89b4114610647578063a1841cac14610672578063a22cb4651461069d57610204565b806367c623cf1461052357806370a0823114610560578063715018a61461059d57806375794a3c146105b457610204565b806323b872dd1161019b57806342842e0e1161016a57806342842e0e1461042e5780634f6ccce71461045757806355f804b31461049457806362e8e8ac146104bd5780636352211e146104e657610204565b806323b872dd146103955780632be09561146103be5780632d296bf1146103d55780632f745c59146103f157610204565b80631280cb62116101d75780631280cb62146102d757806318160ddd146103165780631b2ef1ca146103415780631d4175a51461036a57610204565b806301ffc9a71461020957806306fdde0314610246578063081812fc14610271578063095ea7b3146102ae575b600080fd5b34801561021557600080fd5b50610230600480360381019061022b919061330f565b610858565b60405161023d9190613971565b60405180910390f35b34801561025257600080fd5b5061025b61086a565b604051610268919061398c565b60405180910390f35b34801561027d57600080fd5b50610298600480360381019061029391906133b2565b6108fc565b6040516102a591906138e8565b60405180910390f35b3480156102ba57600080fd5b506102d560048036038101906102d091906132cf565b610981565b005b3480156102e357600080fd5b506102fe60048036038101906102f991906133b2565b610a99565b60405161030d93929190613c49565b60405180910390f35b34801561032257600080fd5b5061032b610ad0565b6040516103389190613c2e565b60405180910390f35b34801561034d57600080fd5b506103686004803603810190610363919061341f565b610add565b005b34801561037657600080fd5b5061037f610ce1565b60405161038c9190613971565b60405180910390f35b3480156103a157600080fd5b506103bc60048036038101906103b791906131b9565b610cf4565b005b3480156103ca57600080fd5b506103d3610d54565b005b6103ef60048036038101906103ea91906133b2565b610ded565b005b3480156103fd57600080fd5b50610418600480360381019061041391906132cf565b611044565b6040516104259190613c2e565b60405180910390f35b34801561043a57600080fd5b50610455600480360381019061045091906131b9565b6110e9565b005b34801561046357600080fd5b5061047e600480360381019061047991906133b2565b611109565b60405161048b9190613c2e565b60405180910390f35b3480156104a057600080fd5b506104bb60048036038101906104b69190613369565b61117a565b005b3480156104c957600080fd5b506104e460048036038101906104df919061341f565b611202565b005b3480156104f257600080fd5b5061050d600480360381019061050891906133b2565b61132f565b60405161051a91906138e8565b60405180910390f35b34801561052f57600080fd5b5061054a600480360381019061054591906133b2565b6113e1565b604051610557919061398c565b60405180910390f35b34801561056c57600080fd5b506105876004803603810190610582919061314c565b6113f9565b6040516105949190613c2e565b60405180910390f35b3480156105a957600080fd5b506105b26114b1565b005b3480156105c057600080fd5b506105c9611539565b6040516105d69190613c2e565b60405180910390f35b3480156105eb57600080fd5b506106066004803603810190610601919061314c565b61153f565b604051610613919061394f565b60405180910390f35b34801561062857600080fd5b50610631611649565b60405161063e91906138e8565b60405180910390f35b34801561065357600080fd5b5061065c611673565b604051610669919061398c565b60405180910390f35b34801561067e57600080fd5b50610687611705565b6040516106949190613c2e565b60405180910390f35b3480156106a957600080fd5b506106c460048036038101906106bf919061328f565b61171a565b005b3480156106d257600080fd5b506106ed60048036038101906106e891906133b2565b61189b565b6040516106fa91906138e8565b60405180910390f35b34801561070f57600080fd5b5061072a6004803603810190610725919061320c565b6118b2565b005b34801561073857600080fd5b50610753600480360381019061074e91906133b2565b611914565b604051610760919061398c565b60405180910390f35b34801561077557600080fd5b5061077e61196a565b005b34801561078c57600080fd5b50610795611a03565b6040516107a29190613c2e565b60405180910390f35b3480156107b757600080fd5b506107d260048036038101906107cd9190613179565b611a0a565b6040516107df9190613971565b60405180910390f35b3480156107f457600080fd5b506107fd611a9e565b60405161080a9190613c2e565b60405180910390f35b34801561081f57600080fd5b5061083a6004803603810190610835919061314c565b611aa8565b005b610856600480360381019061085191906133df565b611ba0565b005b600061086382611d28565b9050919050565b60606000805461087990613f19565b80601f01602080910402602001604051908101604052809291908181526020018280546108a590613f19565b80156108f25780601f106108c7576101008083540402835291602001916108f2565b820191906000526020600020905b8154815290600101906020018083116108d557829003601f168201915b5050505050905090565b600061090782611da2565b610946576040517f08c379a000000000000000000000000000000000000000000000000000000000815260040161093d90613b2e565b60405180910390fd5b6004600083815260200190815260200160002060009054906101000a900473ffffffffffffffffffffffffffffffffffffffff169050919050565b600061098c8261132f565b90508073ffffffffffffffffffffffffffffffffffffffff168373ffffffffffffffffffffffffffffffffffffffff1614156109fd576040517f08c379a00000000000000000000000000000000000000000000000000000000081526004016109f490613bae565b60405180910390fd5b8073ffffffffffffffffffffffffffffffffffffffff16610a1c611e0e565b73ffffffffffffffffffffffffffffffffffffffff161480610a4b5750610a4a81610a45611e0e565b611a0a565b5b610a8a576040517f08c379a0000000000000000000000000000000000000000000000000000000008152600401610a8190613aae565b60405180910390fd5b610a948383611e16565b505050565b600d6020528060005260406000206000915090508060000154908060010154908060020160009054906101000a900460ff16905083565b6000600880549050905090565b610ae5611e0e565b73ffffffffffffffffffffffffffffffffffffffff16610b03611649565b73ffffffffffffffffffffffffffffffffffffffff1614610b59576040517f08c379a0000000000000000000000000000000000000000000000000000000008152600401610b5090613b4e565b60405180910390fd5b6002600b541415610b9f576040517f08c379a0000000000000000000000000000000000000000000000000000000008152600401610b9690613c0e565b60405180910390fd5b6002600b81905550600082118015610bba5750620186a08211155b610bf9576040517f08c379a0000000000000000000000000000000000000000000000000000000008152600401610bf0906139ae565b60405180910390fd5b60005b82811015610cd457600f6000815480929190610c1790613f7c565b9190505550610c2f610c27611649565b600f54611ecf565b60006040518060600160405280600f54815260200184815260200160006003811115610c5e57610c5d614054565b5b815250905080600d6000600f548152602001908152602001600020600082015181600001556020820151816001015560408201518160020160006101000a81548160ff02191690836003811115610cb857610cb7614054565b5b0217905550905050508080610ccc90613f7c565b915050610bfc565b506001600b819055505050565b600c60009054906101000a900460ff1681565b610d05610cff611e0e565b82611eed565b610d44576040517f08c379a0000000000000000000000000000000000000000000000000000000008152600401610d3b90613bce565b60405180910390fd5b610d4f838383611fcb565b505050565b610d5c611e0e565b73ffffffffffffffffffffffffffffffffffffffff16610d7a611649565b73ffffffffffffffffffffffffffffffffffffffff1614610dd0576040517f08c379a0000000000000000000000000000000000000000000000000000000008152600401610dc790613b4e565b60405180910390fd5b6001600c60006101000a81548160ff021916908315150217905550565b600073ffffffffffffffffffffffffffffffffffffffff163373ffffffffffffffffffffffffffffffffffffffff161415610e2757600080fd5b610e3081611da2565b610e3957600080fd5b6000610e448261132f565b9050600073ffffffffffffffffffffffffffffffffffffffff168173ffffffffffffffffffffffffffffffffffffffff161415610e8057600080fd5b3373ffffffffffffffffffffffffffffffffffffffff168173ffffffffffffffffffffffffffffffffffffffff161415610eb957600080fd5b6000600d600084815260200190815260200160002060405180606001604052908160008201548152602001600182015481526020016002820160009054906101000a900460ff166003811115610f1257610f11614054565b5b6003811115610f2457610f23614054565b5b8152505090508060200151341015610f3b57600080fd5b60016003811115610f4f57610f4e614054565b5b81604001516003811115610f6657610f65614054565b5b14610f7057600080fd5b610f7b823385611fcb565b60008290506000610f8a611649565b90506000600a34610f9b9190613dd9565b905060008134610fab9190613e0a565b90508273ffffffffffffffffffffffffffffffffffffffff166108fc839081150290604051600060405180830381858888f19350505050158015610ff3573d6000803e3d6000fd5b508373ffffffffffffffffffffffffffffffffffffffff166108fc829081150290604051600060405180830381858888f1935050505015801561103a573d6000803e3d6000fd5b5050505050505050565b600061104f836113f9565b8210611090576040517f08c379a0000000000000000000000000000000000000000000000000000000008152600401611087906139ce565b60405180910390fd5b600660008473ffffffffffffffffffffffffffffffffffffffff1673ffffffffffffffffffffffffffffffffffffffff168152602001908152602001600020600083815260200190815260200160002054905092915050565b611104838383604051806020016040528060008152506118b2565b505050565b6000611113610ad0565b8210611154576040517f08c379a000000000000000000000000000000000000000000000000000000000815260040161114b90613bee565b60405180910390fd5b60088281548110611168576111676140e1565b5b90600052602060002001549050919050565b611182611e0e565b73ffffffffffffffffffffffffffffffffffffffff166111a0611649565b73ffffffffffffffffffffffffffffffffffffffff16146111f6576040517f08c379a00000000000000000000000000000000000000000000000000000000081526004016111ed90613b4e565b60405180910390fd5b6111ff81612227565b50565b61120b82611da2565b61121457600080fd5b3373ffffffffffffffffffffffffffffffffffffffff166112348361132f565b73ffffffffffffffffffffffffffffffffffffffff161461125457600080fd5b6000600d600084815260200190815260200160002060405180606001604052908160008201548152602001600182015481526020016002820160009054906101000a900460ff1660038111156112ad576112ac614054565b5b60038111156112bf576112be614054565b5b8152505090508181602001818152505080600d6000858152602001908152602001600020600082015181600001556020820151816001015560408201518160020160006101000a81548160ff0219169083600381111561132257611321614054565b5b0217905550905050505050565b6000806002600084815260200190815260200160002060009054906101000a900473ffffffffffffffffffffffffffffffffffffffff169050600073ffffffffffffffffffffffffffffffffffffffff168173ffffffffffffffffffffffffffffffffffffffff1614156113d8576040517f08c379a00000000000000000000000000000000000000000000000000000000081526004016113cf90613aee565b60405180910390fd5b80915050919050565b606060006113ee83611914565b905080915050919050565b60008073ffffffffffffffffffffffffffffffffffffffff168273ffffffffffffffffffffffffffffffffffffffff16141561146a576040517f08c379a000000000000000000000000000000000000000000000000000000000815260040161146190613ace565b60405180910390fd5b600360008373ffffffffffffffffffffffffffffffffffffffff1673ffffffffffffffffffffffffffffffffffffffff168152602001908152602001600020549050919050565b6114b9611e0e565b73ffffffffffffffffffffffffffffffffffffffff166114d7611649565b73ffffffffffffffffffffffffffffffffffffffff161461152d576040517f08c379a000000000000000000000000000000000000000000000000000000000815260040161152490613b4e565b60405180910390fd5b6115376000612241565b565b600f5481565b6060600061154c836113f9565b905060008114156115a957600067ffffffffffffffff81111561157257611571614110565b5b6040519080825280602002602001820160405280156115a05781602001602082028036833780820191505090505b50915050611644565b60008167ffffffffffffffff8111156115c5576115c4614110565b5b6040519080825280602002602001820160405280156115f35781602001602082028036833780820191505090505b50905060005b8281101561163d5761160b8582611044565b82828151811061161e5761161d6140e1565b5b602002602001018181525050808061163590613f7c565b9150506115f9565b8193505050505b919050565b6000600a60009054906101000a900473ffffffffffffffffffffffffffffffffffffffff16905090565b60606001805461168290613f19565b80601f01602080910402602001604051908101604052809291908181526020018280546116ae90613f19565b80156116fb5780601f106116d0576101008083540402835291602001916116fb565b820191906000526020600020905b8154815290600101906020018083116116de57829003601f168201915b5050505050905090565b600080611711336113f9565b90508091505090565b611722611e0e565b73ffffffffffffffffffffffffffffffffffffffff168273ffffffffffffffffffffffffffffffffffffffff161415611790576040517f08c379a000000000000000000000000000000000000000000000000000000000815260040161178790613a6e565b60405180910390fd5b806005600061179d611e0e565b73ffffffffffffffffffffffffffffffffffffffff1673ffffffffffffffffffffffffffffffffffffffff16815260200190815260200160002060008473ffffffffffffffffffffffffffffffffffffffff1673ffffffffffffffffffffffffffffffffffffffff16815260200190815260200160002060006101000a81548160ff0219169083151502179055508173ffffffffffffffffffffffffffffffffffffffff1661184a611e0e565b73ffffffffffffffffffffffffffffffffffffffff167f17307eab39ab6107e8899845ad3d59bd9653f200f220920489ca2b5937696c318360405161188f9190613971565b60405180910390a35050565b6000806118a78361132f565b905080915050919050565b6118c36118bd611e0e565b83611eed565b611902576040517f08c379a00000000000000000000000000000000000000000000000000000000081526004016118f990613bce565b60405180910390fd5b61190e84848484612307565b50505050565b6060600061192183612363565b905060008151116119415760405180602001604052806000815250611962565b8060405160200161195291906138c6565b6040516020818303038152906040525b915050919050565b611972611e0e565b73ffffffffffffffffffffffffffffffffffffffff16611990611649565b73ffffffffffffffffffffffffffffffffffffffff16146119e6576040517f08c379a00000000000000000000000000000000000000000000000000000000081526004016119dd90613b4e565b60405180910390fd5b6000600c60006101000a81548160ff021916908315150217905550565b620186a081565b6000600560008473ffffffffffffffffffffffffffffffffffffffff1673ffffffffffffffffffffffffffffffffffffffff16815260200190815260200160002060008373ffffffffffffffffffffffffffffffffffffffff1673ffffffffffffffffffffffffffffffffffffffff16815260200190815260200160002060009054906101000a900460ff16905092915050565b6000600f54905090565b611ab0611e0e565b73ffffffffffffffffffffffffffffffffffffffff16611ace611649565b73ffffffffffffffffffffffffffffffffffffffff1614611b24576040517f08c379a0000000000000000000000000000000000000000000000000000000008152600401611b1b90613b4e565b60405180910390fd5b600073ffffffffffffffffffffffffffffffffffffffff168173ffffffffffffffffffffffffffffffffffffffff161415611b94576040517f08c379a0000000000000000000000000000000000000000000000000000000008152600401611b8b90613a0e565b60405180910390fd5b611b9d81612241565b50565b611ba982611da2565b611bb257600080fd5b3373ffffffffffffffffffffffffffffffffffffffff16611bd28361132f565b73ffffffffffffffffffffffffffffffffffffffff1614611bf257600080fd5b6000600d600084815260200190815260200160002060405180606001604052908160008201548152602001600182015481526020016002820160009054906101000a900460ff166003811115611c4b57611c4a614054565b5b6003811115611c5d57611c5c614054565b5b815250509050816003811115611c7657611c75614054565b5b81604001516003811115611c8d57611c8c614054565b5b1415611c9857600080fd5b8181604001906003811115611cb057611caf614054565b5b90816003811115611cc457611cc3614054565b5b8152505080600d6000858152602001908152602001600020600082015181600001556020820151816001015560408201518160020160006101000a81548160ff02191690836003811115611d1b57611d1a614054565b5b0217905550905050505050565b60007f780e9d63000000000000000000000000000000000000000000000000000000007bffffffffffffffffffffffffffffffffffffffffffffffffffffffff1916827bffffffffffffffffffffffffffffffffffffffffffffffffffffffff19161480611d9b5750611d9a8261240a565b5b9050919050565b60008073ffffffffffffffffffffffffffffffffffffffff166002600084815260200190815260200160002060009054906101000a900473ffffffffffffffffffffffffffffffffffffffff1673ffffffffffffffffffffffffffffffffffffffff1614159050919050565b600033905090565b816004600083815260200190815260200160002060006101000a81548173ffffffffffffffffffffffffffffffffffffffff021916908373ffffffffffffffffffffffffffffffffffffffff160217905550808273ffffffffffffffffffffffffffffffffffffffff16611e898361132f565b73ffffffffffffffffffffffffffffffffffffffff167f8c5be1e5ebec7d5bd14f71427d1e84f3dd0314c0f7b2291e5b200ac8c7c3b92560405160405180910390a45050565b611ee98282604051806020016040528060008152506124ec565b5050565b6000611ef882611da2565b611f37576040517f08c379a0000000000000000000000000000000000000000000000000000000008152600401611f2e90613a8e565b60405180910390fd5b6000611f428361132f565b90508073ffffffffffffffffffffffffffffffffffffffff168473ffffffffffffffffffffffffffffffffffffffff161480611fb157508373ffffffffffffffffffffffffffffffffffffffff16611f99846108fc565b73ffffffffffffffffffffffffffffffffffffffff16145b80611fc25750611fc18185611a0a565b5b91505092915050565b8273ffffffffffffffffffffffffffffffffffffffff16611feb8261132f565b73ffffffffffffffffffffffffffffffffffffffff1614612041576040517f08c379a000000000000000000000000000000000000000000000000000000000815260040161203890613b6e565b60405180910390fd5b600073ffffffffffffffffffffffffffffffffffffffff168273ffffffffffffffffffffffffffffffffffffffff1614156120b1576040517f08c379a00000000000000000000000000000000000000000000000000000000081526004016120a890613a4e565b60405180910390fd5b6120bc838383612547565b6120c7600082611e16565b6001600360008573ffffffffffffffffffffffffffffffffffffffff1673ffffffffffffffffffffffffffffffffffffffff16815260200190815260200160002060008282546121179190613e0a565b925050819055506001600360008473ffffffffffffffffffffffffffffffffffffffff1673ffffffffffffffffffffffffffffffffffffffff168152602001908152602001600020600082825461216e9190613d83565b92505081905550816002600083815260200190815260200160002060006101000a81548173ffffffffffffffffffffffffffffffffffffffff021916908373ffffffffffffffffffffffffffffffffffffffff160217905550808273ffffffffffffffffffffffffffffffffffffffff168473ffffffffffffffffffffffffffffffffffffffff167fddf252ad1be2c89b69c2b068fc378daa952ba7f163c4a11628f55a4df523b3ef60405160405180910390a4505050565b80600e908051906020019061223d929190612f4b565b5050565b6000600a60009054906101000a900473ffffffffffffffffffffffffffffffffffffffff16905081600a60006101000a81548173ffffffffffffffffffffffffffffffffffffffff021916908373ffffffffffffffffffffffffffffffffffffffff1602179055508173ffffffffffffffffffffffffffffffffffffffff168173ffffffffffffffffffffffffffffffffffffffff167f8be0079c531659141344cd1fd0a4f28419497f9722a3daafe3b4186f6b6457e060405160405180910390a35050565b612312848484611fcb565b61231e84848484612557565b61235d576040517f08c379a0000000000000000000000000000000000000000000000000000000008152600401612354906139ee565b60405180910390fd5b50505050565b606061236e82611da2565b6123ad576040517f08c379a00000000000000000000000000000000000000000000000000000000081526004016123a490613b8e565b60405180910390fd5b60006123b76126ee565b905060008151116123d75760405180602001604052806000815250612402565b806123e184612780565b6040516020016123f29291906138a2565b6040516020818303038152906040525b915050919050565b60007f80ac58cd000000000000000000000000000000000000000000000000000000007bffffffffffffffffffffffffffffffffffffffffffffffffffffffff1916827bffffffffffffffffffffffffffffffffffffffffffffffffffffffff191614806124d557507f5b5e139f000000000000000000000000000000000000000000000000000000007bffffffffffffffffffffffffffffffffffffffffffffffffffffffff1916827bffffffffffffffffffffffffffffffffffffffffffffffffffffffff1916145b806124e557506124e4826128e1565b5b9050919050565b6124f6838361294b565b6125036000848484612557565b612542576040517f08c379a0000000000000000000000000000000000000000000000000000000008152600401612539906139ee565b60405180910390fd5b505050565b612552838383612b19565b505050565b60006125788473ffffffffffffffffffffffffffffffffffffffff16612c2d565b156126e1578373ffffffffffffffffffffffffffffffffffffffff1663150b7a026125a1611e0e565b8786866040518563ffffffff1660e01b81526004016125c39493929190613903565b602060405180830381600087803b1580156125dd57600080fd5b505af192505050801561260e57506040513d601f19601f8201168201806040525081019061260b919061333c565b60015b612691573d806000811461263e576040519150601f19603f3d011682016040523d82523d6000602084013e612643565b606091505b50600081511415612689576040517f08c379a0000000000000000000000000000000000000000000000000000000008152600401612680906139ee565b60405180910390fd5b805181602001fd5b63150b7a0260e01b7bffffffffffffffffffffffffffffffffffffffffffffffffffffffff1916817bffffffffffffffffffffffffffffffffffffffffffffffffffffffff1916149150506126e6565b600190505b949350505050565b6060600e80546126fd90613f19565b80601f016020809104026020016040519081016040528092919081815260200182805461272990613f19565b80156127765780601f1061274b57610100808354040283529160200191612776565b820191906000526020600020905b81548152906001019060200180831161275957829003601f168201915b5050505050905090565b606060008214156127c8576040518060400160405280600181526020017f300000000000000000000000000000000000000000000000000000000000000081525090506128dc565b600082905060005b600082146127fa5780806127e390613f7c565b915050600a826127f39190613dd9565b91506127d0565b60008167ffffffffffffffff81111561281657612815614110565b5b6040519080825280601f01601f1916602001820160405280156128485781602001600182028036833780820191505090505b5090505b600085146128d5576001826128619190613e0a565b9150600a856128709190613fc5565b603061287c9190613d83565b60f81b818381518110612892576128916140e1565b5b60200101907effffffffffffffffffffffffffffffffffffffffffffffffffffffffffffff1916908160001a905350600a856128ce9190613dd9565b945061284c565b8093505050505b919050565b60007f01ffc9a7000000000000000000000000000000000000000000000000000000007bffffffffffffffffffffffffffffffffffffffffffffffffffffffff1916827bffffffffffffffffffffffffffffffffffffffffffffffffffffffff1916149050919050565b600073ffffffffffffffffffffffffffffffffffffffff168273ffffffffffffffffffffffffffffffffffffffff1614156129bb576040517f08c379a00000000000000000000000000000000000000000000000000000000081526004016129b290613b0e565b60405180910390fd5b6129c481611da2565b15612a04576040517f08c379a00000000000000000000000000000000000000000000000000000000081526004016129fb90613a2e565b60405180910390fd5b612a1060008383612547565b6001600360008473ffffffffffffffffffffffffffffffffffffffff1673ffffffffffffffffffffffffffffffffffffffff1681526020019081526020016000206000828254612a609190613d83565b92505081905550816002600083815260200190815260200160002060006101000a81548173ffffffffffffffffffffffffffffffffffffffff021916908373ffffffffffffffffffffffffffffffffffffffff160217905550808273ffffffffffffffffffffffffffffffffffffffff16600073ffffffffffffffffffffffffffffffffffffffff167fddf252ad1be2c89b69c2b068fc378daa952ba7f163c4a11628f55a4df523b3ef60405160405180910390a45050565b612b24838383612c40565b600073ffffffffffffffffffffffffffffffffffffffff168373ffffffffffffffffffffffffffffffffffffffff161415612b6757612b6281612c45565b612ba6565b8173ffffffffffffffffffffffffffffffffffffffff168373ffffffffffffffffffffffffffffffffffffffff1614612ba557612ba48382612c8e565b5b5b600073ffffffffffffffffffffffffffffffffffffffff168273ffffffffffffffffffffffffffffffffffffffff161415612be957612be481612dfb565b612c28565b8273ffffffffffffffffffffffffffffffffffffffff168273ffffffffffffffffffffffffffffffffffffffff1614612c2757612c268282612ecc565b5b5b505050565b600080823b905060008111915050919050565b505050565b6008805490506009600083815260200190815260200160002081905550600881908060018154018082558091505060019003906000526020600020016000909190919091505550565b60006001612c9b846113f9565b612ca59190613e0a565b9050600060076000848152602001908152602001600020549050818114612d8a576000600660008673ffffffffffffffffffffffffffffffffffffffff1673ffffffffffffffffffffffffffffffffffffffff168152602001908152602001600020600084815260200190815260200160002054905080600660008773ffffffffffffffffffffffffffffffffffffffff1673ffffffffffffffffffffffffffffffffffffffff168152602001908152602001600020600084815260200190815260200160002081905550816007600083815260200190815260200160002081905550505b6007600084815260200190815260200160002060009055600660008573ffffffffffffffffffffffffffffffffffffffff1673ffffffffffffffffffffffffffffffffffffffff16815260200190815260200160002060008381526020019081526020016000206000905550505050565b60006001600880549050612e0f9190613e0a565b9050600060096000848152602001908152602001600020549050600060088381548110612e3f57612e3e6140e1565b5b906000526020600020015490508060088381548110612e6157612e606140e1565b5b906000526020600020018190555081600960008381526020019081526020016000208190555060096000858152602001908152602001600020600090556008805480612eb057612eaf6140b2565b5b6001900381819060005260206000200160009055905550505050565b6000612ed7836113f9565b905081600660008573ffffffffffffffffffffffffffffffffffffffff1673ffffffffffffffffffffffffffffffffffffffff168152602001908152602001600020600083815260200190815260200160002081905550806007600084815260200190815260200160002081905550505050565b828054612f5790613f19565b90600052602060002090601f016020900481019282612f795760008555612fc0565b82601f10612f9257805160ff1916838001178555612fc0565b82800160010185558215612fc0579182015b82811115612fbf578251825591602001919060010190612fa4565b5b509050612fcd9190612fd1565b5090565b5b80821115612fea576000816000905550600101612fd2565b5090565b6000613001612ffc84613ca5565b613c80565b90508281526020810184848401111561301d5761301c614144565b5b613028848285613ed7565b509392505050565b600061304361303e84613cd6565b613c80565b90508281526020810184848401111561305f5761305e614144565b5b61306a848285613ed7565b509392505050565b600081359050613081816146e9565b92915050565b60008135905061309681614700565b92915050565b6000813590506130ab81614717565b92915050565b6000815190506130c081614717565b92915050565b600082601f8301126130db576130da61413f565b5b81356130eb848260208601612fee565b91505092915050565b6000813590506131038161472e565b92915050565b600082601f83011261311e5761311d61413f565b5b813561312e848260208601613030565b91505092915050565b6000813590506131468161473e565b92915050565b6000602082840312156131625761316161414e565b5b600061317084828501613072565b91505092915050565b600080604083850312156131905761318f61414e565b5b600061319e85828601613072565b92505060206131af85828601613072565b9150509250929050565b6000806000606084860312156131d2576131d161414e565b5b60006131e086828701613072565b93505060206131f186828701613072565b925050604061320286828701613137565b9150509250925092565b600080600080608085870312156132265761322561414e565b5b600061323487828801613072565b945050602061324587828801613072565b935050604061325687828801613137565b925050606085013567ffffffffffffffff81111561327757613276614149565b5b613283878288016130c6565b91505092959194509250565b600080604083850312156132a6576132a561414e565b5b60006132b485828601613072565b92505060206132c585828601613087565b9150509250929050565b600080604083850312156132e6576132e561414e565b5b60006132f485828601613072565b925050602061330585828601613137565b9150509250929050565b6000602082840312156133255761332461414e565b5b60006133338482850161309c565b91505092915050565b6000602082840312156133525761335161414e565b5b6000613360848285016130b1565b91505092915050565b60006020828403121561337f5761337e61414e565b5b600082013567ffffffffffffffff81111561339d5761339c614149565b5b6133a984828501613109565b91505092915050565b6000602082840312156133c8576133c761414e565b5b60006133d684828501613137565b91505092915050565b600080604083850312156133f6576133f561414e565b5b600061340485828601613137565b9250506020613415858286016130f4565b9150509250929050565b600080604083850312156134365761343561414e565b5b600061344485828601613137565b925050602061345585828601613137565b9150509250929050565b600061346b8383613884565b60208301905092915050565b61348081613e3e565b82525050565b600061349182613d17565b61349b8185613d45565b93506134a683613d07565b8060005b838110156134d75781516134be888261345f565b97506134c983613d38565b9250506001810190506134aa565b5085935050505092915050565b6134ed81613e50565b82525050565b60006134fe82613d22565b6135088185613d56565b9350613518818560208601613ee6565b61352181614153565b840191505092915050565b61353581613ec5565b82525050565b600061354682613d2d565b6135508185613d67565b9350613560818560208601613ee6565b61356981614153565b840191505092915050565b600061357f82613d2d565b6135898185613d78565b9350613599818560208601613ee6565b80840191505092915050565b60006135b2601f83613d67565b91506135bd82614164565b602082019050919050565b60006135d5602b83613d67565b91506135e08261418d565b604082019050919050565b60006135f8603283613d67565b9150613603826141dc565b604082019050919050565b600061361b602683613d67565b91506136268261422b565b604082019050919050565b600061363e601c83613d67565b91506136498261427a565b602082019050919050565b6000613661602483613d67565b915061366c826142a3565b604082019050919050565b6000613684601983613d67565b915061368f826142f2565b602082019050919050565b60006136a7602c83613d67565b91506136b28261431b565b604082019050919050565b60006136ca603883613d67565b91506136d58261436a565b604082019050919050565b60006136ed602a83613d67565b91506136f8826143b9565b604082019050919050565b6000613710602983613d67565b915061371b82614408565b604082019050919050565b6000613733602083613d67565b915061373e82614457565b602082019050919050565b6000613756602c83613d67565b915061376182614480565b604082019050919050565b6000613779600583613d78565b9150613784826144cf565b600582019050919050565b600061379c602083613d67565b91506137a7826144f8565b602082019050919050565b60006137bf602983613d67565b91506137ca82614521565b604082019050919050565b60006137e2602f83613d67565b91506137ed82614570565b604082019050919050565b6000613805602183613d67565b9150613810826145bf565b604082019050919050565b6000613828603183613d67565b91506138338261460e565b604082019050919050565b600061384b602c83613d67565b91506138568261465d565b604082019050919050565b600061386e601f83613d67565b9150613879826146ac565b602082019050919050565b61388d81613ebb565b82525050565b61389c81613ebb565b82525050565b60006138ae8285613574565b91506138ba8284613574565b91508190509392505050565b60006138d28284613574565b91506138dd8261376c565b915081905092915050565b60006020820190506138fd6000830184613477565b92915050565b60006080820190506139186000830187613477565b6139256020830186613477565b6139326040830185613893565b818103606083015261394481846134f3565b905095945050505050565b600060208201905081810360008301526139698184613486565b905092915050565b600060208201905061398660008301846134e4565b92915050565b600060208201905081810360008301526139a6818461353b565b905092915050565b600060208201905081810360008301526139c7816135a5565b9050919050565b600060208201905081810360008301526139e7816135c8565b9050919050565b60006020820190508181036000830152613a07816135eb565b9050919050565b60006020820190508181036000830152613a278161360e565b9050919050565b60006020820190508181036000830152613a4781613631565b9050919050565b60006020820190508181036000830152613a6781613654565b9050919050565b60006020820190508181036000830152613a8781613677565b9050919050565b60006020820190508181036000830152613aa78161369a565b9050919050565b60006020820190508181036000830152613ac7816136bd565b9050919050565b60006020820190508181036000830152613ae7816136e0565b9050919050565b60006020820190508181036000830152613b0781613703565b9050919050565b60006020820190508181036000830152613b2781613726565b9050919050565b60006020820190508181036000830152613b4781613749565b9050919050565b60006020820190508181036000830152613b678161378f565b9050919050565b60006020820190508181036000830152613b87816137b2565b9050919050565b60006020820190508181036000830152613ba7816137d5565b9050919050565b60006020820190508181036000830152613bc7816137f8565b9050919050565b60006020820190508181036000830152613be78161381b565b9050919050565b60006020820190508181036000830152613c078161383e565b9050919050565b60006020820190508181036000830152613c2781613861565b9050919050565b6000602082019050613c436000830184613893565b92915050565b6000606082019050613c5e6000830186613893565b613c6b6020830185613893565b613c78604083018461352c565b949350505050565b6000613c8a613c9b565b9050613c968282613f4b565b919050565b6000604051905090565b600067ffffffffffffffff821115613cc057613cbf614110565b5b613cc982614153565b9050602081019050919050565b600067ffffffffffffffff821115613cf157613cf0614110565b5b613cfa82614153565b9050602081019050919050565b6000819050602082019050919050565b600081519050919050565b600081519050919050565b600081519050919050565b6000602082019050919050565b600082825260208201905092915050565b600082825260208201905092915050565b600082825260208201905092915050565b600081905092915050565b6000613d8e82613ebb565b9150613d9983613ebb565b9250827fffffffffffffffffffffffffffffffffffffffffffffffffffffffffffffffff03821115613dce57613dcd613ff6565b5b828201905092915050565b6000613de482613ebb565b9150613def83613ebb565b925082613dff57613dfe614025565b5b828204905092915050565b6000613e1582613ebb565b9150613e2083613ebb565b925082821015613e3357613e32613ff6565b5b828203905092915050565b6000613e4982613e9b565b9050919050565b60008115159050919050565b60007fffffffff0000000000000000000000000000000000000000000000000000000082169050919050565b6000819050613e96826146d5565b919050565b600073ffffffffffffffffffffffffffffffffffffffff82169050919050565b6000819050919050565b6000613ed082613e88565b9050919050565b82818337600083830152505050565b60005b83811015613f04578082015181840152602081019050613ee9565b83811115613f13576000848401525b50505050565b60006002820490506001821680613f3157607f821691505b60208210811415613f4557613f44614083565b5b50919050565b613f5482614153565b810181811067ffffffffffffffff82111715613f7357613f72614110565b5b80604052505050565b6000613f8782613ebb565b91507fffffffffffffffffffffffffffffffffffffffffffffffffffffffffffffffff821415613fba57613fb9613ff6565b5b600182019050919050565b6000613fd082613ebb565b9150613fdb83613ebb565b925082613feb57613fea614025565b5b828206905092915050565b7f4e487b7100000000000000000000000000000000000000000000000000000000600052601160045260246000fd5b7f4e487b7100000000000000000000000000000000000000000000000000000000600052601260045260246000fd5b7f4e487b7100000000000000000000000000000000000000000000000000000000600052602160045260246000fd5b7f4e487b7100000000000000000000000000000000000000000000000000000000600052602260045260246000fd5b7f4e487b7100000000000000000000000000000000000000000000000000000000600052603160045260246000fd5b7f4e487b7100000000000000000000000000000000000000000000000000000000600052603260045260246000fd5b7f4e487b7100000000000000000000000000000000000000000000000000000000600052604160045260246000fd5b600080fd5b600080fd5b600080fd5b600080fd5b6000601f19601f8301169050919050565b7f4d757374206d696e742066726f6d203120746f20313030303030204e46547300600082015250565b7f455243373231456e756d657261626c653a206f776e657220696e646578206f7560008201527f74206f6620626f756e6473000000000000000000000000000000000000000000602082015250565b7f4552433732313a207472616e7366657220746f206e6f6e20455243373231526560008201527f63656976657220696d706c656d656e7465720000000000000000000000000000602082015250565b7f4f776e61626c653a206e6577206f776e657220697320746865207a65726f206160008201527f6464726573730000000000000000000000000000000000000000000000000000602082015250565b7f4552433732313a20746f6b656e20616c7265616479206d696e74656400000000600082015250565b7f4552433732313a207472616e7366657220746f20746865207a65726f2061646460008201527f7265737300000000000000000000000000000000000000000000000000000000602082015250565b7f4552433732313a20617070726f766520746f2063616c6c657200000000000000600082015250565b7f4552433732313a206f70657261746f7220717565727920666f72206e6f6e657860008201527f697374656e7420746f6b656e0000000000000000000000000000000000000000602082015250565b7f4552433732313a20617070726f76652063616c6c6572206973206e6f74206f7760008201527f6e6572206e6f7220617070726f76656420666f7220616c6c0000000000000000602082015250565b7f4552433732313a2062616c616e636520717565727920666f7220746865207a6560008201527f726f206164647265737300000000000000000000000000000000000000000000602082015250565b7f4552433732313a206f776e657220717565727920666f72206e6f6e657869737460008201527f656e7420746f6b656e0000000000000000000000000000000000000000000000602082015250565b7f4552433732313a206d696e7420746f20746865207a65726f2061646472657373600082015250565b7f4552433732313a20617070726f76656420717565727920666f72206e6f6e657860008201527f697374656e7420746f6b656e0000000000000000000000000000000000000000602082015250565b7f2e6a736f6e000000000000000000000000000000000000000000000000000000600082015250565b7f4f776e61626c653a2063616c6c6572206973206e6f7420746865206f776e6572600082015250565b7f4552433732313a207472616e73666572206f6620746f6b656e2074686174206960008201527f73206e6f74206f776e0000000000000000000000000000000000000000000000602082015250565b7f4552433732314d657461646174613a2055524920717565727920666f72206e6f60008201527f6e6578697374656e7420746f6b656e0000000000000000000000000000000000602082015250565b7f4552433732313a20617070726f76616c20746f2063757272656e74206f776e6560008201527f7200000000000000000000000000000000000000000000000000000000000000602082015250565b7f4552433732313a207472616e736665722063616c6c6572206973206e6f74206f60008201527f776e6572206e6f7220617070726f766564000000000000000000000000000000602082015250565b7f455243373231456e756d657261626c653a20676c6f62616c20696e646578206f60008201527f7574206f6620626f756e64730000000000000000000000000000000000000000602082015250565b7f5265656e7472616e637947756172643a207265656e7472616e742063616c6c00600082015250565b600481106146e6576146e5614054565b5b50565b6146f281613e3e565b81146146fd57600080fd5b50565b61470981613e50565b811461471457600080fd5b50565b61472081613e5c565b811461472b57600080fd5b50565b6004811061473b57600080fd5b50565b61474781613ebb565b811461475257600080fd5b5056fea26469706673582212204dd3cea1c4247e3a8391700e9b9a780a2aea84da73fb823b0861b6320895514164736f6c63430008070033",
  "immutableReferences": {},
  "source": "// contracts/UmblNFT.sol\r\n// SPDX-License-Identifier: MIT\r\npragma solidity ^0.8.0;\r\n\r\nimport \"./ERC721.sol\";\r\nimport \"./ERC721Enumerable.sol\";\r\nimport \"./Ownable.sol\";\r\nimport \"./ReentrancyGuard.sol\";\r\nimport \"./ERC165.sol\";\r\nimport \"./Strings.sol\";\r\nimport \"./Ownable.sol\";\r\nimport \"./SafeMath.sol\";\r\n\r\ncontract UmblNFT is ERC721, ERC721Enumerable, Ownable, ReentrancyGuard {    \r\n    using SafeMath for uint8;\r\n    using SafeMath for uint256;\r\n    using Strings for string;\r\n\r\n    uint public constant MAX_MINTING_TOKENS = 100000;\r\n\r\n    enum TokenStatus { \r\n        MINTED, \r\n        PURCHASED, \r\n        EQUIPPED,\r\n        STAKED \r\n    }\r\n\r\n    // token data structure    \r\n    struct UmblData {\r\n        uint256 id;\r\n        uint256 price;\r\n        TokenStatus status;\r\n    }\r\n\r\n    // Flag for sale feature enable/disable\r\n    bool public isEnabledSale = false;\r\n\r\n    // map token id to umbl data\r\n    mapping(uint256 => UmblData) public tokenUmblData;\r\n\r\n    string private _baseTokenURI;\r\n    uint public nextTokenId = 0;\r\n\r\n    // initialize contract while deployment with contract's token name and symbol\r\n    constructor(string memory baseURI) ERC721(\"Umbl NFT\", \"UMBL\") {\r\n        setBaseURI(baseURI);\r\n    }  \r\n\r\n    /*\r\n    * Get the tokens owned by _owner\r\n    */\r\n    function tokensOfOwner(address _owner) \r\n        external \r\n        view \r\n        returns(uint256[] memory ) \r\n    {\r\n        uint256 tokenCount = balanceOf(_owner);\r\n        if (tokenCount == 0) {\r\n            // Return an empty array\r\n            return new uint256[](0);\r\n        } else {\r\n            uint256[] memory result = new uint256[](tokenCount);\r\n            uint256 index;\r\n            for (index = 0; index < tokenCount; index++) {\r\n                result[index] = tokenOfOwnerByIndex(_owner, index);\r\n            }\r\n            return result;\r\n        }\r\n    }\r\n\r\n    // Minting multiple tokens\r\n    function mint(uint256 numTokens, uint256 _price) \r\n        public \r\n        onlyOwner \r\n        nonReentrant \r\n    {\r\n        require(numTokens > 0 && numTokens <= MAX_MINTING_TOKENS, \"Must mint from 1 to 100000 NFTs\");\r\n\r\n        // mint all of these tokens\r\n        for(uint i=0; i<numTokens; i++) {\r\n            // increase next token ID\r\n            nextTokenId++;\r\n\r\n            // mint token\r\n            _safeMint(owner(), nextTokenId);\r\n\r\n            // create a new token struct and pass it new values\r\n            UmblData memory newUmblData = UmblData(\r\n                nextTokenId,\r\n                _price,\r\n                TokenStatus.MINTED\r\n            );\r\n\r\n            // add the token id and it's struct to all tokens mapping\r\n            tokenUmblData[nextTokenId] = newUmblData;\r\n        }\r\n    }\r\n\r\n    // get owner of the token\r\n    function getTokenOwner(uint256 _tokenId)\r\n        public view\r\n        returns(address) \r\n    {\r\n        address _tokenOwner = ownerOf(_tokenId);\r\n        return _tokenOwner;\r\n    }\r\n\r\n    // get metadata of the token\r\n    function getTokenMetaData(uint _tokenId)\r\n        public view\r\n        returns(string memory ) \r\n    {\r\n        string memory _tokenMetaData = tokenURI(_tokenId);\r\n        return _tokenMetaData;\r\n    }\r\n\r\n    // get total number of tokens owned by an address\r\n    function getTotalNumberOfTokensOwnedByAnAddress()\r\n        public view\r\n        returns(uint256)\r\n    {\r\n        uint256 _totalNumberOfTokensOwned = balanceOf(msg.sender);\r\n        return _totalNumberOfTokensOwned;\r\n    }\r\n\r\n    // Enable token isEquipped flag, lock it on saleso that lock it on sale\r\n    function setTokenStatus(uint256 _tokenId, TokenStatus _tokenStatus) \r\n        public payable\r\n    {\r\n        // require that token should exist\r\n        require(_exists(_tokenId));\r\n\r\n        // check current call is same with the token's owner\r\n        require(ownerOf(_tokenId) == msg.sender);\r\n\r\n        // get the token from all UmblData mapping and create a memory of it as defined\r\n        UmblData memory umblData = tokenUmblData[_tokenId];\r\n\r\n        // check current token status is not same with parameter\r\n        require(umblData.status != _tokenStatus);\r\n\r\n        // update the token's forSale to false\r\n        umblData.status = _tokenStatus;\r\n\r\n        // set and update that token in the mapping\r\n        tokenUmblData[_tokenId] = umblData;\r\n    }\r\n\r\n    // buy a token by passing in the token's id\r\n    function buyToken(uint256 _tokenId)\r\n        public payable\r\n    {        \r\n        // check if the function caller is not an zero address account\r\n        require(msg.sender != address(0));\r\n\r\n        // check if the token id of the token being bought exists or not\r\n        require(_exists(_tokenId));\r\n\r\n        // get the token's owner\r\n        address tokenOwner = ownerOf(_tokenId);\r\n\r\n        // token's owner should not be an zero address account\r\n        require(tokenOwner != address(0));\r\n\r\n        // the one who wants to buy the token should not be the token's owner\r\n        require(tokenOwner != msg.sender);\r\n\r\n        // get the token from all UmblData mapping and create a memory of it as defined\r\n        UmblData memory umblData = tokenUmblData[_tokenId];\r\n\r\n        // price sent in to buy should be equal to or more than the token's price\r\n        require(msg.value >= umblData.price);\r\n\r\n        // token should be for sale\r\n        require(umblData.status == TokenStatus.PURCHASED);\r\n\r\n        // transfer the token from owner to the caller of the function (buyer)\r\n        _transfer(tokenOwner, msg.sender, _tokenId);\r\n\r\n        // get owner of the token\r\n        address payable sendTo = payable(tokenOwner);\r\n        address payable tokenOwnerAddress = payable(owner());\r\n\r\n        // get divided value of total token price\r\n        uint256 _priceToOwner = msg.value / 10;\r\n        uint256 _priceToSeller = msg.value - _priceToOwner;\r\n\r\n        // send 10% token's worth of bnb to the owner\r\n        tokenOwnerAddress.transfer(_priceToOwner);\r\n\r\n        // send 90% token's worth of bnb to the owner\r\n        sendTo.transfer(_priceToSeller);\r\n    }\r\n\r\n    // update token's price\r\n    function changeTokenPrice(uint256 _tokenId, uint256 _newPrice)\r\n        public\r\n    {\r\n        // require that token should exist\r\n        require(_exists(_tokenId));\r\n\r\n        // check the token's owner should be equal to the caller of the function\r\n        require(ownerOf(_tokenId) == msg.sender);\r\n\r\n        // get the token's struct from mapping and create a memory of it\r\n        UmblData memory umblData = tokenUmblData[_tokenId];\r\n\r\n        // update the token's price with new price\r\n        umblData.price = _newPrice;\r\n\r\n        // set and update the token in the mapping\r\n        tokenUmblData[_tokenId] = umblData;\r\n    }\r\n\r\n    function _beforeTokenTransfer(address from, address to, uint256 tokenId)\r\n        internal\r\n        override(ERC721, ERC721Enumerable)\r\n    {\r\n        super._beforeTokenTransfer(from, to, tokenId);\r\n    }\r\n\r\n    function supportsInterface(bytes4 interfaceId)\r\n        public\r\n        view\r\n        override(ERC721, ERC721Enumerable)\r\n        returns (bool)\r\n    {\r\n        return super.supportsInterface(interfaceId);\r\n    }\r\n\r\n    function _baseURI() \r\n        internal \r\n        view \r\n        override \r\n        returns (string memory) \r\n    {\r\n        return _baseTokenURI;\r\n    }\r\n\r\n    function getMintedCount() \r\n        public \r\n        view \r\n        returns(uint) \r\n    {\r\n        return nextTokenId;\r\n    }\r\n\r\n    function tokenURI(uint256 tokenId) \r\n        public \r\n        view \r\n        override(ERC721) \r\n        returns (string memory) \r\n    {\r\n        string memory _tokenURI = super.tokenURI(tokenId);\r\n        return bytes(_tokenURI).length > 0 ? string(abi.encodePacked(_tokenURI, \".json\")) : \"\";\r\n    }      \r\n\r\n    function _setBaseURI(string memory baseURI) \r\n        internal \r\n        virtual \r\n    {\r\n        _baseTokenURI = baseURI;\r\n    }\r\n\r\n    // Administrative zone\r\n    function setBaseURI(string memory baseURI) \r\n        public \r\n        onlyOwner \r\n    {\r\n        _setBaseURI(baseURI);\r\n    }\r\n\r\n    function startMint() \r\n        public \r\n        onlyOwner \r\n    {\r\n        isEnabledSale = true;\r\n    }\r\n\r\n    function pauseMint() \r\n        public \r\n        onlyOwner \r\n    {\r\n        isEnabledSale = false;\r\n    }\r\n}\r\n",
  "sourcePath": "E:/Projects/Umbrella/Work/Umbrella/Contract/contracts/UmblNFT.sol",
  "compiler": {
    "name": "solc",
    "version": "0.8.7+commit.e28d00a7.Emscripten.clang"
  },
  "schemaVersion": "3.4.1",
  "updatedAt": "2021-08-30T07:51:35.717Z",
  "devdoc": {
    "kind": "dev",
    "methods": {
      "approve(address,uint256)": {
        "details": "See {IERC721-approve}."
      },
      "balanceOf(address)": {
        "details": "See {IERC721-balanceOf}."
      },
      "getApproved(uint256)": {
        "details": "See {IERC721-getApproved}."
      },
      "isApprovedForAll(address,address)": {
        "details": "See {IERC721-isApprovedForAll}."
      },
      "name()": {
        "details": "See {IERC721Metadata-name}."
      },
      "owner()": {
        "details": "Returns the address of the current owner."
      },
      "ownerOf(uint256)": {
        "details": "See {IERC721-ownerOf}."
      },
      "renounceOwnership()": {
        "details": "Leaves the contract without owner. It will not be possible to call `onlyOwner` functions anymore. Can only be called by the current owner. NOTE: Renouncing ownership will leave the contract without an owner, thereby removing any functionality that is only available to the owner."
      },
      "safeTransferFrom(address,address,uint256)": {
        "details": "See {IERC721-safeTransferFrom}."
      },
      "safeTransferFrom(address,address,uint256,bytes)": {
        "details": "See {IERC721-safeTransferFrom}."
      },
      "setApprovalForAll(address,bool)": {
        "details": "See {IERC721-setApprovalForAll}."
      },
      "symbol()": {
        "details": "See {IERC721Metadata-symbol}."
      },
      "tokenByIndex(uint256)": {
        "details": "See {IERC721Enumerable-tokenByIndex}."
      },
      "tokenOfOwnerByIndex(address,uint256)": {
        "details": "See {IERC721Enumerable-tokenOfOwnerByIndex}."
      },
      "tokenURI(uint256)": {
        "details": "See {IERC721Metadata-tokenURI}."
      },
      "totalSupply()": {
        "details": "See {IERC721Enumerable-totalSupply}."
      },
      "transferFrom(address,address,uint256)": {
        "details": "See {IERC721-transferFrom}."
      },
      "transferOwnership(address)": {
        "details": "Transfers ownership of the contract to a new account (`newOwner`). Can only be called by the current owner."
      }
    },
    "version": 1
  },
  "userdoc": {
    "kind": "user",
    "methods": {},
    "version": 1
  }
}